{
  "contracts/mini-chef-zapper/MiniChefV2Zapper.sol": {
    "MiniChefV2Zapper": {
      "abi": [
        {
          "inputs": [
            {
              "internalType": "address",
              "name": "_router",
              "type": "address"
            },
            {
              "internalType": "address",
              "name": "_miniChefV2",
              "type": "address"
            },
            {
              "internalType": "address",
              "name": "_WAVAX",
              "type": "address"
            }
          ],
          "stateMutability": "nonpayable",
          "type": "constructor"
        },
        {
          "inputs": [],
          "name": "WAVAX",
          "outputs": [
            {
              "internalType": "address",
              "name": "",
              "type": "address"
            }
          ],
          "stateMutability": "view",
          "type": "function"
        },
        {
          "inputs": [
            {
              "internalType": "address",
              "name": "pairAddress",
              "type": "address"
            },
            {
              "internalType": "address",
              "name": "tokenIn",
              "type": "address"
            },
            {
              "internalType": "uint256",
              "name": "fullInvestmentIn",
              "type": "uint256"
            }
          ],
          "name": "estimateSwap",
          "outputs": [
            {
              "internalType": "uint256",
              "name": "swapAmountIn",
              "type": "uint256"
            },
            {
              "internalType": "uint256",
              "name": "swapAmountOut",
              "type": "uint256"
            },
            {
              "internalType": "address",
              "name": "swapTokenOut",
              "type": "address"
            }
          ],
          "stateMutability": "view",
          "type": "function"
        },
        {
          "inputs": [],
          "name": "miniChefV2",
          "outputs": [
            {
              "internalType": "contract IMiniChefV2",
              "name": "",
              "type": "address"
            }
          ],
          "stateMutability": "view",
          "type": "function"
        },
        {
          "inputs": [],
          "name": "minimumAmount",
          "outputs": [
            {
              "internalType": "uint256",
              "name": "",
              "type": "uint256"
            }
          ],
          "stateMutability": "view",
          "type": "function"
        },
        {
          "inputs": [],
          "name": "router",
          "outputs": [
            {
              "internalType": "contract IArcanumRouter",
              "name": "",
              "type": "address"
            }
          ],
          "stateMutability": "view",
          "type": "function"
        },
        {
          "inputs": [
            {
              "internalType": "address",
              "name": "pairAddress",
              "type": "address"
            },
            {
              "internalType": "address",
              "name": "tokenIn",
              "type": "address"
            },
            {
              "internalType": "uint256",
              "name": "tokenInAmount",
              "type": "uint256"
            },
            {
              "internalType": "uint256",
              "name": "tokenAmountOutMin",
              "type": "uint256"
            }
          ],
          "name": "zapIn",
          "outputs": [],
          "stateMutability": "nonpayable",
          "type": "function"
        },
        {
          "inputs": [
            {
              "internalType": "address",
              "name": "pairAddress",
              "type": "address"
            },
            {
              "internalType": "uint256",
              "name": "tokenAmountOutMin",
              "type": "uint256"
            }
          ],
          "name": "zapInAVAX",
          "outputs": [],
          "stateMutability": "payable",
          "type": "function"
        },
        {
          "inputs": [
            {
              "internalType": "address",
              "name": "pairAddress",
              "type": "address"
            },
            {
              "internalType": "address",
              "name": "tokenIn",
              "type": "address"
            },
            {
              "internalType": "uint256",
              "name": "tokenInAmount",
              "type": "uint256"
            },
            {
              "internalType": "uint256",
              "name": "tokenAmountOutMin",
              "type": "uint256"
            },
            {
              "internalType": "uint256",
              "name": "pid",
              "type": "uint256"
            }
          ],
          "name": "zapInAndFarm",
          "outputs": [],
          "stateMutability": "nonpayable",
          "type": "function"
        },
        {
          "inputs": [
            {
              "internalType": "address",
              "name": "pairAddress",
              "type": "address"
            },
            {
              "internalType": "uint256",
              "name": "tokenAmountOutMin",
              "type": "uint256"
            },
            {
              "internalType": "uint256",
              "name": "pid",
              "type": "uint256"
            }
          ],
          "name": "zapInAndFarmAVAX",
          "outputs": [],
          "stateMutability": "payable",
          "type": "function"
        },
        {
          "inputs": [
            {
              "internalType": "address",
              "name": "pairAddress",
              "type": "address"
            },
            {
              "internalType": "address",
              "name": "tokenIn",
              "type": "address"
            },
            {
              "internalType": "uint256",
              "name": "tokenInAmount",
              "type": "uint256"
            },
            {
              "internalType": "uint256",
              "name": "tokenAmountOutMin",
              "type": "uint256"
            },
            {
              "internalType": "uint256",
              "name": "pid",
              "type": "uint256"
            },
            {
              "internalType": "uint256",
              "name": "deadline",
              "type": "uint256"
            },
            {
              "internalType": "uint8",
              "name": "v",
              "type": "uint8"
            },
            {
              "internalType": "bytes32",
              "name": "r",
              "type": "bytes32"
            },
            {
              "internalType": "bytes32",
              "name": "s",
              "type": "bytes32"
            }
          ],
          "name": "zapInAndFarmViaPermit",
          "outputs": [],
          "stateMutability": "nonpayable",
          "type": "function"
        },
        {
          "inputs": [
            {
              "internalType": "address",
              "name": "pairAddress",
              "type": "address"
            },
            {
              "internalType": "address",
              "name": "tokenIn",
              "type": "address"
            },
            {
              "internalType": "uint256",
              "name": "tokenInAmount",
              "type": "uint256"
            },
            {
              "internalType": "uint256",
              "name": "tokenAmountOutMin",
              "type": "uint256"
            },
            {
              "internalType": "uint256",
              "name": "deadline",
              "type": "uint256"
            },
            {
              "internalType": "uint8",
              "name": "v",
              "type": "uint8"
            },
            {
              "internalType": "bytes32",
              "name": "r",
              "type": "bytes32"
            },
            {
              "internalType": "bytes32",
              "name": "s",
              "type": "bytes32"
            }
          ],
          "name": "zapInViaPermit",
          "outputs": [],
          "stateMutability": "nonpayable",
          "type": "function"
        },
        {
          "inputs": [
            {
              "internalType": "address",
              "name": "pairAddress",
              "type": "address"
            },
            {
              "internalType": "uint256",
              "name": "withdrawAmount",
              "type": "uint256"
            },
            {
              "internalType": "address",
              "name": "to",
              "type": "address"
            }
          ],
          "name": "zapOut",
          "outputs": [],
          "stateMutability": "nonpayable",
          "type": "function"
        },
        {
          "inputs": [
            {
              "internalType": "address",
              "name": "pairAddress",
              "type": "address"
            },
            {
              "internalType": "uint256",
              "name": "withdrawAmount",
              "type": "uint256"
            },
            {
              "internalType": "address",
              "name": "desiredToken",
              "type": "address"
            },
            {
              "internalType": "uint256",
              "name": "desiredTokenOutMin",
              "type": "uint256"
            },
            {
              "internalType": "address",
              "name": "to",
              "type": "address"
            }
          ],
          "name": "zapOutAndSwap",
          "outputs": [],
          "stateMutability": "nonpayable",
          "type": "function"
        },
        {
          "inputs": [
            {
              "internalType": "address",
              "name": "pairAddress",
              "type": "address"
            },
            {
              "internalType": "uint256",
              "name": "withdrawAmount",
              "type": "uint256"
            },
            {
              "internalType": "uint256",
              "name": "desiredAVAXOutMin",
              "type": "uint256"
            },
            {
              "internalType": "address",
              "name": "to",
              "type": "address"
            }
          ],
          "name": "zapOutAndSwapAVAX",
          "outputs": [],
          "stateMutability": "nonpayable",
          "type": "function"
        },
        {
          "inputs": [
            {
              "internalType": "address",
              "name": "pairAddress",
              "type": "address"
            },
            {
              "internalType": "uint256",
              "name": "withdrawAmount",
              "type": "uint256"
            },
            {
              "internalType": "uint256",
              "name": "desiredAVAXOutMin",
              "type": "uint256"
            },
            {
              "internalType": "address",
              "name": "to",
              "type": "address"
            },
            {
              "internalType": "uint256",
              "name": "deadline",
              "type": "uint256"
            },
            {
              "internalType": "uint8",
              "name": "v",
              "type": "uint8"
            },
            {
              "internalType": "bytes32",
              "name": "r",
              "type": "bytes32"
            },
            {
              "internalType": "bytes32",
              "name": "s",
              "type": "bytes32"
            }
          ],
          "name": "zapOutAndSwapAVAXViaPermit",
          "outputs": [],
          "stateMutability": "nonpayable",
          "type": "function"
        },
        {
          "inputs": [
            {
              "internalType": "address",
              "name": "pairAddress",
              "type": "address"
            },
            {
              "internalType": "uint256",
              "name": "withdrawAmount",
              "type": "uint256"
            },
            {
              "internalType": "address",
              "name": "desiredToken",
              "type": "address"
            },
            {
              "internalType": "uint256",
              "name": "desiredTokenOutMin",
              "type": "uint256"
            },
            {
              "internalType": "address",
              "name": "to",
              "type": "address"
            },
            {
              "internalType": "uint256",
              "name": "deadline",
              "type": "uint256"
            },
            {
              "internalType": "uint8",
              "name": "v",
              "type": "uint8"
            },
            {
              "internalType": "bytes32",
              "name": "r",
              "type": "bytes32"
            },
            {
              "internalType": "bytes32",
              "name": "s",
              "type": "bytes32"
            }
          ],
          "name": "zapOutAndSwapViaPermit",
          "outputs": [],
          "stateMutability": "nonpayable",
          "type": "function"
        },
        {
          "inputs": [
            {
              "internalType": "address",
              "name": "pairAddress",
              "type": "address"
            },
            {
              "internalType": "uint256",
              "name": "withdrawAmount",
              "type": "uint256"
            },
            {
              "internalType": "address",
              "name": "to",
              "type": "address"
            },
            {
              "internalType": "uint256",
              "name": "deadline",
              "type": "uint256"
            },
            {
              "internalType": "uint8",
              "name": "v",
              "type": "uint8"
            },
            {
              "internalType": "bytes32",
              "name": "r",
              "type": "bytes32"
            },
            {
              "internalType": "bytes32",
              "name": "s",
              "type": "bytes32"
            }
          ],
          "name": "zapOutViaPermit",
          "outputs": [],
          "stateMutability": "nonpayable",
          "type": "function"
        },
        {
          "stateMutability": "payable",
          "type": "receive"
        }
      ],
      "evm": {
        "bytecode": {
          "linkReferences": {},
          "object": "60e06040523480156200001157600080fd5b50604051620046a0380380620046a083398181016040528101906200003791906200021a565b8073ffffffffffffffffffffffffffffffffffffffff1663d0e30db060006040518263ffffffff1660e01b81526004016000604051808303818588803b1580156200008157600080fd5b505af115801562000096573d6000803e3d6000fd5b50505050508073ffffffffffffffffffffffffffffffffffffffff16632e1a7d4d60006040518263ffffffff1660e01b8152600401620000d79190620002cd565b600060405180830381600087803b158015620000f257600080fd5b505af115801562000107573d6000803e3d6000fd5b505050508273ffffffffffffffffffffffffffffffffffffffff1660808173ffffffffffffffffffffffffffffffffffffffff16815250508173ffffffffffffffffffffffffffffffffffffffff1660a08173ffffffffffffffffffffffffffffffffffffffff16815250508073ffffffffffffffffffffffffffffffffffffffff1660c08173ffffffffffffffffffffffffffffffffffffffff1681525050505050620002ea565b600080fd5b600073ffffffffffffffffffffffffffffffffffffffff82169050919050565b6000620001e282620001b5565b9050919050565b620001f481620001d5565b81146200020057600080fd5b50565b6000815190506200021481620001e9565b92915050565b600080600060608486031215620002365762000235620001b0565b5b6000620002468682870162000203565b9350506020620002598682870162000203565b92505060406200026c8682870162000203565b9150509250925092565b6000819050919050565b6000819050919050565b6000819050919050565b6000620002b5620002af620002a98462000276565b6200028a565b62000280565b9050919050565b620002c78162000294565b82525050565b6000602082019050620002e46000830184620002bc565b92915050565b60805160a05160c0516142f3620003ad6000396000818161010901528181610674015281816106f9015281816113da015281816114b3015281816115380152818161156b01528181611595015261163101526000818161058201528181610ccf0152818161132701528181611f110152611f37015260008181610aa401528181610aca0152818161118f015281816116ee01528181611ca801528181611cd001528181611db201528181611dda01528181612462015261250401526142f36000f3fe6080604052600436106101025760003560e01c80634b7f636311610095578063aaa2ed8011610064578063aaa2ed8014610356578063bb0c82981461037f578063bdc49cd4146103aa578063f887ea40146103d3578063ff2d28b5146103fe57610165565b80634b7f6363146102bb5780634e3c9b35146102e657806373b295c21461030f578063a90ea90a1461033a57610165565b80632e042c6c116100d15780632e042c6c14610201578063375b9c891461022a5780633c3b1ef6146102535780633f2f869a1461027c57610165565b806306a4fa4a1461016a5780630aa62b391461019357806312709e1e146101af5780632bce72b6146101d857610165565b36610165577f000000000000000000000000000000000000000000000000000000000000000073ffffffffffffffffffffffffffffffffffffffff163373ffffffffffffffffffffffffffffffffffffffff1614610163576101626129df565b5b005b600080fd5b34801561017657600080fd5b50610191600480360381019061018c9190612b25565b610427565b005b6101ad60048036038101906101a89190612bdb565b6104b4565b005b3480156101bb57600080fd5b506101d660048036038101906101d19190612c2e565b610726565b005b3480156101e457600080fd5b506101ff60048036038101906101fa9190612ce4565b6107b3565b005b34801561020d57600080fd5b5061022860048036038101906102239190612d5f565b610c01565b005b34801561023657600080fd5b50610251600480360381019061024c9190612dda565b610de0565b005b34801561025f57600080fd5b5061027a60048036038101906102759190612ea4565b610e6f565b005b34801561028857600080fd5b506102a3600480360381019061029e9190612f0b565b610f44565b6040516102b293929190612f7c565b60405180910390f35b3480156102c757600080fd5b506102d0611325565b6040516102dd9190613012565b60405180910390f35b3480156102f257600080fd5b5061030d6004803603810190610308919061302d565b611349565b005b34801561031b57600080fd5b506103246113d8565b60405161033191906130f7565b60405180910390f35b610354600480360381019061034f9190613112565b6113fc565b005b34801561036257600080fd5b5061037d60048036038101906103789190613152565b611564565b005b34801561038b57600080fd5b506103946116cb565b6040516103a191906131b9565b60405180910390f35b3480156103b657600080fd5b506103d160048036038101906103cc91906131d4565b6116d1565b005b3480156103df57600080fd5b506103e86116ec565b6040516103f59190613248565b60405180910390f35b34801561040a57600080fd5b5061042560048036038101906104209190613263565b611710565b005b8673ffffffffffffffffffffffffffffffffffffffff1663d505accf333089888888886040518863ffffffff1660e01b815260040161046c9796959493929190613323565b600060405180830381600087803b15801561048657600080fd5b505af115801561049a573d6000803e3d6000fd5b505050506104aa88888888610e6f565b5050505050505050565b6103e83410156104f9576040517f08c379a00000000000000000000000000000000000000000000000000000000081526004016104f0906133ef565b60405180910390fd5b600073ffffffffffffffffffffffffffffffffffffffff168373ffffffffffffffffffffffffffffffffffffffff161415610569576040517f08c379a00000000000000000000000000000000000000000000000000000000081526004016105609061345b565b60405180910390fd5b8273ffffffffffffffffffffffffffffffffffffffff167f000000000000000000000000000000000000000000000000000000000000000073ffffffffffffffffffffffffffffffffffffffff166378ed5d1f836040518263ffffffff1660e01b81526004016105d991906131b9565b6020604051808303816000875af11580156105f8573d6000803e3d6000fd5b505050506040513d601f19601f8201168201806040525081019061061c9190613490565b73ffffffffffffffffffffffffffffffffffffffff1614610672576040517f08c379a00000000000000000000000000000000000000000000000000000000081526004016106699061352f565b60405180910390fd5b7f000000000000000000000000000000000000000000000000000000000000000073ffffffffffffffffffffffffffffffffffffffff1663d0e30db0346040518263ffffffff1660e01b81526004016000604051808303818588803b1580156106da57600080fd5b505af11580156106ee573d6000803e3d6000fd5b5050505050610721837f00000000000000000000000000000000000000000000000000000000000000008484600161179b565b505050565b8773ffffffffffffffffffffffffffffffffffffffff1663d505accf33308a888888886040518863ffffffff1660e01b815260040161076b9796959493929190613323565b600060405180830381600087803b15801561078557600080fd5b505af1158015610799573d6000803e3d6000fd5b505050506107a988888888611564565b5050505050505050565b600085905060008173ffffffffffffffffffffffffffffffffffffffff16630dfe16816040518163ffffffff1660e01b8152600401602060405180830381865afa158015610805573d6000803e3d6000fd5b505050506040513d601f19601f820116820180604052508101906108299190613490565b905060008273ffffffffffffffffffffffffffffffffffffffff1663d21220a76040518163ffffffff1660e01b8152600401602060405180830381865afa158015610878573d6000803e3d6000fd5b505050506040513d601f19601f8201168201806040525081019061089c9190613490565b90508573ffffffffffffffffffffffffffffffffffffffff168273ffffffffffffffffffffffffffffffffffffffff16148061090357508573ffffffffffffffffffffffffffffffffffffffff168173ffffffffffffffffffffffffffffffffffffffff16145b610942576040517f08c379a0000000000000000000000000000000000000000000000000000000008152600401610939906135c1565b60405180910390fd5b61094e8833308a611fe0565b6109588830612119565b60008673ffffffffffffffffffffffffffffffffffffffff168273ffffffffffffffffffffffffffffffffffffffff16146109935781610995565b825b90506000600267ffffffffffffffff8111156109b4576109b36135e1565b5b6040519080825280602002602001820160405280156109e25781602001602082028036833780820191505090505b50905081816000815181106109fa576109f9613610565b5b602002602001019073ffffffffffffffffffffffffffffffffffffffff16908173ffffffffffffffffffffffffffffffffffffffff16815250508781600181518110610a4957610a48613610565b5b602002602001019073ffffffffffffffffffffffffffffffffffffffff16908173ffffffffffffffffffffffffffffffffffffffff1681525050610ac881600081518110610a9a57610a99613610565b5b60200260200101517f00000000000000000000000000000000000000000000000000000000000000006122af565b7f000000000000000000000000000000000000000000000000000000000000000073ffffffffffffffffffffffffffffffffffffffff166338ed17398373ffffffffffffffffffffffffffffffffffffffff166370a08231306040518263ffffffff1660e01b8152600401610b3d91906130f7565b602060405180830381865afa158015610b5a573d6000803e3d6000fd5b505050506040513d601f19601f82011682018060405250810190610b7e9190613654565b898430426040518663ffffffff1660e01b8152600401610ba295949392919061373f565b6000604051808303816000875af1158015610bc1573d6000803e3d6000fd5b505050506040513d6000823e3d601f19601f82011682018060405250810190610bea91906138c3565b50610bf58187612363565b50505050505050505050565b6103e8831015610c46576040517f08c379a0000000000000000000000000000000000000000000000000000000008152600401610c3d906133ef565b60405180910390fd5b600073ffffffffffffffffffffffffffffffffffffffff168573ffffffffffffffffffffffffffffffffffffffff161415610cb6576040517f08c379a0000000000000000000000000000000000000000000000000000000008152600401610cad9061345b565b60405180910390fd5b8473ffffffffffffffffffffffffffffffffffffffff167f000000000000000000000000000000000000000000000000000000000000000073ffffffffffffffffffffffffffffffffffffffff166378ed5d1f836040518263ffffffff1660e01b8152600401610d2691906131b9565b6020604051808303816000875af1158015610d45573d6000803e3d6000fd5b505050506040513d601f19601f82011682018060405250810190610d699190613490565b73ffffffffffffffffffffffffffffffffffffffff1614610dbf576040517f08c379a0000000000000000000000000000000000000000000000000000000008152600401610db69061352f565b60405180910390fd5b610dcb84333086611fe0565b610dd985858484600161179b565b5050505050565b8873ffffffffffffffffffffffffffffffffffffffff1663d505accf33308b888888886040518863ffffffff1660e01b8152600401610e259796959493929190613323565b600060405180830381600087803b158015610e3f57600080fd5b505af1158015610e53573d6000803e3d6000fd5b50505050610e6489898989896107b3565b505050505050505050565b6103e8821015610eb4576040517f08c379a0000000000000000000000000000000000000000000000000000000008152600401610eab906133ef565b60405180910390fd5b600073ffffffffffffffffffffffffffffffffffffffff168473ffffffffffffffffffffffffffffffffffffffff161415610f24576040517f08c379a0000000000000000000000000000000000000000000000000000000008152600401610f1b9061345b565b60405180910390fd5b610f3083333085611fe0565b610f3e84848360008061179b565b50505050565b60008060008086905060008673ffffffffffffffffffffffffffffffffffffffff168273ffffffffffffffffffffffffffffffffffffffff16630dfe16816040518163ffffffff1660e01b8152600401602060405180830381865afa158015610fb1573d6000803e3d6000fd5b505050506040513d601f19601f82011682018060405250810190610fd59190613490565b73ffffffffffffffffffffffffffffffffffffffff16149050808061109357508673ffffffffffffffffffffffffffffffffffffffff168273ffffffffffffffffffffffffffffffffffffffff1663d21220a76040518163ffffffff1660e01b8152600401602060405180830381865afa158015611057573d6000803e3d6000fd5b505050506040513d601f19601f8201168201806040525081019061107b9190613490565b73ffffffffffffffffffffffffffffffffffffffff16145b6110d2576040517f08c379a00000000000000000000000000000000000000000000000000000000081526004016110c99061397e565b60405180910390fd5b6000808373ffffffffffffffffffffffffffffffffffffffff16630902f1ac6040518163ffffffff1660e01b8152600401606060405180830381865afa158015611120573d6000803e3d6000fd5b505050506040513d601f19601f820116820180604052508101906111449190613a20565b506dffffffffffffffffffffffffffff1691506dffffffffffffffffffffffffffff16915082611175578082611178565b81815b809250819350505061118b88838361244c565b96507f000000000000000000000000000000000000000000000000000000000000000073ffffffffffffffffffffffffffffffffffffffff1663054d50d48884846040518463ffffffff1660e01b81526004016111ea93929190613a73565b602060405180830381865afa158015611207573d6000803e3d6000fd5b505050506040513d601f19601f8201168201806040525081019061122b9190613654565b9550826112a6578373ffffffffffffffffffffffffffffffffffffffff16630dfe16816040518163ffffffff1660e01b8152600401602060405180830381865afa15801561127d573d6000803e3d6000fd5b505050506040513d601f19601f820116820180604052508101906112a19190613490565b611316565b8373ffffffffffffffffffffffffffffffffffffffff1663d21220a76040518163ffffffff1660e01b8152600401602060405180830381865afa1580156112f1573d6000803e3d6000fd5b505050506040513d601f19601f820116820180604052508101906113159190613490565b5b94505050505093509350939050565b7f000000000000000000000000000000000000000000000000000000000000000081565b8773ffffffffffffffffffffffffffffffffffffffff1663d505accf33308a888888886040518863ffffffff1660e01b815260040161138e9796959493929190613323565b600060405180830381600087803b1580156113a857600080fd5b505af11580156113bc573d6000803e3d6000fd5b505050506113cd8989898989610c01565b505050505050505050565b7f000000000000000000000000000000000000000000000000000000000000000081565b6103e8341015611441576040517f08c379a0000000000000000000000000000000000000000000000000000000008152600401611438906133ef565b60405180910390fd5b600073ffffffffffffffffffffffffffffffffffffffff168273ffffffffffffffffffffffffffffffffffffffff1614156114b1576040517f08c379a00000000000000000000000000000000000000000000000000000000081526004016114a89061345b565b60405180910390fd5b7f000000000000000000000000000000000000000000000000000000000000000073ffffffffffffffffffffffffffffffffffffffff1663d0e30db0346040518263ffffffff1660e01b81526004016000604051808303818588803b15801561151957600080fd5b505af115801561152d573d6000803e3d6000fd5b5050505050611560827f00000000000000000000000000000000000000000000000000000000000000008360008061179b565b5050565b61159184847f000000000000000000000000000000000000000000000000000000000000000085306107b3565b60007f000000000000000000000000000000000000000000000000000000000000000073ffffffffffffffffffffffffffffffffffffffff166370a08231306040518263ffffffff1660e01b81526004016115ec91906130f7565b602060405180830381865afa158015611609573d6000803e3d6000fd5b505050506040513d601f19601f8201168201806040525081019061162d9190613654565b90507f000000000000000000000000000000000000000000000000000000000000000073ffffffffffffffffffffffffffffffffffffffff16632e1a7d4d826040518263ffffffff1660e01b815260040161168891906131b9565b600060405180830381600087803b1580156116a257600080fd5b505af11580156116b6573d6000803e3d6000fd5b505050506116c482826125f9565b5050505050565b6103e881565b6116dd83333085611fe0565b6116e78382612119565b505050565b7f000000000000000000000000000000000000000000000000000000000000000081565b8673ffffffffffffffffffffffffffffffffffffffff1663d505accf333089888888886040518863ffffffff1660e01b81526004016117559796959493929190613323565b600060405180830381600087803b15801561176f57600080fd5b505af1158015611783573d6000803e3d6000fd5b505050506117928787876116d1565b50505050505050565b60008590506000808273ffffffffffffffffffffffffffffffffffffffff16630902f1ac6040518163ffffffff1660e01b8152600401606060405180830381865afa1580156117ee573d6000803e3d6000fd5b505050506040513d601f19601f820116820180604052508101906118129190613a20565b506dffffffffffffffffffffffffffff1691506dffffffffffffffffffffffffffff1691506103e88211801561184957506103e881115b611888576040517f08c379a000000000000000000000000000000000000000000000000000000000815260040161187f90613af6565b60405180910390fd5b60008773ffffffffffffffffffffffffffffffffffffffff168473ffffffffffffffffffffffffffffffffffffffff16630dfe16816040518163ffffffff1660e01b8152600401602060405180830381865afa1580156118ec573d6000803e3d6000fd5b505050506040513d601f19601f820116820180604052508101906119109190613490565b73ffffffffffffffffffffffffffffffffffffffff1614905080806119ce57508773ffffffffffffffffffffffffffffffffffffffff168473ffffffffffffffffffffffffffffffffffffffff1663d21220a76040518163ffffffff1660e01b8152600401602060405180830381865afa158015611992573d6000803e3d6000fd5b505050506040513d601f19601f820116820180604052508101906119b69190613490565b73ffffffffffffffffffffffffffffffffffffffff16145b611a0d576040517f08c379a0000000000000000000000000000000000000000000000000000000008152600401611a049061397e565b60405180910390fd5b6000600267ffffffffffffffff811115611a2a57611a296135e1565b5b604051908082528060200260200182016040528015611a585781602001602082028036833780820191505090505b5090508881600081518110611a7057611a6f613610565b5b602002602001019073ffffffffffffffffffffffffffffffffffffffff16908173ffffffffffffffffffffffffffffffffffffffff168152505081611b23578473ffffffffffffffffffffffffffffffffffffffff16630dfe16816040518163ffffffff1660e01b8152600401602060405180830381865afa158015611afa573d6000803e3d6000fd5b505050506040513d601f19601f82011682018060405250810190611b1e9190613490565b611b93565b8473ffffffffffffffffffffffffffffffffffffffff1663d21220a76040518163ffffffff1660e01b8152600401602060405180830381865afa158015611b6e573d6000803e3d6000fd5b505050506040513d601f19601f82011682018060405250810190611b929190613490565b5b81600181518110611ba757611ba6613610565b5b602002602001019073ffffffffffffffffffffffffffffffffffffffff16908173ffffffffffffffffffffffffffffffffffffffff168152505060008973ffffffffffffffffffffffffffffffffffffffff166370a08231306040518263ffffffff1660e01b8152600401611c1c91906130f7565b602060405180830381865afa158015611c39573d6000803e3d6000fd5b505050506040513d601f19601f82011682018060405250810190611c5d9190613654565b905060008315611c7957611c7282878761244c565b9050611c87565b611c8482868861244c565b90505b611ccc83600081518110611c9e57611c9d613610565b5b60200260200101517f00000000000000000000000000000000000000000000000000000000000000006122af565b60007f000000000000000000000000000000000000000000000000000000000000000073ffffffffffffffffffffffffffffffffffffffff166338ed1739838d8730426040518663ffffffff1660e01b8152600401611d2f95949392919061373f565b6000604051808303816000875af1158015611d4e573d6000803e3d6000fd5b505050506040513d6000823e3d601f19601f82011682018060405250810190611d7791906138c3565b90506000600115158a151514611d8d5733611d8f565b305b9050611dd685600181518110611da857611da7613610565b5b60200260200101517f00000000000000000000000000000000000000000000000000000000000000006122af565b60007f000000000000000000000000000000000000000000000000000000000000000073ffffffffffffffffffffffffffffffffffffffff1663e8e3370087600081518110611e2857611e27613610565b5b602002602001015188600181518110611e4457611e43613610565b5b602002602001015186600081518110611e6057611e5f613610565b5b602002602001015189611e739190613b45565b87600181518110611e8757611e86613610565b5b602002602001015160018089426040518963ffffffff1660e01b8152600401611eb7989796959493929190613bb4565b6060604051808303816000875af1158015611ed6573d6000803e3d6000fd5b505050506040513d601f19601f82011682018060405250810190611efa9190613c32565b92505050600115158b15151415611fc557611f358f7f00000000000000000000000000000000000000000000000000000000000000006122af565b7f000000000000000000000000000000000000000000000000000000000000000073ffffffffffffffffffffffffffffffffffffffff16638dbdbe6d8d83336040518463ffffffff1660e01b8152600401611f9293929190612f7c565b600060405180830381600087803b158015611fac57600080fd5b505af1158015611fc0573d6000803e3d6000fd5b505050505b611fcf8633612363565b505050505050505050505050505050565b6000808573ffffffffffffffffffffffffffffffffffffffff166323b872dd86868660405160240161201493929190613c85565b6040516020818303038152906040529060e01b6020820180517bffffffffffffffffffffffffffffffffffffffffffffffffffffffff83818316178352505050506040516120629190613d36565b6000604051808303816000865af19150503d806000811461209f576040519150601f19603f3d011682016040523d82523d6000602084013e6120a4565b606091505b50915091508180156120d257506000815114806120d15750808060200190518101906120d09190613d85565b5b5b612111576040517f08c379a000000000000000000000000000000000000000000000000000000000815260040161210890613e24565b60405180910390fd5b505050505050565b61219d82838473ffffffffffffffffffffffffffffffffffffffff166370a08231306040518263ffffffff1660e01b815260040161215791906130f7565b602060405180830381865afa158015612174573d6000803e3d6000fd5b505050506040513d601f19601f820116820180604052508101906121989190613654565b6126f9565b6000808373ffffffffffffffffffffffffffffffffffffffff166389afcb44846040518263ffffffff1660e01b81526004016121d991906130f7565b60408051808303816000875af11580156121f7573d6000803e3d6000fd5b505050506040513d601f19601f8201168201806040525081019061221b9190613e44565b915091506103e8821015612264576040517f08c379a000000000000000000000000000000000000000000000000000000000815260040161225b90613ef6565b60405180910390fd5b6103e88110156122a9576040517f08c379a00000000000000000000000000000000000000000000000000000000081526004016122a090613f88565b60405180910390fd5b50505050565b60008273ffffffffffffffffffffffffffffffffffffffff1663dd62ed3e30846040518363ffffffff1660e01b81526004016122ec929190613fa8565b602060405180830381865afa158015612309573d6000803e3d6000fd5b505050506040513d601f19601f8201168201806040525081019061232d9190613654565b141561235f5761235e82827fffffffffffffffffffffffffffffffffffffffffffffffffffffffffffffffff61282f565b5b5050565b6000805b83518110156124465783818151811061238357612382613610565b5b602002602001015173ffffffffffffffffffffffffffffffffffffffff166370a08231306040518263ffffffff1660e01b81526004016123c391906130f7565b602060405180830381865afa1580156123e0573d6000803e3d6000fd5b505050506040513d601f19601f820116820180604052508101906124049190613654565b915060008211156124355761243484828151811061242557612424613610565b5b602002602001015184846126f9565b5b8061243f90613fd1565b9050612367565b50505050565b60008060028561245c9190614049565b905060007f000000000000000000000000000000000000000000000000000000000000000073ffffffffffffffffffffffffffffffffffffffff1663054d50d48387876040518463ffffffff1660e01b81526004016124bd93929190613a73565b602060405180830381865afa1580156124da573d6000803e3d6000fd5b505050506040513d601f19601f820116820180604052508101906124fe9190613654565b905060007f000000000000000000000000000000000000000000000000000000000000000073ffffffffffffffffffffffffffffffffffffffff1663ad615dec84858961254b919061407a565b85896125579190613b45565b6040518463ffffffff1660e01b815260040161257593929190613a73565b602060405180830381865afa158015612592573d6000803e3d6000fd5b505050506040513d601f19601f820116820180604052508101906125b69190613654565b90506125e2818385866125c991906140d0565b6125d391906140d0565b6125dd9190614049565b612965565b876125ed9190613b45565b93505050509392505050565b60008273ffffffffffffffffffffffffffffffffffffffff1682600067ffffffffffffffff81111561262e5761262d6135e1565b5b6040519080825280601f01601f1916602001820160405280156126605781602001600182028036833780820191505090505b5060405161266e9190613d36565b60006040518083038185875af1925050503d80600081146126ab576040519150601f19603f3d011682016040523d82523d6000602084013e6126b0565b606091505b50509050806126f4576040517f08c379a00000000000000000000000000000000000000000000000000000000081526004016126eb9061419c565b60405180910390fd5b505050565b6000808473ffffffffffffffffffffffffffffffffffffffff1663a9059cbb858560405160240161272b9291906141bc565b6040516020818303038152906040529060e01b6020820180517bffffffffffffffffffffffffffffffffffffffffffffffffffffffff83818316178352505050506040516127799190613d36565b6000604051808303816000865af19150503d80600081146127b6576040519150601f19603f3d011682016040523d82523d6000602084013e6127bb565b606091505b50915091508180156127e957506000815114806127e85750808060200190518101906127e79190613d85565b5b5b612828576040517f08c379a000000000000000000000000000000000000000000000000000000000815260040161281f90614231565b60405180910390fd5b5050505050565b6000808473ffffffffffffffffffffffffffffffffffffffff1663095ea7b385856040516024016128619291906141bc565b6040516020818303038152906040529060e01b6020820180517bffffffffffffffffffffffffffffffffffffffffffffffffffffffff83818316178352505050506040516128af9190613d36565b6000604051808303816000865af19150503d80600081146128ec576040519150601f19603f3d011682016040523d82523d6000602084013e6128f1565b606091505b509150915081801561291f575060008151148061291e57508080602001905181019061291d9190613d85565b5b5b61295e576040517f08c379a00000000000000000000000000000000000000000000000000000000081526004016129559061429d565b60405180910390fd5b5050505050565b600060038211156129cc57819050600060016002846129849190614049565b61298e919061407a565b90505b818110156129c65780915060028182856129ab9190614049565b6129b5919061407a565b6129bf9190614049565b9050612991565b506129da565b600082146129d957600190505b5b919050565b7f4e487b7100000000000000000000000000000000000000000000000000000000600052600160045260246000fd5b6000604051905090565b600080fd5b600080fd5b600073ffffffffffffffffffffffffffffffffffffffff82169050919050565b6000612a4d82612a22565b9050919050565b612a5d81612a42565b8114612a6857600080fd5b50565b600081359050612a7a81612a54565b92915050565b6000819050919050565b612a9381612a80565b8114612a9e57600080fd5b50565b600081359050612ab081612a8a565b92915050565b600060ff82169050919050565b612acc81612ab6565b8114612ad757600080fd5b50565b600081359050612ae981612ac3565b92915050565b6000819050919050565b612b0281612aef565b8114612b0d57600080fd5b50565b600081359050612b1f81612af9565b92915050565b600080600080600080600080610100898b031215612b4657612b45612a18565b5b6000612b548b828c01612a6b565b9850506020612b658b828c01612a6b565b9750506040612b768b828c01612aa1565b9650506060612b878b828c01612aa1565b9550506080612b988b828c01612aa1565b94505060a0612ba98b828c01612ada565b93505060c0612bba8b828c01612b10565b92505060e0612bcb8b828c01612b10565b9150509295985092959890939650565b600080600060608486031215612bf457612bf3612a18565b5b6000612c0286828701612a6b565b9350506020612c1386828701612aa1565b9250506040612c2486828701612aa1565b9150509250925092565b600080600080600080600080610100898b031215612c4f57612c4e612a18565b5b6000612c5d8b828c01612a6b565b9850506020612c6e8b828c01612aa1565b9750506040612c7f8b828c01612aa1565b9650506060612c908b828c01612a6b565b9550506080612ca18b828c01612aa1565b94505060a0612cb28b828c01612ada565b93505060c0612cc38b828c01612b10565b92505060e0612cd48b828c01612b10565b9150509295985092959890939650565b600080600080600060a08688031215612d0057612cff612a18565b5b6000612d0e88828901612a6b565b9550506020612d1f88828901612aa1565b9450506040612d3088828901612a6b565b9350506060612d4188828901612aa1565b9250506080612d5288828901612a6b565b9150509295509295909350565b600080600080600060a08688031215612d7b57612d7a612a18565b5b6000612d8988828901612a6b565b9550506020612d9a88828901612a6b565b9450506040612dab88828901612aa1565b9350506060612dbc88828901612aa1565b9250506080612dcd88828901612aa1565b9150509295509295909350565b60008060008060008060008060006101208a8c031215612dfd57612dfc612a18565b5b6000612e0b8c828d01612a6b565b9950506020612e1c8c828d01612aa1565b9850506040612e2d8c828d01612a6b565b9750506060612e3e8c828d01612aa1565b9650506080612e4f8c828d01612a6b565b95505060a0612e608c828d01612aa1565b94505060c0612e718c828d01612ada565b93505060e0612e828c828d01612b10565b925050610100612e948c828d01612b10565b9150509295985092959850929598565b60008060008060808587031215612ebe57612ebd612a18565b5b6000612ecc87828801612a6b565b9450506020612edd87828801612a6b565b9350506040612eee87828801612aa1565b9250506060612eff87828801612aa1565b91505092959194509250565b600080600060608486031215612f2457612f23612a18565b5b6000612f3286828701612a6b565b9350506020612f4386828701612a6b565b9250506040612f5486828701612aa1565b9150509250925092565b612f6781612a80565b82525050565b612f7681612a42565b82525050565b6000606082019050612f916000830186612f5e565b612f9e6020830185612f5e565b612fab6040830184612f6d565b949350505050565b6000819050919050565b6000612fd8612fd3612fce84612a22565b612fb3565b612a22565b9050919050565b6000612fea82612fbd565b9050919050565b6000612ffc82612fdf565b9050919050565b61300c81612ff1565b82525050565b60006020820190506130276000830184613003565b92915050565b60008060008060008060008060006101208a8c0312156130505761304f612a18565b5b600061305e8c828d01612a6b565b995050602061306f8c828d01612a6b565b98505060406130808c828d01612aa1565b97505060606130918c828d01612aa1565b96505060806130a28c828d01612aa1565b95505060a06130b38c828d01612aa1565b94505060c06130c48c828d01612ada565b93505060e06130d58c828d01612b10565b9250506101006130e78c828d01612b10565b9150509295985092959850929598565b600060208201905061310c6000830184612f6d565b92915050565b6000806040838503121561312957613128612a18565b5b600061313785828601612a6b565b925050602061314885828601612aa1565b9150509250929050565b6000806000806080858703121561316c5761316b612a18565b5b600061317a87828801612a6b565b945050602061318b87828801612aa1565b935050604061319c87828801612aa1565b92505060606131ad87828801612a6b565b91505092959194509250565b60006020820190506131ce6000830184612f5e565b92915050565b6000806000606084860312156131ed576131ec612a18565b5b60006131fb86828701612a6b565b935050602061320c86828701612aa1565b925050604061321d86828701612a6b565b9150509250925092565b600061323282612fdf565b9050919050565b61324281613227565b82525050565b600060208201905061325d6000830184613239565b92915050565b600080600080600080600060e0888a03121561328257613281612a18565b5b60006132908a828b01612a6b565b97505060206132a18a828b01612aa1565b96505060406132b28a828b01612a6b565b95505060606132c38a828b01612aa1565b94505060806132d48a828b01612ada565b93505060a06132e58a828b01612b10565b92505060c06132f68a828b01612b10565b91505092959891949750929550565b61330e81612ab6565b82525050565b61331d81612aef565b82525050565b600060e082019050613338600083018a612f6d565b6133456020830189612f6d565b6133526040830188612f5e565b61335f6060830187612f5e565b61336c6080830186613305565b61337960a0830185613314565b61338660c0830184613314565b98975050505050505050565b600082825260208201905092915050565b7f496e7369676e69666963616e7420696e70757420616d6f756e74000000000000600082015250565b60006133d9601a83613392565b91506133e4826133a3565b602082019050919050565b60006020820190508181036000830152613408816133cc565b9050919050565b7f496e76616c696420706169722061646472657373000000000000000000000000600082015250565b6000613445601483613392565b91506134508261340f565b602082019050919050565b6000602082019050818103600083015261347481613438565b9050919050565b60008151905061348a81612a54565b92915050565b6000602082840312156134a6576134a5612a18565b5b60006134b48482850161347b565b91505092915050565b7f50616972206164647265737320646f6573206e6f7420636f72726573706f6e6460008201527f2077697468207069640000000000000000000000000000000000000000000000602082015250565b6000613519602983613392565b9150613524826134bd565b604082019050919050565b600060208201905081810360008301526135488161350c565b9050919050565b7f6465736972656420746f6b656e206e6f742070726573656e7420696e206c697160008201527f7569646974792070616972000000000000000000000000000000000000000000602082015250565b60006135ab602b83613392565b91506135b68261354f565b604082019050919050565b600060208201905081810360008301526135da8161359e565b9050919050565b7f4e487b7100000000000000000000000000000000000000000000000000000000600052604160045260246000fd5b7f4e487b7100000000000000000000000000000000000000000000000000000000600052603260045260246000fd5b60008151905061364e81612a8a565b92915050565b60006020828403121561366a57613669612a18565b5b60006136788482850161363f565b91505092915050565b600081519050919050565b600082825260208201905092915050565b6000819050602082019050919050565b6136b681612a42565b82525050565b60006136c883836136ad565b60208301905092915050565b6000602082019050919050565b60006136ec82613681565b6136f6818561368c565b93506137018361369d565b8060005b8381101561373257815161371988826136bc565b9750613724836136d4565b925050600181019050613705565b5085935050505092915050565b600060a0820190506137546000830188612f5e565b6137616020830187612f5e565b818103604083015261377381866136e1565b90506137826060830185612f6d565b61378f6080830184612f5e565b9695505050505050565b600080fd5b6000601f19601f8301169050919050565b6137b88261379e565b810181811067ffffffffffffffff821117156137d7576137d66135e1565b5b80604052505050565b60006137ea612a0e565b90506137f682826137af565b919050565b600067ffffffffffffffff821115613816576138156135e1565b5b602082029050602081019050919050565b600080fd5b600061383f61383a846137fb565b6137e0565b9050808382526020820190506020840283018581111561386257613861613827565b5b835b8181101561388b5780613877888261363f565b845260208401935050602081019050613864565b5050509392505050565b600082601f8301126138aa576138a9613799565b5b81516138ba84826020860161382c565b91505092915050565b6000602082840312156138d9576138d8612a18565b5b600082015167ffffffffffffffff8111156138f7576138f6612a1d565b5b61390384828501613895565b91505092915050565b7f496e70757420746f6b656e206e6f742070726573656e7420696e206c6971756960008201527f6469747920706169720000000000000000000000000000000000000000000000602082015250565b6000613968602983613392565b91506139738261390c565b604082019050919050565b600060208201905081810360008301526139978161395b565b9050919050565b60006dffffffffffffffffffffffffffff82169050919050565b6139c18161399e565b81146139cc57600080fd5b50565b6000815190506139de816139b8565b92915050565b600063ffffffff82169050919050565b6139fd816139e4565b8114613a0857600080fd5b50565b600081519050613a1a816139f4565b92915050565b600080600060608486031215613a3957613a38612a18565b5b6000613a47868287016139cf565b9350506020613a58868287016139cf565b9250506040613a6986828701613a0b565b9150509250925092565b6000606082019050613a886000830186612f5e565b613a956020830185612f5e565b613aa26040830184612f5e565b949350505050565b7f4c6971756964697479207061697220726573657276657320746f6f206c6f7700600082015250565b6000613ae0601f83613392565b9150613aeb82613aaa565b602082019050919050565b60006020820190508181036000830152613b0f81613ad3565b9050919050565b7f4e487b7100000000000000000000000000000000000000000000000000000000600052601160045260246000fd5b6000613b5082612a80565b9150613b5b83612a80565b925082821015613b6e57613b6d613b16565b5b828203905092915050565b6000819050919050565b6000613b9e613b99613b9484613b79565b612fb3565b612a80565b9050919050565b613bae81613b83565b82525050565b600061010082019050613bca600083018b612f6d565b613bd7602083018a612f6d565b613be46040830189612f5e565b613bf16060830188612f5e565b613bfe6080830187613ba5565b613c0b60a0830186613ba5565b613c1860c0830185612f6d565b613c2560e0830184612f5e565b9998505050505050505050565b600080600060608486031215613c4b57613c4a612a18565b5b6000613c598682870161363f565b9350506020613c6a8682870161363f565b9250506040613c7b8682870161363f565b9150509250925092565b6000606082019050613c9a6000830186612f6d565b613ca76020830185612f6d565b613cb46040830184612f5e565b949350505050565b600081519050919050565b600081905092915050565b60005b83811015613cf0578082015181840152602081019050613cd5565b83811115613cff576000848401525b50505050565b6000613d1082613cbc565b613d1a8185613cc7565b9350613d2a818560208601613cd2565b80840191505092915050565b6000613d428284613d05565b915081905092915050565b60008115159050919050565b613d6281613d4d565b8114613d6d57600080fd5b50565b600081519050613d7f81613d59565b92915050565b600060208284031215613d9b57613d9a612a18565b5b6000613da984828501613d70565b91505092915050565b7f5472616e7366657248656c7065723a205452414e534645525f46524f4d5f464160008201527f494c454400000000000000000000000000000000000000000000000000000000602082015250565b6000613e0e602483613392565b9150613e1982613db2565b604082019050919050565b60006020820190508181036000830152613e3d81613e01565b9050919050565b60008060408385031215613e5b57613e5a612a18565b5b6000613e698582860161363f565b9250506020613e7a8582860161363f565b9150509250929050565b7f417263616e756d526f757465723a20494e53554646494349454e545f415f414d60008201527f4f554e5400000000000000000000000000000000000000000000000000000000602082015250565b6000613ee0602483613392565b9150613eeb82613e84565b604082019050919050565b60006020820190508181036000830152613f0f81613ed3565b9050919050565b7f417263616e756d526f757465723a20494e53554646494349454e545f425f414d60008201527f4f554e5400000000000000000000000000000000000000000000000000000000602082015250565b6000613f72602483613392565b9150613f7d82613f16565b604082019050919050565b60006020820190508181036000830152613fa181613f65565b9050919050565b6000604082019050613fbd6000830185612f6d565b613fca6020830184612f6d565b9392505050565b6000613fdc82612a80565b91507fffffffffffffffffffffffffffffffffffffffffffffffffffffffffffffffff82141561400f5761400e613b16565b5b600182019050919050565b7f4e487b7100000000000000000000000000000000000000000000000000000000600052601260045260246000fd5b600061405482612a80565b915061405f83612a80565b92508261406f5761406e61401a565b5b828204905092915050565b600061408582612a80565b915061409083612a80565b9250827fffffffffffffffffffffffffffffffffffffffffffffffffffffffffffffffff038211156140c5576140c4613b16565b5b828201905092915050565b60006140db82612a80565b91506140e683612a80565b9250817fffffffffffffffffffffffffffffffffffffffffffffffffffffffffffffffff048311821515161561411f5761411e613b16565b5b828202905092915050565b7f5472616e7366657248656c7065723a20415641585f5452414e534645525f464160008201527f494c454400000000000000000000000000000000000000000000000000000000602082015250565b6000614186602483613392565b91506141918261412a565b604082019050919050565b600060208201905081810360008301526141b581614179565b9050919050565b60006040820190506141d16000830185612f6d565b6141de6020830184612f5e565b9392505050565b7f5472616e7366657248656c7065723a205452414e534645525f4641494c454400600082015250565b600061421b601f83613392565b9150614226826141e5565b602082019050919050565b6000602082019050818103600083015261424a8161420e565b9050919050565b7f5472616e7366657248656c7065723a20415050524f56455f4641494c45440000600082015250565b6000614287601e83613392565b915061429282614251565b602082019050919050565b600060208201905081810360008301526142b68161427a565b905091905056fea26469706673582212201ab26088b1b78a112e1d0fdff76a07379069382b538cf4bce8e70362848a077d64736f6c634300080b0033",
          "opcodes": "PUSH1 0xE0 PUSH1 0x40 MSTORE CALLVALUE DUP1 ISZERO PUSH3 0x11 JUMPI PUSH1 0x0 DUP1 REVERT JUMPDEST POP PUSH1 0x40 MLOAD PUSH3 0x46A0 CODESIZE SUB DUP1 PUSH3 0x46A0 DUP4 CODECOPY DUP2 DUP2 ADD PUSH1 0x40 MSTORE DUP2 ADD SWAP1 PUSH3 0x37 SWAP2 SWAP1 PUSH3 0x21A JUMP JUMPDEST DUP1 PUSH20 0xFFFFFFFFFFFFFFFFFFFFFFFFFFFFFFFFFFFFFFFF AND PUSH4 0xD0E30DB0 PUSH1 0x0 PUSH1 0x40 MLOAD DUP3 PUSH4 0xFFFFFFFF AND PUSH1 0xE0 SHL DUP2 MSTORE PUSH1 0x4 ADD PUSH1 0x0 PUSH1 0x40 MLOAD DUP1 DUP4 SUB DUP2 DUP6 DUP9 DUP1 EXTCODESIZE ISZERO DUP1 ISZERO PUSH3 0x81 JUMPI PUSH1 0x0 DUP1 REVERT JUMPDEST POP GAS CALL ISZERO DUP1 ISZERO PUSH3 0x96 JUMPI RETURNDATASIZE PUSH1 0x0 DUP1 RETURNDATACOPY RETURNDATASIZE PUSH1 0x0 REVERT JUMPDEST POP POP POP POP POP DUP1 PUSH20 0xFFFFFFFFFFFFFFFFFFFFFFFFFFFFFFFFFFFFFFFF AND PUSH4 0x2E1A7D4D PUSH1 0x0 PUSH1 0x40 MLOAD DUP3 PUSH4 0xFFFFFFFF AND PUSH1 0xE0 SHL DUP2 MSTORE PUSH1 0x4 ADD PUSH3 0xD7 SWAP2 SWAP1 PUSH3 0x2CD JUMP JUMPDEST PUSH1 0x0 PUSH1 0x40 MLOAD DUP1 DUP4 SUB DUP2 PUSH1 0x0 DUP8 DUP1 EXTCODESIZE ISZERO DUP1 ISZERO PUSH3 0xF2 JUMPI PUSH1 0x0 DUP1 REVERT JUMPDEST POP GAS CALL ISZERO DUP1 ISZERO PUSH3 0x107 JUMPI RETURNDATASIZE PUSH1 0x0 DUP1 RETURNDATACOPY RETURNDATASIZE PUSH1 0x0 REVERT JUMPDEST POP POP POP POP DUP3 PUSH20 0xFFFFFFFFFFFFFFFFFFFFFFFFFFFFFFFFFFFFFFFF AND PUSH1 0x80 DUP2 PUSH20 0xFFFFFFFFFFFFFFFFFFFFFFFFFFFFFFFFFFFFFFFF AND DUP2 MSTORE POP POP DUP2 PUSH20 0xFFFFFFFFFFFFFFFFFFFFFFFFFFFFFFFFFFFFFFFF AND PUSH1 0xA0 DUP2 PUSH20 0xFFFFFFFFFFFFFFFFFFFFFFFFFFFFFFFFFFFFFFFF AND DUP2 MSTORE POP POP DUP1 PUSH20 0xFFFFFFFFFFFFFFFFFFFFFFFFFFFFFFFFFFFFFFFF AND PUSH1 0xC0 DUP2 PUSH20 0xFFFFFFFFFFFFFFFFFFFFFFFFFFFFFFFFFFFFFFFF AND DUP2 MSTORE POP POP POP POP POP PUSH3 0x2EA JUMP JUMPDEST PUSH1 0x0 DUP1 REVERT JUMPDEST PUSH1 0x0 PUSH20 0xFFFFFFFFFFFFFFFFFFFFFFFFFFFFFFFFFFFFFFFF DUP3 AND SWAP1 POP SWAP2 SWAP1 POP JUMP JUMPDEST PUSH1 0x0 PUSH3 0x1E2 DUP3 PUSH3 0x1B5 JUMP JUMPDEST SWAP1 POP SWAP2 SWAP1 POP JUMP JUMPDEST PUSH3 0x1F4 DUP2 PUSH3 0x1D5 JUMP JUMPDEST DUP2 EQ PUSH3 0x200 JUMPI PUSH1 0x0 DUP1 REVERT JUMPDEST POP JUMP JUMPDEST PUSH1 0x0 DUP2 MLOAD SWAP1 POP PUSH3 0x214 DUP2 PUSH3 0x1E9 JUMP JUMPDEST SWAP3 SWAP2 POP POP JUMP JUMPDEST PUSH1 0x0 DUP1 PUSH1 0x0 PUSH1 0x60 DUP5 DUP7 SUB SLT ISZERO PUSH3 0x236 JUMPI PUSH3 0x235 PUSH3 0x1B0 JUMP JUMPDEST JUMPDEST PUSH1 0x0 PUSH3 0x246 DUP7 DUP3 DUP8 ADD PUSH3 0x203 JUMP JUMPDEST SWAP4 POP POP PUSH1 0x20 PUSH3 0x259 DUP7 DUP3 DUP8 ADD PUSH3 0x203 JUMP JUMPDEST SWAP3 POP POP PUSH1 0x40 PUSH3 0x26C DUP7 DUP3 DUP8 ADD PUSH3 0x203 JUMP JUMPDEST SWAP2 POP POP SWAP3 POP SWAP3 POP SWAP3 JUMP JUMPDEST PUSH1 0x0 DUP2 SWAP1 POP SWAP2 SWAP1 POP JUMP JUMPDEST PUSH1 0x0 DUP2 SWAP1 POP SWAP2 SWAP1 POP JUMP JUMPDEST PUSH1 0x0 DUP2 SWAP1 POP SWAP2 SWAP1 POP JUMP JUMPDEST PUSH1 0x0 PUSH3 0x2B5 PUSH3 0x2AF PUSH3 0x2A9 DUP5 PUSH3 0x276 JUMP JUMPDEST PUSH3 0x28A JUMP JUMPDEST PUSH3 0x280 JUMP JUMPDEST SWAP1 POP SWAP2 SWAP1 POP JUMP JUMPDEST PUSH3 0x2C7 DUP2 PUSH3 0x294 JUMP JUMPDEST DUP3 MSTORE POP POP JUMP JUMPDEST PUSH1 0x0 PUSH1 0x20 DUP3 ADD SWAP1 POP PUSH3 0x2E4 PUSH1 0x0 DUP4 ADD DUP5 PUSH3 0x2BC JUMP JUMPDEST SWAP3 SWAP2 POP POP JUMP JUMPDEST PUSH1 0x80 MLOAD PUSH1 0xA0 MLOAD PUSH1 0xC0 MLOAD PUSH2 0x42F3 PUSH3 0x3AD PUSH1 0x0 CODECOPY PUSH1 0x0 DUP2 DUP2 PUSH2 0x109 ADD MSTORE DUP2 DUP2 PUSH2 0x674 ADD MSTORE DUP2 DUP2 PUSH2 0x6F9 ADD MSTORE DUP2 DUP2 PUSH2 0x13DA ADD MSTORE DUP2 DUP2 PUSH2 0x14B3 ADD MSTORE DUP2 DUP2 PUSH2 0x1538 ADD MSTORE DUP2 DUP2 PUSH2 0x156B ADD MSTORE DUP2 DUP2 PUSH2 0x1595 ADD MSTORE PUSH2 0x1631 ADD MSTORE PUSH1 0x0 DUP2 DUP2 PUSH2 0x582 ADD MSTORE DUP2 DUP2 PUSH2 0xCCF ADD MSTORE DUP2 DUP2 PUSH2 0x1327 ADD MSTORE DUP2 DUP2 PUSH2 0x1F11 ADD MSTORE PUSH2 0x1F37 ADD MSTORE PUSH1 0x0 DUP2 DUP2 PUSH2 0xAA4 ADD MSTORE DUP2 DUP2 PUSH2 0xACA ADD MSTORE DUP2 DUP2 PUSH2 0x118F ADD MSTORE DUP2 DUP2 PUSH2 0x16EE ADD MSTORE DUP2 DUP2 PUSH2 0x1CA8 ADD MSTORE DUP2 DUP2 PUSH2 0x1CD0 ADD MSTORE DUP2 DUP2 PUSH2 0x1DB2 ADD MSTORE DUP2 DUP2 PUSH2 0x1DDA ADD MSTORE DUP2 DUP2 PUSH2 0x2462 ADD MSTORE PUSH2 0x2504 ADD MSTORE PUSH2 0x42F3 PUSH1 0x0 RETURN INVALID PUSH1 0x80 PUSH1 0x40 MSTORE PUSH1 0x4 CALLDATASIZE LT PUSH2 0x102 JUMPI PUSH1 0x0 CALLDATALOAD PUSH1 0xE0 SHR DUP1 PUSH4 0x4B7F6363 GT PUSH2 0x95 JUMPI DUP1 PUSH4 0xAAA2ED80 GT PUSH2 0x64 JUMPI DUP1 PUSH4 0xAAA2ED80 EQ PUSH2 0x356 JUMPI DUP1 PUSH4 0xBB0C8298 EQ PUSH2 0x37F JUMPI DUP1 PUSH4 0xBDC49CD4 EQ PUSH2 0x3AA JUMPI DUP1 PUSH4 0xF887EA40 EQ PUSH2 0x3D3 JUMPI DUP1 PUSH4 0xFF2D28B5 EQ PUSH2 0x3FE JUMPI PUSH2 0x165 JUMP JUMPDEST DUP1 PUSH4 0x4B7F6363 EQ PUSH2 0x2BB JUMPI DUP1 PUSH4 0x4E3C9B35 EQ PUSH2 0x2E6 JUMPI DUP1 PUSH4 0x73B295C2 EQ PUSH2 0x30F JUMPI DUP1 PUSH4 0xA90EA90A EQ PUSH2 0x33A JUMPI PUSH2 0x165 JUMP JUMPDEST DUP1 PUSH4 0x2E042C6C GT PUSH2 0xD1 JUMPI DUP1 PUSH4 0x2E042C6C EQ PUSH2 0x201 JUMPI DUP1 PUSH4 0x375B9C89 EQ PUSH2 0x22A JUMPI DUP1 PUSH4 0x3C3B1EF6 EQ PUSH2 0x253 JUMPI DUP1 PUSH4 0x3F2F869A EQ PUSH2 0x27C JUMPI PUSH2 0x165 JUMP JUMPDEST DUP1 PUSH4 0x6A4FA4A EQ PUSH2 0x16A JUMPI DUP1 PUSH4 0xAA62B39 EQ PUSH2 0x193 JUMPI DUP1 PUSH4 0x12709E1E EQ PUSH2 0x1AF JUMPI DUP1 PUSH4 0x2BCE72B6 EQ PUSH2 0x1D8 JUMPI PUSH2 0x165 JUMP JUMPDEST CALLDATASIZE PUSH2 0x165 JUMPI PUSH32 0x0 PUSH20 0xFFFFFFFFFFFFFFFFFFFFFFFFFFFFFFFFFFFFFFFF AND CALLER PUSH20 0xFFFFFFFFFFFFFFFFFFFFFFFFFFFFFFFFFFFFFFFF AND EQ PUSH2 0x163 JUMPI PUSH2 0x162 PUSH2 0x29DF JUMP JUMPDEST JUMPDEST STOP JUMPDEST PUSH1 0x0 DUP1 REVERT JUMPDEST CALLVALUE DUP1 ISZERO PUSH2 0x176 JUMPI PUSH1 0x0 DUP1 REVERT JUMPDEST POP PUSH2 0x191 PUSH1 0x4 DUP1 CALLDATASIZE SUB DUP2 ADD SWAP1 PUSH2 0x18C SWAP2 SWAP1 PUSH2 0x2B25 JUMP JUMPDEST PUSH2 0x427 JUMP JUMPDEST STOP JUMPDEST PUSH2 0x1AD PUSH1 0x4 DUP1 CALLDATASIZE SUB DUP2 ADD SWAP1 PUSH2 0x1A8 SWAP2 SWAP1 PUSH2 0x2BDB JUMP JUMPDEST PUSH2 0x4B4 JUMP JUMPDEST STOP JUMPDEST CALLVALUE DUP1 ISZERO PUSH2 0x1BB JUMPI PUSH1 0x0 DUP1 REVERT JUMPDEST POP PUSH2 0x1D6 PUSH1 0x4 DUP1 CALLDATASIZE SUB DUP2 ADD SWAP1 PUSH2 0x1D1 SWAP2 SWAP1 PUSH2 0x2C2E JUMP JUMPDEST PUSH2 0x726 JUMP JUMPDEST STOP JUMPDEST CALLVALUE DUP1 ISZERO PUSH2 0x1E4 JUMPI PUSH1 0x0 DUP1 REVERT JUMPDEST POP PUSH2 0x1FF PUSH1 0x4 DUP1 CALLDATASIZE SUB DUP2 ADD SWAP1 PUSH2 0x1FA SWAP2 SWAP1 PUSH2 0x2CE4 JUMP JUMPDEST PUSH2 0x7B3 JUMP JUMPDEST STOP JUMPDEST CALLVALUE DUP1 ISZERO PUSH2 0x20D JUMPI PUSH1 0x0 DUP1 REVERT JUMPDEST POP PUSH2 0x228 PUSH1 0x4 DUP1 CALLDATASIZE SUB DUP2 ADD SWAP1 PUSH2 0x223 SWAP2 SWAP1 PUSH2 0x2D5F JUMP JUMPDEST PUSH2 0xC01 JUMP JUMPDEST STOP JUMPDEST CALLVALUE DUP1 ISZERO PUSH2 0x236 JUMPI PUSH1 0x0 DUP1 REVERT JUMPDEST POP PUSH2 0x251 PUSH1 0x4 DUP1 CALLDATASIZE SUB DUP2 ADD SWAP1 PUSH2 0x24C SWAP2 SWAP1 PUSH2 0x2DDA JUMP JUMPDEST PUSH2 0xDE0 JUMP JUMPDEST STOP JUMPDEST CALLVALUE DUP1 ISZERO PUSH2 0x25F JUMPI PUSH1 0x0 DUP1 REVERT JUMPDEST POP PUSH2 0x27A PUSH1 0x4 DUP1 CALLDATASIZE SUB DUP2 ADD SWAP1 PUSH2 0x275 SWAP2 SWAP1 PUSH2 0x2EA4 JUMP JUMPDEST PUSH2 0xE6F JUMP JUMPDEST STOP JUMPDEST CALLVALUE DUP1 ISZERO PUSH2 0x288 JUMPI PUSH1 0x0 DUP1 REVERT JUMPDEST POP PUSH2 0x2A3 PUSH1 0x4 DUP1 CALLDATASIZE SUB DUP2 ADD SWAP1 PUSH2 0x29E SWAP2 SWAP1 PUSH2 0x2F0B JUMP JUMPDEST PUSH2 0xF44 JUMP JUMPDEST PUSH1 0x40 MLOAD PUSH2 0x2B2 SWAP4 SWAP3 SWAP2 SWAP1 PUSH2 0x2F7C JUMP JUMPDEST PUSH1 0x40 MLOAD DUP1 SWAP2 SUB SWAP1 RETURN JUMPDEST CALLVALUE DUP1 ISZERO PUSH2 0x2C7 JUMPI PUSH1 0x0 DUP1 REVERT JUMPDEST POP PUSH2 0x2D0 PUSH2 0x1325 JUMP JUMPDEST PUSH1 0x40 MLOAD PUSH2 0x2DD SWAP2 SWAP1 PUSH2 0x3012 JUMP JUMPDEST PUSH1 0x40 MLOAD DUP1 SWAP2 SUB SWAP1 RETURN JUMPDEST CALLVALUE DUP1 ISZERO PUSH2 0x2F2 JUMPI PUSH1 0x0 DUP1 REVERT JUMPDEST POP PUSH2 0x30D PUSH1 0x4 DUP1 CALLDATASIZE SUB DUP2 ADD SWAP1 PUSH2 0x308 SWAP2 SWAP1 PUSH2 0x302D JUMP JUMPDEST PUSH2 0x1349 JUMP JUMPDEST STOP JUMPDEST CALLVALUE DUP1 ISZERO PUSH2 0x31B JUMPI PUSH1 0x0 DUP1 REVERT JUMPDEST POP PUSH2 0x324 PUSH2 0x13D8 JUMP JUMPDEST PUSH1 0x40 MLOAD PUSH2 0x331 SWAP2 SWAP1 PUSH2 0x30F7 JUMP JUMPDEST PUSH1 0x40 MLOAD DUP1 SWAP2 SUB SWAP1 RETURN JUMPDEST PUSH2 0x354 PUSH1 0x4 DUP1 CALLDATASIZE SUB DUP2 ADD SWAP1 PUSH2 0x34F SWAP2 SWAP1 PUSH2 0x3112 JUMP JUMPDEST PUSH2 0x13FC JUMP JUMPDEST STOP JUMPDEST CALLVALUE DUP1 ISZERO PUSH2 0x362 JUMPI PUSH1 0x0 DUP1 REVERT JUMPDEST POP PUSH2 0x37D PUSH1 0x4 DUP1 CALLDATASIZE SUB DUP2 ADD SWAP1 PUSH2 0x378 SWAP2 SWAP1 PUSH2 0x3152 JUMP JUMPDEST PUSH2 0x1564 JUMP JUMPDEST STOP JUMPDEST CALLVALUE DUP1 ISZERO PUSH2 0x38B JUMPI PUSH1 0x0 DUP1 REVERT JUMPDEST POP PUSH2 0x394 PUSH2 0x16CB JUMP JUMPDEST PUSH1 0x40 MLOAD PUSH2 0x3A1 SWAP2 SWAP1 PUSH2 0x31B9 JUMP JUMPDEST PUSH1 0x40 MLOAD DUP1 SWAP2 SUB SWAP1 RETURN JUMPDEST CALLVALUE DUP1 ISZERO PUSH2 0x3B6 JUMPI PUSH1 0x0 DUP1 REVERT JUMPDEST POP PUSH2 0x3D1 PUSH1 0x4 DUP1 CALLDATASIZE SUB DUP2 ADD SWAP1 PUSH2 0x3CC SWAP2 SWAP1 PUSH2 0x31D4 JUMP JUMPDEST PUSH2 0x16D1 JUMP JUMPDEST STOP JUMPDEST CALLVALUE DUP1 ISZERO PUSH2 0x3DF JUMPI PUSH1 0x0 DUP1 REVERT JUMPDEST POP PUSH2 0x3E8 PUSH2 0x16EC JUMP JUMPDEST PUSH1 0x40 MLOAD PUSH2 0x3F5 SWAP2 SWAP1 PUSH2 0x3248 JUMP JUMPDEST PUSH1 0x40 MLOAD DUP1 SWAP2 SUB SWAP1 RETURN JUMPDEST CALLVALUE DUP1 ISZERO PUSH2 0x40A JUMPI PUSH1 0x0 DUP1 REVERT JUMPDEST POP PUSH2 0x425 PUSH1 0x4 DUP1 CALLDATASIZE SUB DUP2 ADD SWAP1 PUSH2 0x420 SWAP2 SWAP1 PUSH2 0x3263 JUMP JUMPDEST PUSH2 0x1710 JUMP JUMPDEST STOP JUMPDEST DUP7 PUSH20 0xFFFFFFFFFFFFFFFFFFFFFFFFFFFFFFFFFFFFFFFF AND PUSH4 0xD505ACCF CALLER ADDRESS DUP10 DUP9 DUP9 DUP9 DUP9 PUSH1 0x40 MLOAD DUP9 PUSH4 0xFFFFFFFF AND PUSH1 0xE0 SHL DUP2 MSTORE PUSH1 0x4 ADD PUSH2 0x46C SWAP8 SWAP7 SWAP6 SWAP5 SWAP4 SWAP3 SWAP2 SWAP1 PUSH2 0x3323 JUMP JUMPDEST PUSH1 0x0 PUSH1 0x40 MLOAD DUP1 DUP4 SUB DUP2 PUSH1 0x0 DUP8 DUP1 EXTCODESIZE ISZERO DUP1 ISZERO PUSH2 0x486 JUMPI PUSH1 0x0 DUP1 REVERT JUMPDEST POP GAS CALL ISZERO DUP1 ISZERO PUSH2 0x49A JUMPI RETURNDATASIZE PUSH1 0x0 DUP1 RETURNDATACOPY RETURNDATASIZE PUSH1 0x0 REVERT JUMPDEST POP POP POP POP PUSH2 0x4AA DUP9 DUP9 DUP9 DUP9 PUSH2 0xE6F JUMP JUMPDEST POP POP POP POP POP POP POP POP JUMP JUMPDEST PUSH2 0x3E8 CALLVALUE LT ISZERO PUSH2 0x4F9 JUMPI PUSH1 0x40 MLOAD PUSH32 0x8C379A000000000000000000000000000000000000000000000000000000000 DUP2 MSTORE PUSH1 0x4 ADD PUSH2 0x4F0 SWAP1 PUSH2 0x33EF JUMP JUMPDEST PUSH1 0x40 MLOAD DUP1 SWAP2 SUB SWAP1 REVERT JUMPDEST PUSH1 0x0 PUSH20 0xFFFFFFFFFFFFFFFFFFFFFFFFFFFFFFFFFFFFFFFF AND DUP4 PUSH20 0xFFFFFFFFFFFFFFFFFFFFFFFFFFFFFFFFFFFFFFFF AND EQ ISZERO PUSH2 0x569 JUMPI PUSH1 0x40 MLOAD PUSH32 0x8C379A000000000000000000000000000000000000000000000000000000000 DUP2 MSTORE PUSH1 0x4 ADD PUSH2 0x560 SWAP1 PUSH2 0x345B JUMP JUMPDEST PUSH1 0x40 MLOAD DUP1 SWAP2 SUB SWAP1 REVERT JUMPDEST DUP3 PUSH20 0xFFFFFFFFFFFFFFFFFFFFFFFFFFFFFFFFFFFFFFFF AND PUSH32 0x0 PUSH20 0xFFFFFFFFFFFFFFFFFFFFFFFFFFFFFFFFFFFFFFFF AND PUSH4 0x78ED5D1F DUP4 PUSH1 0x40 MLOAD DUP3 PUSH4 0xFFFFFFFF AND PUSH1 0xE0 SHL DUP2 MSTORE PUSH1 0x4 ADD PUSH2 0x5D9 SWAP2 SWAP1 PUSH2 0x31B9 JUMP JUMPDEST PUSH1 0x20 PUSH1 0x40 MLOAD DUP1 DUP4 SUB DUP2 PUSH1 0x0 DUP8 GAS CALL ISZERO DUP1 ISZERO PUSH2 0x5F8 JUMPI RETURNDATASIZE PUSH1 0x0 DUP1 RETURNDATACOPY RETURNDATASIZE PUSH1 0x0 REVERT JUMPDEST POP POP POP POP PUSH1 0x40 MLOAD RETURNDATASIZE PUSH1 0x1F NOT PUSH1 0x1F DUP3 ADD AND DUP3 ADD DUP1 PUSH1 0x40 MSTORE POP DUP2 ADD SWAP1 PUSH2 0x61C SWAP2 SWAP1 PUSH2 0x3490 JUMP JUMPDEST PUSH20 0xFFFFFFFFFFFFFFFFFFFFFFFFFFFFFFFFFFFFFFFF AND EQ PUSH2 0x672 JUMPI PUSH1 0x40 MLOAD PUSH32 0x8C379A000000000000000000000000000000000000000000000000000000000 DUP2 MSTORE PUSH1 0x4 ADD PUSH2 0x669 SWAP1 PUSH2 0x352F JUMP JUMPDEST PUSH1 0x40 MLOAD DUP1 SWAP2 SUB SWAP1 REVERT JUMPDEST PUSH32 0x0 PUSH20 0xFFFFFFFFFFFFFFFFFFFFFFFFFFFFFFFFFFFFFFFF AND PUSH4 0xD0E30DB0 CALLVALUE PUSH1 0x40 MLOAD DUP3 PUSH4 0xFFFFFFFF AND PUSH1 0xE0 SHL DUP2 MSTORE PUSH1 0x4 ADD PUSH1 0x0 PUSH1 0x40 MLOAD DUP1 DUP4 SUB DUP2 DUP6 DUP9 DUP1 EXTCODESIZE ISZERO DUP1 ISZERO PUSH2 0x6DA JUMPI PUSH1 0x0 DUP1 REVERT JUMPDEST POP GAS CALL ISZERO DUP1 ISZERO PUSH2 0x6EE JUMPI RETURNDATASIZE PUSH1 0x0 DUP1 RETURNDATACOPY RETURNDATASIZE PUSH1 0x0 REVERT JUMPDEST POP POP POP POP POP PUSH2 0x721 DUP4 PUSH32 0x0 DUP5 DUP5 PUSH1 0x1 PUSH2 0x179B JUMP JUMPDEST POP POP POP JUMP JUMPDEST DUP8 PUSH20 0xFFFFFFFFFFFFFFFFFFFFFFFFFFFFFFFFFFFFFFFF AND PUSH4 0xD505ACCF CALLER ADDRESS DUP11 DUP9 DUP9 DUP9 DUP9 PUSH1 0x40 MLOAD DUP9 PUSH4 0xFFFFFFFF AND PUSH1 0xE0 SHL DUP2 MSTORE PUSH1 0x4 ADD PUSH2 0x76B SWAP8 SWAP7 SWAP6 SWAP5 SWAP4 SWAP3 SWAP2 SWAP1 PUSH2 0x3323 JUMP JUMPDEST PUSH1 0x0 PUSH1 0x40 MLOAD DUP1 DUP4 SUB DUP2 PUSH1 0x0 DUP8 DUP1 EXTCODESIZE ISZERO DUP1 ISZERO PUSH2 0x785 JUMPI PUSH1 0x0 DUP1 REVERT JUMPDEST POP GAS CALL ISZERO DUP1 ISZERO PUSH2 0x799 JUMPI RETURNDATASIZE PUSH1 0x0 DUP1 RETURNDATACOPY RETURNDATASIZE PUSH1 0x0 REVERT JUMPDEST POP POP POP POP PUSH2 0x7A9 DUP9 DUP9 DUP9 DUP9 PUSH2 0x1564 JUMP JUMPDEST POP POP POP POP POP POP POP POP JUMP JUMPDEST PUSH1 0x0 DUP6 SWAP1 POP PUSH1 0x0 DUP2 PUSH20 0xFFFFFFFFFFFFFFFFFFFFFFFFFFFFFFFFFFFFFFFF AND PUSH4 0xDFE1681 PUSH1 0x40 MLOAD DUP2 PUSH4 0xFFFFFFFF AND PUSH1 0xE0 SHL DUP2 MSTORE PUSH1 0x4 ADD PUSH1 0x20 PUSH1 0x40 MLOAD DUP1 DUP4 SUB DUP2 DUP7 GAS STATICCALL ISZERO DUP1 ISZERO PUSH2 0x805 JUMPI RETURNDATASIZE PUSH1 0x0 DUP1 RETURNDATACOPY RETURNDATASIZE PUSH1 0x0 REVERT JUMPDEST POP POP POP POP PUSH1 0x40 MLOAD RETURNDATASIZE PUSH1 0x1F NOT PUSH1 0x1F DUP3 ADD AND DUP3 ADD DUP1 PUSH1 0x40 MSTORE POP DUP2 ADD SWAP1 PUSH2 0x829 SWAP2 SWAP1 PUSH2 0x3490 JUMP JUMPDEST SWAP1 POP PUSH1 0x0 DUP3 PUSH20 0xFFFFFFFFFFFFFFFFFFFFFFFFFFFFFFFFFFFFFFFF AND PUSH4 0xD21220A7 PUSH1 0x40 MLOAD DUP2 PUSH4 0xFFFFFFFF AND PUSH1 0xE0 SHL DUP2 MSTORE PUSH1 0x4 ADD PUSH1 0x20 PUSH1 0x40 MLOAD DUP1 DUP4 SUB DUP2 DUP7 GAS STATICCALL ISZERO DUP1 ISZERO PUSH2 0x878 JUMPI RETURNDATASIZE PUSH1 0x0 DUP1 RETURNDATACOPY RETURNDATASIZE PUSH1 0x0 REVERT JUMPDEST POP POP POP POP PUSH1 0x40 MLOAD RETURNDATASIZE PUSH1 0x1F NOT PUSH1 0x1F DUP3 ADD AND DUP3 ADD DUP1 PUSH1 0x40 MSTORE POP DUP2 ADD SWAP1 PUSH2 0x89C SWAP2 SWAP1 PUSH2 0x3490 JUMP JUMPDEST SWAP1 POP DUP6 PUSH20 0xFFFFFFFFFFFFFFFFFFFFFFFFFFFFFFFFFFFFFFFF AND DUP3 PUSH20 0xFFFFFFFFFFFFFFFFFFFFFFFFFFFFFFFFFFFFFFFF AND EQ DUP1 PUSH2 0x903 JUMPI POP DUP6 PUSH20 0xFFFFFFFFFFFFFFFFFFFFFFFFFFFFFFFFFFFFFFFF AND DUP2 PUSH20 0xFFFFFFFFFFFFFFFFFFFFFFFFFFFFFFFFFFFFFFFF AND EQ JUMPDEST PUSH2 0x942 JUMPI PUSH1 0x40 MLOAD PUSH32 0x8C379A000000000000000000000000000000000000000000000000000000000 DUP2 MSTORE PUSH1 0x4 ADD PUSH2 0x939 SWAP1 PUSH2 0x35C1 JUMP JUMPDEST PUSH1 0x40 MLOAD DUP1 SWAP2 SUB SWAP1 REVERT JUMPDEST PUSH2 0x94E DUP9 CALLER ADDRESS DUP11 PUSH2 0x1FE0 JUMP JUMPDEST PUSH2 0x958 DUP9 ADDRESS PUSH2 0x2119 JUMP JUMPDEST PUSH1 0x0 DUP7 PUSH20 0xFFFFFFFFFFFFFFFFFFFFFFFFFFFFFFFFFFFFFFFF AND DUP3 PUSH20 0xFFFFFFFFFFFFFFFFFFFFFFFFFFFFFFFFFFFFFFFF AND EQ PUSH2 0x993 JUMPI DUP2 PUSH2 0x995 JUMP JUMPDEST DUP3 JUMPDEST SWAP1 POP PUSH1 0x0 PUSH1 0x2 PUSH8 0xFFFFFFFFFFFFFFFF DUP2 GT ISZERO PUSH2 0x9B4 JUMPI PUSH2 0x9B3 PUSH2 0x35E1 JUMP JUMPDEST JUMPDEST PUSH1 0x40 MLOAD SWAP1 DUP1 DUP3 MSTORE DUP1 PUSH1 0x20 MUL PUSH1 0x20 ADD DUP3 ADD PUSH1 0x40 MSTORE DUP1 ISZERO PUSH2 0x9E2 JUMPI DUP2 PUSH1 0x20 ADD PUSH1 0x20 DUP3 MUL DUP1 CALLDATASIZE DUP4 CALLDATACOPY DUP1 DUP3 ADD SWAP2 POP POP SWAP1 POP JUMPDEST POP SWAP1 POP DUP2 DUP2 PUSH1 0x0 DUP2 MLOAD DUP2 LT PUSH2 0x9FA JUMPI PUSH2 0x9F9 PUSH2 0x3610 JUMP JUMPDEST JUMPDEST PUSH1 0x20 MUL PUSH1 0x20 ADD ADD SWAP1 PUSH20 0xFFFFFFFFFFFFFFFFFFFFFFFFFFFFFFFFFFFFFFFF AND SWAP1 DUP2 PUSH20 0xFFFFFFFFFFFFFFFFFFFFFFFFFFFFFFFFFFFFFFFF AND DUP2 MSTORE POP POP DUP8 DUP2 PUSH1 0x1 DUP2 MLOAD DUP2 LT PUSH2 0xA49 JUMPI PUSH2 0xA48 PUSH2 0x3610 JUMP JUMPDEST JUMPDEST PUSH1 0x20 MUL PUSH1 0x20 ADD ADD SWAP1 PUSH20 0xFFFFFFFFFFFFFFFFFFFFFFFFFFFFFFFFFFFFFFFF AND SWAP1 DUP2 PUSH20 0xFFFFFFFFFFFFFFFFFFFFFFFFFFFFFFFFFFFFFFFF AND DUP2 MSTORE POP POP PUSH2 0xAC8 DUP2 PUSH1 0x0 DUP2 MLOAD DUP2 LT PUSH2 0xA9A JUMPI PUSH2 0xA99 PUSH2 0x3610 JUMP JUMPDEST JUMPDEST PUSH1 0x20 MUL PUSH1 0x20 ADD ADD MLOAD PUSH32 0x0 PUSH2 0x22AF JUMP JUMPDEST PUSH32 0x0 PUSH20 0xFFFFFFFFFFFFFFFFFFFFFFFFFFFFFFFFFFFFFFFF AND PUSH4 0x38ED1739 DUP4 PUSH20 0xFFFFFFFFFFFFFFFFFFFFFFFFFFFFFFFFFFFFFFFF AND PUSH4 0x70A08231 ADDRESS PUSH1 0x40 MLOAD DUP3 PUSH4 0xFFFFFFFF AND PUSH1 0xE0 SHL DUP2 MSTORE PUSH1 0x4 ADD PUSH2 0xB3D SWAP2 SWAP1 PUSH2 0x30F7 JUMP JUMPDEST PUSH1 0x20 PUSH1 0x40 MLOAD DUP1 DUP4 SUB DUP2 DUP7 GAS STATICCALL ISZERO DUP1 ISZERO PUSH2 0xB5A JUMPI RETURNDATASIZE PUSH1 0x0 DUP1 RETURNDATACOPY RETURNDATASIZE PUSH1 0x0 REVERT JUMPDEST POP POP POP POP PUSH1 0x40 MLOAD RETURNDATASIZE PUSH1 0x1F NOT PUSH1 0x1F DUP3 ADD AND DUP3 ADD DUP1 PUSH1 0x40 MSTORE POP DUP2 ADD SWAP1 PUSH2 0xB7E SWAP2 SWAP1 PUSH2 0x3654 JUMP JUMPDEST DUP10 DUP5 ADDRESS TIMESTAMP PUSH1 0x40 MLOAD DUP7 PUSH4 0xFFFFFFFF AND PUSH1 0xE0 SHL DUP2 MSTORE PUSH1 0x4 ADD PUSH2 0xBA2 SWAP6 SWAP5 SWAP4 SWAP3 SWAP2 SWAP1 PUSH2 0x373F JUMP JUMPDEST PUSH1 0x0 PUSH1 0x40 MLOAD DUP1 DUP4 SUB DUP2 PUSH1 0x0 DUP8 GAS CALL ISZERO DUP1 ISZERO PUSH2 0xBC1 JUMPI RETURNDATASIZE PUSH1 0x0 DUP1 RETURNDATACOPY RETURNDATASIZE PUSH1 0x0 REVERT JUMPDEST POP POP POP POP PUSH1 0x40 MLOAD RETURNDATASIZE PUSH1 0x0 DUP3 RETURNDATACOPY RETURNDATASIZE PUSH1 0x1F NOT PUSH1 0x1F DUP3 ADD AND DUP3 ADD DUP1 PUSH1 0x40 MSTORE POP DUP2 ADD SWAP1 PUSH2 0xBEA SWAP2 SWAP1 PUSH2 0x38C3 JUMP JUMPDEST POP PUSH2 0xBF5 DUP2 DUP8 PUSH2 0x2363 JUMP JUMPDEST POP POP POP POP POP POP POP POP POP POP JUMP JUMPDEST PUSH2 0x3E8 DUP4 LT ISZERO PUSH2 0xC46 JUMPI PUSH1 0x40 MLOAD PUSH32 0x8C379A000000000000000000000000000000000000000000000000000000000 DUP2 MSTORE PUSH1 0x4 ADD PUSH2 0xC3D SWAP1 PUSH2 0x33EF JUMP JUMPDEST PUSH1 0x40 MLOAD DUP1 SWAP2 SUB SWAP1 REVERT JUMPDEST PUSH1 0x0 PUSH20 0xFFFFFFFFFFFFFFFFFFFFFFFFFFFFFFFFFFFFFFFF AND DUP6 PUSH20 0xFFFFFFFFFFFFFFFFFFFFFFFFFFFFFFFFFFFFFFFF AND EQ ISZERO PUSH2 0xCB6 JUMPI PUSH1 0x40 MLOAD PUSH32 0x8C379A000000000000000000000000000000000000000000000000000000000 DUP2 MSTORE PUSH1 0x4 ADD PUSH2 0xCAD SWAP1 PUSH2 0x345B JUMP JUMPDEST PUSH1 0x40 MLOAD DUP1 SWAP2 SUB SWAP1 REVERT JUMPDEST DUP5 PUSH20 0xFFFFFFFFFFFFFFFFFFFFFFFFFFFFFFFFFFFFFFFF AND PUSH32 0x0 PUSH20 0xFFFFFFFFFFFFFFFFFFFFFFFFFFFFFFFFFFFFFFFF AND PUSH4 0x78ED5D1F DUP4 PUSH1 0x40 MLOAD DUP3 PUSH4 0xFFFFFFFF AND PUSH1 0xE0 SHL DUP2 MSTORE PUSH1 0x4 ADD PUSH2 0xD26 SWAP2 SWAP1 PUSH2 0x31B9 JUMP JUMPDEST PUSH1 0x20 PUSH1 0x40 MLOAD DUP1 DUP4 SUB DUP2 PUSH1 0x0 DUP8 GAS CALL ISZERO DUP1 ISZERO PUSH2 0xD45 JUMPI RETURNDATASIZE PUSH1 0x0 DUP1 RETURNDATACOPY RETURNDATASIZE PUSH1 0x0 REVERT JUMPDEST POP POP POP POP PUSH1 0x40 MLOAD RETURNDATASIZE PUSH1 0x1F NOT PUSH1 0x1F DUP3 ADD AND DUP3 ADD DUP1 PUSH1 0x40 MSTORE POP DUP2 ADD SWAP1 PUSH2 0xD69 SWAP2 SWAP1 PUSH2 0x3490 JUMP JUMPDEST PUSH20 0xFFFFFFFFFFFFFFFFFFFFFFFFFFFFFFFFFFFFFFFF AND EQ PUSH2 0xDBF JUMPI PUSH1 0x40 MLOAD PUSH32 0x8C379A000000000000000000000000000000000000000000000000000000000 DUP2 MSTORE PUSH1 0x4 ADD PUSH2 0xDB6 SWAP1 PUSH2 0x352F JUMP JUMPDEST PUSH1 0x40 MLOAD DUP1 SWAP2 SUB SWAP1 REVERT JUMPDEST PUSH2 0xDCB DUP5 CALLER ADDRESS DUP7 PUSH2 0x1FE0 JUMP JUMPDEST PUSH2 0xDD9 DUP6 DUP6 DUP5 DUP5 PUSH1 0x1 PUSH2 0x179B JUMP JUMPDEST POP POP POP POP POP JUMP JUMPDEST DUP9 PUSH20 0xFFFFFFFFFFFFFFFFFFFFFFFFFFFFFFFFFFFFFFFF AND PUSH4 0xD505ACCF CALLER ADDRESS DUP12 DUP9 DUP9 DUP9 DUP9 PUSH1 0x40 MLOAD DUP9 PUSH4 0xFFFFFFFF AND PUSH1 0xE0 SHL DUP2 MSTORE PUSH1 0x4 ADD PUSH2 0xE25 SWAP8 SWAP7 SWAP6 SWAP5 SWAP4 SWAP3 SWAP2 SWAP1 PUSH2 0x3323 JUMP JUMPDEST PUSH1 0x0 PUSH1 0x40 MLOAD DUP1 DUP4 SUB DUP2 PUSH1 0x0 DUP8 DUP1 EXTCODESIZE ISZERO DUP1 ISZERO PUSH2 0xE3F JUMPI PUSH1 0x0 DUP1 REVERT JUMPDEST POP GAS CALL ISZERO DUP1 ISZERO PUSH2 0xE53 JUMPI RETURNDATASIZE PUSH1 0x0 DUP1 RETURNDATACOPY RETURNDATASIZE PUSH1 0x0 REVERT JUMPDEST POP POP POP POP PUSH2 0xE64 DUP10 DUP10 DUP10 DUP10 DUP10 PUSH2 0x7B3 JUMP JUMPDEST POP POP POP POP POP POP POP POP POP JUMP JUMPDEST PUSH2 0x3E8 DUP3 LT ISZERO PUSH2 0xEB4 JUMPI PUSH1 0x40 MLOAD PUSH32 0x8C379A000000000000000000000000000000000000000000000000000000000 DUP2 MSTORE PUSH1 0x4 ADD PUSH2 0xEAB SWAP1 PUSH2 0x33EF JUMP JUMPDEST PUSH1 0x40 MLOAD DUP1 SWAP2 SUB SWAP1 REVERT JUMPDEST PUSH1 0x0 PUSH20 0xFFFFFFFFFFFFFFFFFFFFFFFFFFFFFFFFFFFFFFFF AND DUP5 PUSH20 0xFFFFFFFFFFFFFFFFFFFFFFFFFFFFFFFFFFFFFFFF AND EQ ISZERO PUSH2 0xF24 JUMPI PUSH1 0x40 MLOAD PUSH32 0x8C379A000000000000000000000000000000000000000000000000000000000 DUP2 MSTORE PUSH1 0x4 ADD PUSH2 0xF1B SWAP1 PUSH2 0x345B JUMP JUMPDEST PUSH1 0x40 MLOAD DUP1 SWAP2 SUB SWAP1 REVERT JUMPDEST PUSH2 0xF30 DUP4 CALLER ADDRESS DUP6 PUSH2 0x1FE0 JUMP JUMPDEST PUSH2 0xF3E DUP5 DUP5 DUP4 PUSH1 0x0 DUP1 PUSH2 0x179B JUMP JUMPDEST POP POP POP POP JUMP JUMPDEST PUSH1 0x0 DUP1 PUSH1 0x0 DUP1 DUP7 SWAP1 POP PUSH1 0x0 DUP7 PUSH20 0xFFFFFFFFFFFFFFFFFFFFFFFFFFFFFFFFFFFFFFFF AND DUP3 PUSH20 0xFFFFFFFFFFFFFFFFFFFFFFFFFFFFFFFFFFFFFFFF AND PUSH4 0xDFE1681 PUSH1 0x40 MLOAD DUP2 PUSH4 0xFFFFFFFF AND PUSH1 0xE0 SHL DUP2 MSTORE PUSH1 0x4 ADD PUSH1 0x20 PUSH1 0x40 MLOAD DUP1 DUP4 SUB DUP2 DUP7 GAS STATICCALL ISZERO DUP1 ISZERO PUSH2 0xFB1 JUMPI RETURNDATASIZE PUSH1 0x0 DUP1 RETURNDATACOPY RETURNDATASIZE PUSH1 0x0 REVERT JUMPDEST POP POP POP POP PUSH1 0x40 MLOAD RETURNDATASIZE PUSH1 0x1F NOT PUSH1 0x1F DUP3 ADD AND DUP3 ADD DUP1 PUSH1 0x40 MSTORE POP DUP2 ADD SWAP1 PUSH2 0xFD5 SWAP2 SWAP1 PUSH2 0x3490 JUMP JUMPDEST PUSH20 0xFFFFFFFFFFFFFFFFFFFFFFFFFFFFFFFFFFFFFFFF AND EQ SWAP1 POP DUP1 DUP1 PUSH2 0x1093 JUMPI POP DUP7 PUSH20 0xFFFFFFFFFFFFFFFFFFFFFFFFFFFFFFFFFFFFFFFF AND DUP3 PUSH20 0xFFFFFFFFFFFFFFFFFFFFFFFFFFFFFFFFFFFFFFFF AND PUSH4 0xD21220A7 PUSH1 0x40 MLOAD DUP2 PUSH4 0xFFFFFFFF AND PUSH1 0xE0 SHL DUP2 MSTORE PUSH1 0x4 ADD PUSH1 0x20 PUSH1 0x40 MLOAD DUP1 DUP4 SUB DUP2 DUP7 GAS STATICCALL ISZERO DUP1 ISZERO PUSH2 0x1057 JUMPI RETURNDATASIZE PUSH1 0x0 DUP1 RETURNDATACOPY RETURNDATASIZE PUSH1 0x0 REVERT JUMPDEST POP POP POP POP PUSH1 0x40 MLOAD RETURNDATASIZE PUSH1 0x1F NOT PUSH1 0x1F DUP3 ADD AND DUP3 ADD DUP1 PUSH1 0x40 MSTORE POP DUP2 ADD SWAP1 PUSH2 0x107B SWAP2 SWAP1 PUSH2 0x3490 JUMP JUMPDEST PUSH20 0xFFFFFFFFFFFFFFFFFFFFFFFFFFFFFFFFFFFFFFFF AND EQ JUMPDEST PUSH2 0x10D2 JUMPI PUSH1 0x40 MLOAD PUSH32 0x8C379A000000000000000000000000000000000000000000000000000000000 DUP2 MSTORE PUSH1 0x4 ADD PUSH2 0x10C9 SWAP1 PUSH2 0x397E JUMP JUMPDEST PUSH1 0x40 MLOAD DUP1 SWAP2 SUB SWAP1 REVERT JUMPDEST PUSH1 0x0 DUP1 DUP4 PUSH20 0xFFFFFFFFFFFFFFFFFFFFFFFFFFFFFFFFFFFFFFFF AND PUSH4 0x902F1AC PUSH1 0x40 MLOAD DUP2 PUSH4 0xFFFFFFFF AND PUSH1 0xE0 SHL DUP2 MSTORE PUSH1 0x4 ADD PUSH1 0x60 PUSH1 0x40 MLOAD DUP1 DUP4 SUB DUP2 DUP7 GAS STATICCALL ISZERO DUP1 ISZERO PUSH2 0x1120 JUMPI RETURNDATASIZE PUSH1 0x0 DUP1 RETURNDATACOPY RETURNDATASIZE PUSH1 0x0 REVERT JUMPDEST POP POP POP POP PUSH1 0x40 MLOAD RETURNDATASIZE PUSH1 0x1F NOT PUSH1 0x1F DUP3 ADD AND DUP3 ADD DUP1 PUSH1 0x40 MSTORE POP DUP2 ADD SWAP1 PUSH2 0x1144 SWAP2 SWAP1 PUSH2 0x3A20 JUMP JUMPDEST POP PUSH14 0xFFFFFFFFFFFFFFFFFFFFFFFFFFFF AND SWAP2 POP PUSH14 0xFFFFFFFFFFFFFFFFFFFFFFFFFFFF AND SWAP2 POP DUP3 PUSH2 0x1175 JUMPI DUP1 DUP3 PUSH2 0x1178 JUMP JUMPDEST DUP2 DUP2 JUMPDEST DUP1 SWAP3 POP DUP2 SWAP4 POP POP POP PUSH2 0x118B DUP9 DUP4 DUP4 PUSH2 0x244C JUMP JUMPDEST SWAP7 POP PUSH32 0x0 PUSH20 0xFFFFFFFFFFFFFFFFFFFFFFFFFFFFFFFFFFFFFFFF AND PUSH4 0x54D50D4 DUP9 DUP5 DUP5 PUSH1 0x40 MLOAD DUP5 PUSH4 0xFFFFFFFF AND PUSH1 0xE0 SHL DUP2 MSTORE PUSH1 0x4 ADD PUSH2 0x11EA SWAP4 SWAP3 SWAP2 SWAP1 PUSH2 0x3A73 JUMP JUMPDEST PUSH1 0x20 PUSH1 0x40 MLOAD DUP1 DUP4 SUB DUP2 DUP7 GAS STATICCALL ISZERO DUP1 ISZERO PUSH2 0x1207 JUMPI RETURNDATASIZE PUSH1 0x0 DUP1 RETURNDATACOPY RETURNDATASIZE PUSH1 0x0 REVERT JUMPDEST POP POP POP POP PUSH1 0x40 MLOAD RETURNDATASIZE PUSH1 0x1F NOT PUSH1 0x1F DUP3 ADD AND DUP3 ADD DUP1 PUSH1 0x40 MSTORE POP DUP2 ADD SWAP1 PUSH2 0x122B SWAP2 SWAP1 PUSH2 0x3654 JUMP JUMPDEST SWAP6 POP DUP3 PUSH2 0x12A6 JUMPI DUP4 PUSH20 0xFFFFFFFFFFFFFFFFFFFFFFFFFFFFFFFFFFFFFFFF AND PUSH4 0xDFE1681 PUSH1 0x40 MLOAD DUP2 PUSH4 0xFFFFFFFF AND PUSH1 0xE0 SHL DUP2 MSTORE PUSH1 0x4 ADD PUSH1 0x20 PUSH1 0x40 MLOAD DUP1 DUP4 SUB DUP2 DUP7 GAS STATICCALL ISZERO DUP1 ISZERO PUSH2 0x127D JUMPI RETURNDATASIZE PUSH1 0x0 DUP1 RETURNDATACOPY RETURNDATASIZE PUSH1 0x0 REVERT JUMPDEST POP POP POP POP PUSH1 0x40 MLOAD RETURNDATASIZE PUSH1 0x1F NOT PUSH1 0x1F DUP3 ADD AND DUP3 ADD DUP1 PUSH1 0x40 MSTORE POP DUP2 ADD SWAP1 PUSH2 0x12A1 SWAP2 SWAP1 PUSH2 0x3490 JUMP JUMPDEST PUSH2 0x1316 JUMP JUMPDEST DUP4 PUSH20 0xFFFFFFFFFFFFFFFFFFFFFFFFFFFFFFFFFFFFFFFF AND PUSH4 0xD21220A7 PUSH1 0x40 MLOAD DUP2 PUSH4 0xFFFFFFFF AND PUSH1 0xE0 SHL DUP2 MSTORE PUSH1 0x4 ADD PUSH1 0x20 PUSH1 0x40 MLOAD DUP1 DUP4 SUB DUP2 DUP7 GAS STATICCALL ISZERO DUP1 ISZERO PUSH2 0x12F1 JUMPI RETURNDATASIZE PUSH1 0x0 DUP1 RETURNDATACOPY RETURNDATASIZE PUSH1 0x0 REVERT JUMPDEST POP POP POP POP PUSH1 0x40 MLOAD RETURNDATASIZE PUSH1 0x1F NOT PUSH1 0x1F DUP3 ADD AND DUP3 ADD DUP1 PUSH1 0x40 MSTORE POP DUP2 ADD SWAP1 PUSH2 0x1315 SWAP2 SWAP1 PUSH2 0x3490 JUMP JUMPDEST JUMPDEST SWAP5 POP POP POP POP POP SWAP4 POP SWAP4 POP SWAP4 SWAP1 POP JUMP JUMPDEST PUSH32 0x0 DUP2 JUMP JUMPDEST DUP8 PUSH20 0xFFFFFFFFFFFFFFFFFFFFFFFFFFFFFFFFFFFFFFFF AND PUSH4 0xD505ACCF CALLER ADDRESS DUP11 DUP9 DUP9 DUP9 DUP9 PUSH1 0x40 MLOAD DUP9 PUSH4 0xFFFFFFFF AND PUSH1 0xE0 SHL DUP2 MSTORE PUSH1 0x4 ADD PUSH2 0x138E SWAP8 SWAP7 SWAP6 SWAP5 SWAP4 SWAP3 SWAP2 SWAP1 PUSH2 0x3323 JUMP JUMPDEST PUSH1 0x0 PUSH1 0x40 MLOAD DUP1 DUP4 SUB DUP2 PUSH1 0x0 DUP8 DUP1 EXTCODESIZE ISZERO DUP1 ISZERO PUSH2 0x13A8 JUMPI PUSH1 0x0 DUP1 REVERT JUMPDEST POP GAS CALL ISZERO DUP1 ISZERO PUSH2 0x13BC JUMPI RETURNDATASIZE PUSH1 0x0 DUP1 RETURNDATACOPY RETURNDATASIZE PUSH1 0x0 REVERT JUMPDEST POP POP POP POP PUSH2 0x13CD DUP10 DUP10 DUP10 DUP10 DUP10 PUSH2 0xC01 JUMP JUMPDEST POP POP POP POP POP POP POP POP POP JUMP JUMPDEST PUSH32 0x0 DUP2 JUMP JUMPDEST PUSH2 0x3E8 CALLVALUE LT ISZERO PUSH2 0x1441 JUMPI PUSH1 0x40 MLOAD PUSH32 0x8C379A000000000000000000000000000000000000000000000000000000000 DUP2 MSTORE PUSH1 0x4 ADD PUSH2 0x1438 SWAP1 PUSH2 0x33EF JUMP JUMPDEST PUSH1 0x40 MLOAD DUP1 SWAP2 SUB SWAP1 REVERT JUMPDEST PUSH1 0x0 PUSH20 0xFFFFFFFFFFFFFFFFFFFFFFFFFFFFFFFFFFFFFFFF AND DUP3 PUSH20 0xFFFFFFFFFFFFFFFFFFFFFFFFFFFFFFFFFFFFFFFF AND EQ ISZERO PUSH2 0x14B1 JUMPI PUSH1 0x40 MLOAD PUSH32 0x8C379A000000000000000000000000000000000000000000000000000000000 DUP2 MSTORE PUSH1 0x4 ADD PUSH2 0x14A8 SWAP1 PUSH2 0x345B JUMP JUMPDEST PUSH1 0x40 MLOAD DUP1 SWAP2 SUB SWAP1 REVERT JUMPDEST PUSH32 0x0 PUSH20 0xFFFFFFFFFFFFFFFFFFFFFFFFFFFFFFFFFFFFFFFF AND PUSH4 0xD0E30DB0 CALLVALUE PUSH1 0x40 MLOAD DUP3 PUSH4 0xFFFFFFFF AND PUSH1 0xE0 SHL DUP2 MSTORE PUSH1 0x4 ADD PUSH1 0x0 PUSH1 0x40 MLOAD DUP1 DUP4 SUB DUP2 DUP6 DUP9 DUP1 EXTCODESIZE ISZERO DUP1 ISZERO PUSH2 0x1519 JUMPI PUSH1 0x0 DUP1 REVERT JUMPDEST POP GAS CALL ISZERO DUP1 ISZERO PUSH2 0x152D JUMPI RETURNDATASIZE PUSH1 0x0 DUP1 RETURNDATACOPY RETURNDATASIZE PUSH1 0x0 REVERT JUMPDEST POP POP POP POP POP PUSH2 0x1560 DUP3 PUSH32 0x0 DUP4 PUSH1 0x0 DUP1 PUSH2 0x179B JUMP JUMPDEST POP POP JUMP JUMPDEST PUSH2 0x1591 DUP5 DUP5 PUSH32 0x0 DUP6 ADDRESS PUSH2 0x7B3 JUMP JUMPDEST PUSH1 0x0 PUSH32 0x0 PUSH20 0xFFFFFFFFFFFFFFFFFFFFFFFFFFFFFFFFFFFFFFFF AND PUSH4 0x70A08231 ADDRESS PUSH1 0x40 MLOAD DUP3 PUSH4 0xFFFFFFFF AND PUSH1 0xE0 SHL DUP2 MSTORE PUSH1 0x4 ADD PUSH2 0x15EC SWAP2 SWAP1 PUSH2 0x30F7 JUMP JUMPDEST PUSH1 0x20 PUSH1 0x40 MLOAD DUP1 DUP4 SUB DUP2 DUP7 GAS STATICCALL ISZERO DUP1 ISZERO PUSH2 0x1609 JUMPI RETURNDATASIZE PUSH1 0x0 DUP1 RETURNDATACOPY RETURNDATASIZE PUSH1 0x0 REVERT JUMPDEST POP POP POP POP PUSH1 0x40 MLOAD RETURNDATASIZE PUSH1 0x1F NOT PUSH1 0x1F DUP3 ADD AND DUP3 ADD DUP1 PUSH1 0x40 MSTORE POP DUP2 ADD SWAP1 PUSH2 0x162D SWAP2 SWAP1 PUSH2 0x3654 JUMP JUMPDEST SWAP1 POP PUSH32 0x0 PUSH20 0xFFFFFFFFFFFFFFFFFFFFFFFFFFFFFFFFFFFFFFFF AND PUSH4 0x2E1A7D4D DUP3 PUSH1 0x40 MLOAD DUP3 PUSH4 0xFFFFFFFF AND PUSH1 0xE0 SHL DUP2 MSTORE PUSH1 0x4 ADD PUSH2 0x1688 SWAP2 SWAP1 PUSH2 0x31B9 JUMP JUMPDEST PUSH1 0x0 PUSH1 0x40 MLOAD DUP1 DUP4 SUB DUP2 PUSH1 0x0 DUP8 DUP1 EXTCODESIZE ISZERO DUP1 ISZERO PUSH2 0x16A2 JUMPI PUSH1 0x0 DUP1 REVERT JUMPDEST POP GAS CALL ISZERO DUP1 ISZERO PUSH2 0x16B6 JUMPI RETURNDATASIZE PUSH1 0x0 DUP1 RETURNDATACOPY RETURNDATASIZE PUSH1 0x0 REVERT JUMPDEST POP POP POP POP PUSH2 0x16C4 DUP3 DUP3 PUSH2 0x25F9 JUMP JUMPDEST POP POP POP POP POP JUMP JUMPDEST PUSH2 0x3E8 DUP2 JUMP JUMPDEST PUSH2 0x16DD DUP4 CALLER ADDRESS DUP6 PUSH2 0x1FE0 JUMP JUMPDEST PUSH2 0x16E7 DUP4 DUP3 PUSH2 0x2119 JUMP JUMPDEST POP POP POP JUMP JUMPDEST PUSH32 0x0 DUP2 JUMP JUMPDEST DUP7 PUSH20 0xFFFFFFFFFFFFFFFFFFFFFFFFFFFFFFFFFFFFFFFF AND PUSH4 0xD505ACCF CALLER ADDRESS DUP10 DUP9 DUP9 DUP9 DUP9 PUSH1 0x40 MLOAD DUP9 PUSH4 0xFFFFFFFF AND PUSH1 0xE0 SHL DUP2 MSTORE PUSH1 0x4 ADD PUSH2 0x1755 SWAP8 SWAP7 SWAP6 SWAP5 SWAP4 SWAP3 SWAP2 SWAP1 PUSH2 0x3323 JUMP JUMPDEST PUSH1 0x0 PUSH1 0x40 MLOAD DUP1 DUP4 SUB DUP2 PUSH1 0x0 DUP8 DUP1 EXTCODESIZE ISZERO DUP1 ISZERO PUSH2 0x176F JUMPI PUSH1 0x0 DUP1 REVERT JUMPDEST POP GAS CALL ISZERO DUP1 ISZERO PUSH2 0x1783 JUMPI RETURNDATASIZE PUSH1 0x0 DUP1 RETURNDATACOPY RETURNDATASIZE PUSH1 0x0 REVERT JUMPDEST POP POP POP POP PUSH2 0x1792 DUP8 DUP8 DUP8 PUSH2 0x16D1 JUMP JUMPDEST POP POP POP POP POP POP POP JUMP JUMPDEST PUSH1 0x0 DUP6 SWAP1 POP PUSH1 0x0 DUP1 DUP3 PUSH20 0xFFFFFFFFFFFFFFFFFFFFFFFFFFFFFFFFFFFFFFFF AND PUSH4 0x902F1AC PUSH1 0x40 MLOAD DUP2 PUSH4 0xFFFFFFFF AND PUSH1 0xE0 SHL DUP2 MSTORE PUSH1 0x4 ADD PUSH1 0x60 PUSH1 0x40 MLOAD DUP1 DUP4 SUB DUP2 DUP7 GAS STATICCALL ISZERO DUP1 ISZERO PUSH2 0x17EE JUMPI RETURNDATASIZE PUSH1 0x0 DUP1 RETURNDATACOPY RETURNDATASIZE PUSH1 0x0 REVERT JUMPDEST POP POP POP POP PUSH1 0x40 MLOAD RETURNDATASIZE PUSH1 0x1F NOT PUSH1 0x1F DUP3 ADD AND DUP3 ADD DUP1 PUSH1 0x40 MSTORE POP DUP2 ADD SWAP1 PUSH2 0x1812 SWAP2 SWAP1 PUSH2 0x3A20 JUMP JUMPDEST POP PUSH14 0xFFFFFFFFFFFFFFFFFFFFFFFFFFFF AND SWAP2 POP PUSH14 0xFFFFFFFFFFFFFFFFFFFFFFFFFFFF AND SWAP2 POP PUSH2 0x3E8 DUP3 GT DUP1 ISZERO PUSH2 0x1849 JUMPI POP PUSH2 0x3E8 DUP2 GT JUMPDEST PUSH2 0x1888 JUMPI PUSH1 0x40 MLOAD PUSH32 0x8C379A000000000000000000000000000000000000000000000000000000000 DUP2 MSTORE PUSH1 0x4 ADD PUSH2 0x187F SWAP1 PUSH2 0x3AF6 JUMP JUMPDEST PUSH1 0x40 MLOAD DUP1 SWAP2 SUB SWAP1 REVERT JUMPDEST PUSH1 0x0 DUP8 PUSH20 0xFFFFFFFFFFFFFFFFFFFFFFFFFFFFFFFFFFFFFFFF AND DUP5 PUSH20 0xFFFFFFFFFFFFFFFFFFFFFFFFFFFFFFFFFFFFFFFF AND PUSH4 0xDFE1681 PUSH1 0x40 MLOAD DUP2 PUSH4 0xFFFFFFFF AND PUSH1 0xE0 SHL DUP2 MSTORE PUSH1 0x4 ADD PUSH1 0x20 PUSH1 0x40 MLOAD DUP1 DUP4 SUB DUP2 DUP7 GAS STATICCALL ISZERO DUP1 ISZERO PUSH2 0x18EC JUMPI RETURNDATASIZE PUSH1 0x0 DUP1 RETURNDATACOPY RETURNDATASIZE PUSH1 0x0 REVERT JUMPDEST POP POP POP POP PUSH1 0x40 MLOAD RETURNDATASIZE PUSH1 0x1F NOT PUSH1 0x1F DUP3 ADD AND DUP3 ADD DUP1 PUSH1 0x40 MSTORE POP DUP2 ADD SWAP1 PUSH2 0x1910 SWAP2 SWAP1 PUSH2 0x3490 JUMP JUMPDEST PUSH20 0xFFFFFFFFFFFFFFFFFFFFFFFFFFFFFFFFFFFFFFFF AND EQ SWAP1 POP DUP1 DUP1 PUSH2 0x19CE JUMPI POP DUP8 PUSH20 0xFFFFFFFFFFFFFFFFFFFFFFFFFFFFFFFFFFFFFFFF AND DUP5 PUSH20 0xFFFFFFFFFFFFFFFFFFFFFFFFFFFFFFFFFFFFFFFF AND PUSH4 0xD21220A7 PUSH1 0x40 MLOAD DUP2 PUSH4 0xFFFFFFFF AND PUSH1 0xE0 SHL DUP2 MSTORE PUSH1 0x4 ADD PUSH1 0x20 PUSH1 0x40 MLOAD DUP1 DUP4 SUB DUP2 DUP7 GAS STATICCALL ISZERO DUP1 ISZERO PUSH2 0x1992 JUMPI RETURNDATASIZE PUSH1 0x0 DUP1 RETURNDATACOPY RETURNDATASIZE PUSH1 0x0 REVERT JUMPDEST POP POP POP POP PUSH1 0x40 MLOAD RETURNDATASIZE PUSH1 0x1F NOT PUSH1 0x1F DUP3 ADD AND DUP3 ADD DUP1 PUSH1 0x40 MSTORE POP DUP2 ADD SWAP1 PUSH2 0x19B6 SWAP2 SWAP1 PUSH2 0x3490 JUMP JUMPDEST PUSH20 0xFFFFFFFFFFFFFFFFFFFFFFFFFFFFFFFFFFFFFFFF AND EQ JUMPDEST PUSH2 0x1A0D JUMPI PUSH1 0x40 MLOAD PUSH32 0x8C379A000000000000000000000000000000000000000000000000000000000 DUP2 MSTORE PUSH1 0x4 ADD PUSH2 0x1A04 SWAP1 PUSH2 0x397E JUMP JUMPDEST PUSH1 0x40 MLOAD DUP1 SWAP2 SUB SWAP1 REVERT JUMPDEST PUSH1 0x0 PUSH1 0x2 PUSH8 0xFFFFFFFFFFFFFFFF DUP2 GT ISZERO PUSH2 0x1A2A JUMPI PUSH2 0x1A29 PUSH2 0x35E1 JUMP JUMPDEST JUMPDEST PUSH1 0x40 MLOAD SWAP1 DUP1 DUP3 MSTORE DUP1 PUSH1 0x20 MUL PUSH1 0x20 ADD DUP3 ADD PUSH1 0x40 MSTORE DUP1 ISZERO PUSH2 0x1A58 JUMPI DUP2 PUSH1 0x20 ADD PUSH1 0x20 DUP3 MUL DUP1 CALLDATASIZE DUP4 CALLDATACOPY DUP1 DUP3 ADD SWAP2 POP POP SWAP1 POP JUMPDEST POP SWAP1 POP DUP9 DUP2 PUSH1 0x0 DUP2 MLOAD DUP2 LT PUSH2 0x1A70 JUMPI PUSH2 0x1A6F PUSH2 0x3610 JUMP JUMPDEST JUMPDEST PUSH1 0x20 MUL PUSH1 0x20 ADD ADD SWAP1 PUSH20 0xFFFFFFFFFFFFFFFFFFFFFFFFFFFFFFFFFFFFFFFF AND SWAP1 DUP2 PUSH20 0xFFFFFFFFFFFFFFFFFFFFFFFFFFFFFFFFFFFFFFFF AND DUP2 MSTORE POP POP DUP2 PUSH2 0x1B23 JUMPI DUP5 PUSH20 0xFFFFFFFFFFFFFFFFFFFFFFFFFFFFFFFFFFFFFFFF AND PUSH4 0xDFE1681 PUSH1 0x40 MLOAD DUP2 PUSH4 0xFFFFFFFF AND PUSH1 0xE0 SHL DUP2 MSTORE PUSH1 0x4 ADD PUSH1 0x20 PUSH1 0x40 MLOAD DUP1 DUP4 SUB DUP2 DUP7 GAS STATICCALL ISZERO DUP1 ISZERO PUSH2 0x1AFA JUMPI RETURNDATASIZE PUSH1 0x0 DUP1 RETURNDATACOPY RETURNDATASIZE PUSH1 0x0 REVERT JUMPDEST POP POP POP POP PUSH1 0x40 MLOAD RETURNDATASIZE PUSH1 0x1F NOT PUSH1 0x1F DUP3 ADD AND DUP3 ADD DUP1 PUSH1 0x40 MSTORE POP DUP2 ADD SWAP1 PUSH2 0x1B1E SWAP2 SWAP1 PUSH2 0x3490 JUMP JUMPDEST PUSH2 0x1B93 JUMP JUMPDEST DUP5 PUSH20 0xFFFFFFFFFFFFFFFFFFFFFFFFFFFFFFFFFFFFFFFF AND PUSH4 0xD21220A7 PUSH1 0x40 MLOAD DUP2 PUSH4 0xFFFFFFFF AND PUSH1 0xE0 SHL DUP2 MSTORE PUSH1 0x4 ADD PUSH1 0x20 PUSH1 0x40 MLOAD DUP1 DUP4 SUB DUP2 DUP7 GAS STATICCALL ISZERO DUP1 ISZERO PUSH2 0x1B6E JUMPI RETURNDATASIZE PUSH1 0x0 DUP1 RETURNDATACOPY RETURNDATASIZE PUSH1 0x0 REVERT JUMPDEST POP POP POP POP PUSH1 0x40 MLOAD RETURNDATASIZE PUSH1 0x1F NOT PUSH1 0x1F DUP3 ADD AND DUP3 ADD DUP1 PUSH1 0x40 MSTORE POP DUP2 ADD SWAP1 PUSH2 0x1B92 SWAP2 SWAP1 PUSH2 0x3490 JUMP JUMPDEST JUMPDEST DUP2 PUSH1 0x1 DUP2 MLOAD DUP2 LT PUSH2 0x1BA7 JUMPI PUSH2 0x1BA6 PUSH2 0x3610 JUMP JUMPDEST JUMPDEST PUSH1 0x20 MUL PUSH1 0x20 ADD ADD SWAP1 PUSH20 0xFFFFFFFFFFFFFFFFFFFFFFFFFFFFFFFFFFFFFFFF AND SWAP1 DUP2 PUSH20 0xFFFFFFFFFFFFFFFFFFFFFFFFFFFFFFFFFFFFFFFF AND DUP2 MSTORE POP POP PUSH1 0x0 DUP10 PUSH20 0xFFFFFFFFFFFFFFFFFFFFFFFFFFFFFFFFFFFFFFFF AND PUSH4 0x70A08231 ADDRESS PUSH1 0x40 MLOAD DUP3 PUSH4 0xFFFFFFFF AND PUSH1 0xE0 SHL DUP2 MSTORE PUSH1 0x4 ADD PUSH2 0x1C1C SWAP2 SWAP1 PUSH2 0x30F7 JUMP JUMPDEST PUSH1 0x20 PUSH1 0x40 MLOAD DUP1 DUP4 SUB DUP2 DUP7 GAS STATICCALL ISZERO DUP1 ISZERO PUSH2 0x1C39 JUMPI RETURNDATASIZE PUSH1 0x0 DUP1 RETURNDATACOPY RETURNDATASIZE PUSH1 0x0 REVERT JUMPDEST POP POP POP POP PUSH1 0x40 MLOAD RETURNDATASIZE PUSH1 0x1F NOT PUSH1 0x1F DUP3 ADD AND DUP3 ADD DUP1 PUSH1 0x40 MSTORE POP DUP2 ADD SWAP1 PUSH2 0x1C5D SWAP2 SWAP1 PUSH2 0x3654 JUMP JUMPDEST SWAP1 POP PUSH1 0x0 DUP4 ISZERO PUSH2 0x1C79 JUMPI PUSH2 0x1C72 DUP3 DUP8 DUP8 PUSH2 0x244C JUMP JUMPDEST SWAP1 POP PUSH2 0x1C87 JUMP JUMPDEST PUSH2 0x1C84 DUP3 DUP7 DUP9 PUSH2 0x244C JUMP JUMPDEST SWAP1 POP JUMPDEST PUSH2 0x1CCC DUP4 PUSH1 0x0 DUP2 MLOAD DUP2 LT PUSH2 0x1C9E JUMPI PUSH2 0x1C9D PUSH2 0x3610 JUMP JUMPDEST JUMPDEST PUSH1 0x20 MUL PUSH1 0x20 ADD ADD MLOAD PUSH32 0x0 PUSH2 0x22AF JUMP JUMPDEST PUSH1 0x0 PUSH32 0x0 PUSH20 0xFFFFFFFFFFFFFFFFFFFFFFFFFFFFFFFFFFFFFFFF AND PUSH4 0x38ED1739 DUP4 DUP14 DUP8 ADDRESS TIMESTAMP PUSH1 0x40 MLOAD DUP7 PUSH4 0xFFFFFFFF AND PUSH1 0xE0 SHL DUP2 MSTORE PUSH1 0x4 ADD PUSH2 0x1D2F SWAP6 SWAP5 SWAP4 SWAP3 SWAP2 SWAP1 PUSH2 0x373F JUMP JUMPDEST PUSH1 0x0 PUSH1 0x40 MLOAD DUP1 DUP4 SUB DUP2 PUSH1 0x0 DUP8 GAS CALL ISZERO DUP1 ISZERO PUSH2 0x1D4E JUMPI RETURNDATASIZE PUSH1 0x0 DUP1 RETURNDATACOPY RETURNDATASIZE PUSH1 0x0 REVERT JUMPDEST POP POP POP POP PUSH1 0x40 MLOAD RETURNDATASIZE PUSH1 0x0 DUP3 RETURNDATACOPY RETURNDATASIZE PUSH1 0x1F NOT PUSH1 0x1F DUP3 ADD AND DUP3 ADD DUP1 PUSH1 0x40 MSTORE POP DUP2 ADD SWAP1 PUSH2 0x1D77 SWAP2 SWAP1 PUSH2 0x38C3 JUMP JUMPDEST SWAP1 POP PUSH1 0x0 PUSH1 0x1 ISZERO ISZERO DUP11 ISZERO ISZERO EQ PUSH2 0x1D8D JUMPI CALLER PUSH2 0x1D8F JUMP JUMPDEST ADDRESS JUMPDEST SWAP1 POP PUSH2 0x1DD6 DUP6 PUSH1 0x1 DUP2 MLOAD DUP2 LT PUSH2 0x1DA8 JUMPI PUSH2 0x1DA7 PUSH2 0x3610 JUMP JUMPDEST JUMPDEST PUSH1 0x20 MUL PUSH1 0x20 ADD ADD MLOAD PUSH32 0x0 PUSH2 0x22AF JUMP JUMPDEST PUSH1 0x0 PUSH32 0x0 PUSH20 0xFFFFFFFFFFFFFFFFFFFFFFFFFFFFFFFFFFFFFFFF AND PUSH4 0xE8E33700 DUP8 PUSH1 0x0 DUP2 MLOAD DUP2 LT PUSH2 0x1E28 JUMPI PUSH2 0x1E27 PUSH2 0x3610 JUMP JUMPDEST JUMPDEST PUSH1 0x20 MUL PUSH1 0x20 ADD ADD MLOAD DUP9 PUSH1 0x1 DUP2 MLOAD DUP2 LT PUSH2 0x1E44 JUMPI PUSH2 0x1E43 PUSH2 0x3610 JUMP JUMPDEST JUMPDEST PUSH1 0x20 MUL PUSH1 0x20 ADD ADD MLOAD DUP7 PUSH1 0x0 DUP2 MLOAD DUP2 LT PUSH2 0x1E60 JUMPI PUSH2 0x1E5F PUSH2 0x3610 JUMP JUMPDEST JUMPDEST PUSH1 0x20 MUL PUSH1 0x20 ADD ADD MLOAD DUP10 PUSH2 0x1E73 SWAP2 SWAP1 PUSH2 0x3B45 JUMP JUMPDEST DUP8 PUSH1 0x1 DUP2 MLOAD DUP2 LT PUSH2 0x1E87 JUMPI PUSH2 0x1E86 PUSH2 0x3610 JUMP JUMPDEST JUMPDEST PUSH1 0x20 MUL PUSH1 0x20 ADD ADD MLOAD PUSH1 0x1 DUP1 DUP10 TIMESTAMP PUSH1 0x40 MLOAD DUP10 PUSH4 0xFFFFFFFF AND PUSH1 0xE0 SHL DUP2 MSTORE PUSH1 0x4 ADD PUSH2 0x1EB7 SWAP9 SWAP8 SWAP7 SWAP6 SWAP5 SWAP4 SWAP3 SWAP2 SWAP1 PUSH2 0x3BB4 JUMP JUMPDEST PUSH1 0x60 PUSH1 0x40 MLOAD DUP1 DUP4 SUB DUP2 PUSH1 0x0 DUP8 GAS CALL ISZERO DUP1 ISZERO PUSH2 0x1ED6 JUMPI RETURNDATASIZE PUSH1 0x0 DUP1 RETURNDATACOPY RETURNDATASIZE PUSH1 0x0 REVERT JUMPDEST POP POP POP POP PUSH1 0x40 MLOAD RETURNDATASIZE PUSH1 0x1F NOT PUSH1 0x1F DUP3 ADD AND DUP3 ADD DUP1 PUSH1 0x40 MSTORE POP DUP2 ADD SWAP1 PUSH2 0x1EFA SWAP2 SWAP1 PUSH2 0x3C32 JUMP JUMPDEST SWAP3 POP POP POP PUSH1 0x1 ISZERO ISZERO DUP12 ISZERO ISZERO EQ ISZERO PUSH2 0x1FC5 JUMPI PUSH2 0x1F35 DUP16 PUSH32 0x0 PUSH2 0x22AF JUMP JUMPDEST PUSH32 0x0 PUSH20 0xFFFFFFFFFFFFFFFFFFFFFFFFFFFFFFFFFFFFFFFF AND PUSH4 0x8DBDBE6D DUP14 DUP4 CALLER PUSH1 0x40 MLOAD DUP5 PUSH4 0xFFFFFFFF AND PUSH1 0xE0 SHL DUP2 MSTORE PUSH1 0x4 ADD PUSH2 0x1F92 SWAP4 SWAP3 SWAP2 SWAP1 PUSH2 0x2F7C JUMP JUMPDEST PUSH1 0x0 PUSH1 0x40 MLOAD DUP1 DUP4 SUB DUP2 PUSH1 0x0 DUP8 DUP1 EXTCODESIZE ISZERO DUP1 ISZERO PUSH2 0x1FAC JUMPI PUSH1 0x0 DUP1 REVERT JUMPDEST POP GAS CALL ISZERO DUP1 ISZERO PUSH2 0x1FC0 JUMPI RETURNDATASIZE PUSH1 0x0 DUP1 RETURNDATACOPY RETURNDATASIZE PUSH1 0x0 REVERT JUMPDEST POP POP POP POP JUMPDEST PUSH2 0x1FCF DUP7 CALLER PUSH2 0x2363 JUMP JUMPDEST POP POP POP POP POP POP POP POP POP POP POP POP POP POP POP JUMP JUMPDEST PUSH1 0x0 DUP1 DUP6 PUSH20 0xFFFFFFFFFFFFFFFFFFFFFFFFFFFFFFFFFFFFFFFF AND PUSH4 0x23B872DD DUP7 DUP7 DUP7 PUSH1 0x40 MLOAD PUSH1 0x24 ADD PUSH2 0x2014 SWAP4 SWAP3 SWAP2 SWAP1 PUSH2 0x3C85 JUMP JUMPDEST PUSH1 0x40 MLOAD PUSH1 0x20 DUP2 DUP4 SUB SUB DUP2 MSTORE SWAP1 PUSH1 0x40 MSTORE SWAP1 PUSH1 0xE0 SHL PUSH1 0x20 DUP3 ADD DUP1 MLOAD PUSH28 0xFFFFFFFFFFFFFFFFFFFFFFFFFFFFFFFFFFFFFFFFFFFFFFFFFFFFFFFF DUP4 DUP2 DUP4 AND OR DUP4 MSTORE POP POP POP POP PUSH1 0x40 MLOAD PUSH2 0x2062 SWAP2 SWAP1 PUSH2 0x3D36 JUMP JUMPDEST PUSH1 0x0 PUSH1 0x40 MLOAD DUP1 DUP4 SUB DUP2 PUSH1 0x0 DUP7 GAS CALL SWAP2 POP POP RETURNDATASIZE DUP1 PUSH1 0x0 DUP2 EQ PUSH2 0x209F JUMPI PUSH1 0x40 MLOAD SWAP2 POP PUSH1 0x1F NOT PUSH1 0x3F RETURNDATASIZE ADD AND DUP3 ADD PUSH1 0x40 MSTORE RETURNDATASIZE DUP3 MSTORE RETURNDATASIZE PUSH1 0x0 PUSH1 0x20 DUP5 ADD RETURNDATACOPY PUSH2 0x20A4 JUMP JUMPDEST PUSH1 0x60 SWAP2 POP JUMPDEST POP SWAP2 POP SWAP2 POP DUP2 DUP1 ISZERO PUSH2 0x20D2 JUMPI POP PUSH1 0x0 DUP2 MLOAD EQ DUP1 PUSH2 0x20D1 JUMPI POP DUP1 DUP1 PUSH1 0x20 ADD SWAP1 MLOAD DUP2 ADD SWAP1 PUSH2 0x20D0 SWAP2 SWAP1 PUSH2 0x3D85 JUMP JUMPDEST JUMPDEST JUMPDEST PUSH2 0x2111 JUMPI PUSH1 0x40 MLOAD PUSH32 0x8C379A000000000000000000000000000000000000000000000000000000000 DUP2 MSTORE PUSH1 0x4 ADD PUSH2 0x2108 SWAP1 PUSH2 0x3E24 JUMP JUMPDEST PUSH1 0x40 MLOAD DUP1 SWAP2 SUB SWAP1 REVERT JUMPDEST POP POP POP POP POP POP JUMP JUMPDEST PUSH2 0x219D DUP3 DUP4 DUP5 PUSH20 0xFFFFFFFFFFFFFFFFFFFFFFFFFFFFFFFFFFFFFFFF AND PUSH4 0x70A08231 ADDRESS PUSH1 0x40 MLOAD DUP3 PUSH4 0xFFFFFFFF AND PUSH1 0xE0 SHL DUP2 MSTORE PUSH1 0x4 ADD PUSH2 0x2157 SWAP2 SWAP1 PUSH2 0x30F7 JUMP JUMPDEST PUSH1 0x20 PUSH1 0x40 MLOAD DUP1 DUP4 SUB DUP2 DUP7 GAS STATICCALL ISZERO DUP1 ISZERO PUSH2 0x2174 JUMPI RETURNDATASIZE PUSH1 0x0 DUP1 RETURNDATACOPY RETURNDATASIZE PUSH1 0x0 REVERT JUMPDEST POP POP POP POP PUSH1 0x40 MLOAD RETURNDATASIZE PUSH1 0x1F NOT PUSH1 0x1F DUP3 ADD AND DUP3 ADD DUP1 PUSH1 0x40 MSTORE POP DUP2 ADD SWAP1 PUSH2 0x2198 SWAP2 SWAP1 PUSH2 0x3654 JUMP JUMPDEST PUSH2 0x26F9 JUMP JUMPDEST PUSH1 0x0 DUP1 DUP4 PUSH20 0xFFFFFFFFFFFFFFFFFFFFFFFFFFFFFFFFFFFFFFFF AND PUSH4 0x89AFCB44 DUP5 PUSH1 0x40 MLOAD DUP3 PUSH4 0xFFFFFFFF AND PUSH1 0xE0 SHL DUP2 MSTORE PUSH1 0x4 ADD PUSH2 0x21D9 SWAP2 SWAP1 PUSH2 0x30F7 JUMP JUMPDEST PUSH1 0x40 DUP1 MLOAD DUP1 DUP4 SUB DUP2 PUSH1 0x0 DUP8 GAS CALL ISZERO DUP1 ISZERO PUSH2 0x21F7 JUMPI RETURNDATASIZE PUSH1 0x0 DUP1 RETURNDATACOPY RETURNDATASIZE PUSH1 0x0 REVERT JUMPDEST POP POP POP POP PUSH1 0x40 MLOAD RETURNDATASIZE PUSH1 0x1F NOT PUSH1 0x1F DUP3 ADD AND DUP3 ADD DUP1 PUSH1 0x40 MSTORE POP DUP2 ADD SWAP1 PUSH2 0x221B SWAP2 SWAP1 PUSH2 0x3E44 JUMP JUMPDEST SWAP2 POP SWAP2 POP PUSH2 0x3E8 DUP3 LT ISZERO PUSH2 0x2264 JUMPI PUSH1 0x40 MLOAD PUSH32 0x8C379A000000000000000000000000000000000000000000000000000000000 DUP2 MSTORE PUSH1 0x4 ADD PUSH2 0x225B SWAP1 PUSH2 0x3EF6 JUMP JUMPDEST PUSH1 0x40 MLOAD DUP1 SWAP2 SUB SWAP1 REVERT JUMPDEST PUSH2 0x3E8 DUP2 LT ISZERO PUSH2 0x22A9 JUMPI PUSH1 0x40 MLOAD PUSH32 0x8C379A000000000000000000000000000000000000000000000000000000000 DUP2 MSTORE PUSH1 0x4 ADD PUSH2 0x22A0 SWAP1 PUSH2 0x3F88 JUMP JUMPDEST PUSH1 0x40 MLOAD DUP1 SWAP2 SUB SWAP1 REVERT JUMPDEST POP POP POP POP JUMP JUMPDEST PUSH1 0x0 DUP3 PUSH20 0xFFFFFFFFFFFFFFFFFFFFFFFFFFFFFFFFFFFFFFFF AND PUSH4 0xDD62ED3E ADDRESS DUP5 PUSH1 0x40 MLOAD DUP4 PUSH4 0xFFFFFFFF AND PUSH1 0xE0 SHL DUP2 MSTORE PUSH1 0x4 ADD PUSH2 0x22EC SWAP3 SWAP2 SWAP1 PUSH2 0x3FA8 JUMP JUMPDEST PUSH1 0x20 PUSH1 0x40 MLOAD DUP1 DUP4 SUB DUP2 DUP7 GAS STATICCALL ISZERO DUP1 ISZERO PUSH2 0x2309 JUMPI RETURNDATASIZE PUSH1 0x0 DUP1 RETURNDATACOPY RETURNDATASIZE PUSH1 0x0 REVERT JUMPDEST POP POP POP POP PUSH1 0x40 MLOAD RETURNDATASIZE PUSH1 0x1F NOT PUSH1 0x1F DUP3 ADD AND DUP3 ADD DUP1 PUSH1 0x40 MSTORE POP DUP2 ADD SWAP1 PUSH2 0x232D SWAP2 SWAP1 PUSH2 0x3654 JUMP JUMPDEST EQ ISZERO PUSH2 0x235F JUMPI PUSH2 0x235E DUP3 DUP3 PUSH32 0xFFFFFFFFFFFFFFFFFFFFFFFFFFFFFFFFFFFFFFFFFFFFFFFFFFFFFFFFFFFFFFFF PUSH2 0x282F JUMP JUMPDEST JUMPDEST POP POP JUMP JUMPDEST PUSH1 0x0 DUP1 JUMPDEST DUP4 MLOAD DUP2 LT ISZERO PUSH2 0x2446 JUMPI DUP4 DUP2 DUP2 MLOAD DUP2 LT PUSH2 0x2383 JUMPI PUSH2 0x2382 PUSH2 0x3610 JUMP JUMPDEST JUMPDEST PUSH1 0x20 MUL PUSH1 0x20 ADD ADD MLOAD PUSH20 0xFFFFFFFFFFFFFFFFFFFFFFFFFFFFFFFFFFFFFFFF AND PUSH4 0x70A08231 ADDRESS PUSH1 0x40 MLOAD DUP3 PUSH4 0xFFFFFFFF AND PUSH1 0xE0 SHL DUP2 MSTORE PUSH1 0x4 ADD PUSH2 0x23C3 SWAP2 SWAP1 PUSH2 0x30F7 JUMP JUMPDEST PUSH1 0x20 PUSH1 0x40 MLOAD DUP1 DUP4 SUB DUP2 DUP7 GAS STATICCALL ISZERO DUP1 ISZERO PUSH2 0x23E0 JUMPI RETURNDATASIZE PUSH1 0x0 DUP1 RETURNDATACOPY RETURNDATASIZE PUSH1 0x0 REVERT JUMPDEST POP POP POP POP PUSH1 0x40 MLOAD RETURNDATASIZE PUSH1 0x1F NOT PUSH1 0x1F DUP3 ADD AND DUP3 ADD DUP1 PUSH1 0x40 MSTORE POP DUP2 ADD SWAP1 PUSH2 0x2404 SWAP2 SWAP1 PUSH2 0x3654 JUMP JUMPDEST SWAP2 POP PUSH1 0x0 DUP3 GT ISZERO PUSH2 0x2435 JUMPI PUSH2 0x2434 DUP5 DUP3 DUP2 MLOAD DUP2 LT PUSH2 0x2425 JUMPI PUSH2 0x2424 PUSH2 0x3610 JUMP JUMPDEST JUMPDEST PUSH1 0x20 MUL PUSH1 0x20 ADD ADD MLOAD DUP5 DUP5 PUSH2 0x26F9 JUMP JUMPDEST JUMPDEST DUP1 PUSH2 0x243F SWAP1 PUSH2 0x3FD1 JUMP JUMPDEST SWAP1 POP PUSH2 0x2367 JUMP JUMPDEST POP POP POP POP JUMP JUMPDEST PUSH1 0x0 DUP1 PUSH1 0x2 DUP6 PUSH2 0x245C SWAP2 SWAP1 PUSH2 0x4049 JUMP JUMPDEST SWAP1 POP PUSH1 0x0 PUSH32 0x0 PUSH20 0xFFFFFFFFFFFFFFFFFFFFFFFFFFFFFFFFFFFFFFFF AND PUSH4 0x54D50D4 DUP4 DUP8 DUP8 PUSH1 0x40 MLOAD DUP5 PUSH4 0xFFFFFFFF AND PUSH1 0xE0 SHL DUP2 MSTORE PUSH1 0x4 ADD PUSH2 0x24BD SWAP4 SWAP3 SWAP2 SWAP1 PUSH2 0x3A73 JUMP JUMPDEST PUSH1 0x20 PUSH1 0x40 MLOAD DUP1 DUP4 SUB DUP2 DUP7 GAS STATICCALL ISZERO DUP1 ISZERO PUSH2 0x24DA JUMPI RETURNDATASIZE PUSH1 0x0 DUP1 RETURNDATACOPY RETURNDATASIZE PUSH1 0x0 REVERT JUMPDEST POP POP POP POP PUSH1 0x40 MLOAD RETURNDATASIZE PUSH1 0x1F NOT PUSH1 0x1F DUP3 ADD AND DUP3 ADD DUP1 PUSH1 0x40 MSTORE POP DUP2 ADD SWAP1 PUSH2 0x24FE SWAP2 SWAP1 PUSH2 0x3654 JUMP JUMPDEST SWAP1 POP PUSH1 0x0 PUSH32 0x0 PUSH20 0xFFFFFFFFFFFFFFFFFFFFFFFFFFFFFFFFFFFFFFFF AND PUSH4 0xAD615DEC DUP5 DUP6 DUP10 PUSH2 0x254B SWAP2 SWAP1 PUSH2 0x407A JUMP JUMPDEST DUP6 DUP10 PUSH2 0x2557 SWAP2 SWAP1 PUSH2 0x3B45 JUMP JUMPDEST PUSH1 0x40 MLOAD DUP5 PUSH4 0xFFFFFFFF AND PUSH1 0xE0 SHL DUP2 MSTORE PUSH1 0x4 ADD PUSH2 0x2575 SWAP4 SWAP3 SWAP2 SWAP1 PUSH2 0x3A73 JUMP JUMPDEST PUSH1 0x20 PUSH1 0x40 MLOAD DUP1 DUP4 SUB DUP2 DUP7 GAS STATICCALL ISZERO DUP1 ISZERO PUSH2 0x2592 JUMPI RETURNDATASIZE PUSH1 0x0 DUP1 RETURNDATACOPY RETURNDATASIZE PUSH1 0x0 REVERT JUMPDEST POP POP POP POP PUSH1 0x40 MLOAD RETURNDATASIZE PUSH1 0x1F NOT PUSH1 0x1F DUP3 ADD AND DUP3 ADD DUP1 PUSH1 0x40 MSTORE POP DUP2 ADD SWAP1 PUSH2 0x25B6 SWAP2 SWAP1 PUSH2 0x3654 JUMP JUMPDEST SWAP1 POP PUSH2 0x25E2 DUP2 DUP4 DUP6 DUP7 PUSH2 0x25C9 SWAP2 SWAP1 PUSH2 0x40D0 JUMP JUMPDEST PUSH2 0x25D3 SWAP2 SWAP1 PUSH2 0x40D0 JUMP JUMPDEST PUSH2 0x25DD SWAP2 SWAP1 PUSH2 0x4049 JUMP JUMPDEST PUSH2 0x2965 JUMP JUMPDEST DUP8 PUSH2 0x25ED SWAP2 SWAP1 PUSH2 0x3B45 JUMP JUMPDEST SWAP4 POP POP POP POP SWAP4 SWAP3 POP POP POP JUMP JUMPDEST PUSH1 0x0 DUP3 PUSH20 0xFFFFFFFFFFFFFFFFFFFFFFFFFFFFFFFFFFFFFFFF AND DUP3 PUSH1 0x0 PUSH8 0xFFFFFFFFFFFFFFFF DUP2 GT ISZERO PUSH2 0x262E JUMPI PUSH2 0x262D PUSH2 0x35E1 JUMP JUMPDEST JUMPDEST PUSH1 0x40 MLOAD SWAP1 DUP1 DUP3 MSTORE DUP1 PUSH1 0x1F ADD PUSH1 0x1F NOT AND PUSH1 0x20 ADD DUP3 ADD PUSH1 0x40 MSTORE DUP1 ISZERO PUSH2 0x2660 JUMPI DUP2 PUSH1 0x20 ADD PUSH1 0x1 DUP3 MUL DUP1 CALLDATASIZE DUP4 CALLDATACOPY DUP1 DUP3 ADD SWAP2 POP POP SWAP1 POP JUMPDEST POP PUSH1 0x40 MLOAD PUSH2 0x266E SWAP2 SWAP1 PUSH2 0x3D36 JUMP JUMPDEST PUSH1 0x0 PUSH1 0x40 MLOAD DUP1 DUP4 SUB DUP2 DUP6 DUP8 GAS CALL SWAP3 POP POP POP RETURNDATASIZE DUP1 PUSH1 0x0 DUP2 EQ PUSH2 0x26AB JUMPI PUSH1 0x40 MLOAD SWAP2 POP PUSH1 0x1F NOT PUSH1 0x3F RETURNDATASIZE ADD AND DUP3 ADD PUSH1 0x40 MSTORE RETURNDATASIZE DUP3 MSTORE RETURNDATASIZE PUSH1 0x0 PUSH1 0x20 DUP5 ADD RETURNDATACOPY PUSH2 0x26B0 JUMP JUMPDEST PUSH1 0x60 SWAP2 POP JUMPDEST POP POP SWAP1 POP DUP1 PUSH2 0x26F4 JUMPI PUSH1 0x40 MLOAD PUSH32 0x8C379A000000000000000000000000000000000000000000000000000000000 DUP2 MSTORE PUSH1 0x4 ADD PUSH2 0x26EB SWAP1 PUSH2 0x419C JUMP JUMPDEST PUSH1 0x40 MLOAD DUP1 SWAP2 SUB SWAP1 REVERT JUMPDEST POP POP POP JUMP JUMPDEST PUSH1 0x0 DUP1 DUP5 PUSH20 0xFFFFFFFFFFFFFFFFFFFFFFFFFFFFFFFFFFFFFFFF AND PUSH4 0xA9059CBB DUP6 DUP6 PUSH1 0x40 MLOAD PUSH1 0x24 ADD PUSH2 0x272B SWAP3 SWAP2 SWAP1 PUSH2 0x41BC JUMP JUMPDEST PUSH1 0x40 MLOAD PUSH1 0x20 DUP2 DUP4 SUB SUB DUP2 MSTORE SWAP1 PUSH1 0x40 MSTORE SWAP1 PUSH1 0xE0 SHL PUSH1 0x20 DUP3 ADD DUP1 MLOAD PUSH28 0xFFFFFFFFFFFFFFFFFFFFFFFFFFFFFFFFFFFFFFFFFFFFFFFFFFFFFFFF DUP4 DUP2 DUP4 AND OR DUP4 MSTORE POP POP POP POP PUSH1 0x40 MLOAD PUSH2 0x2779 SWAP2 SWAP1 PUSH2 0x3D36 JUMP JUMPDEST PUSH1 0x0 PUSH1 0x40 MLOAD DUP1 DUP4 SUB DUP2 PUSH1 0x0 DUP7 GAS CALL SWAP2 POP POP RETURNDATASIZE DUP1 PUSH1 0x0 DUP2 EQ PUSH2 0x27B6 JUMPI PUSH1 0x40 MLOAD SWAP2 POP PUSH1 0x1F NOT PUSH1 0x3F RETURNDATASIZE ADD AND DUP3 ADD PUSH1 0x40 MSTORE RETURNDATASIZE DUP3 MSTORE RETURNDATASIZE PUSH1 0x0 PUSH1 0x20 DUP5 ADD RETURNDATACOPY PUSH2 0x27BB JUMP JUMPDEST PUSH1 0x60 SWAP2 POP JUMPDEST POP SWAP2 POP SWAP2 POP DUP2 DUP1 ISZERO PUSH2 0x27E9 JUMPI POP PUSH1 0x0 DUP2 MLOAD EQ DUP1 PUSH2 0x27E8 JUMPI POP DUP1 DUP1 PUSH1 0x20 ADD SWAP1 MLOAD DUP2 ADD SWAP1 PUSH2 0x27E7 SWAP2 SWAP1 PUSH2 0x3D85 JUMP JUMPDEST JUMPDEST JUMPDEST PUSH2 0x2828 JUMPI PUSH1 0x40 MLOAD PUSH32 0x8C379A000000000000000000000000000000000000000000000000000000000 DUP2 MSTORE PUSH1 0x4 ADD PUSH2 0x281F SWAP1 PUSH2 0x4231 JUMP JUMPDEST PUSH1 0x40 MLOAD DUP1 SWAP2 SUB SWAP1 REVERT JUMPDEST POP POP POP POP POP JUMP JUMPDEST PUSH1 0x0 DUP1 DUP5 PUSH20 0xFFFFFFFFFFFFFFFFFFFFFFFFFFFFFFFFFFFFFFFF AND PUSH4 0x95EA7B3 DUP6 DUP6 PUSH1 0x40 MLOAD PUSH1 0x24 ADD PUSH2 0x2861 SWAP3 SWAP2 SWAP1 PUSH2 0x41BC JUMP JUMPDEST PUSH1 0x40 MLOAD PUSH1 0x20 DUP2 DUP4 SUB SUB DUP2 MSTORE SWAP1 PUSH1 0x40 MSTORE SWAP1 PUSH1 0xE0 SHL PUSH1 0x20 DUP3 ADD DUP1 MLOAD PUSH28 0xFFFFFFFFFFFFFFFFFFFFFFFFFFFFFFFFFFFFFFFFFFFFFFFFFFFFFFFF DUP4 DUP2 DUP4 AND OR DUP4 MSTORE POP POP POP POP PUSH1 0x40 MLOAD PUSH2 0x28AF SWAP2 SWAP1 PUSH2 0x3D36 JUMP JUMPDEST PUSH1 0x0 PUSH1 0x40 MLOAD DUP1 DUP4 SUB DUP2 PUSH1 0x0 DUP7 GAS CALL SWAP2 POP POP RETURNDATASIZE DUP1 PUSH1 0x0 DUP2 EQ PUSH2 0x28EC JUMPI PUSH1 0x40 MLOAD SWAP2 POP PUSH1 0x1F NOT PUSH1 0x3F RETURNDATASIZE ADD AND DUP3 ADD PUSH1 0x40 MSTORE RETURNDATASIZE DUP3 MSTORE RETURNDATASIZE PUSH1 0x0 PUSH1 0x20 DUP5 ADD RETURNDATACOPY PUSH2 0x28F1 JUMP JUMPDEST PUSH1 0x60 SWAP2 POP JUMPDEST POP SWAP2 POP SWAP2 POP DUP2 DUP1 ISZERO PUSH2 0x291F JUMPI POP PUSH1 0x0 DUP2 MLOAD EQ DUP1 PUSH2 0x291E JUMPI POP DUP1 DUP1 PUSH1 0x20 ADD SWAP1 MLOAD DUP2 ADD SWAP1 PUSH2 0x291D SWAP2 SWAP1 PUSH2 0x3D85 JUMP JUMPDEST JUMPDEST JUMPDEST PUSH2 0x295E JUMPI PUSH1 0x40 MLOAD PUSH32 0x8C379A000000000000000000000000000000000000000000000000000000000 DUP2 MSTORE PUSH1 0x4 ADD PUSH2 0x2955 SWAP1 PUSH2 0x429D JUMP JUMPDEST PUSH1 0x40 MLOAD DUP1 SWAP2 SUB SWAP1 REVERT JUMPDEST POP POP POP POP POP JUMP JUMPDEST PUSH1 0x0 PUSH1 0x3 DUP3 GT ISZERO PUSH2 0x29CC JUMPI DUP2 SWAP1 POP PUSH1 0x0 PUSH1 0x1 PUSH1 0x2 DUP5 PUSH2 0x2984 SWAP2 SWAP1 PUSH2 0x4049 JUMP JUMPDEST PUSH2 0x298E SWAP2 SWAP1 PUSH2 0x407A JUMP JUMPDEST SWAP1 POP JUMPDEST DUP2 DUP2 LT ISZERO PUSH2 0x29C6 JUMPI DUP1 SWAP2 POP PUSH1 0x2 DUP2 DUP3 DUP6 PUSH2 0x29AB SWAP2 SWAP1 PUSH2 0x4049 JUMP JUMPDEST PUSH2 0x29B5 SWAP2 SWAP1 PUSH2 0x407A JUMP JUMPDEST PUSH2 0x29BF SWAP2 SWAP1 PUSH2 0x4049 JUMP JUMPDEST SWAP1 POP PUSH2 0x2991 JUMP JUMPDEST POP PUSH2 0x29DA JUMP JUMPDEST PUSH1 0x0 DUP3 EQ PUSH2 0x29D9 JUMPI PUSH1 0x1 SWAP1 POP JUMPDEST JUMPDEST SWAP2 SWAP1 POP JUMP JUMPDEST PUSH32 0x4E487B7100000000000000000000000000000000000000000000000000000000 PUSH1 0x0 MSTORE PUSH1 0x1 PUSH1 0x4 MSTORE PUSH1 0x24 PUSH1 0x0 REVERT JUMPDEST PUSH1 0x0 PUSH1 0x40 MLOAD SWAP1 POP SWAP1 JUMP JUMPDEST PUSH1 0x0 DUP1 REVERT JUMPDEST PUSH1 0x0 DUP1 REVERT JUMPDEST PUSH1 0x0 PUSH20 0xFFFFFFFFFFFFFFFFFFFFFFFFFFFFFFFFFFFFFFFF DUP3 AND SWAP1 POP SWAP2 SWAP1 POP JUMP JUMPDEST PUSH1 0x0 PUSH2 0x2A4D DUP3 PUSH2 0x2A22 JUMP JUMPDEST SWAP1 POP SWAP2 SWAP1 POP JUMP JUMPDEST PUSH2 0x2A5D DUP2 PUSH2 0x2A42 JUMP JUMPDEST DUP2 EQ PUSH2 0x2A68 JUMPI PUSH1 0x0 DUP1 REVERT JUMPDEST POP JUMP JUMPDEST PUSH1 0x0 DUP2 CALLDATALOAD SWAP1 POP PUSH2 0x2A7A DUP2 PUSH2 0x2A54 JUMP JUMPDEST SWAP3 SWAP2 POP POP JUMP JUMPDEST PUSH1 0x0 DUP2 SWAP1 POP SWAP2 SWAP1 POP JUMP JUMPDEST PUSH2 0x2A93 DUP2 PUSH2 0x2A80 JUMP JUMPDEST DUP2 EQ PUSH2 0x2A9E JUMPI PUSH1 0x0 DUP1 REVERT JUMPDEST POP JUMP JUMPDEST PUSH1 0x0 DUP2 CALLDATALOAD SWAP1 POP PUSH2 0x2AB0 DUP2 PUSH2 0x2A8A JUMP JUMPDEST SWAP3 SWAP2 POP POP JUMP JUMPDEST PUSH1 0x0 PUSH1 0xFF DUP3 AND SWAP1 POP SWAP2 SWAP1 POP JUMP JUMPDEST PUSH2 0x2ACC DUP2 PUSH2 0x2AB6 JUMP JUMPDEST DUP2 EQ PUSH2 0x2AD7 JUMPI PUSH1 0x0 DUP1 REVERT JUMPDEST POP JUMP JUMPDEST PUSH1 0x0 DUP2 CALLDATALOAD SWAP1 POP PUSH2 0x2AE9 DUP2 PUSH2 0x2AC3 JUMP JUMPDEST SWAP3 SWAP2 POP POP JUMP JUMPDEST PUSH1 0x0 DUP2 SWAP1 POP SWAP2 SWAP1 POP JUMP JUMPDEST PUSH2 0x2B02 DUP2 PUSH2 0x2AEF JUMP JUMPDEST DUP2 EQ PUSH2 0x2B0D JUMPI PUSH1 0x0 DUP1 REVERT JUMPDEST POP JUMP JUMPDEST PUSH1 0x0 DUP2 CALLDATALOAD SWAP1 POP PUSH2 0x2B1F DUP2 PUSH2 0x2AF9 JUMP JUMPDEST SWAP3 SWAP2 POP POP JUMP JUMPDEST PUSH1 0x0 DUP1 PUSH1 0x0 DUP1 PUSH1 0x0 DUP1 PUSH1 0x0 DUP1 PUSH2 0x100 DUP10 DUP12 SUB SLT ISZERO PUSH2 0x2B46 JUMPI PUSH2 0x2B45 PUSH2 0x2A18 JUMP JUMPDEST JUMPDEST PUSH1 0x0 PUSH2 0x2B54 DUP12 DUP3 DUP13 ADD PUSH2 0x2A6B JUMP JUMPDEST SWAP9 POP POP PUSH1 0x20 PUSH2 0x2B65 DUP12 DUP3 DUP13 ADD PUSH2 0x2A6B JUMP JUMPDEST SWAP8 POP POP PUSH1 0x40 PUSH2 0x2B76 DUP12 DUP3 DUP13 ADD PUSH2 0x2AA1 JUMP JUMPDEST SWAP7 POP POP PUSH1 0x60 PUSH2 0x2B87 DUP12 DUP3 DUP13 ADD PUSH2 0x2AA1 JUMP JUMPDEST SWAP6 POP POP PUSH1 0x80 PUSH2 0x2B98 DUP12 DUP3 DUP13 ADD PUSH2 0x2AA1 JUMP JUMPDEST SWAP5 POP POP PUSH1 0xA0 PUSH2 0x2BA9 DUP12 DUP3 DUP13 ADD PUSH2 0x2ADA JUMP JUMPDEST SWAP4 POP POP PUSH1 0xC0 PUSH2 0x2BBA DUP12 DUP3 DUP13 ADD PUSH2 0x2B10 JUMP JUMPDEST SWAP3 POP POP PUSH1 0xE0 PUSH2 0x2BCB DUP12 DUP3 DUP13 ADD PUSH2 0x2B10 JUMP JUMPDEST SWAP2 POP POP SWAP3 SWAP6 SWAP9 POP SWAP3 SWAP6 SWAP9 SWAP1 SWAP4 SWAP7 POP JUMP JUMPDEST PUSH1 0x0 DUP1 PUSH1 0x0 PUSH1 0x60 DUP5 DUP7 SUB SLT ISZERO PUSH2 0x2BF4 JUMPI PUSH2 0x2BF3 PUSH2 0x2A18 JUMP JUMPDEST JUMPDEST PUSH1 0x0 PUSH2 0x2C02 DUP7 DUP3 DUP8 ADD PUSH2 0x2A6B JUMP JUMPDEST SWAP4 POP POP PUSH1 0x20 PUSH2 0x2C13 DUP7 DUP3 DUP8 ADD PUSH2 0x2AA1 JUMP JUMPDEST SWAP3 POP POP PUSH1 0x40 PUSH2 0x2C24 DUP7 DUP3 DUP8 ADD PUSH2 0x2AA1 JUMP JUMPDEST SWAP2 POP POP SWAP3 POP SWAP3 POP SWAP3 JUMP JUMPDEST PUSH1 0x0 DUP1 PUSH1 0x0 DUP1 PUSH1 0x0 DUP1 PUSH1 0x0 DUP1 PUSH2 0x100 DUP10 DUP12 SUB SLT ISZERO PUSH2 0x2C4F JUMPI PUSH2 0x2C4E PUSH2 0x2A18 JUMP JUMPDEST JUMPDEST PUSH1 0x0 PUSH2 0x2C5D DUP12 DUP3 DUP13 ADD PUSH2 0x2A6B JUMP JUMPDEST SWAP9 POP POP PUSH1 0x20 PUSH2 0x2C6E DUP12 DUP3 DUP13 ADD PUSH2 0x2AA1 JUMP JUMPDEST SWAP8 POP POP PUSH1 0x40 PUSH2 0x2C7F DUP12 DUP3 DUP13 ADD PUSH2 0x2AA1 JUMP JUMPDEST SWAP7 POP POP PUSH1 0x60 PUSH2 0x2C90 DUP12 DUP3 DUP13 ADD PUSH2 0x2A6B JUMP JUMPDEST SWAP6 POP POP PUSH1 0x80 PUSH2 0x2CA1 DUP12 DUP3 DUP13 ADD PUSH2 0x2AA1 JUMP JUMPDEST SWAP5 POP POP PUSH1 0xA0 PUSH2 0x2CB2 DUP12 DUP3 DUP13 ADD PUSH2 0x2ADA JUMP JUMPDEST SWAP4 POP POP PUSH1 0xC0 PUSH2 0x2CC3 DUP12 DUP3 DUP13 ADD PUSH2 0x2B10 JUMP JUMPDEST SWAP3 POP POP PUSH1 0xE0 PUSH2 0x2CD4 DUP12 DUP3 DUP13 ADD PUSH2 0x2B10 JUMP JUMPDEST SWAP2 POP POP SWAP3 SWAP6 SWAP9 POP SWAP3 SWAP6 SWAP9 SWAP1 SWAP4 SWAP7 POP JUMP JUMPDEST PUSH1 0x0 DUP1 PUSH1 0x0 DUP1 PUSH1 0x0 PUSH1 0xA0 DUP7 DUP9 SUB SLT ISZERO PUSH2 0x2D00 JUMPI PUSH2 0x2CFF PUSH2 0x2A18 JUMP JUMPDEST JUMPDEST PUSH1 0x0 PUSH2 0x2D0E DUP9 DUP3 DUP10 ADD PUSH2 0x2A6B JUMP JUMPDEST SWAP6 POP POP PUSH1 0x20 PUSH2 0x2D1F DUP9 DUP3 DUP10 ADD PUSH2 0x2AA1 JUMP JUMPDEST SWAP5 POP POP PUSH1 0x40 PUSH2 0x2D30 DUP9 DUP3 DUP10 ADD PUSH2 0x2A6B JUMP JUMPDEST SWAP4 POP POP PUSH1 0x60 PUSH2 0x2D41 DUP9 DUP3 DUP10 ADD PUSH2 0x2AA1 JUMP JUMPDEST SWAP3 POP POP PUSH1 0x80 PUSH2 0x2D52 DUP9 DUP3 DUP10 ADD PUSH2 0x2A6B JUMP JUMPDEST SWAP2 POP POP SWAP3 SWAP6 POP SWAP3 SWAP6 SWAP1 SWAP4 POP JUMP JUMPDEST PUSH1 0x0 DUP1 PUSH1 0x0 DUP1 PUSH1 0x0 PUSH1 0xA0 DUP7 DUP9 SUB SLT ISZERO PUSH2 0x2D7B JUMPI PUSH2 0x2D7A PUSH2 0x2A18 JUMP JUMPDEST JUMPDEST PUSH1 0x0 PUSH2 0x2D89 DUP9 DUP3 DUP10 ADD PUSH2 0x2A6B JUMP JUMPDEST SWAP6 POP POP PUSH1 0x20 PUSH2 0x2D9A DUP9 DUP3 DUP10 ADD PUSH2 0x2A6B JUMP JUMPDEST SWAP5 POP POP PUSH1 0x40 PUSH2 0x2DAB DUP9 DUP3 DUP10 ADD PUSH2 0x2AA1 JUMP JUMPDEST SWAP4 POP POP PUSH1 0x60 PUSH2 0x2DBC DUP9 DUP3 DUP10 ADD PUSH2 0x2AA1 JUMP JUMPDEST SWAP3 POP POP PUSH1 0x80 PUSH2 0x2DCD DUP9 DUP3 DUP10 ADD PUSH2 0x2AA1 JUMP JUMPDEST SWAP2 POP POP SWAP3 SWAP6 POP SWAP3 SWAP6 SWAP1 SWAP4 POP JUMP JUMPDEST PUSH1 0x0 DUP1 PUSH1 0x0 DUP1 PUSH1 0x0 DUP1 PUSH1 0x0 DUP1 PUSH1 0x0 PUSH2 0x120 DUP11 DUP13 SUB SLT ISZERO PUSH2 0x2DFD JUMPI PUSH2 0x2DFC PUSH2 0x2A18 JUMP JUMPDEST JUMPDEST PUSH1 0x0 PUSH2 0x2E0B DUP13 DUP3 DUP14 ADD PUSH2 0x2A6B JUMP JUMPDEST SWAP10 POP POP PUSH1 0x20 PUSH2 0x2E1C DUP13 DUP3 DUP14 ADD PUSH2 0x2AA1 JUMP JUMPDEST SWAP9 POP POP PUSH1 0x40 PUSH2 0x2E2D DUP13 DUP3 DUP14 ADD PUSH2 0x2A6B JUMP JUMPDEST SWAP8 POP POP PUSH1 0x60 PUSH2 0x2E3E DUP13 DUP3 DUP14 ADD PUSH2 0x2AA1 JUMP JUMPDEST SWAP7 POP POP PUSH1 0x80 PUSH2 0x2E4F DUP13 DUP3 DUP14 ADD PUSH2 0x2A6B JUMP JUMPDEST SWAP6 POP POP PUSH1 0xA0 PUSH2 0x2E60 DUP13 DUP3 DUP14 ADD PUSH2 0x2AA1 JUMP JUMPDEST SWAP5 POP POP PUSH1 0xC0 PUSH2 0x2E71 DUP13 DUP3 DUP14 ADD PUSH2 0x2ADA JUMP JUMPDEST SWAP4 POP POP PUSH1 0xE0 PUSH2 0x2E82 DUP13 DUP3 DUP14 ADD PUSH2 0x2B10 JUMP JUMPDEST SWAP3 POP POP PUSH2 0x100 PUSH2 0x2E94 DUP13 DUP3 DUP14 ADD PUSH2 0x2B10 JUMP JUMPDEST SWAP2 POP POP SWAP3 SWAP6 SWAP9 POP SWAP3 SWAP6 SWAP9 POP SWAP3 SWAP6 SWAP9 JUMP JUMPDEST PUSH1 0x0 DUP1 PUSH1 0x0 DUP1 PUSH1 0x80 DUP6 DUP8 SUB SLT ISZERO PUSH2 0x2EBE JUMPI PUSH2 0x2EBD PUSH2 0x2A18 JUMP JUMPDEST JUMPDEST PUSH1 0x0 PUSH2 0x2ECC DUP8 DUP3 DUP9 ADD PUSH2 0x2A6B JUMP JUMPDEST SWAP5 POP POP PUSH1 0x20 PUSH2 0x2EDD DUP8 DUP3 DUP9 ADD PUSH2 0x2A6B JUMP JUMPDEST SWAP4 POP POP PUSH1 0x40 PUSH2 0x2EEE DUP8 DUP3 DUP9 ADD PUSH2 0x2AA1 JUMP JUMPDEST SWAP3 POP POP PUSH1 0x60 PUSH2 0x2EFF DUP8 DUP3 DUP9 ADD PUSH2 0x2AA1 JUMP JUMPDEST SWAP2 POP POP SWAP3 SWAP6 SWAP2 SWAP5 POP SWAP3 POP JUMP JUMPDEST PUSH1 0x0 DUP1 PUSH1 0x0 PUSH1 0x60 DUP5 DUP7 SUB SLT ISZERO PUSH2 0x2F24 JUMPI PUSH2 0x2F23 PUSH2 0x2A18 JUMP JUMPDEST JUMPDEST PUSH1 0x0 PUSH2 0x2F32 DUP7 DUP3 DUP8 ADD PUSH2 0x2A6B JUMP JUMPDEST SWAP4 POP POP PUSH1 0x20 PUSH2 0x2F43 DUP7 DUP3 DUP8 ADD PUSH2 0x2A6B JUMP JUMPDEST SWAP3 POP POP PUSH1 0x40 PUSH2 0x2F54 DUP7 DUP3 DUP8 ADD PUSH2 0x2AA1 JUMP JUMPDEST SWAP2 POP POP SWAP3 POP SWAP3 POP SWAP3 JUMP JUMPDEST PUSH2 0x2F67 DUP2 PUSH2 0x2A80 JUMP JUMPDEST DUP3 MSTORE POP POP JUMP JUMPDEST PUSH2 0x2F76 DUP2 PUSH2 0x2A42 JUMP JUMPDEST DUP3 MSTORE POP POP JUMP JUMPDEST PUSH1 0x0 PUSH1 0x60 DUP3 ADD SWAP1 POP PUSH2 0x2F91 PUSH1 0x0 DUP4 ADD DUP7 PUSH2 0x2F5E JUMP JUMPDEST PUSH2 0x2F9E PUSH1 0x20 DUP4 ADD DUP6 PUSH2 0x2F5E JUMP JUMPDEST PUSH2 0x2FAB PUSH1 0x40 DUP4 ADD DUP5 PUSH2 0x2F6D JUMP JUMPDEST SWAP5 SWAP4 POP POP POP POP JUMP JUMPDEST PUSH1 0x0 DUP2 SWAP1 POP SWAP2 SWAP1 POP JUMP JUMPDEST PUSH1 0x0 PUSH2 0x2FD8 PUSH2 0x2FD3 PUSH2 0x2FCE DUP5 PUSH2 0x2A22 JUMP JUMPDEST PUSH2 0x2FB3 JUMP JUMPDEST PUSH2 0x2A22 JUMP JUMPDEST SWAP1 POP SWAP2 SWAP1 POP JUMP JUMPDEST PUSH1 0x0 PUSH2 0x2FEA DUP3 PUSH2 0x2FBD JUMP JUMPDEST SWAP1 POP SWAP2 SWAP1 POP JUMP JUMPDEST PUSH1 0x0 PUSH2 0x2FFC DUP3 PUSH2 0x2FDF JUMP JUMPDEST SWAP1 POP SWAP2 SWAP1 POP JUMP JUMPDEST PUSH2 0x300C DUP2 PUSH2 0x2FF1 JUMP JUMPDEST DUP3 MSTORE POP POP JUMP JUMPDEST PUSH1 0x0 PUSH1 0x20 DUP3 ADD SWAP1 POP PUSH2 0x3027 PUSH1 0x0 DUP4 ADD DUP5 PUSH2 0x3003 JUMP JUMPDEST SWAP3 SWAP2 POP POP JUMP JUMPDEST PUSH1 0x0 DUP1 PUSH1 0x0 DUP1 PUSH1 0x0 DUP1 PUSH1 0x0 DUP1 PUSH1 0x0 PUSH2 0x120 DUP11 DUP13 SUB SLT ISZERO PUSH2 0x3050 JUMPI PUSH2 0x304F PUSH2 0x2A18 JUMP JUMPDEST JUMPDEST PUSH1 0x0 PUSH2 0x305E DUP13 DUP3 DUP14 ADD PUSH2 0x2A6B JUMP JUMPDEST SWAP10 POP POP PUSH1 0x20 PUSH2 0x306F DUP13 DUP3 DUP14 ADD PUSH2 0x2A6B JUMP JUMPDEST SWAP9 POP POP PUSH1 0x40 PUSH2 0x3080 DUP13 DUP3 DUP14 ADD PUSH2 0x2AA1 JUMP JUMPDEST SWAP8 POP POP PUSH1 0x60 PUSH2 0x3091 DUP13 DUP3 DUP14 ADD PUSH2 0x2AA1 JUMP JUMPDEST SWAP7 POP POP PUSH1 0x80 PUSH2 0x30A2 DUP13 DUP3 DUP14 ADD PUSH2 0x2AA1 JUMP JUMPDEST SWAP6 POP POP PUSH1 0xA0 PUSH2 0x30B3 DUP13 DUP3 DUP14 ADD PUSH2 0x2AA1 JUMP JUMPDEST SWAP5 POP POP PUSH1 0xC0 PUSH2 0x30C4 DUP13 DUP3 DUP14 ADD PUSH2 0x2ADA JUMP JUMPDEST SWAP4 POP POP PUSH1 0xE0 PUSH2 0x30D5 DUP13 DUP3 DUP14 ADD PUSH2 0x2B10 JUMP JUMPDEST SWAP3 POP POP PUSH2 0x100 PUSH2 0x30E7 DUP13 DUP3 DUP14 ADD PUSH2 0x2B10 JUMP JUMPDEST SWAP2 POP POP SWAP3 SWAP6 SWAP9 POP SWAP3 SWAP6 SWAP9 POP SWAP3 SWAP6 SWAP9 JUMP JUMPDEST PUSH1 0x0 PUSH1 0x20 DUP3 ADD SWAP1 POP PUSH2 0x310C PUSH1 0x0 DUP4 ADD DUP5 PUSH2 0x2F6D JUMP JUMPDEST SWAP3 SWAP2 POP POP JUMP JUMPDEST PUSH1 0x0 DUP1 PUSH1 0x40 DUP4 DUP6 SUB SLT ISZERO PUSH2 0x3129 JUMPI PUSH2 0x3128 PUSH2 0x2A18 JUMP JUMPDEST JUMPDEST PUSH1 0x0 PUSH2 0x3137 DUP6 DUP3 DUP7 ADD PUSH2 0x2A6B JUMP JUMPDEST SWAP3 POP POP PUSH1 0x20 PUSH2 0x3148 DUP6 DUP3 DUP7 ADD PUSH2 0x2AA1 JUMP JUMPDEST SWAP2 POP POP SWAP3 POP SWAP3 SWAP1 POP JUMP JUMPDEST PUSH1 0x0 DUP1 PUSH1 0x0 DUP1 PUSH1 0x80 DUP6 DUP8 SUB SLT ISZERO PUSH2 0x316C JUMPI PUSH2 0x316B PUSH2 0x2A18 JUMP JUMPDEST JUMPDEST PUSH1 0x0 PUSH2 0x317A DUP8 DUP3 DUP9 ADD PUSH2 0x2A6B JUMP JUMPDEST SWAP5 POP POP PUSH1 0x20 PUSH2 0x318B DUP8 DUP3 DUP9 ADD PUSH2 0x2AA1 JUMP JUMPDEST SWAP4 POP POP PUSH1 0x40 PUSH2 0x319C DUP8 DUP3 DUP9 ADD PUSH2 0x2AA1 JUMP JUMPDEST SWAP3 POP POP PUSH1 0x60 PUSH2 0x31AD DUP8 DUP3 DUP9 ADD PUSH2 0x2A6B JUMP JUMPDEST SWAP2 POP POP SWAP3 SWAP6 SWAP2 SWAP5 POP SWAP3 POP JUMP JUMPDEST PUSH1 0x0 PUSH1 0x20 DUP3 ADD SWAP1 POP PUSH2 0x31CE PUSH1 0x0 DUP4 ADD DUP5 PUSH2 0x2F5E JUMP JUMPDEST SWAP3 SWAP2 POP POP JUMP JUMPDEST PUSH1 0x0 DUP1 PUSH1 0x0 PUSH1 0x60 DUP5 DUP7 SUB SLT ISZERO PUSH2 0x31ED JUMPI PUSH2 0x31EC PUSH2 0x2A18 JUMP JUMPDEST JUMPDEST PUSH1 0x0 PUSH2 0x31FB DUP7 DUP3 DUP8 ADD PUSH2 0x2A6B JUMP JUMPDEST SWAP4 POP POP PUSH1 0x20 PUSH2 0x320C DUP7 DUP3 DUP8 ADD PUSH2 0x2AA1 JUMP JUMPDEST SWAP3 POP POP PUSH1 0x40 PUSH2 0x321D DUP7 DUP3 DUP8 ADD PUSH2 0x2A6B JUMP JUMPDEST SWAP2 POP POP SWAP3 POP SWAP3 POP SWAP3 JUMP JUMPDEST PUSH1 0x0 PUSH2 0x3232 DUP3 PUSH2 0x2FDF JUMP JUMPDEST SWAP1 POP SWAP2 SWAP1 POP JUMP JUMPDEST PUSH2 0x3242 DUP2 PUSH2 0x3227 JUMP JUMPDEST DUP3 MSTORE POP POP JUMP JUMPDEST PUSH1 0x0 PUSH1 0x20 DUP3 ADD SWAP1 POP PUSH2 0x325D PUSH1 0x0 DUP4 ADD DUP5 PUSH2 0x3239 JUMP JUMPDEST SWAP3 SWAP2 POP POP JUMP JUMPDEST PUSH1 0x0 DUP1 PUSH1 0x0 DUP1 PUSH1 0x0 DUP1 PUSH1 0x0 PUSH1 0xE0 DUP9 DUP11 SUB SLT ISZERO PUSH2 0x3282 JUMPI PUSH2 0x3281 PUSH2 0x2A18 JUMP JUMPDEST JUMPDEST PUSH1 0x0 PUSH2 0x3290 DUP11 DUP3 DUP12 ADD PUSH2 0x2A6B JUMP JUMPDEST SWAP8 POP POP PUSH1 0x20 PUSH2 0x32A1 DUP11 DUP3 DUP12 ADD PUSH2 0x2AA1 JUMP JUMPDEST SWAP7 POP POP PUSH1 0x40 PUSH2 0x32B2 DUP11 DUP3 DUP12 ADD PUSH2 0x2A6B JUMP JUMPDEST SWAP6 POP POP PUSH1 0x60 PUSH2 0x32C3 DUP11 DUP3 DUP12 ADD PUSH2 0x2AA1 JUMP JUMPDEST SWAP5 POP POP PUSH1 0x80 PUSH2 0x32D4 DUP11 DUP3 DUP12 ADD PUSH2 0x2ADA JUMP JUMPDEST SWAP4 POP POP PUSH1 0xA0 PUSH2 0x32E5 DUP11 DUP3 DUP12 ADD PUSH2 0x2B10 JUMP JUMPDEST SWAP3 POP POP PUSH1 0xC0 PUSH2 0x32F6 DUP11 DUP3 DUP12 ADD PUSH2 0x2B10 JUMP JUMPDEST SWAP2 POP POP SWAP3 SWAP6 SWAP9 SWAP2 SWAP5 SWAP8 POP SWAP3 SWAP6 POP JUMP JUMPDEST PUSH2 0x330E DUP2 PUSH2 0x2AB6 JUMP JUMPDEST DUP3 MSTORE POP POP JUMP JUMPDEST PUSH2 0x331D DUP2 PUSH2 0x2AEF JUMP JUMPDEST DUP3 MSTORE POP POP JUMP JUMPDEST PUSH1 0x0 PUSH1 0xE0 DUP3 ADD SWAP1 POP PUSH2 0x3338 PUSH1 0x0 DUP4 ADD DUP11 PUSH2 0x2F6D JUMP JUMPDEST PUSH2 0x3345 PUSH1 0x20 DUP4 ADD DUP10 PUSH2 0x2F6D JUMP JUMPDEST PUSH2 0x3352 PUSH1 0x40 DUP4 ADD DUP9 PUSH2 0x2F5E JUMP JUMPDEST PUSH2 0x335F PUSH1 0x60 DUP4 ADD DUP8 PUSH2 0x2F5E JUMP JUMPDEST PUSH2 0x336C PUSH1 0x80 DUP4 ADD DUP7 PUSH2 0x3305 JUMP JUMPDEST PUSH2 0x3379 PUSH1 0xA0 DUP4 ADD DUP6 PUSH2 0x3314 JUMP JUMPDEST PUSH2 0x3386 PUSH1 0xC0 DUP4 ADD DUP5 PUSH2 0x3314 JUMP JUMPDEST SWAP9 SWAP8 POP POP POP POP POP POP POP POP JUMP JUMPDEST PUSH1 0x0 DUP3 DUP3 MSTORE PUSH1 0x20 DUP3 ADD SWAP1 POP SWAP3 SWAP2 POP POP JUMP JUMPDEST PUSH32 0x496E7369676E69666963616E7420696E70757420616D6F756E74000000000000 PUSH1 0x0 DUP3 ADD MSTORE POP JUMP JUMPDEST PUSH1 0x0 PUSH2 0x33D9 PUSH1 0x1A DUP4 PUSH2 0x3392 JUMP JUMPDEST SWAP2 POP PUSH2 0x33E4 DUP3 PUSH2 0x33A3 JUMP JUMPDEST PUSH1 0x20 DUP3 ADD SWAP1 POP SWAP2 SWAP1 POP JUMP JUMPDEST PUSH1 0x0 PUSH1 0x20 DUP3 ADD SWAP1 POP DUP2 DUP2 SUB PUSH1 0x0 DUP4 ADD MSTORE PUSH2 0x3408 DUP2 PUSH2 0x33CC JUMP JUMPDEST SWAP1 POP SWAP2 SWAP1 POP JUMP JUMPDEST PUSH32 0x496E76616C696420706169722061646472657373000000000000000000000000 PUSH1 0x0 DUP3 ADD MSTORE POP JUMP JUMPDEST PUSH1 0x0 PUSH2 0x3445 PUSH1 0x14 DUP4 PUSH2 0x3392 JUMP JUMPDEST SWAP2 POP PUSH2 0x3450 DUP3 PUSH2 0x340F JUMP JUMPDEST PUSH1 0x20 DUP3 ADD SWAP1 POP SWAP2 SWAP1 POP JUMP JUMPDEST PUSH1 0x0 PUSH1 0x20 DUP3 ADD SWAP1 POP DUP2 DUP2 SUB PUSH1 0x0 DUP4 ADD MSTORE PUSH2 0x3474 DUP2 PUSH2 0x3438 JUMP JUMPDEST SWAP1 POP SWAP2 SWAP1 POP JUMP JUMPDEST PUSH1 0x0 DUP2 MLOAD SWAP1 POP PUSH2 0x348A DUP2 PUSH2 0x2A54 JUMP JUMPDEST SWAP3 SWAP2 POP POP JUMP JUMPDEST PUSH1 0x0 PUSH1 0x20 DUP3 DUP5 SUB SLT ISZERO PUSH2 0x34A6 JUMPI PUSH2 0x34A5 PUSH2 0x2A18 JUMP JUMPDEST JUMPDEST PUSH1 0x0 PUSH2 0x34B4 DUP5 DUP3 DUP6 ADD PUSH2 0x347B JUMP JUMPDEST SWAP2 POP POP SWAP3 SWAP2 POP POP JUMP JUMPDEST PUSH32 0x50616972206164647265737320646F6573206E6F7420636F72726573706F6E64 PUSH1 0x0 DUP3 ADD MSTORE PUSH32 0x2077697468207069640000000000000000000000000000000000000000000000 PUSH1 0x20 DUP3 ADD MSTORE POP JUMP JUMPDEST PUSH1 0x0 PUSH2 0x3519 PUSH1 0x29 DUP4 PUSH2 0x3392 JUMP JUMPDEST SWAP2 POP PUSH2 0x3524 DUP3 PUSH2 0x34BD JUMP JUMPDEST PUSH1 0x40 DUP3 ADD SWAP1 POP SWAP2 SWAP1 POP JUMP JUMPDEST PUSH1 0x0 PUSH1 0x20 DUP3 ADD SWAP1 POP DUP2 DUP2 SUB PUSH1 0x0 DUP4 ADD MSTORE PUSH2 0x3548 DUP2 PUSH2 0x350C JUMP JUMPDEST SWAP1 POP SWAP2 SWAP1 POP JUMP JUMPDEST PUSH32 0x6465736972656420746F6B656E206E6F742070726573656E7420696E206C6971 PUSH1 0x0 DUP3 ADD MSTORE PUSH32 0x7569646974792070616972000000000000000000000000000000000000000000 PUSH1 0x20 DUP3 ADD MSTORE POP JUMP JUMPDEST PUSH1 0x0 PUSH2 0x35AB PUSH1 0x2B DUP4 PUSH2 0x3392 JUMP JUMPDEST SWAP2 POP PUSH2 0x35B6 DUP3 PUSH2 0x354F JUMP JUMPDEST PUSH1 0x40 DUP3 ADD SWAP1 POP SWAP2 SWAP1 POP JUMP JUMPDEST PUSH1 0x0 PUSH1 0x20 DUP3 ADD SWAP1 POP DUP2 DUP2 SUB PUSH1 0x0 DUP4 ADD MSTORE PUSH2 0x35DA DUP2 PUSH2 0x359E JUMP JUMPDEST SWAP1 POP SWAP2 SWAP1 POP JUMP JUMPDEST PUSH32 0x4E487B7100000000000000000000000000000000000000000000000000000000 PUSH1 0x0 MSTORE PUSH1 0x41 PUSH1 0x4 MSTORE PUSH1 0x24 PUSH1 0x0 REVERT JUMPDEST PUSH32 0x4E487B7100000000000000000000000000000000000000000000000000000000 PUSH1 0x0 MSTORE PUSH1 0x32 PUSH1 0x4 MSTORE PUSH1 0x24 PUSH1 0x0 REVERT JUMPDEST PUSH1 0x0 DUP2 MLOAD SWAP1 POP PUSH2 0x364E DUP2 PUSH2 0x2A8A JUMP JUMPDEST SWAP3 SWAP2 POP POP JUMP JUMPDEST PUSH1 0x0 PUSH1 0x20 DUP3 DUP5 SUB SLT ISZERO PUSH2 0x366A JUMPI PUSH2 0x3669 PUSH2 0x2A18 JUMP JUMPDEST JUMPDEST PUSH1 0x0 PUSH2 0x3678 DUP5 DUP3 DUP6 ADD PUSH2 0x363F JUMP JUMPDEST SWAP2 POP POP SWAP3 SWAP2 POP POP JUMP JUMPDEST PUSH1 0x0 DUP2 MLOAD SWAP1 POP SWAP2 SWAP1 POP JUMP JUMPDEST PUSH1 0x0 DUP3 DUP3 MSTORE PUSH1 0x20 DUP3 ADD SWAP1 POP SWAP3 SWAP2 POP POP JUMP JUMPDEST PUSH1 0x0 DUP2 SWAP1 POP PUSH1 0x20 DUP3 ADD SWAP1 POP SWAP2 SWAP1 POP JUMP JUMPDEST PUSH2 0x36B6 DUP2 PUSH2 0x2A42 JUMP JUMPDEST DUP3 MSTORE POP POP JUMP JUMPDEST PUSH1 0x0 PUSH2 0x36C8 DUP4 DUP4 PUSH2 0x36AD JUMP JUMPDEST PUSH1 0x20 DUP4 ADD SWAP1 POP SWAP3 SWAP2 POP POP JUMP JUMPDEST PUSH1 0x0 PUSH1 0x20 DUP3 ADD SWAP1 POP SWAP2 SWAP1 POP JUMP JUMPDEST PUSH1 0x0 PUSH2 0x36EC DUP3 PUSH2 0x3681 JUMP JUMPDEST PUSH2 0x36F6 DUP2 DUP6 PUSH2 0x368C JUMP JUMPDEST SWAP4 POP PUSH2 0x3701 DUP4 PUSH2 0x369D JUMP JUMPDEST DUP1 PUSH1 0x0 JUMPDEST DUP4 DUP2 LT ISZERO PUSH2 0x3732 JUMPI DUP2 MLOAD PUSH2 0x3719 DUP9 DUP3 PUSH2 0x36BC JUMP JUMPDEST SWAP8 POP PUSH2 0x3724 DUP4 PUSH2 0x36D4 JUMP JUMPDEST SWAP3 POP POP PUSH1 0x1 DUP2 ADD SWAP1 POP PUSH2 0x3705 JUMP JUMPDEST POP DUP6 SWAP4 POP POP POP POP SWAP3 SWAP2 POP POP JUMP JUMPDEST PUSH1 0x0 PUSH1 0xA0 DUP3 ADD SWAP1 POP PUSH2 0x3754 PUSH1 0x0 DUP4 ADD DUP9 PUSH2 0x2F5E JUMP JUMPDEST PUSH2 0x3761 PUSH1 0x20 DUP4 ADD DUP8 PUSH2 0x2F5E JUMP JUMPDEST DUP2 DUP2 SUB PUSH1 0x40 DUP4 ADD MSTORE PUSH2 0x3773 DUP2 DUP7 PUSH2 0x36E1 JUMP JUMPDEST SWAP1 POP PUSH2 0x3782 PUSH1 0x60 DUP4 ADD DUP6 PUSH2 0x2F6D JUMP JUMPDEST PUSH2 0x378F PUSH1 0x80 DUP4 ADD DUP5 PUSH2 0x2F5E JUMP JUMPDEST SWAP7 SWAP6 POP POP POP POP POP POP JUMP JUMPDEST PUSH1 0x0 DUP1 REVERT JUMPDEST PUSH1 0x0 PUSH1 0x1F NOT PUSH1 0x1F DUP4 ADD AND SWAP1 POP SWAP2 SWAP1 POP JUMP JUMPDEST PUSH2 0x37B8 DUP3 PUSH2 0x379E JUMP JUMPDEST DUP2 ADD DUP2 DUP2 LT PUSH8 0xFFFFFFFFFFFFFFFF DUP3 GT OR ISZERO PUSH2 0x37D7 JUMPI PUSH2 0x37D6 PUSH2 0x35E1 JUMP JUMPDEST JUMPDEST DUP1 PUSH1 0x40 MSTORE POP POP POP JUMP JUMPDEST PUSH1 0x0 PUSH2 0x37EA PUSH2 0x2A0E JUMP JUMPDEST SWAP1 POP PUSH2 0x37F6 DUP3 DUP3 PUSH2 0x37AF JUMP JUMPDEST SWAP2 SWAP1 POP JUMP JUMPDEST PUSH1 0x0 PUSH8 0xFFFFFFFFFFFFFFFF DUP3 GT ISZERO PUSH2 0x3816 JUMPI PUSH2 0x3815 PUSH2 0x35E1 JUMP JUMPDEST JUMPDEST PUSH1 0x20 DUP3 MUL SWAP1 POP PUSH1 0x20 DUP2 ADD SWAP1 POP SWAP2 SWAP1 POP JUMP JUMPDEST PUSH1 0x0 DUP1 REVERT JUMPDEST PUSH1 0x0 PUSH2 0x383F PUSH2 0x383A DUP5 PUSH2 0x37FB JUMP JUMPDEST PUSH2 0x37E0 JUMP JUMPDEST SWAP1 POP DUP1 DUP4 DUP3 MSTORE PUSH1 0x20 DUP3 ADD SWAP1 POP PUSH1 0x20 DUP5 MUL DUP4 ADD DUP6 DUP2 GT ISZERO PUSH2 0x3862 JUMPI PUSH2 0x3861 PUSH2 0x3827 JUMP JUMPDEST JUMPDEST DUP4 JUMPDEST DUP2 DUP2 LT ISZERO PUSH2 0x388B JUMPI DUP1 PUSH2 0x3877 DUP9 DUP3 PUSH2 0x363F JUMP JUMPDEST DUP5 MSTORE PUSH1 0x20 DUP5 ADD SWAP4 POP POP PUSH1 0x20 DUP2 ADD SWAP1 POP PUSH2 0x3864 JUMP JUMPDEST POP POP POP SWAP4 SWAP3 POP POP POP JUMP JUMPDEST PUSH1 0x0 DUP3 PUSH1 0x1F DUP4 ADD SLT PUSH2 0x38AA JUMPI PUSH2 0x38A9 PUSH2 0x3799 JUMP JUMPDEST JUMPDEST DUP2 MLOAD PUSH2 0x38BA DUP5 DUP3 PUSH1 0x20 DUP7 ADD PUSH2 0x382C JUMP JUMPDEST SWAP2 POP POP SWAP3 SWAP2 POP POP JUMP JUMPDEST PUSH1 0x0 PUSH1 0x20 DUP3 DUP5 SUB SLT ISZERO PUSH2 0x38D9 JUMPI PUSH2 0x38D8 PUSH2 0x2A18 JUMP JUMPDEST JUMPDEST PUSH1 0x0 DUP3 ADD MLOAD PUSH8 0xFFFFFFFFFFFFFFFF DUP2 GT ISZERO PUSH2 0x38F7 JUMPI PUSH2 0x38F6 PUSH2 0x2A1D JUMP JUMPDEST JUMPDEST PUSH2 0x3903 DUP5 DUP3 DUP6 ADD PUSH2 0x3895 JUMP JUMPDEST SWAP2 POP POP SWAP3 SWAP2 POP POP JUMP JUMPDEST PUSH32 0x496E70757420746F6B656E206E6F742070726573656E7420696E206C69717569 PUSH1 0x0 DUP3 ADD MSTORE PUSH32 0x6469747920706169720000000000000000000000000000000000000000000000 PUSH1 0x20 DUP3 ADD MSTORE POP JUMP JUMPDEST PUSH1 0x0 PUSH2 0x3968 PUSH1 0x29 DUP4 PUSH2 0x3392 JUMP JUMPDEST SWAP2 POP PUSH2 0x3973 DUP3 PUSH2 0x390C JUMP JUMPDEST PUSH1 0x40 DUP3 ADD SWAP1 POP SWAP2 SWAP1 POP JUMP JUMPDEST PUSH1 0x0 PUSH1 0x20 DUP3 ADD SWAP1 POP DUP2 DUP2 SUB PUSH1 0x0 DUP4 ADD MSTORE PUSH2 0x3997 DUP2 PUSH2 0x395B JUMP JUMPDEST SWAP1 POP SWAP2 SWAP1 POP JUMP JUMPDEST PUSH1 0x0 PUSH14 0xFFFFFFFFFFFFFFFFFFFFFFFFFFFF DUP3 AND SWAP1 POP SWAP2 SWAP1 POP JUMP JUMPDEST PUSH2 0x39C1 DUP2 PUSH2 0x399E JUMP JUMPDEST DUP2 EQ PUSH2 0x39CC JUMPI PUSH1 0x0 DUP1 REVERT JUMPDEST POP JUMP JUMPDEST PUSH1 0x0 DUP2 MLOAD SWAP1 POP PUSH2 0x39DE DUP2 PUSH2 0x39B8 JUMP JUMPDEST SWAP3 SWAP2 POP POP JUMP JUMPDEST PUSH1 0x0 PUSH4 0xFFFFFFFF DUP3 AND SWAP1 POP SWAP2 SWAP1 POP JUMP JUMPDEST PUSH2 0x39FD DUP2 PUSH2 0x39E4 JUMP JUMPDEST DUP2 EQ PUSH2 0x3A08 JUMPI PUSH1 0x0 DUP1 REVERT JUMPDEST POP JUMP JUMPDEST PUSH1 0x0 DUP2 MLOAD SWAP1 POP PUSH2 0x3A1A DUP2 PUSH2 0x39F4 JUMP JUMPDEST SWAP3 SWAP2 POP POP JUMP JUMPDEST PUSH1 0x0 DUP1 PUSH1 0x0 PUSH1 0x60 DUP5 DUP7 SUB SLT ISZERO PUSH2 0x3A39 JUMPI PUSH2 0x3A38 PUSH2 0x2A18 JUMP JUMPDEST JUMPDEST PUSH1 0x0 PUSH2 0x3A47 DUP7 DUP3 DUP8 ADD PUSH2 0x39CF JUMP JUMPDEST SWAP4 POP POP PUSH1 0x20 PUSH2 0x3A58 DUP7 DUP3 DUP8 ADD PUSH2 0x39CF JUMP JUMPDEST SWAP3 POP POP PUSH1 0x40 PUSH2 0x3A69 DUP7 DUP3 DUP8 ADD PUSH2 0x3A0B JUMP JUMPDEST SWAP2 POP POP SWAP3 POP SWAP3 POP SWAP3 JUMP JUMPDEST PUSH1 0x0 PUSH1 0x60 DUP3 ADD SWAP1 POP PUSH2 0x3A88 PUSH1 0x0 DUP4 ADD DUP7 PUSH2 0x2F5E JUMP JUMPDEST PUSH2 0x3A95 PUSH1 0x20 DUP4 ADD DUP6 PUSH2 0x2F5E JUMP JUMPDEST PUSH2 0x3AA2 PUSH1 0x40 DUP4 ADD DUP5 PUSH2 0x2F5E JUMP JUMPDEST SWAP5 SWAP4 POP POP POP POP JUMP JUMPDEST PUSH32 0x4C6971756964697479207061697220726573657276657320746F6F206C6F7700 PUSH1 0x0 DUP3 ADD MSTORE POP JUMP JUMPDEST PUSH1 0x0 PUSH2 0x3AE0 PUSH1 0x1F DUP4 PUSH2 0x3392 JUMP JUMPDEST SWAP2 POP PUSH2 0x3AEB DUP3 PUSH2 0x3AAA JUMP JUMPDEST PUSH1 0x20 DUP3 ADD SWAP1 POP SWAP2 SWAP1 POP JUMP JUMPDEST PUSH1 0x0 PUSH1 0x20 DUP3 ADD SWAP1 POP DUP2 DUP2 SUB PUSH1 0x0 DUP4 ADD MSTORE PUSH2 0x3B0F DUP2 PUSH2 0x3AD3 JUMP JUMPDEST SWAP1 POP SWAP2 SWAP1 POP JUMP JUMPDEST PUSH32 0x4E487B7100000000000000000000000000000000000000000000000000000000 PUSH1 0x0 MSTORE PUSH1 0x11 PUSH1 0x4 MSTORE PUSH1 0x24 PUSH1 0x0 REVERT JUMPDEST PUSH1 0x0 PUSH2 0x3B50 DUP3 PUSH2 0x2A80 JUMP JUMPDEST SWAP2 POP PUSH2 0x3B5B DUP4 PUSH2 0x2A80 JUMP JUMPDEST SWAP3 POP DUP3 DUP3 LT ISZERO PUSH2 0x3B6E JUMPI PUSH2 0x3B6D PUSH2 0x3B16 JUMP JUMPDEST JUMPDEST DUP3 DUP3 SUB SWAP1 POP SWAP3 SWAP2 POP POP JUMP JUMPDEST PUSH1 0x0 DUP2 SWAP1 POP SWAP2 SWAP1 POP JUMP JUMPDEST PUSH1 0x0 PUSH2 0x3B9E PUSH2 0x3B99 PUSH2 0x3B94 DUP5 PUSH2 0x3B79 JUMP JUMPDEST PUSH2 0x2FB3 JUMP JUMPDEST PUSH2 0x2A80 JUMP JUMPDEST SWAP1 POP SWAP2 SWAP1 POP JUMP JUMPDEST PUSH2 0x3BAE DUP2 PUSH2 0x3B83 JUMP JUMPDEST DUP3 MSTORE POP POP JUMP JUMPDEST PUSH1 0x0 PUSH2 0x100 DUP3 ADD SWAP1 POP PUSH2 0x3BCA PUSH1 0x0 DUP4 ADD DUP12 PUSH2 0x2F6D JUMP JUMPDEST PUSH2 0x3BD7 PUSH1 0x20 DUP4 ADD DUP11 PUSH2 0x2F6D JUMP JUMPDEST PUSH2 0x3BE4 PUSH1 0x40 DUP4 ADD DUP10 PUSH2 0x2F5E JUMP JUMPDEST PUSH2 0x3BF1 PUSH1 0x60 DUP4 ADD DUP9 PUSH2 0x2F5E JUMP JUMPDEST PUSH2 0x3BFE PUSH1 0x80 DUP4 ADD DUP8 PUSH2 0x3BA5 JUMP JUMPDEST PUSH2 0x3C0B PUSH1 0xA0 DUP4 ADD DUP7 PUSH2 0x3BA5 JUMP JUMPDEST PUSH2 0x3C18 PUSH1 0xC0 DUP4 ADD DUP6 PUSH2 0x2F6D JUMP JUMPDEST PUSH2 0x3C25 PUSH1 0xE0 DUP4 ADD DUP5 PUSH2 0x2F5E JUMP JUMPDEST SWAP10 SWAP9 POP POP POP POP POP POP POP POP POP JUMP JUMPDEST PUSH1 0x0 DUP1 PUSH1 0x0 PUSH1 0x60 DUP5 DUP7 SUB SLT ISZERO PUSH2 0x3C4B JUMPI PUSH2 0x3C4A PUSH2 0x2A18 JUMP JUMPDEST JUMPDEST PUSH1 0x0 PUSH2 0x3C59 DUP7 DUP3 DUP8 ADD PUSH2 0x363F JUMP JUMPDEST SWAP4 POP POP PUSH1 0x20 PUSH2 0x3C6A DUP7 DUP3 DUP8 ADD PUSH2 0x363F JUMP JUMPDEST SWAP3 POP POP PUSH1 0x40 PUSH2 0x3C7B DUP7 DUP3 DUP8 ADD PUSH2 0x363F JUMP JUMPDEST SWAP2 POP POP SWAP3 POP SWAP3 POP SWAP3 JUMP JUMPDEST PUSH1 0x0 PUSH1 0x60 DUP3 ADD SWAP1 POP PUSH2 0x3C9A PUSH1 0x0 DUP4 ADD DUP7 PUSH2 0x2F6D JUMP JUMPDEST PUSH2 0x3CA7 PUSH1 0x20 DUP4 ADD DUP6 PUSH2 0x2F6D JUMP JUMPDEST PUSH2 0x3CB4 PUSH1 0x40 DUP4 ADD DUP5 PUSH2 0x2F5E JUMP JUMPDEST SWAP5 SWAP4 POP POP POP POP JUMP JUMPDEST PUSH1 0x0 DUP2 MLOAD SWAP1 POP SWAP2 SWAP1 POP JUMP JUMPDEST PUSH1 0x0 DUP2 SWAP1 POP SWAP3 SWAP2 POP POP JUMP JUMPDEST PUSH1 0x0 JUMPDEST DUP4 DUP2 LT ISZERO PUSH2 0x3CF0 JUMPI DUP1 DUP3 ADD MLOAD DUP2 DUP5 ADD MSTORE PUSH1 0x20 DUP2 ADD SWAP1 POP PUSH2 0x3CD5 JUMP JUMPDEST DUP4 DUP2 GT ISZERO PUSH2 0x3CFF JUMPI PUSH1 0x0 DUP5 DUP5 ADD MSTORE JUMPDEST POP POP POP POP JUMP JUMPDEST PUSH1 0x0 PUSH2 0x3D10 DUP3 PUSH2 0x3CBC JUMP JUMPDEST PUSH2 0x3D1A DUP2 DUP6 PUSH2 0x3CC7 JUMP JUMPDEST SWAP4 POP PUSH2 0x3D2A DUP2 DUP6 PUSH1 0x20 DUP7 ADD PUSH2 0x3CD2 JUMP JUMPDEST DUP1 DUP5 ADD SWAP2 POP POP SWAP3 SWAP2 POP POP JUMP JUMPDEST PUSH1 0x0 PUSH2 0x3D42 DUP3 DUP5 PUSH2 0x3D05 JUMP JUMPDEST SWAP2 POP DUP2 SWAP1 POP SWAP3 SWAP2 POP POP JUMP JUMPDEST PUSH1 0x0 DUP2 ISZERO ISZERO SWAP1 POP SWAP2 SWAP1 POP JUMP JUMPDEST PUSH2 0x3D62 DUP2 PUSH2 0x3D4D JUMP JUMPDEST DUP2 EQ PUSH2 0x3D6D JUMPI PUSH1 0x0 DUP1 REVERT JUMPDEST POP JUMP JUMPDEST PUSH1 0x0 DUP2 MLOAD SWAP1 POP PUSH2 0x3D7F DUP2 PUSH2 0x3D59 JUMP JUMPDEST SWAP3 SWAP2 POP POP JUMP JUMPDEST PUSH1 0x0 PUSH1 0x20 DUP3 DUP5 SUB SLT ISZERO PUSH2 0x3D9B JUMPI PUSH2 0x3D9A PUSH2 0x2A18 JUMP JUMPDEST JUMPDEST PUSH1 0x0 PUSH2 0x3DA9 DUP5 DUP3 DUP6 ADD PUSH2 0x3D70 JUMP JUMPDEST SWAP2 POP POP SWAP3 SWAP2 POP POP JUMP JUMPDEST PUSH32 0x5472616E7366657248656C7065723A205452414E534645525F46524F4D5F4641 PUSH1 0x0 DUP3 ADD MSTORE PUSH32 0x494C454400000000000000000000000000000000000000000000000000000000 PUSH1 0x20 DUP3 ADD MSTORE POP JUMP JUMPDEST PUSH1 0x0 PUSH2 0x3E0E PUSH1 0x24 DUP4 PUSH2 0x3392 JUMP JUMPDEST SWAP2 POP PUSH2 0x3E19 DUP3 PUSH2 0x3DB2 JUMP JUMPDEST PUSH1 0x40 DUP3 ADD SWAP1 POP SWAP2 SWAP1 POP JUMP JUMPDEST PUSH1 0x0 PUSH1 0x20 DUP3 ADD SWAP1 POP DUP2 DUP2 SUB PUSH1 0x0 DUP4 ADD MSTORE PUSH2 0x3E3D DUP2 PUSH2 0x3E01 JUMP JUMPDEST SWAP1 POP SWAP2 SWAP1 POP JUMP JUMPDEST PUSH1 0x0 DUP1 PUSH1 0x40 DUP4 DUP6 SUB SLT ISZERO PUSH2 0x3E5B JUMPI PUSH2 0x3E5A PUSH2 0x2A18 JUMP JUMPDEST JUMPDEST PUSH1 0x0 PUSH2 0x3E69 DUP6 DUP3 DUP7 ADD PUSH2 0x363F JUMP JUMPDEST SWAP3 POP POP PUSH1 0x20 PUSH2 0x3E7A DUP6 DUP3 DUP7 ADD PUSH2 0x363F JUMP JUMPDEST SWAP2 POP POP SWAP3 POP SWAP3 SWAP1 POP JUMP JUMPDEST PUSH32 0x417263616E756D526F757465723A20494E53554646494349454E545F415F414D PUSH1 0x0 DUP3 ADD MSTORE PUSH32 0x4F554E5400000000000000000000000000000000000000000000000000000000 PUSH1 0x20 DUP3 ADD MSTORE POP JUMP JUMPDEST PUSH1 0x0 PUSH2 0x3EE0 PUSH1 0x24 DUP4 PUSH2 0x3392 JUMP JUMPDEST SWAP2 POP PUSH2 0x3EEB DUP3 PUSH2 0x3E84 JUMP JUMPDEST PUSH1 0x40 DUP3 ADD SWAP1 POP SWAP2 SWAP1 POP JUMP JUMPDEST PUSH1 0x0 PUSH1 0x20 DUP3 ADD SWAP1 POP DUP2 DUP2 SUB PUSH1 0x0 DUP4 ADD MSTORE PUSH2 0x3F0F DUP2 PUSH2 0x3ED3 JUMP JUMPDEST SWAP1 POP SWAP2 SWAP1 POP JUMP JUMPDEST PUSH32 0x417263616E756D526F757465723A20494E53554646494349454E545F425F414D PUSH1 0x0 DUP3 ADD MSTORE PUSH32 0x4F554E5400000000000000000000000000000000000000000000000000000000 PUSH1 0x20 DUP3 ADD MSTORE POP JUMP JUMPDEST PUSH1 0x0 PUSH2 0x3F72 PUSH1 0x24 DUP4 PUSH2 0x3392 JUMP JUMPDEST SWAP2 POP PUSH2 0x3F7D DUP3 PUSH2 0x3F16 JUMP JUMPDEST PUSH1 0x40 DUP3 ADD SWAP1 POP SWAP2 SWAP1 POP JUMP JUMPDEST PUSH1 0x0 PUSH1 0x20 DUP3 ADD SWAP1 POP DUP2 DUP2 SUB PUSH1 0x0 DUP4 ADD MSTORE PUSH2 0x3FA1 DUP2 PUSH2 0x3F65 JUMP JUMPDEST SWAP1 POP SWAP2 SWAP1 POP JUMP JUMPDEST PUSH1 0x0 PUSH1 0x40 DUP3 ADD SWAP1 POP PUSH2 0x3FBD PUSH1 0x0 DUP4 ADD DUP6 PUSH2 0x2F6D JUMP JUMPDEST PUSH2 0x3FCA PUSH1 0x20 DUP4 ADD DUP5 PUSH2 0x2F6D JUMP JUMPDEST SWAP4 SWAP3 POP POP POP JUMP JUMPDEST PUSH1 0x0 PUSH2 0x3FDC DUP3 PUSH2 0x2A80 JUMP JUMPDEST SWAP2 POP PUSH32 0xFFFFFFFFFFFFFFFFFFFFFFFFFFFFFFFFFFFFFFFFFFFFFFFFFFFFFFFFFFFFFFFF DUP3 EQ ISZERO PUSH2 0x400F JUMPI PUSH2 0x400E PUSH2 0x3B16 JUMP JUMPDEST JUMPDEST PUSH1 0x1 DUP3 ADD SWAP1 POP SWAP2 SWAP1 POP JUMP JUMPDEST PUSH32 0x4E487B7100000000000000000000000000000000000000000000000000000000 PUSH1 0x0 MSTORE PUSH1 0x12 PUSH1 0x4 MSTORE PUSH1 0x24 PUSH1 0x0 REVERT JUMPDEST PUSH1 0x0 PUSH2 0x4054 DUP3 PUSH2 0x2A80 JUMP JUMPDEST SWAP2 POP PUSH2 0x405F DUP4 PUSH2 0x2A80 JUMP JUMPDEST SWAP3 POP DUP3 PUSH2 0x406F JUMPI PUSH2 0x406E PUSH2 0x401A JUMP JUMPDEST JUMPDEST DUP3 DUP3 DIV SWAP1 POP SWAP3 SWAP2 POP POP JUMP JUMPDEST PUSH1 0x0 PUSH2 0x4085 DUP3 PUSH2 0x2A80 JUMP JUMPDEST SWAP2 POP PUSH2 0x4090 DUP4 PUSH2 0x2A80 JUMP JUMPDEST SWAP3 POP DUP3 PUSH32 0xFFFFFFFFFFFFFFFFFFFFFFFFFFFFFFFFFFFFFFFFFFFFFFFFFFFFFFFFFFFFFFFF SUB DUP3 GT ISZERO PUSH2 0x40C5 JUMPI PUSH2 0x40C4 PUSH2 0x3B16 JUMP JUMPDEST JUMPDEST DUP3 DUP3 ADD SWAP1 POP SWAP3 SWAP2 POP POP JUMP JUMPDEST PUSH1 0x0 PUSH2 0x40DB DUP3 PUSH2 0x2A80 JUMP JUMPDEST SWAP2 POP PUSH2 0x40E6 DUP4 PUSH2 0x2A80 JUMP JUMPDEST SWAP3 POP DUP2 PUSH32 0xFFFFFFFFFFFFFFFFFFFFFFFFFFFFFFFFFFFFFFFFFFFFFFFFFFFFFFFFFFFFFFFF DIV DUP4 GT DUP3 ISZERO ISZERO AND ISZERO PUSH2 0x411F JUMPI PUSH2 0x411E PUSH2 0x3B16 JUMP JUMPDEST JUMPDEST DUP3 DUP3 MUL SWAP1 POP SWAP3 SWAP2 POP POP JUMP JUMPDEST PUSH32 0x5472616E7366657248656C7065723A20415641585F5452414E534645525F4641 PUSH1 0x0 DUP3 ADD MSTORE PUSH32 0x494C454400000000000000000000000000000000000000000000000000000000 PUSH1 0x20 DUP3 ADD MSTORE POP JUMP JUMPDEST PUSH1 0x0 PUSH2 0x4186 PUSH1 0x24 DUP4 PUSH2 0x3392 JUMP JUMPDEST SWAP2 POP PUSH2 0x4191 DUP3 PUSH2 0x412A JUMP JUMPDEST PUSH1 0x40 DUP3 ADD SWAP1 POP SWAP2 SWAP1 POP JUMP JUMPDEST PUSH1 0x0 PUSH1 0x20 DUP3 ADD SWAP1 POP DUP2 DUP2 SUB PUSH1 0x0 DUP4 ADD MSTORE PUSH2 0x41B5 DUP2 PUSH2 0x4179 JUMP JUMPDEST SWAP1 POP SWAP2 SWAP1 POP JUMP JUMPDEST PUSH1 0x0 PUSH1 0x40 DUP3 ADD SWAP1 POP PUSH2 0x41D1 PUSH1 0x0 DUP4 ADD DUP6 PUSH2 0x2F6D JUMP JUMPDEST PUSH2 0x41DE PUSH1 0x20 DUP4 ADD DUP5 PUSH2 0x2F5E JUMP JUMPDEST SWAP4 SWAP3 POP POP POP JUMP JUMPDEST PUSH32 0x5472616E7366657248656C7065723A205452414E534645525F4641494C454400 PUSH1 0x0 DUP3 ADD MSTORE POP JUMP JUMPDEST PUSH1 0x0 PUSH2 0x421B PUSH1 0x1F DUP4 PUSH2 0x3392 JUMP JUMPDEST SWAP2 POP PUSH2 0x4226 DUP3 PUSH2 0x41E5 JUMP JUMPDEST PUSH1 0x20 DUP3 ADD SWAP1 POP SWAP2 SWAP1 POP JUMP JUMPDEST PUSH1 0x0 PUSH1 0x20 DUP3 ADD SWAP1 POP DUP2 DUP2 SUB PUSH1 0x0 DUP4 ADD MSTORE PUSH2 0x424A DUP2 PUSH2 0x420E JUMP JUMPDEST SWAP1 POP SWAP2 SWAP1 POP JUMP JUMPDEST PUSH32 0x5472616E7366657248656C7065723A20415050524F56455F4641494C45440000 PUSH1 0x0 DUP3 ADD MSTORE POP JUMP JUMPDEST PUSH1 0x0 PUSH2 0x4287 PUSH1 0x1E DUP4 PUSH2 0x3392 JUMP JUMPDEST SWAP2 POP PUSH2 0x4292 DUP3 PUSH2 0x4251 JUMP JUMPDEST PUSH1 0x20 DUP3 ADD SWAP1 POP SWAP2 SWAP1 POP JUMP JUMPDEST PUSH1 0x0 PUSH1 0x20 DUP3 ADD SWAP1 POP DUP2 DUP2 SUB PUSH1 0x0 DUP4 ADD MSTORE PUSH2 0x42B6 DUP2 PUSH2 0x427A JUMP JUMPDEST SWAP1 POP SWAP2 SWAP1 POP JUMP INVALID LOG2 PUSH5 0x6970667358 0x22 SLT KECCAK256 BYTE 0xB2 PUSH1 0x88 0xB1 0xB7 DUP11 GT 0x2E SAR 0xF 0xDF 0xF7 PUSH11 0x7379069382B538CF4BCE8 0xE7 SUB PUSH3 0x848A07 PUSH30 0x64736F6C634300080B003300000000000000000000000000000000000000 "
        },
        "methodIdentifiers": {
          "WAVAX()": "73b295c2",
          "estimateSwap(address,address,uint256)": "3f2f869a",
          "miniChefV2()": "4b7f6363",
          "minimumAmount()": "bb0c8298",
          "router()": "f887ea40",
          "zapIn(address,address,uint256,uint256)": "3c3b1ef6",
          "zapInAVAX(address,uint256)": "a90ea90a",
          "zapInAndFarm(address,address,uint256,uint256,uint256)": "2e042c6c",
          "zapInAndFarmAVAX(address,uint256,uint256)": "0aa62b39",
          "zapInAndFarmViaPermit(address,address,uint256,uint256,uint256,uint256,uint8,bytes32,bytes32)": "4e3c9b35",
          "zapInViaPermit(address,address,uint256,uint256,uint256,uint8,bytes32,bytes32)": "06a4fa4a",
          "zapOut(address,uint256,address)": "bdc49cd4",
          "zapOutAndSwap(address,uint256,address,uint256,address)": "2bce72b6",
          "zapOutAndSwapAVAX(address,uint256,uint256,address)": "aaa2ed80",
          "zapOutAndSwapAVAXViaPermit(address,uint256,uint256,address,uint256,uint8,bytes32,bytes32)": "12709e1e",
          "zapOutAndSwapViaPermit(address,uint256,address,uint256,address,uint256,uint8,bytes32,bytes32)": "375b9c89",
          "zapOutViaPermit(address,uint256,address,uint256,uint8,bytes32,bytes32)": "ff2d28b5"
        }
      }
    }
  }
}