{
  "_format": "hh-sol-artifact-1",
  "contractName": "Arc",
  "sourceName": "contracts/arcanum-token/Arc.sol",
  "abi": [
    {
      "inputs": [
        {
          "internalType": "uint256",
          "name": "_maxSupply",
          "type": "uint256"
        },
        {
          "internalType": "uint256",
          "name": "initialSupply",
          "type": "uint256"
        },
        {
          "internalType": "string",
          "name": "_symbol",
          "type": "string"
        },
        {
          "internalType": "string",
          "name": "_name",
          "type": "string"
        }
      ],
      "payable": false,
      "stateMutability": "nonpayable",
      "type": "constructor"
    },
    {
      "anonymous": false,
      "inputs": [
        {
          "indexed": true,
          "internalType": "address",
          "name": "owner",
          "type": "address"
        },
        {
          "indexed": true,
          "internalType": "address",
          "name": "spender",
          "type": "address"
        },
        {
          "indexed": false,
          "internalType": "uint256",
          "name": "amount",
          "type": "uint256"
        }
      ],
      "name": "Approval",
      "type": "event"
    },
    {
      "anonymous": false,
      "inputs": [
        {
          "indexed": true,
          "internalType": "address",
          "name": "delegator",
          "type": "address"
        },
        {
          "indexed": true,
          "internalType": "address",
          "name": "fromDelegate",
          "type": "address"
        },
        {
          "indexed": true,
          "internalType": "address",
          "name": "toDelegate",
          "type": "address"
        }
      ],
      "name": "DelegateChanged",
      "type": "event"
    },
    {
      "anonymous": false,
      "inputs": [
        {
          "indexed": true,
          "internalType": "address",
          "name": "delegate",
          "type": "address"
        },
        {
          "indexed": false,
          "internalType": "uint256",
          "name": "previousBalance",
          "type": "uint256"
        },
        {
          "indexed": false,
          "internalType": "uint256",
          "name": "newBalance",
          "type": "uint256"
        }
      ],
      "name": "DelegateVotesChanged",
      "type": "event"
    },
    {
      "anonymous": false,
      "inputs": [
        {
          "indexed": true,
          "internalType": "address",
          "name": "from",
          "type": "address"
        },
        {
          "indexed": true,
          "internalType": "address",
          "name": "to",
          "type": "address"
        },
        {
          "indexed": false,
          "internalType": "uint256",
          "name": "amount",
          "type": "uint256"
        }
      ],
      "name": "Transfer",
      "type": "event"
    },
    {
      "constant": true,
      "inputs": [],
      "name": "DELEGATION_TYPEHASH",
      "outputs": [
        {
          "internalType": "bytes32",
          "name": "",
          "type": "bytes32"
        }
      ],
      "payable": false,
      "stateMutability": "view",
      "type": "function"
    },
    {
      "constant": true,
      "inputs": [],
      "name": "DOMAIN_TYPEHASH",
      "outputs": [
        {
          "internalType": "bytes32",
          "name": "",
          "type": "bytes32"
        }
      ],
      "payable": false,
      "stateMutability": "view",
      "type": "function"
    },
    {
      "constant": true,
      "inputs": [],
      "name": "PERMIT_TYPEHASH",
      "outputs": [
        {
          "internalType": "bytes32",
          "name": "",
          "type": "bytes32"
        }
      ],
      "payable": false,
      "stateMutability": "view",
      "type": "function"
    },
    {
      "constant": true,
      "inputs": [],
      "name": "admin",
      "outputs": [
        {
          "internalType": "address",
          "name": "",
          "type": "address"
        }
      ],
      "payable": false,
      "stateMutability": "view",
      "type": "function"
    },
    {
      "constant": true,
      "inputs": [
        {
          "internalType": "address",
          "name": "account",
          "type": "address"
        },
        {
          "internalType": "address",
          "name": "spender",
          "type": "address"
        }
      ],
      "name": "allowance",
      "outputs": [
        {
          "internalType": "uint256",
          "name": "",
          "type": "uint256"
        }
      ],
      "payable": false,
      "stateMutability": "view",
      "type": "function"
    },
    {
      "constant": false,
      "inputs": [
        {
          "internalType": "address",
          "name": "spender",
          "type": "address"
        },
        {
          "internalType": "uint256",
          "name": "rawAmount",
          "type": "uint256"
        }
      ],
      "name": "approve",
      "outputs": [
        {
          "internalType": "bool",
          "name": "",
          "type": "bool"
        }
      ],
      "payable": false,
      "stateMutability": "nonpayable",
      "type": "function"
    },
    {
      "constant": true,
      "inputs": [
        {
          "internalType": "address",
          "name": "account",
          "type": "address"
        }
      ],
      "name": "balanceOf",
      "outputs": [
        {
          "internalType": "uint256",
          "name": "",
          "type": "uint256"
        }
      ],
      "payable": false,
      "stateMutability": "view",
      "type": "function"
    },
    {
      "constant": false,
      "inputs": [
        {
          "internalType": "uint256",
          "name": "rawAmount",
          "type": "uint256"
        }
      ],
      "name": "burn",
      "outputs": [
        {
          "internalType": "bool",
          "name": "",
          "type": "bool"
        }
      ],
      "payable": false,
      "stateMutability": "nonpayable",
      "type": "function"
    },
    {
      "constant": false,
      "inputs": [
        {
          "internalType": "address",
          "name": "src",
          "type": "address"
        },
        {
          "internalType": "uint256",
          "name": "rawAmount",
          "type": "uint256"
        }
      ],
      "name": "burnFrom",
      "outputs": [
        {
          "internalType": "bool",
          "name": "",
          "type": "bool"
        }
      ],
      "payable": false,
      "stateMutability": "nonpayable",
      "type": "function"
    },
    {
      "constant": true,
      "inputs": [],
      "name": "burnedSupply",
      "outputs": [
        {
          "internalType": "uint256",
          "name": "",
          "type": "uint256"
        }
      ],
      "payable": false,
      "stateMutability": "view",
      "type": "function"
    },
    {
      "constant": true,
      "inputs": [
        {
          "internalType": "address",
          "name": "",
          "type": "address"
        },
        {
          "internalType": "uint32",
          "name": "",
          "type": "uint32"
        }
      ],
      "name": "checkpoints",
      "outputs": [
        {
          "internalType": "uint32",
          "name": "fromBlock",
          "type": "uint32"
        },
        {
          "internalType": "uint96",
          "name": "votes",
          "type": "uint96"
        }
      ],
      "payable": false,
      "stateMutability": "view",
      "type": "function"
    },
    {
      "constant": true,
      "inputs": [],
      "name": "decimals",
      "outputs": [
        {
          "internalType": "uint8",
          "name": "",
          "type": "uint8"
        }
      ],
      "payable": false,
      "stateMutability": "view",
      "type": "function"
    },
    {
      "constant": false,
      "inputs": [
        {
          "internalType": "address",
          "name": "delegatee",
          "type": "address"
        }
      ],
      "name": "delegate",
      "outputs": [],
      "payable": false,
      "stateMutability": "nonpayable",
      "type": "function"
    },
    {
      "constant": false,
      "inputs": [
        {
          "internalType": "address",
          "name": "delegatee",
          "type": "address"
        },
        {
          "internalType": "uint256",
          "name": "nonce",
          "type": "uint256"
        },
        {
          "internalType": "uint256",
          "name": "expiry",
          "type": "uint256"
        },
        {
          "internalType": "uint8",
          "name": "v",
          "type": "uint8"
        },
        {
          "internalType": "bytes32",
          "name": "r",
          "type": "bytes32"
        },
        {
          "internalType": "bytes32",
          "name": "s",
          "type": "bytes32"
        }
      ],
      "name": "delegateBySig",
      "outputs": [],
      "payable": false,
      "stateMutability": "nonpayable",
      "type": "function"
    },
    {
      "constant": true,
      "inputs": [
        {
          "internalType": "address",
          "name": "",
          "type": "address"
        }
      ],
      "name": "delegates",
      "outputs": [
        {
          "internalType": "address",
          "name": "",
          "type": "address"
        }
      ],
      "payable": false,
      "stateMutability": "view",
      "type": "function"
    },
    {
      "constant": false,
      "inputs": [],
      "name": "disableSetMaxSupply",
      "outputs": [
        {
          "internalType": "bool",
          "name": "",
          "type": "bool"
        }
      ],
      "payable": false,
      "stateMutability": "nonpayable",
      "type": "function"
    },
    {
      "constant": true,
      "inputs": [
        {
          "internalType": "address",
          "name": "account",
          "type": "address"
        }
      ],
      "name": "getCurrentVotes",
      "outputs": [
        {
          "internalType": "uint96",
          "name": "",
          "type": "uint96"
        }
      ],
      "payable": false,
      "stateMutability": "view",
      "type": "function"
    },
    {
      "constant": true,
      "inputs": [
        {
          "internalType": "address",
          "name": "account",
          "type": "address"
        },
        {
          "internalType": "uint256",
          "name": "blockNumber",
          "type": "uint256"
        }
      ],
      "name": "getPriorVotes",
      "outputs": [
        {
          "internalType": "uint96",
          "name": "",
          "type": "uint96"
        }
      ],
      "payable": false,
      "stateMutability": "view",
      "type": "function"
    },
    {
      "constant": true,
      "inputs": [],
      "name": "hardcapped",
      "outputs": [
        {
          "internalType": "bool",
          "name": "",
          "type": "bool"
        }
      ],
      "payable": false,
      "stateMutability": "view",
      "type": "function"
    },
    {
      "constant": true,
      "inputs": [],
      "name": "maxSupply",
      "outputs": [
        {
          "internalType": "uint256",
          "name": "",
          "type": "uint256"
        }
      ],
      "payable": false,
      "stateMutability": "view",
      "type": "function"
    },
    {
      "constant": false,
      "inputs": [
        {
          "internalType": "address",
          "name": "dst",
          "type": "address"
        },
        {
          "internalType": "uint256",
          "name": "rawAmount",
          "type": "uint256"
        }
      ],
      "name": "mint",
      "outputs": [
        {
          "internalType": "bool",
          "name": "",
          "type": "bool"
        }
      ],
      "payable": false,
      "stateMutability": "nonpayable",
      "type": "function"
    },
    {
      "constant": true,
      "inputs": [],
      "name": "minter",
      "outputs": [
        {
          "internalType": "address",
          "name": "",
          "type": "address"
        }
      ],
      "payable": false,
      "stateMutability": "view",
      "type": "function"
    },
    {
      "constant": true,
      "inputs": [],
      "name": "name",
      "outputs": [
        {
          "internalType": "string",
          "name": "",
          "type": "string"
        }
      ],
      "payable": false,
      "stateMutability": "view",
      "type": "function"
    },
    {
      "constant": true,
      "inputs": [
        {
          "internalType": "address",
          "name": "",
          "type": "address"
        }
      ],
      "name": "nonces",
      "outputs": [
        {
          "internalType": "uint256",
          "name": "",
          "type": "uint256"
        }
      ],
      "payable": false,
      "stateMutability": "view",
      "type": "function"
    },
    {
      "constant": true,
      "inputs": [
        {
          "internalType": "address",
          "name": "",
          "type": "address"
        }
      ],
      "name": "numCheckpoints",
      "outputs": [
        {
          "internalType": "uint32",
          "name": "",
          "type": "uint32"
        }
      ],
      "payable": false,
      "stateMutability": "view",
      "type": "function"
    },
    {
      "constant": false,
      "inputs": [
        {
          "internalType": "address",
          "name": "owner",
          "type": "address"
        },
        {
          "internalType": "address",
          "name": "spender",
          "type": "address"
        },
        {
          "internalType": "uint256",
          "name": "rawAmount",
          "type": "uint256"
        },
        {
          "internalType": "uint256",
          "name": "deadline",
          "type": "uint256"
        },
        {
          "internalType": "uint8",
          "name": "v",
          "type": "uint8"
        },
        {
          "internalType": "bytes32",
          "name": "r",
          "type": "bytes32"
        },
        {
          "internalType": "bytes32",
          "name": "s",
          "type": "bytes32"
        }
      ],
      "name": "permit",
      "outputs": [],
      "payable": false,
      "stateMutability": "nonpayable",
      "type": "function"
    },
    {
      "constant": false,
      "inputs": [
        {
          "internalType": "address",
          "name": "newAdmin",
          "type": "address"
        }
      ],
      "name": "setAdmin",
      "outputs": [
        {
          "internalType": "bool",
          "name": "",
          "type": "bool"
        }
      ],
      "payable": false,
      "stateMutability": "nonpayable",
      "type": "function"
    },
    {
      "constant": false,
      "inputs": [
        {
          "internalType": "uint256",
          "name": "newMaxSupply",
          "type": "uint256"
        }
      ],
      "name": "setMaxSupply",
      "outputs": [
        {
          "internalType": "bool",
          "name": "",
          "type": "bool"
        }
      ],
      "payable": false,
      "stateMutability": "nonpayable",
      "type": "function"
    },
    {
      "constant": false,
      "inputs": [
        {
          "internalType": "address",
          "name": "newMinter",
          "type": "address"
        }
      ],
      "name": "setMinter",
      "outputs": [
        {
          "internalType": "bool",
          "name": "",
          "type": "bool"
        }
      ],
      "payable": false,
      "stateMutability": "nonpayable",
      "type": "function"
    },
    {
      "constant": true,
      "inputs": [],
      "name": "symbol",
      "outputs": [
        {
          "internalType": "string",
          "name": "",
          "type": "string"
        }
      ],
      "payable": false,
      "stateMutability": "view",
      "type": "function"
    },
    {
      "constant": true,
      "inputs": [],
      "name": "totalSupply",
      "outputs": [
        {
          "internalType": "uint256",
          "name": "",
          "type": "uint256"
        }
      ],
      "payable": false,
      "stateMutability": "view",
      "type": "function"
    },
    {
      "constant": false,
      "inputs": [
        {
          "internalType": "address",
          "name": "dst",
          "type": "address"
        },
        {
          "internalType": "uint256",
          "name": "rawAmount",
          "type": "uint256"
        }
      ],
      "name": "transfer",
      "outputs": [
        {
          "internalType": "bool",
          "name": "",
          "type": "bool"
        }
      ],
      "payable": false,
      "stateMutability": "nonpayable",
      "type": "function"
    },
    {
      "constant": false,
      "inputs": [
        {
          "internalType": "address",
          "name": "src",
          "type": "address"
        },
        {
          "internalType": "address",
          "name": "dst",
          "type": "address"
        },
        {
          "internalType": "uint256",
          "name": "rawAmount",
          "type": "uint256"
        }
      ],
      "name": "transferFrom",
      "outputs": [
        {
          "internalType": "bool",
          "name": "",
          "type": "bool"
        }
      ],
      "payable": false,
      "stateMutability": "nonpayable",
      "type": "function"
    }
  ],
  "bytecode": "0x60806040523480156200001157600080fd5b506040516200573c3803806200573c833981810160405262000037919081019062000528565b8360048190555033600260006101000a81548173ffffffffffffffffffffffffffffffffffffffff021916908373ffffffffffffffffffffffffffffffffffffffff160217905550620000b3600260009054906101000a900473ffffffffffffffffffffffffffffffffffffffff1684620000ef60201b60201c565b8160019080519060200190620000cb92919062000406565b508060009080519060200190620000e492919062000406565b5050505050620008df565b600073ffffffffffffffffffffffffffffffffffffffff168273ffffffffffffffffffffffffffffffffffffffff16141562000162576040517f08c379a0000000000000000000000000000000000000000000000000000000008152600401620001599062000770565b60405180910390fd5b62000189600554826bffffffffffffffffffffffff166200033560201b620031c01760201c565b60058190555062000212600960008473ffffffffffffffffffffffffffffffffffffffff1673ffffffffffffffffffffffffffffffffffffffff16815260200190815260200160002060009054906101000a90046bffffffffffffffffffffffff168260405180606001604052806027815260200162005715602791396200038d60201b60201c565b600960008473ffffffffffffffffffffffffffffffffffffffff1673ffffffffffffffffffffffffffffffffffffffff16815260200190815260200160002060006101000a8154816bffffffffffffffffffffffff02191690836bffffffffffffffffffffffff1602179055508173ffffffffffffffffffffffffffffffffffffffff16600073ffffffffffffffffffffffffffffffffffffffff167fddf252ad1be2c89b69c2b068fc378daa952ba7f163c4a11628f55a4df523b3ef83604051620002df9190620007b4565b60405180910390a3600454600554111562000331576040517f08c379a0000000000000000000000000000000000000000000000000000000008152600401620003289062000792565b60405180910390fd5b5050565b60008082840190508381101562000383576040517f08c379a00000000000000000000000000000000000000000000000000000000081526004016200037a906200074e565b60405180910390fd5b8091505092915050565b6000808385019050846bffffffffffffffffffffffff16816bffffffffffffffffffffffff1610158390620003fa576040517f08c379a0000000000000000000000000000000000000000000000000000000008152600401620003f191906200072a565b60405180910390fd5b50809150509392505050565b828054600181600116156101000203166002900490600052602060002090601f016020900481019282601f106200044957805160ff19168380011785556200047a565b828001600101855582156200047a579182015b82811115620004795782518255916020019190600101906200045c565b5b5090506200048991906200048d565b5090565b620004b291905b80821115620004ae57600081600090555060010162000494565b5090565b90565b600082601f830112620004c757600080fd5b8151620004de620004d882620007ff565b620007d1565b91508082526020830160208301858383011115620004fb57600080fd5b620005088382846200087e565b50505092915050565b6000815190506200052281620008c5565b92915050565b600080600080608085870312156200053f57600080fd5b60006200054f8782880162000511565b9450506020620005628782880162000511565b935050604085015167ffffffffffffffff8111156200058057600080fd5b6200058e87828801620004b5565b925050606085015167ffffffffffffffff811115620005ac57600080fd5b620005ba87828801620004b5565b91505092959194509250565b6000620005d3826200082c565b620005df818562000837565b9350620005f18185602086016200087e565b620005fc81620008b4565b840191505092915050565b600062000616601b8362000837565b91507f536166654d6174683a206164646974696f6e206f766572666c6f7700000000006000830152602082019050919050565b60006200065860318362000837565b91507f4172633a3a5f6d696e74546f6b656e733a2063616e6e6f74206d696e7420746f60008301527f20746865207a65726f20616464726573730000000000000000000000000000006020830152604082019050919050565b6000620006c060308362000837565b91507f4172633a3a5f6d696e74546f6b656e733a206d696e7420726573756c7420657860008301527f6365656473206d617820737570706c79000000000000000000000000000000006020830152604082019050919050565b62000724816200086a565b82525050565b60006020820190508181036000830152620007468184620005c6565b905092915050565b60006020820190508181036000830152620007698162000607565b9050919050565b600060208201905081810360008301526200078b8162000649565b9050919050565b60006020820190508181036000830152620007ad81620006b1565b9050919050565b6000602082019050620007cb600083018462000719565b92915050565b6000604051905081810181811067ffffffffffffffff82111715620007f557600080fd5b8060405250919050565b600067ffffffffffffffff8211156200081757600080fd5b601f19601f8301169050602081019050919050565b600081519050919050565b600082825260208201905092915050565b6000819050919050565b60006bffffffffffffffffffffffff82169050919050565b6000620008778262000852565b9050919050565b60005b838110156200089e57808201518184015260208101905062000881565b83811115620008ae576000848401525b50505050565b6000601f19601f8301169050919050565b620008d08162000848565b8114620008dc57600080fd5b50565b614e2680620008ef6000396000f3fe608060405234801561001057600080fd5b50600436106101fb5760003560e01c806370a082311161011a578063c3cda520116100ad578063dd62ed3e1161007c578063dd62ed3e1461063e578063e7a324dc1461066e578063f1127ed81461068c578063f851a440146106bd578063fca3b5aa146106db576101fb565b8063c3cda520146105ca578063d505accf146105e6578063d5abeb0114610602578063d659caa214610620576101fb565b80637ecebe00116100e95780637ecebe001461051c57806395d89b411461054c578063a9059cbb1461056a578063b4b5ea571461059a576101fb565b806370a082311461046e578063782d6fe11461049e57806379cc6790146104ce5780637ae15e64146104fe576101fb565b806340c10f19116101925780635c19a95c116101615780635c19a95c146103c25780636f8b44b0146103de5780636fcfff451461040e578063704b6c021461043e576101fb565b806340c10f191461031457806342966c681461034457806355d0a1d014610374578063587cde1e14610392576101fb565b806320606b70116101ce57806320606b701461028a57806323b872dd146102a857806330adf81f146102d8578063313ce567146102f6576101fb565b806306fdde0314610200578063075461721461021e578063095ea7b31461023c57806318160ddd1461026c575b600080fd5b61020861070b565b60405161021591906145df565b60405180910390f35b6102266107a9565b604051610233919061445e565b60405180910390f35b610256600480360361025191908101906137ec565b6107cf565b6040516102639190614479565b60405180910390f35b610274610962565b60405161028191906148e3565b60405180910390f35b610292610968565b60405161029f9190614494565b60405180910390f35b6102c260048036036102bd91908101906136ff565b61097f565b6040516102cf9190614479565b60405180910390f35b6102e0610c13565b6040516102ed9190614494565b60405180910390f35b6102fe610c2a565b60405161030b9190614942565b60405180910390f35b61032e600480360361032991908101906137ec565b610c2f565b60405161033b9190614479565b60405180910390f35b61035e600480360361035991908101906138ed565b610d8d565b60405161036b9190614479565b60405180910390f35b61037c610dc8565b60405161038991906148e3565b60405180910390f35b6103ac60048036036103a7919081019061369a565b610dce565b6040516103b9919061445e565b60405180910390f35b6103dc60048036036103d7919081019061369a565b610e01565b005b6103f860048036036103f391908101906138ed565b610e0e565b6040516104059190614479565b60405180910390f35b6104286004803603610423919081019061369a565b610f45565b60405161043591906148fe565b60405180910390f35b6104586004803603610453919081019061369a565b610f68565b6040516104659190614479565b60405180910390f35b6104886004803603610483919081019061369a565b6110b4565b60405161049591906148e3565b60405180910390f35b6104b860048036036104b391908101906137ec565b611123565b6040516104c59190614978565b60405180910390f35b6104e860048036036104e391908101906137ec565b611536565b6040516104f59190614479565b60405180910390f35b6105066117c8565b6040516105139190614479565b60405180910390f35b6105366004803603610531919081019061369a565b61187c565b60405161054391906148e3565b60405180910390f35b610554611894565b60405161056191906145df565b60405180910390f35b610584600480360361057f91908101906137ec565b611932565b6040516105919190614479565b60405180910390f35b6105b460048036036105af919081019061369a565b61196f565b6040516105c19190614978565b60405180910390f35b6105e460048036036105df9190810190613828565b611a5d565b005b61060060048036036105fb919081019061374e565b611cda565b005b61060a612106565b60405161061791906148e3565b60405180910390f35b61062861210c565b6040516106359190614479565b60405180910390f35b610658600480360361065391908101906136c3565b61211f565b60405161066591906148e3565b60405180910390f35b6106766121cc565b6040516106839190614494565b60405180910390f35b6106a660048036036106a191908101906138b1565b6121e3565b6040516106b4929190614919565b60405180910390f35b6106c561223c565b6040516106d2919061445e565b60405180910390f35b6106f560048036036106f0919081019061369a565b612262565b6040516107029190614479565b60405180910390f35b60008054600181600116156101000203166002900480601f0160208091040260200160405190810160405280929190818152602001828054600181600116156101000203166002900480156107a15780601f10610776576101008083540402835291602001916107a1565b820191906000526020600020905b81548152906001019060200180831161078457829003601f168201915b505050505081565b600360009054906101000a900473ffffffffffffffffffffffffffffffffffffffff1681565b6000807fffffffffffffffffffffffffffffffffffffffffffffffffffffffffffffffff831415610822577fffffffffffffffffffffffffffffffffffffffffffffffffffffffffffffffff9050610847565b61084483604051806060016040528060248152602001614bbf6024913961233e565b90505b80600860003373ffffffffffffffffffffffffffffffffffffffff1673ffffffffffffffffffffffffffffffffffffffff16815260200190815260200160002060008673ffffffffffffffffffffffffffffffffffffffff1673ffffffffffffffffffffffffffffffffffffffff16815260200190815260200160002060006101000a8154816bffffffffffffffffffffffff02191690836bffffffffffffffffffffffff1602179055508373ffffffffffffffffffffffffffffffffffffffff163373ffffffffffffffffffffffffffffffffffffffff167f8c5be1e5ebec7d5bd14f71427d1e84f3dd0314c0f7b2291e5b200ac8c7c3b9258360405161094f919061495d565b60405180910390a3600191505092915050565b60055481565b60405161097490614434565b604051809103902081565b6000803390506000600860008773ffffffffffffffffffffffffffffffffffffffff1673ffffffffffffffffffffffffffffffffffffffff16815260200190815260200160002060008373ffffffffffffffffffffffffffffffffffffffff1673ffffffffffffffffffffffffffffffffffffffff16815260200190815260200160002060009054906101000a90046bffffffffffffffffffffffff1690506000610a4285604051806060016040528060248152602001614bbf6024913961233e565b90508673ffffffffffffffffffffffffffffffffffffffff168373ffffffffffffffffffffffffffffffffffffffff1614158015610abc57507fffffffffffffffffffffffffffffffffffffffffffffffffffffffffffffffff6bffffffffffffffffffffffff16826bffffffffffffffffffffffff1614155b15610bfa576000610ae683836040518060600160405280603c8152602001614d81603c913961239c565b905080600860008a73ffffffffffffffffffffffffffffffffffffffff1673ffffffffffffffffffffffffffffffffffffffff16815260200190815260200160002060008673ffffffffffffffffffffffffffffffffffffffff1673ffffffffffffffffffffffffffffffffffffffff16815260200190815260200160002060006101000a8154816bffffffffffffffffffffffff02191690836bffffffffffffffffffffffff1602179055508373ffffffffffffffffffffffffffffffffffffffff168873ffffffffffffffffffffffffffffffffffffffff167f8c5be1e5ebec7d5bd14f71427d1e84f3dd0314c0f7b2291e5b200ac8c7c3b92583604051610bf0919061495d565b60405180910390a3505b610c0587878361240d565b600193505050509392505050565b604051610c1f9061441f565b604051809103902081565b601281565b60008073ffffffffffffffffffffffffffffffffffffffff16600360009054906101000a900473ffffffffffffffffffffffffffffffffffffffff1673ffffffffffffffffffffffffffffffffffffffff161415610cc2576040517f08c379a0000000000000000000000000000000000000000000000000000000008152600401610cb990614623565b60405180910390fd5b600360009054906101000a900473ffffffffffffffffffffffffffffffffffffffff1673ffffffffffffffffffffffffffffffffffffffff163373ffffffffffffffffffffffffffffffffffffffff1614610d52576040517f08c379a0000000000000000000000000000000000000000000000000000000008152600401610d4990614863565b60405180910390fd5b6000610d7683604051806060016040528060218152602001614b696021913961233e565b9050610d8284826127ee565b600191505092915050565b600080610db283604051806060016040528060218152602001614c726021913961233e565b9050610dbe3382612a16565b6001915050919050565b60065481565b600a6020528060005260406000206000915054906101000a900473ffffffffffffffffffffffffffffffffffffffff1681565b610e0b3382612c82565b50565b6000600760009054906101000a900460ff1615610e60576040517f08c379a0000000000000000000000000000000000000000000000000000000008152600401610e5790614803565b60405180910390fd5b600260009054906101000a900473ffffffffffffffffffffffffffffffffffffffff1673ffffffffffffffffffffffffffffffffffffffff163373ffffffffffffffffffffffffffffffffffffffff1614610ef0576040517f08c379a0000000000000000000000000000000000000000000000000000000008152600401610ee7906146c3565b60405180910390fd5b600554821015610f35576040517f08c379a0000000000000000000000000000000000000000000000000000000008152600401610f2c90614643565b60405180910390fd5b8160048190555060019050919050565b600c6020528060005260406000206000915054906101000a900463ffffffff1681565b6000600260009054906101000a900473ffffffffffffffffffffffffffffffffffffffff1673ffffffffffffffffffffffffffffffffffffffff163373ffffffffffffffffffffffffffffffffffffffff1614610ffa576040517f08c379a0000000000000000000000000000000000000000000000000000000008152600401610ff190614843565b60405180910390fd5b600073ffffffffffffffffffffffffffffffffffffffff168273ffffffffffffffffffffffffffffffffffffffff16141561106a576040517f08c379a0000000000000000000000000000000000000000000000000000000008152600401611061906148a3565b60405180910390fd5b81600260006101000a81548173ffffffffffffffffffffffffffffffffffffffff021916908373ffffffffffffffffffffffffffffffffffffffff16021790555060019050919050565b6000600960008373ffffffffffffffffffffffffffffffffffffffff1673ffffffffffffffffffffffffffffffffffffffff16815260200190815260200160002060009054906101000a90046bffffffffffffffffffffffff166bffffffffffffffffffffffff169050919050565b6000438210611167576040517f08c379a000000000000000000000000000000000000000000000000000000000815260040161115e90614743565b60405180910390fd5b6000600c60008573ffffffffffffffffffffffffffffffffffffffff1673ffffffffffffffffffffffffffffffffffffffff16815260200190815260200160002060009054906101000a900463ffffffff16905060008163ffffffff1614156111d4576000915050611530565b82600b60008673ffffffffffffffffffffffffffffffffffffffff1673ffffffffffffffffffffffffffffffffffffffff16815260200190815260200160002060006001840363ffffffff1663ffffffff16815260200190815260200160002060000160009054906101000a900463ffffffff1663ffffffff16116112d657600b60008573ffffffffffffffffffffffffffffffffffffffff1673ffffffffffffffffffffffffffffffffffffffff16815260200190815260200160002060006001830363ffffffff1663ffffffff16815260200190815260200160002060000160049054906101000a90046bffffffffffffffffffffffff16915050611530565b82600b60008673ffffffffffffffffffffffffffffffffffffffff1673ffffffffffffffffffffffffffffffffffffffff16815260200190815260200160002060008063ffffffff16815260200190815260200160002060000160009054906101000a900463ffffffff1663ffffffff161115611357576000915050611530565b600080905060006001830390505b8163ffffffff168163ffffffff1611156114b2576000600283830363ffffffff168161138d57fe5b048203905061139a613603565b600b60008973ffffffffffffffffffffffffffffffffffffffff1673ffffffffffffffffffffffffffffffffffffffff16815260200190815260200160002060008363ffffffff1663ffffffff1681526020019081526020016000206040518060400160405290816000820160009054906101000a900463ffffffff1663ffffffff1663ffffffff1681526020016000820160049054906101000a90046bffffffffffffffffffffffff166bffffffffffffffffffffffff166bffffffffffffffffffffffff1681525050905086816000015163ffffffff16141561148a57806020015195505050505050611530565b86816000015163ffffffff1610156114a4578193506114ab565b6001820392505b5050611365565b600b60008773ffffffffffffffffffffffffffffffffffffffff1673ffffffffffffffffffffffffffffffffffffffff16815260200190815260200160002060008363ffffffff1663ffffffff16815260200190815260200160002060000160049054906101000a90046bffffffffffffffffffffffff1693505050505b92915050565b6000803390506000600860008673ffffffffffffffffffffffffffffffffffffffff1673ffffffffffffffffffffffffffffffffffffffff16815260200190815260200160002060008373ffffffffffffffffffffffffffffffffffffffff1673ffffffffffffffffffffffffffffffffffffffff16815260200190815260200160002060009054906101000a90046bffffffffffffffffffffffff16905060006115f985604051806060016040528060258152602001614cba6025913961233e565b90508573ffffffffffffffffffffffffffffffffffffffff168373ffffffffffffffffffffffffffffffffffffffff161415801561167357507fffffffffffffffffffffffffffffffffffffffffffffffffffffffffffffffff6bffffffffffffffffffffffff16826bffffffffffffffffffffffff1614155b156117b157600061169d8383604051806060016040528060348152602001614d2a6034913961239c565b905080600860008973ffffffffffffffffffffffffffffffffffffffff1673ffffffffffffffffffffffffffffffffffffffff16815260200190815260200160002060008673ffffffffffffffffffffffffffffffffffffffff1673ffffffffffffffffffffffffffffffffffffffff16815260200190815260200160002060006101000a8154816bffffffffffffffffffffffff02191690836bffffffffffffffffffffffff1602179055508373ffffffffffffffffffffffffffffffffffffffff168773ffffffffffffffffffffffffffffffffffffffff167f8c5be1e5ebec7d5bd14f71427d1e84f3dd0314c0f7b2291e5b200ac8c7c3b925836040516117a7919061495d565b60405180910390a3505b6117bb8682612a16565b6001935050505092915050565b6000600260009054906101000a900473ffffffffffffffffffffffffffffffffffffffff1673ffffffffffffffffffffffffffffffffffffffff163373ffffffffffffffffffffffffffffffffffffffff161461185a576040517f08c379a0000000000000000000000000000000000000000000000000000000008152600401611851906146a3565b60405180910390fd5b6001600760006101000a81548160ff0219169083151502179055506001905090565b600d6020528060005260406000206000915090505481565b60018054600181600116156101000203166002900480601f01602080910402602001604051908101604052809291908181526020018280546001816001161561010002031660029004801561192a5780601f106118ff5761010080835404028352916020019161192a565b820191906000526020600020905b81548152906001019060200180831161190d57829003601f168201915b505050505081565b60008061195783604051806060016040528060258152602001614cdf6025913961233e565b905061196433858361240d565b600191505092915050565b600080600c60008473ffffffffffffffffffffffffffffffffffffffff1673ffffffffffffffffffffffffffffffffffffffff16815260200190815260200160002060009054906101000a900463ffffffff16905060008163ffffffff16116119d9576000611a55565b600b60008473ffffffffffffffffffffffffffffffffffffffff1673ffffffffffffffffffffffffffffffffffffffff16815260200190815260200160002060006001830363ffffffff1663ffffffff16815260200190815260200160002060000160049054906101000a90046bffffffffffffffffffffffff165b915050919050565b6000604051611a6b90614434565b60405180910390206000604051611a8291906143d1565b6040518091039020611a92612e42565b30604051602001611aa69493929190614555565b6040516020818303038152906040528051906020012090506000604051611acc90614449565b6040518091039020888888604051602001611aea9493929190614510565b60405160208183030381529060405280519060200120905060008282604051602001611b179291906143e8565b604051602081830303815290604052805190602001209050600060018288888860405160008152602001604052604051611b54949392919061459a565b6020604051602081039080840390855afa158015611b76573d6000803e3d6000fd5b505050602060405103519050600073ffffffffffffffffffffffffffffffffffffffff168173ffffffffffffffffffffffffffffffffffffffff161415611bf2576040517f08c379a0000000000000000000000000000000000000000000000000000000008152600401611be990614723565b60405180910390fd5b600d60008273ffffffffffffffffffffffffffffffffffffffff1673ffffffffffffffffffffffffffffffffffffffff1681526020019081526020016000206000815480929190600101919050558914611c81576040517f08c379a0000000000000000000000000000000000000000000000000000000008152600401611c78906147e3565b60405180910390fd5b87421115611cc4576040517f08c379a0000000000000000000000000000000000000000000000000000000008152600401611cbb90614883565b60405180910390fd5b611cce818b612c82565b50505050505050505050565b60007fffffffffffffffffffffffffffffffffffffffffffffffffffffffffffffffff861415611d2c577fffffffffffffffffffffffffffffffffffffffffffffffffffffffffffffffff9050611d51565b611d4e86604051806060016040528060238152602001614d5e6023913961233e565b90505b6000604051611d5f90614434565b60405180910390206000604051611d7691906143d1565b6040518091039020611d86612e42565b30604051602001611d9a9493929190614555565b6040516020818303038152906040528051906020012090506000604051611dc09061441f565b60405180910390208a8a8a600d60008f73ffffffffffffffffffffffffffffffffffffffff1673ffffffffffffffffffffffffffffffffffffffff1681526020019081526020016000206000815480929190600101919050558b604051602001611e2f969594939291906144af565b60405160208183030381529060405280519060200120905060008282604051602001611e5c9291906143e8565b604051602081830303815290604052805190602001209050600060018289898960405160008152602001604052604051611e99949392919061459a565b6020604051602081039080840390855afa158015611ebb573d6000803e3d6000fd5b505050602060405103519050600073ffffffffffffffffffffffffffffffffffffffff168173ffffffffffffffffffffffffffffffffffffffff161415611f37576040517f08c379a0000000000000000000000000000000000000000000000000000000008152600401611f2e90614783565b60405180910390fd5b8b73ffffffffffffffffffffffffffffffffffffffff168173ffffffffffffffffffffffffffffffffffffffff1614611fa5576040517f08c379a0000000000000000000000000000000000000000000000000000000008152600401611f9c90614763565b60405180910390fd5b88421115611fe8576040517f08c379a0000000000000000000000000000000000000000000000000000000008152600401611fdf90614703565b60405180910390fd5b84600860008e73ffffffffffffffffffffffffffffffffffffffff1673ffffffffffffffffffffffffffffffffffffffff16815260200190815260200160002060008d73ffffffffffffffffffffffffffffffffffffffff1673ffffffffffffffffffffffffffffffffffffffff16815260200190815260200160002060006101000a8154816bffffffffffffffffffffffff02191690836bffffffffffffffffffffffff1602179055508a73ffffffffffffffffffffffffffffffffffffffff168c73ffffffffffffffffffffffffffffffffffffffff167f8c5be1e5ebec7d5bd14f71427d1e84f3dd0314c0f7b2291e5b200ac8c7c3b925876040516120f0919061495d565b60405180910390a3505050505050505050505050565b60045481565b600760009054906101000a900460ff1681565b6000600860008473ffffffffffffffffffffffffffffffffffffffff1673ffffffffffffffffffffffffffffffffffffffff16815260200190815260200160002060008373ffffffffffffffffffffffffffffffffffffffff1673ffffffffffffffffffffffffffffffffffffffff16815260200190815260200160002060009054906101000a90046bffffffffffffffffffffffff166bffffffffffffffffffffffff16905092915050565b6040516121d890614449565b604051809103902081565b600b602052816000526040600020602052806000526040600020600091509150508060000160009054906101000a900463ffffffff16908060000160049054906101000a90046bffffffffffffffffffffffff16905082565b600260009054906101000a900473ffffffffffffffffffffffffffffffffffffffff1681565b6000600260009054906101000a900473ffffffffffffffffffffffffffffffffffffffff1673ffffffffffffffffffffffffffffffffffffffff163373ffffffffffffffffffffffffffffffffffffffff16146122f4576040517f08c379a00000000000000000000000000000000000000000000000000000000081526004016122eb90614683565b60405180910390fd5b81600360006101000a81548173ffffffffffffffffffffffffffffffffffffffff021916908373ffffffffffffffffffffffffffffffffffffffff16021790555060019050919050565b60006c0100000000000000000000000083108290612392576040517f08c379a00000000000000000000000000000000000000000000000000000000081526004016123899190614601565b60405180910390fd5b5082905092915050565b6000836bffffffffffffffffffffffff16836bffffffffffffffffffffffff1611158290612400576040517f08c379a00000000000000000000000000000000000000000000000000000000081526004016123f79190614601565b60405180910390fd5b5082840390509392505050565b600073ffffffffffffffffffffffffffffffffffffffff168373ffffffffffffffffffffffffffffffffffffffff16141561247d576040517f08c379a0000000000000000000000000000000000000000000000000000000008152600401612474906147a3565b60405180910390fd5b600073ffffffffffffffffffffffffffffffffffffffff168273ffffffffffffffffffffffffffffffffffffffff1614156124ed576040517f08c379a00000000000000000000000000000000000000000000000000000000081526004016124e490614663565b60405180910390fd5b612567600960008573ffffffffffffffffffffffffffffffffffffffff1673ffffffffffffffffffffffffffffffffffffffff16815260200190815260200160002060009054906101000a90046bffffffffffffffffffffffff1682604051806060016040528060358152602001614b8a6035913961239c565b600960008573ffffffffffffffffffffffffffffffffffffffff1673ffffffffffffffffffffffffffffffffffffffff16815260200190815260200160002060006101000a8154816bffffffffffffffffffffffff02191690836bffffffffffffffffffffffff16021790555061264e600960008473ffffffffffffffffffffffffffffffffffffffff1673ffffffffffffffffffffffffffffffffffffffff16815260200190815260200160002060009054906101000a90046bffffffffffffffffffffffff16826040518060600160405280602f8152602001614c16602f9139612e4f565b600960008473ffffffffffffffffffffffffffffffffffffffff1673ffffffffffffffffffffffffffffffffffffffff16815260200190815260200160002060006101000a8154816bffffffffffffffffffffffff02191690836bffffffffffffffffffffffff1602179055508173ffffffffffffffffffffffffffffffffffffffff168373ffffffffffffffffffffffffffffffffffffffff167fddf252ad1be2c89b69c2b068fc378daa952ba7f163c4a11628f55a4df523b3ef83604051612718919061495d565b60405180910390a36127e9600a60008573ffffffffffffffffffffffffffffffffffffffff1673ffffffffffffffffffffffffffffffffffffffff16815260200190815260200160002060009054906101000a900473ffffffffffffffffffffffffffffffffffffffff16600a60008573ffffffffffffffffffffffffffffffffffffffff1673ffffffffffffffffffffffffffffffffffffffff16815260200190815260200160002060009054906101000a900473ffffffffffffffffffffffffffffffffffffffff1683612ec5565b505050565b600073ffffffffffffffffffffffffffffffffffffffff168273ffffffffffffffffffffffffffffffffffffffff16141561285e576040517f08c379a0000000000000000000000000000000000000000000000000000000008152600401612855906147c3565b60405180910390fd5b612878600554826bffffffffffffffffffffffff166131c0565b6005819055506128f8600960008473ffffffffffffffffffffffffffffffffffffffff1673ffffffffffffffffffffffffffffffffffffffff16815260200190815260200160002060009054906101000a90046bffffffffffffffffffffffff1682604051806060016040528060278152602001614dbd60279139612e4f565b600960008473ffffffffffffffffffffffffffffffffffffffff1673ffffffffffffffffffffffffffffffffffffffff16815260200190815260200160002060006101000a8154816bffffffffffffffffffffffff02191690836bffffffffffffffffffffffff1602179055508173ffffffffffffffffffffffffffffffffffffffff16600073ffffffffffffffffffffffffffffffffffffffff167fddf252ad1be2c89b69c2b068fc378daa952ba7f163c4a11628f55a4df523b3ef836040516129c3919061495d565b60405180910390a36004546005541115612a12576040517f08c379a0000000000000000000000000000000000000000000000000000000008152600401612a09906148c3565b60405180910390fd5b5050565b600073ffffffffffffffffffffffffffffffffffffffff168273ffffffffffffffffffffffffffffffffffffffff161415612a86576040517f08c379a0000000000000000000000000000000000000000000000000000000008152600401612a7d90614823565b60405180910390fd5b612b00600960008473ffffffffffffffffffffffffffffffffffffffff1673ffffffffffffffffffffffffffffffffffffffff16815260200190815260200160002060009054906101000a90046bffffffffffffffffffffffff16826040518060600160405280602d8152602001614c45602d913961239c565b600960008473ffffffffffffffffffffffffffffffffffffffff1673ffffffffffffffffffffffffffffffffffffffff16815260200190815260200160002060006101000a8154816bffffffffffffffffffffffff02191690836bffffffffffffffffffffffff160217905550612b87600554826bffffffffffffffffffffffff16613215565b600581905550612ba7600654826bffffffffffffffffffffffff166131c0565b600681905550600073ffffffffffffffffffffffffffffffffffffffff168273ffffffffffffffffffffffffffffffffffffffff167fddf252ad1be2c89b69c2b068fc378daa952ba7f163c4a11628f55a4df523b3ef83604051612c0b919061495d565b60405180910390a3612c7e600a60008473ffffffffffffffffffffffffffffffffffffffff1673ffffffffffffffffffffffffffffffffffffffff16815260200190815260200160002060009054906101000a900473ffffffffffffffffffffffffffffffffffffffff16600083612ec5565b5050565b6000600a60008473ffffffffffffffffffffffffffffffffffffffff1673ffffffffffffffffffffffffffffffffffffffff16815260200190815260200160002060009054906101000a900473ffffffffffffffffffffffffffffffffffffffff1690506000600960008573ffffffffffffffffffffffffffffffffffffffff1673ffffffffffffffffffffffffffffffffffffffff16815260200190815260200160002060009054906101000a90046bffffffffffffffffffffffff16905082600a60008673ffffffffffffffffffffffffffffffffffffffff1673ffffffffffffffffffffffffffffffffffffffff16815260200190815260200160002060006101000a81548173ffffffffffffffffffffffffffffffffffffffff021916908373ffffffffffffffffffffffffffffffffffffffff1602179055508273ffffffffffffffffffffffffffffffffffffffff168273ffffffffffffffffffffffffffffffffffffffff168573ffffffffffffffffffffffffffffffffffffffff167f3134e8a2e6d97e929a7e54011ea5485d7d196dd5f0ba4d4ef95803e8e3fc257f60405160405180910390a4612e3c828483612ec5565b50505050565b6000804690508091505090565b6000808385019050846bffffffffffffffffffffffff16816bffffffffffffffffffffffff1610158390612eb9576040517f08c379a0000000000000000000000000000000000000000000000000000000008152600401612eb09190614601565b60405180910390fd5b50809150509392505050565b8173ffffffffffffffffffffffffffffffffffffffff168373ffffffffffffffffffffffffffffffffffffffff1614158015612f0f57506000816bffffffffffffffffffffffff16115b156131bb57600073ffffffffffffffffffffffffffffffffffffffff168373ffffffffffffffffffffffffffffffffffffffff1614613067576000600c60008573ffffffffffffffffffffffffffffffffffffffff1673ffffffffffffffffffffffffffffffffffffffff16815260200190815260200160002060009054906101000a900463ffffffff1690506000808263ffffffff1611612fb257600061302e565b600b60008673ffffffffffffffffffffffffffffffffffffffff1673ffffffffffffffffffffffffffffffffffffffff16815260200190815260200160002060006001840363ffffffff1663ffffffff16815260200190815260200160002060000160049054906101000a90046bffffffffffffffffffffffff165b905060006130558285604051806060016040528060278152602001614c936027913961239c565b90506130638684848461325f565b5050505b600073ffffffffffffffffffffffffffffffffffffffff168273ffffffffffffffffffffffffffffffffffffffff16146131ba576000600c60008473ffffffffffffffffffffffffffffffffffffffff1673ffffffffffffffffffffffffffffffffffffffff16815260200190815260200160002060009054906101000a900463ffffffff1690506000808263ffffffff1611613105576000613181565b600b60008573ffffffffffffffffffffffffffffffffffffffff1673ffffffffffffffffffffffffffffffffffffffff16815260200190815260200160002060006001840363ffffffff1663ffffffff16815260200190815260200160002060000160049054906101000a90046bffffffffffffffffffffffff165b905060006131a88285604051806060016040528060268152602001614d0460269139612e4f565b90506131b68584848461325f565b5050505b5b505050565b60008082840190508381101561320b576040517f08c379a0000000000000000000000000000000000000000000000000000000008152600401613202906146e3565b60405180910390fd5b8091505092915050565b600061325783836040518060400160405280601f81526020017f536166654d6174683a207375627472616374696f6e20756e646572666c6f7700815250613552565b905092915050565b600061328343604051806060016040528060338152602001614be3603391396135ad565b905060008463ffffffff1611801561331857508063ffffffff16600b60008773ffffffffffffffffffffffffffffffffffffffff1673ffffffffffffffffffffffffffffffffffffffff16815260200190815260200160002060006001870363ffffffff1663ffffffff16815260200190815260200160002060000160009054906101000a900463ffffffff1663ffffffff16145b156133b35781600b60008773ffffffffffffffffffffffffffffffffffffffff1673ffffffffffffffffffffffffffffffffffffffff16815260200190815260200160002060006001870363ffffffff1663ffffffff16815260200190815260200160002060000160046101000a8154816bffffffffffffffffffffffff02191690836bffffffffffffffffffffffff1602179055506134fb565b60405180604001604052808263ffffffff168152602001836bffffffffffffffffffffffff16815250600b60008773ffffffffffffffffffffffffffffffffffffffff1673ffffffffffffffffffffffffffffffffffffffff16815260200190815260200160002060008663ffffffff1663ffffffff16815260200190815260200160002060008201518160000160006101000a81548163ffffffff021916908363ffffffff16021790555060208201518160000160046101000a8154816bffffffffffffffffffffffff02191690836bffffffffffffffffffffffff16021790555090505060018401600c60008773ffffffffffffffffffffffffffffffffffffffff1673ffffffffffffffffffffffffffffffffffffffff16815260200190815260200160002060006101000a81548163ffffffff021916908363ffffffff1602179055505b8473ffffffffffffffffffffffffffffffffffffffff167fdec2bacdd2f05b59de34da9b523dff8be42e5e38e818c82fdb0bae774387a7248484604051613543929190614993565b60405180910390a25050505050565b600083831115829061359a576040517f08c379a00000000000000000000000000000000000000000000000000000000081526004016135919190614601565b60405180910390fd5b5060008385039050809150509392505050565b6000640100000000831082906135f9576040517f08c379a00000000000000000000000000000000000000000000000000000000081526004016135f09190614601565b60405180910390fd5b5082905092915050565b6040518060400160405280600063ffffffff16815260200160006bffffffffffffffffffffffff1681525090565b60008135905061364081614af5565b92915050565b60008135905061365581614b0c565b92915050565b60008135905061366a81614b23565b92915050565b60008135905061367f81614b3a565b92915050565b60008135905061369481614b51565b92915050565b6000602082840312156136ac57600080fd5b60006136ba84828501613631565b91505092915050565b600080604083850312156136d657600080fd5b60006136e485828601613631565b92505060206136f585828601613631565b9150509250929050565b60008060006060848603121561371457600080fd5b600061372286828701613631565b935050602061373386828701613631565b92505060406137448682870161365b565b9150509250925092565b600080600080600080600060e0888a03121561376957600080fd5b60006137778a828b01613631565b97505060206137888a828b01613631565b96505060406137998a828b0161365b565b95505060606137aa8a828b0161365b565b94505060806137bb8a828b01613685565b93505060a06137cc8a828b01613646565b92505060c06137dd8a828b01613646565b91505092959891949750929550565b600080604083850312156137ff57600080fd5b600061380d85828601613631565b925050602061381e8582860161365b565b9150509250929050565b60008060008060008060c0878903121561384157600080fd5b600061384f89828a01613631565b965050602061386089828a0161365b565b955050604061387189828a0161365b565b945050606061388289828a01613685565b935050608061389389828a01613646565b92505060a06138a489828a01613646565b9150509295509295509295565b600080604083850312156138c457600080fd5b60006138d285828601613631565b92505060206138e385828601613670565b9150509250929050565b6000602082840312156138ff57600080fd5b600061390d8482850161365b565b91505092915050565b61391f81614a0e565b82525050565b61392e81614a20565b82525050565b61393d81614a2c565b82525050565b61395461394f82614a2c565b614ada565b82525050565b600081546001811660008114613977576001811461399c576139e0565b607f600283041661398881876149e7565b955060ff19831686528086019350506139e0565b600282046139aa81876149e7565b95506139b5856149bc565b60005b828110156139d7578154818901526001820191506020810190506139b8565b82880195505050505b505092915050565b60006139f3826149dc565b6139fd81856149f2565b9350613a0d818560208601614aa7565b613a1681614ae4565b840191505092915050565b6000613a2c826149d1565b613a3681856149f2565b9350613a46818560208601614aa7565b613a4f81614ae4565b840191505092915050565b6000613a676017836149f2565b91507f4172633a3a6d696e743a206d696e74657220756e7365740000000000000000006000830152602082019050919050565b6000613aa7603c836149f2565b91507f4172633a3a7365744d6178537570706c793a2063697263756c6174696e67207360008301527f7570706c792065786365656473206e6577206d617820737570706c79000000006020830152604082019050919050565b6000613b0d6039836149f2565b91507f4172633a3a5f7472616e73666572546f6b656e733a2063616e6e6f742074726160008301527f6e7366657220746f20746865207a65726f2061646472657373000000000000006020830152604082019050919050565b6000613b73601c836149f2565b91507f4172633a3a7365744d696e7465723a20756e617574686f72697a6564000000006000830152602082019050919050565b6000613bb36026836149f2565b91507f4172633a3a64697361626c655365744d6178537570706c793a20756e6175746860008301527f6f72697a656400000000000000000000000000000000000000000000000000006020830152604082019050919050565b6000613c19601f836149f2565b91507f4172633a3a7365744d6178537570706c793a20756e617574686f72697a6564006000830152602082019050919050565b6000613c59600283614a03565b91507f19010000000000000000000000000000000000000000000000000000000000006000830152600282019050919050565b6000613c99601b836149f2565b91507f536166654d6174683a206164646974696f6e206f766572666c6f7700000000006000830152602082019050919050565b6000613cd9601e836149f2565b91507f4172633a3a7065726d69743a207369676e6174757265206578706972656400006000830152602082019050919050565b6000613d196025836149f2565b91507f4172633a3a64656c656761746542795369673a20696e76616c6964207369676e60008301527f61747572650000000000000000000000000000000000000000000000000000006020830152604082019050919050565b6000613d7f6026836149f2565b91507f4172633a3a6765745072696f72566f7465733a206e6f7420796574206465746560008301527f726d696e656400000000000000000000000000000000000000000000000000006020830152604082019050919050565b6000613de5605283614a03565b91507f5065726d69742861646472657373206f776e65722c616464726573732073706560008301527f6e6465722c75696e743235362076616c75652c75696e74323536206e6f6e636560208301527f2c75696e7432353620646561646c696e652900000000000000000000000000006040830152605282019050919050565b6000613e716019836149f2565b91507f4172633a3a7065726d69743a20756e617574686f72697a6564000000000000006000830152602082019050919050565b6000613eb1601e836149f2565b91507f4172633a3a7065726d69743a20696e76616c6964207369676e617475726500006000830152602082019050919050565b6000613ef1604383614a03565b91507f454950373132446f6d61696e28737472696e67206e616d652c75696e7432353660008301527f20636861696e49642c6164647265737320766572696679696e67436f6e74726160208301527f63742900000000000000000000000000000000000000000000000000000000006040830152604382019050919050565b6000613f7d603b836149f2565b91507f4172633a3a5f7472616e73666572546f6b656e733a2063616e6e6f742074726160008301527f6e736665722066726f6d20746865207a65726f206164647265737300000000006020830152604082019050919050565b6000613fe36031836149f2565b91507f4172633a3a5f6d696e74546f6b656e733a2063616e6e6f74206d696e7420746f60008301527f20746865207a65726f20616464726573730000000000000000000000000000006020830152604082019050919050565b60006140496021836149f2565b91507f4172633a3a64656c656761746542795369673a20696e76616c6964206e6f6e6360008301527f65000000000000000000000000000000000000000000000000000000000000006020830152604082019050919050565b60006140af6028836149f2565b91507f4172633a3a7365744d6178537570706c793a2066756e6374696f6e207761732060008301527f64697361626c65640000000000000000000000000000000000000000000000006020830152604082019050919050565b60006141156033836149f2565b91507f4172633a3a5f6275726e546f6b656e733a2063616e6e6f74206275726e20667260008301527f6f6d20746865207a65726f2061646472657373000000000000000000000000006020830152604082019050919050565b600061417b601b836149f2565b91507f4172633a3a73657441646d696e3a20756e617574686f72697a656400000000006000830152602082019050919050565b60006141bb6017836149f2565b91507f4172633a3a6d696e743a20756e617574686f72697a65640000000000000000006000830152602082019050919050565b60006141fb603a83614a03565b91507f44656c65676174696f6e28616464726573732064656c6567617465652c75696e60008301527f74323536206e6f6e63652c75696e7432353620657870697279290000000000006020830152603a82019050919050565b60006142616025836149f2565b91507f4172633a3a64656c656761746542795369673a207369676e617475726520657860008301527f70697265640000000000000000000000000000000000000000000000000000006020830152604082019050919050565b60006142c76031836149f2565b91507f4172633a3a73657441646d696e3a2063616e6e6f74206d616b65207a65726f2060008301527f61646472657373207468652061646d696e0000000000000000000000000000006020830152604082019050919050565b600061432d6030836149f2565b91507f4172633a3a5f6d696e74546f6b656e733a206d696e7420726573756c7420657860008301527f6365656473206d617820737570706c79000000000000000000000000000000006020830152604082019050919050565b61438f81614a56565b82525050565b61439e81614a60565b82525050565b6143ad81614a70565b82525050565b6143bc81614a95565b82525050565b6143cb81614a7d565b82525050565b60006143dd828461395a565b915081905092915050565b60006143f382613c4c565b91506143ff8285613943565b60208201915061440f8284613943565b6020820191508190509392505050565b600061442a82613dd8565b9150819050919050565b600061443f82613ee4565b9150819050919050565b6000614454826141ee565b9150819050919050565b60006020820190506144736000830184613916565b92915050565b600060208201905061448e6000830184613925565b92915050565b60006020820190506144a96000830184613934565b92915050565b600060c0820190506144c46000830189613934565b6144d16020830188613916565b6144de6040830187613916565b6144eb6060830186614386565b6144f86080830185614386565b61450560a0830184614386565b979650505050505050565b60006080820190506145256000830187613934565b6145326020830186613916565b61453f6040830185614386565b61454c6060830184614386565b95945050505050565b600060808201905061456a6000830187613934565b6145776020830186613934565b6145846040830185614386565b6145916060830184613916565b95945050505050565b60006080820190506145af6000830187613934565b6145bc60208301866143a4565b6145c96040830185613934565b6145d66060830184613934565b95945050505050565b600060208201905081810360008301526145f98184613a21565b905092915050565b6000602082019050818103600083015261461b81846139e8565b905092915050565b6000602082019050818103600083015261463c81613a5a565b9050919050565b6000602082019050818103600083015261465c81613a9a565b9050919050565b6000602082019050818103600083015261467c81613b00565b9050919050565b6000602082019050818103600083015261469c81613b66565b9050919050565b600060208201905081810360008301526146bc81613ba6565b9050919050565b600060208201905081810360008301526146dc81613c0c565b9050919050565b600060208201905081810360008301526146fc81613c8c565b9050919050565b6000602082019050818103600083015261471c81613ccc565b9050919050565b6000602082019050818103600083015261473c81613d0c565b9050919050565b6000602082019050818103600083015261475c81613d72565b9050919050565b6000602082019050818103600083015261477c81613e64565b9050919050565b6000602082019050818103600083015261479c81613ea4565b9050919050565b600060208201905081810360008301526147bc81613f70565b9050919050565b600060208201905081810360008301526147dc81613fd6565b9050919050565b600060208201905081810360008301526147fc8161403c565b9050919050565b6000602082019050818103600083015261481c816140a2565b9050919050565b6000602082019050818103600083015261483c81614108565b9050919050565b6000602082019050818103600083015261485c8161416e565b9050919050565b6000602082019050818103600083015261487c816141ae565b9050919050565b6000602082019050818103600083015261489c81614254565b9050919050565b600060208201905081810360008301526148bc816142ba565b9050919050565b600060208201905081810360008301526148dc81614320565b9050919050565b60006020820190506148f86000830184614386565b92915050565b60006020820190506149136000830184614395565b92915050565b600060408201905061492e6000830185614395565b61493b60208301846143c2565b9392505050565b600060208201905061495760008301846143a4565b92915050565b600060208201905061497260008301846143b3565b92915050565b600060208201905061498d60008301846143c2565b92915050565b60006040820190506149a860008301856143b3565b6149b560208301846143b3565b9392505050565b60008190508160005260206000209050919050565b600081519050919050565b600081519050919050565b600081905092915050565b600082825260208201905092915050565b600081905092915050565b6000614a1982614a36565b9050919050565b60008115159050919050565b6000819050919050565b600073ffffffffffffffffffffffffffffffffffffffff82169050919050565b6000819050919050565b600063ffffffff82169050919050565b600060ff82169050919050565b60006bffffffffffffffffffffffff82169050919050565b6000614aa082614a7d565b9050919050565b60005b83811015614ac5578082015181840152602081019050614aaa565b83811115614ad4576000848401525b50505050565b6000819050919050565b6000601f19601f8301169050919050565b614afe81614a0e565b8114614b0957600080fd5b50565b614b1581614a2c565b8114614b2057600080fd5b50565b614b2c81614a56565b8114614b3757600080fd5b50565b614b4381614a60565b8114614b4e57600080fd5b50565b614b5a81614a70565b8114614b6557600080fd5b5056fe4172633a3a6d696e743a20616d6f756e74206578636565647320393620626974734172633a3a5f7472616e73666572546f6b656e733a207472616e7366657220616d6f756e7420657863656564732062616c616e63654172633a3a617070726f76653a20616d6f756e74206578636565647320393620626974734172633a3a5f7772697465436865636b706f696e743a20626c6f636b206e756d626572206578636565647320333220626974734172633a3a5f7472616e73666572546f6b656e733a207472616e7366657220616d6f756e74206f766572666c6f77734172633a3a5f6275726e546f6b656e733a206275726e20616d6f756e7420657863656564732062616c616e63654172633a3a6275726e3a20616d6f756e74206578636565647320393620626974734172633a3a5f6d6f7665566f7465733a20766f746520616d6f756e7420756e646572666c6f77734172633a3a6275726e46726f6d3a20616d6f756e74206578636565647320393620626974734172633a3a7472616e736665723a20616d6f756e74206578636565647320393620626974734172633a3a5f6d6f7665566f7465733a20766f746520616d6f756e74206f766572666c6f77734172633a3a6275726e46726f6d3a206275726e20616d6f756e742065786365656473207370656e64657220616c6c6f77616e63654172633a3a7065726d69743a20616d6f756e74206578636565647320393620626974734172633a3a7472616e7366657246726f6d3a207472616e7366657220616d6f756e742065786365656473207370656e64657220616c6c6f77616e63654172633a3a5f6d696e74546f6b656e733a206d696e7420616d6f756e74206f766572666c6f7773a365627a7a7231582033b33c3e40317266e94708d5e91f55bbdf8fe35018453c0b757037bd52cd2e226c6578706572696d656e74616cf564736f6c634300051000404172633a3a5f6d696e74546f6b656e733a206d696e7420616d6f756e74206f766572666c6f7773",
  "linkReferences": {},
  "deployedLinkReferences": {}
}