{
  "_format": "hh-sol-artifact-1",
  "contractName": "RevenueDistributor",
  "sourceName": "contracts/revenue-distributor/RevenueDistributor.sol",
  "abi": [
    {
      "inputs": [
        {
          "components": [
            {
              "internalType": "address",
              "name": "account",
              "type": "address"
            },
            {
              "internalType": "uint256",
              "name": "allocation",
              "type": "uint256"
            }
          ],
          "internalType": "struct RevenueDistributor.Recipient[]",
          "name": "newRecipients",
          "type": "tuple[]"
        }
      ],
      "stateMutability": "nonpayable",
      "type": "constructor"
    },
    {
      "anonymous": false,
      "inputs": [
        {
          "indexed": true,
          "internalType": "address",
          "name": "previousOwner",
          "type": "address"
        },
        {
          "indexed": true,
          "internalType": "address",
          "name": "newOwner",
          "type": "address"
        }
      ],
      "name": "OwnershipTransferred",
      "type": "event"
    },
    {
      "anonymous": false,
      "inputs": [
        {
          "components": [
            {
              "internalType": "address",
              "name": "account",
              "type": "address"
            },
            {
              "internalType": "uint256",
              "name": "allocation",
              "type": "uint256"
            }
          ],
          "indexed": false,
          "internalType": "struct RevenueDistributor.Recipient[]",
          "name": "newRecipients",
          "type": "tuple[]"
        }
      ],
      "name": "RecipientsChanged",
      "type": "event"
    },
    {
      "anonymous": false,
      "inputs": [
        {
          "indexed": false,
          "internalType": "address",
          "name": "token",
          "type": "address"
        },
        {
          "indexed": false,
          "internalType": "uint256",
          "name": "amount",
          "type": "uint256"
        }
      ],
      "name": "TokenDistributed",
      "type": "event"
    },
    {
      "inputs": [
        {
          "internalType": "address",
          "name": "token",
          "type": "address"
        }
      ],
      "name": "distributeToken",
      "outputs": [],
      "stateMutability": "nonpayable",
      "type": "function"
    },
    {
      "inputs": [],
      "name": "getRecipients",
      "outputs": [
        {
          "components": [
            {
              "internalType": "address",
              "name": "account",
              "type": "address"
            },
            {
              "internalType": "uint256",
              "name": "allocation",
              "type": "uint256"
            }
          ],
          "internalType": "struct RevenueDistributor.Recipient[]",
          "name": "",
          "type": "tuple[]"
        }
      ],
      "stateMutability": "view",
      "type": "function"
    },
    {
      "inputs": [],
      "name": "owner",
      "outputs": [
        {
          "internalType": "address",
          "name": "",
          "type": "address"
        }
      ],
      "stateMutability": "view",
      "type": "function"
    },
    {
      "inputs": [],
      "name": "renounceOwnership",
      "outputs": [],
      "stateMutability": "nonpayable",
      "type": "function"
    },
    {
      "inputs": [
        {
          "components": [
            {
              "internalType": "address",
              "name": "account",
              "type": "address"
            },
            {
              "internalType": "uint256",
              "name": "allocation",
              "type": "uint256"
            }
          ],
          "internalType": "struct RevenueDistributor.Recipient[]",
          "name": "newRecipients",
          "type": "tuple[]"
        }
      ],
      "name": "setRecipients",
      "outputs": [],
      "stateMutability": "nonpayable",
      "type": "function"
    },
    {
      "inputs": [
        {
          "internalType": "address",
          "name": "newOwner",
          "type": "address"
        }
      ],
      "name": "transferOwnership",
      "outputs": [],
      "stateMutability": "nonpayable",
      "type": "function"
    }
  ],
  "bytecode": "0x60806040523480156200001157600080fd5b506040516200142e3803806200142e8339810160408190526200003491620003ca565b6200003f3362000051565b6200004a81620000a1565b5062000578565b600080546001600160a01b038381166001600160a01b0319831681178455604051919092169283917f8be0079c531659141344cd1fd0a4f28419497f9722a3daafe3b4186f6b6457e09190a35050565b620000ab620002f8565b8051600281905515801590620000c357506015600254105b620001155760405162461bcd60e51b815260206004820152601860248201527f696e76616c696420726563697069656e74206e756d626572000000000000000060448201526064015b60405180910390fd5b6000805b600254811015620002515760008382815181106200013b576200013b620004bb565b602090810291909101015180519091506001600160a01b0316620001a25760405162461bcd60e51b815260206004820152601960248201527f696e76616c696420726563697069656e7420616464726573730000000000000060448201526064016200010c565b8060200151600003620001f85760405162461bcd60e51b815260206004820152601c60248201527f696e76616c696420726563697069656e7420616c6c6f636174696f6e0000000060448201526064016200010c565b6000828152600160208181526040909220835181546001600160a01b0319166001600160a01b039091161781559183015191018190556200023a9084620004e7565b92505080620002499062000502565b905062000119565b506127108114620002bb5760405162461bcd60e51b815260206004820152602d60248201527f746f74616c20616c6c6f636174696f6e7320646f206e6f7420657175616c207460448201526c37903232b737b6b4b730ba37b960991b60648201526084016200010c565b7fb69dcdd848feb1fbcb29c8cdb30450ceb37feba30b9d444d7d7bbad1673196ae82604051620002ec91906200051e565b60405180910390a15050565b6000546001600160a01b03163314620003545760405162461bcd60e51b815260206004820181905260248201527f4f776e61626c653a2063616c6c6572206973206e6f7420746865206f776e657260448201526064016200010c565b565b634e487b7160e01b600052604160045260246000fd5b604080519081016001600160401b038111828210171562000391576200039162000356565b60405290565b604051601f8201601f191681016001600160401b0381118282101715620003c257620003c262000356565b604052919050565b60006020808385031215620003de57600080fd5b82516001600160401b0380821115620003f657600080fd5b818501915085601f8301126200040b57600080fd5b81518181111562000420576200042062000356565b62000430848260051b0162000397565b818152848101925060069190911b8301840190878211156200045157600080fd5b928401925b81841015620004b05760408489031215620004715760008081fd5b6200047b6200036c565b84516001600160a01b0381168114620004945760008081fd5b8152848601518682015283526040909301929184019162000456565b979650505050505050565b634e487b7160e01b600052603260045260246000fd5b634e487b7160e01b600052601160045260246000fd5b60008219821115620004fd57620004fd620004d1565b500190565b600060018201620005175762000517620004d1565b5060010190565b602080825282518282018190526000919060409081850190868401855b828110156200056b57815180516001600160a01b031685528601518685015292840192908501906001016200053b565b5091979650505050505050565b610ea680620005886000396000f3fe608060405234801561001057600080fd5b50600436106100725760003560e01c80638da5cb5b116100505780638da5cb5b146100a7578063d78d610b146100c7578063f2fde38b146100dc57600080fd5b8063715018a61461007757806384890ba31461008157806386d7403714610094575b600080fd5b61007f6100ef565b005b61007f61008f366004610bc4565b610103565b61007f6100a2366004610c8d565b61036d565b6000546040516001600160a01b0390911681526020015b60405180910390f35b6100cf6105b7565b6040516100be9190610ca8565b61007f6100ea366004610c8d565b6106e2565b6100f7610772565b61010160006107cc565b565b61010b610772565b805160028190551580159061012257506015600254105b6101735760405162461bcd60e51b815260206004820152601860248201527f696e76616c696420726563697069656e74206e756d626572000000000000000060448201526064015b60405180910390fd5b6000805b6002548110156102ba57600083828151811061019557610195610d00565b602090810291909101015180519091506001600160a01b03166101fa5760405162461bcd60e51b815260206004820152601960248201527f696e76616c696420726563697069656e74206164647265737300000000000000604482015260640161016a565b806020015160000361024e5760405162461bcd60e51b815260206004820152601c60248201527f696e76616c696420726563697069656e7420616c6c6f636174696f6e00000000604482015260640161016a565b6000828152600160208181526040909220835181547fffffffffffffffffffffffff0000000000000000000000000000000000000000166001600160a01b039091161781559183015191018190556102a69084610d2c565b925050806102b390610d44565b9050610177565b5061271081146103325760405162461bcd60e51b815260206004820152602d60248201527f746f74616c20616c6c6f636174696f6e7320646f206e6f7420657175616c207460448201527f6f2064656e6f6d696e61746f7200000000000000000000000000000000000000606482015260840161016a565b7fb69dcdd848feb1fbcb29c8cdb30450ceb37feba30b9d444d7d7bbad1673196ae826040516103619190610ca8565b60405180910390a15050565b6040517f70a082310000000000000000000000000000000000000000000000000000000081523060048201526000906001600160a01b038316906370a0823190602401602060405180830381865afa1580156103cd573d6000803e3d6000fd5b505050506040513d601f19601f820116820180604052508101906103f19190610d5e565b9050806000036104435760405162461bcd60e51b815260206004820152601660248201527f63616e6e6f742064697374726962757465207a65726f00000000000000000000604482015260640161016a565b60005b60016002546104559190610d77565b8110156104b957600081815260016020819052604090912080549101546104a9916001600160a01b0316906127109061048e9086610d8e565b6104989190610dad565b6001600160a01b0386169190610834565b6104b281610d44565b9050610446565b506105786001600060016002546104d09190610d77565b8152602081019190915260409081016000205490517f70a082310000000000000000000000000000000000000000000000000000000081523060048201526001600160a01b03918216918516906370a0823190602401602060405180830381865afa158015610543573d6000803e3d6000fd5b505050506040513d601f19601f820116820180604052508101906105679190610d5e565b6001600160a01b0385169190610834565b604080516001600160a01b0384168152602081018390527ff6f55ada4fbb9e2bc6813f97e749a30067f3c13a200ce783269b50e6419e8f649101610361565b606060025460000361060b5760405162461bcd60e51b815260206004820152601360248201527f6e6f20726563697069656e742065786973747300000000000000000000000000604482015260640161016a565b600060025467ffffffffffffffff81111561062857610628610b38565b60405190808252806020026020018201604052801561066d57816020015b60408051808201909152600080825260208201528152602001906001900390816106465790505b50905060005b6002548110156106dc57600081815260016020818152604092839020835180850190945280546001600160a01b03168452909101549082015282518390839081106106c0576106c0610d00565b6020026020010181905250806106d590610d44565b9050610673565b50919050565b6106ea610772565b6001600160a01b0381166107665760405162461bcd60e51b815260206004820152602660248201527f4f776e61626c653a206e6577206f776e657220697320746865207a65726f206160448201527f6464726573730000000000000000000000000000000000000000000000000000606482015260840161016a565b61076f816107cc565b50565b6000546001600160a01b031633146101015760405162461bcd60e51b815260206004820181905260248201527f4f776e61626c653a2063616c6c6572206973206e6f7420746865206f776e6572604482015260640161016a565b600080546001600160a01b038381167fffffffffffffffffffffffff0000000000000000000000000000000000000000831681178455604051919092169283917f8be0079c531659141344cd1fd0a4f28419497f9722a3daafe3b4186f6b6457e09190a35050565b604080516001600160a01b038416602482015260448082018490528251808303909101815260649091019091526020810180517bffffffffffffffffffffffffffffffffffffffffffffffffffffffff167fa9059cbb000000000000000000000000000000000000000000000000000000001790526108b49084906108b9565b505050565b600061090e826040518060400160405280602081526020017f5361666545524332303a206c6f772d6c6576656c2063616c6c206661696c6564815250856001600160a01b031661099e9092919063ffffffff16565b8051909150156108b4578080602001905181019061092c9190610dcf565b6108b45760405162461bcd60e51b815260206004820152602a60248201527f5361666545524332303a204552433230206f7065726174696f6e20646964206e60448201527f6f74207375636365656400000000000000000000000000000000000000000000606482015260840161016a565b60606109ad84846000856109b7565b90505b9392505050565b606082471015610a2f5760405162461bcd60e51b815260206004820152602660248201527f416464726573733a20696e73756666696369656e742062616c616e636520666f60448201527f722063616c6c0000000000000000000000000000000000000000000000000000606482015260840161016a565b6001600160a01b0385163b610a865760405162461bcd60e51b815260206004820152601d60248201527f416464726573733a2063616c6c20746f206e6f6e2d636f6e7472616374000000604482015260640161016a565b600080866001600160a01b03168587604051610aa29190610e21565b60006040518083038185875af1925050503d8060008114610adf576040519150601f19603f3d011682016040523d82523d6000602084013e610ae4565b606091505b5091509150610af4828286610aff565b979650505050505050565b60608315610b0e5750816109b0565b825115610b1e5782518084602001fd5b8160405162461bcd60e51b815260040161016a9190610e3d565b634e487b7160e01b600052604160045260246000fd5b6040805190810167ffffffffffffffff81118282101715610b7157610b71610b38565b60405290565b604051601f8201601f1916810167ffffffffffffffff81118282101715610ba057610ba0610b38565b604052919050565b80356001600160a01b0381168114610bbf57600080fd5b919050565b60006020808385031215610bd757600080fd5b823567ffffffffffffffff80821115610bef57600080fd5b818501915085601f830112610c0357600080fd5b813581811115610c1557610c15610b38565b610c23848260051b01610b77565b818152848101925060069190911b830184019087821115610c4357600080fd5b928401925b81841015610af45760408489031215610c615760008081fd5b610c69610b4e565b610c7285610ba8565b81528486013586820152835260409093019291840191610c48565b600060208284031215610c9f57600080fd5b6109b082610ba8565b602080825282518282018190526000919060409081850190868401855b82811015610cf357815180516001600160a01b03168552860151868501529284019290850190600101610cc5565b5091979650505050505050565b634e487b7160e01b600052603260045260246000fd5b634e487b7160e01b600052601160045260246000fd5b60008219821115610d3f57610d3f610d16565b500190565b60006000198203610d5757610d57610d16565b5060010190565b600060208284031215610d7057600080fd5b5051919050565b600082821015610d8957610d89610d16565b500390565b6000816000190483118215151615610da857610da8610d16565b500290565b600082610dca57634e487b7160e01b600052601260045260246000fd5b500490565b600060208284031215610de157600080fd5b815180151581146109b057600080fd5b60005b83811015610e0c578181015183820152602001610df4565b83811115610e1b576000848401525b50505050565b60008251610e33818460208701610df1565b9190910192915050565b6020815260008251806020840152610e5c816040850160208701610df1565b601f01601f1916919091016040019291505056fea2646970667358221220eedad1d9fc031dc052ffd1fc8942ed3e284f9c4d0ac02485d599c606bbfadefc64736f6c634300080f0033",
  "linkReferences": {},
  "deployedLinkReferences": {}
}