{
  "_format": "hh-sol-artifact-1",
  "contractName": "MerkledropToStakingCompliant",
  "sourceName": "contracts/arcanum-token/MerkledropToStakingCompliant.sol",
  "abi": [
    {
      "inputs": [
        {
          "internalType": "address",
          "name": "airdropToken",
          "type": "address"
        },
        {
          "internalType": "address",
          "name": "stakingPositions",
          "type": "address"
        },
        {
          "internalType": "address",
          "name": "initialOwner",
          "type": "address"
        }
      ],
      "stateMutability": "nonpayable",
      "type": "constructor"
    },
    {
      "anonymous": false,
      "inputs": [
        {
          "indexed": true,
          "internalType": "address",
          "name": "from",
          "type": "address"
        },
        {
          "indexed": true,
          "internalType": "address",
          "name": "to",
          "type": "address"
        },
        {
          "indexed": true,
          "internalType": "uint96",
          "name": "amount",
          "type": "uint96"
        }
      ],
      "name": "Claimed",
      "type": "event"
    },
    {
      "anonymous": false,
      "inputs": [
        {
          "indexed": true,
          "internalType": "bytes32",
          "name": "newMerkleRoot",
          "type": "bytes32"
        }
      ],
      "name": "MerkleRootSet",
      "type": "event"
    },
    {
      "anonymous": false,
      "inputs": [
        {
          "indexed": true,
          "internalType": "bytes32",
          "name": "newComplianceHash",
          "type": "bytes32"
        },
        {
          "indexed": false,
          "internalType": "string",
          "name": "newComplianceMessage",
          "type": "string"
        }
      ],
      "name": "NewComplianceMessage",
      "type": "event"
    },
    {
      "anonymous": false,
      "inputs": [
        {
          "indexed": true,
          "internalType": "address",
          "name": "previousOwner",
          "type": "address"
        },
        {
          "indexed": true,
          "internalType": "address",
          "name": "newOwner",
          "type": "address"
        }
      ],
      "name": "OwnershipTransferred",
      "type": "event"
    },
    {
      "anonymous": false,
      "inputs": [
        {
          "indexed": false,
          "internalType": "address",
          "name": "account",
          "type": "address"
        }
      ],
      "name": "Paused",
      "type": "event"
    },
    {
      "anonymous": false,
      "inputs": [
        {
          "indexed": false,
          "internalType": "address",
          "name": "account",
          "type": "address"
        }
      ],
      "name": "Unpaused",
      "type": "event"
    },
    {
      "inputs": [],
      "name": "ARC",
      "outputs": [
        {
          "internalType": "contract IERC20",
          "name": "",
          "type": "address"
        }
      ],
      "stateMutability": "view",
      "type": "function"
    },
    {
      "inputs": [],
      "name": "SAR",
      "outputs": [
        {
          "internalType": "contract IArcanumStakingPositions",
          "name": "",
          "type": "address"
        }
      ],
      "stateMutability": "view",
      "type": "function"
    },
    {
      "inputs": [
        {
          "internalType": "uint96",
          "name": "amount",
          "type": "uint96"
        },
        {
          "internalType": "bytes32[]",
          "name": "merkleProof",
          "type": "bytes32[]"
        },
        {
          "internalType": "bytes",
          "name": "signature",
          "type": "bytes"
        }
      ],
      "name": "claim",
      "outputs": [],
      "stateMutability": "nonpayable",
      "type": "function"
    },
    {
      "inputs": [
        {
          "internalType": "address",
          "name": "to",
          "type": "address"
        },
        {
          "internalType": "uint96",
          "name": "amount",
          "type": "uint96"
        },
        {
          "internalType": "bytes32[]",
          "name": "merkleProof",
          "type": "bytes32[]"
        },
        {
          "internalType": "bytes",
          "name": "signature",
          "type": "bytes"
        }
      ],
      "name": "claimTo",
      "outputs": [],
      "stateMutability": "nonpayable",
      "type": "function"
    },
    {
      "inputs": [
        {
          "internalType": "address",
          "name": "",
          "type": "address"
        }
      ],
      "name": "claimedAmounts",
      "outputs": [
        {
          "internalType": "uint96",
          "name": "",
          "type": "uint96"
        }
      ],
      "stateMutability": "view",
      "type": "function"
    },
    {
      "inputs": [],
      "name": "complianceHash",
      "outputs": [
        {
          "internalType": "bytes32",
          "name": "",
          "type": "bytes32"
        }
      ],
      "stateMutability": "view",
      "type": "function"
    },
    {
      "inputs": [],
      "name": "complianceMessage",
      "outputs": [
        {
          "internalType": "string",
          "name": "",
          "type": "string"
        }
      ],
      "stateMutability": "view",
      "type": "function"
    },
    {
      "inputs": [],
      "name": "merkleRoot",
      "outputs": [
        {
          "internalType": "bytes32",
          "name": "",
          "type": "bytes32"
        }
      ],
      "stateMutability": "view",
      "type": "function"
    },
    {
      "inputs": [],
      "name": "owner",
      "outputs": [
        {
          "internalType": "address",
          "name": "",
          "type": "address"
        }
      ],
      "stateMutability": "view",
      "type": "function"
    },
    {
      "inputs": [],
      "name": "pause",
      "outputs": [],
      "stateMutability": "nonpayable",
      "type": "function"
    },
    {
      "inputs": [],
      "name": "paused",
      "outputs": [
        {
          "internalType": "bool",
          "name": "",
          "type": "bool"
        }
      ],
      "stateMutability": "view",
      "type": "function"
    },
    {
      "inputs": [
        {
          "internalType": "contract IERC20",
          "name": "token",
          "type": "address"
        },
        {
          "internalType": "uint256",
          "name": "amount",
          "type": "uint256"
        }
      ],
      "name": "recover",
      "outputs": [],
      "stateMutability": "nonpayable",
      "type": "function"
    },
    {
      "inputs": [],
      "name": "renounceOwnership",
      "outputs": [],
      "stateMutability": "nonpayable",
      "type": "function"
    },
    {
      "inputs": [
        {
          "internalType": "string",
          "name": "newComplianceMessage",
          "type": "string"
        }
      ],
      "name": "setComplianceMessage",
      "outputs": [],
      "stateMutability": "nonpayable",
      "type": "function"
    },
    {
      "inputs": [
        {
          "internalType": "bytes32",
          "name": "newMerkleRoot",
          "type": "bytes32"
        }
      ],
      "name": "setMerkleRoot",
      "outputs": [],
      "stateMutability": "nonpayable",
      "type": "function"
    },
    {
      "inputs": [
        {
          "internalType": "address",
          "name": "newOwner",
          "type": "address"
        }
      ],
      "name": "transferOwnership",
      "outputs": [],
      "stateMutability": "nonpayable",
      "type": "function"
    },
    {
      "inputs": [],
      "name": "unpause",
      "outputs": [],
      "stateMutability": "nonpayable",
      "type": "function"
    }
  ],
  "bytecode": "0x6101c060405260d160c081815290620020b360e039600390620000239082620005ed565b50620000cc6003805462000037906200055e565b80601f016020809104026020016040519081016040528092919081815260200182805462000065906200055e565b8015620000b65780601f106200008a57610100808354040283529160200191620000b6565b820191906000526020600020905b8154815290600101906020018083116200009857829003601f168201915b5050505050620002d360201b62000a381760201c565b600455348015620000dc57600080fd5b506040516200218438038062002184833981016040819052620000ff91620006d6565b6200010a336200031d565b6000805460ff60a01b191681556001600160a01b0384163b9003620001765760405162461bcd60e51b815260206004820152601560248201527f696e76616c696420746f6b656e2061646472657373000000000000000000000060448201526064015b60405180910390fd5b816001600160a01b03163b600003620001d25760405162461bcd60e51b815260206004820152601760248201527f696e76616c6964207374616b696e67206164647265737300000000000000000060448201526064016200016d565b6001600160a01b0381166200022a5760405162461bcd60e51b815260206004820152601560248201527f696e76616c696420696e697469616c206f776e6572000000000000000000000060448201526064016200016d565b62000235816200031d565b60405163095ea7b360e01b81526001600160a01b038381166004830152600019602483015284169063095ea7b3906044016020604051808303816000875af115801562000286573d6000803e3d6000fd5b505050506040513d601f19601f82011682018060405250810190620002ac919062000720565b506001600160a01b03808416608052821660a052620002ca6200036d565b5050506200089e565b6000620002ec8251620003d060201b62000a731760201c565b82604051602001620003009291906200077e565b604051602081830303815290604052805190602001209050919050565b600080546001600160a01b038381166001600160a01b0319831681178455604051919092169283917f8be0079c531659141344cd1fd0a4f28419497f9722a3daafe3b4186f6b6457e09190a35050565b62000377620004f0565b6000805460ff60a01b1916600160a01b1790557f62e78cea01bee320cd4e420270b5ea74000d11b0c9f74754ebdbfc544b05a258620003b33390565b6040516001600160a01b03909116815260200160405180910390a1565b606081600003620003f85750506040805180820190915260018152600360fc1b602082015290565b8160005b81156200042857806200040f81620007f3565b9150620004209050600a8362000825565b9150620003fc565b6000816001600160401b0381111562000445576200044562000548565b6040519080825280601f01601f19166020018201604052801562000470576020820181803683370190505b5090505b8415620004e857620004886001836200083c565b915062000497600a8662000856565b620004a49060306200086d565b60f81b818381518110620004bc57620004bc62000888565b60200101906001600160f81b031916908160001a905350620004e0600a8662000825565b945062000474565b949350505050565b62000504600054600160a01b900460ff1690565b15620005465760405162461bcd60e51b815260206004820152601060248201526f14185d5cd8589b194e881c185d5cd95960821b60448201526064016200016d565b565b634e487b7160e01b600052604160045260246000fd5b600181811c908216806200057357607f821691505b6020821081036200059457634e487b7160e01b600052602260045260246000fd5b50919050565b601f821115620005e857600081815260208120601f850160051c81016020861015620005c35750805b601f850160051c820191505b81811015620005e457828155600101620005cf565b5050505b505050565b81516001600160401b0381111562000609576200060962000548565b62000621816200061a84546200055e565b846200059a565b602080601f831160018114620006595760008415620006405750858301515b600019600386901b1c1916600185901b178555620005e4565b600085815260208120601f198616915b828110156200068a5788860151825594840194600190910190840162000669565b5085821015620006a95787850151600019600388901b60f8161c191681555b5050505050600190811b01905550565b80516001600160a01b0381168114620006d157600080fd5b919050565b600080600060608486031215620006ec57600080fd5b620006f784620006b9565b92506200070760208501620006b9565b91506200071760408501620006b9565b90509250925092565b6000602082840312156200073357600080fd5b815180151581146200074457600080fd5b9392505050565b60005b83811015620007685781810151838201526020016200074e565b8381111562000778576000848401525b50505050565b7f19457468657265756d205369676e6564204d6573736167653a0a000000000000815260008351620007b881601a8501602088016200074b565b835190830190620007d181601a8401602088016200074b565b01601a01949350505050565b634e487b7160e01b600052601160045260246000fd5b600060018201620008085762000808620007dd565b5060010190565b634e487b7160e01b600052601260045260246000fd5b6000826200083757620008376200080f565b500490565b600082821015620008515762000851620007dd565b500390565b6000826200086857620008686200080f565b500690565b60008219821115620008835762000883620007dd565b500190565b634e487b7160e01b600052603260045260246000fd5b60805160a0516117e1620008d2600039600081816101a20152818161084401526108f90152600061014301526117e16000f3fe608060405234801561001057600080fd5b506004361061011b5760003560e01c806371417b32116100b25780638da5cb5b11610081578063c13f573e11610066578063c13f573e14610290578063c1b0eb94146102a3578063f2fde38b146102b657600080fd5b80638da5cb5b1461026c578063be8cbeed1461027d57600080fd5b806371417b32146101fe578063715018a6146102495780637cb64759146102515780638456cb591461026457600080fd5b806333c88ff6116100ee57806333c88ff61461019d5780633f4ba83a146101c45780635705ae43146101ce5780635c975abb146101e157600080fd5b80630b22f24a14610120578063211664761461013e5780632d2069ec1461017d5780632eb4a7ab14610194575b600080fd5b6101286102c9565b60405161013591906111f2565b60405180910390f35b6101657f000000000000000000000000000000000000000000000000000000000000000081565b6040516001600160a01b039091168152602001610135565b61018660045481565b604051908152602001610135565b61018660025481565b6101657f000000000000000000000000000000000000000000000000000000000000000081565b6101cc610357565b005b6101cc6101dc36600461123a565b6103c0565b600054600160a01b900460ff166040519015158152602001610135565b61022c61020c366004611266565b6001602052600090815260409020546bffffffffffffffffffffffff1681565b6040516bffffffffffffffffffffffff9091168152602001610135565b6101cc6104aa565b6101cc61025f366004611283565b6104bc565b6101cc6104ff565b6000546001600160a01b0316610165565b6101cc61028b3660046112de565b61050f565b6101cc61029e366004611386565b6105ac565b6101cc6102b1366004611407565b6105c1565b6101cc6102c4366004611266565b6109a8565b600380546102d69061149a565b80601f01602080910402602001604051908101604052809291908181526020018280546103029061149a565b801561034f5780601f106103245761010080835404028352916020019161034f565b820191906000526020600020905b81548152906001019060200180831161033257829003601f168201915b505050505081565b61035f610bb0565b6002546000036103b65760405162461bcd60e51b815260206004820152601360248201527f6d65726b6c6520726f6f74206e6f74207365740000000000000000000000000060448201526064015b60405180910390fd5b6103be610c0a565b565b6103c8610c7a565b6103d0610bb0565b6040517fa9059cbb000000000000000000000000000000000000000000000000000000008152336004820152602481018290526001600160a01b0383169063a9059cbb906044016020604051808303816000875af1158015610436573d6000803e3d6000fd5b505050506040513d601f19601f8201168201806040525081019061045a91906114d4565b6104a65760405162461bcd60e51b815260206004820152600f60248201527f7472616e73666572206661696c6564000000000000000000000000000000000060448201526064016103ad565b5050565b6104b2610bb0565b6103be6000610cd3565b6104c4610c7a565b6104cc610bb0565b600281905560405181907f42cbc405e4dbf1b691e85b9a34b08ecfcf7a9ad9078bf4d645ccfa1fac11c10b90600090a250565b610507610bb0565b6103be610d3b565b610517610bb0565b600061055883838080601f016020809104026020016040519081016040528093929190818152602001838380828437600092019190915250610a3892505050565b60048190559050600361056c83858361155b565b50807fe8d6349745d718fbb56b30e41d99dbe12fc69f0a8d7401dac98476504c027a43848460405161059f92919061161b565b60405180910390a2505050565b6105ba3386868686866105c1565b5050505050565b6105c9610d99565b336001600160a01b031661061683838080601f0160208091040260200160405190810160405280939291908181526020018383808284376000920191909152505060045492915050610df3565b6001600160a01b03161461066c5760405162461bcd60e51b815260206004820152601c60248201527f696e76616c696420636f6d706c69616e6365207369676e61747572650000000060448201526064016103ad565b336000908152600160205260409020546bffffffffffffffffffffffff90811690861681106106dd5760405162461bcd60e51b815260206004820152601060248201527f6e6f7468696e6720746f20636c61696d0000000000000000000000000000000060448201526064016103ad565b604080516bffffffffffffffffffffffff193360601b1660208201527fffffffffffffffffffffffff000000000000000000000000000000000000000060a089901b166034820152600091016040516020818303038152906040526107419061164a565b9050610784868680806020026020016040519081016040528093929190818152602001838360200280828437600092019190915250506002549150849050610e17565b6107d05760405162461bcd60e51b815260206004820152600d60248201527f696e76616c69642070726f6f660000000000000000000000000000000000000060448201526064016103ad565b3360009081526001602052604080822080546bffffffffffffffffffffffff19166bffffffffffffffffffffffff8b81169190911790915590517fa0712d680000000000000000000000000000000000000000000000000000000081529884900390811660048a0152976001600160a01b037f0000000000000000000000000000000000000000000000000000000000000000169063a0712d68906024016020604051808303816000875af115801561088d573d6000803e3d6000fd5b505050506040513d601f19601f820116820180604052508101906108b1919061166e565b6040517f42842e0e0000000000000000000000000000000000000000000000000000000081523060048201526001600160a01b038b81166024830152604482018390529192507f0000000000000000000000000000000000000000000000000000000000000000909116906342842e0e90606401600060405180830381600087803b15801561093f57600080fd5b505af1158015610953573d6000803e3d6000fd5b50506040516bffffffffffffffffffffffff8b1692506001600160a01b038c16915033907ff9ddf109eb32ae61850b998bb6a5bfbcb1b0d513ab98d1f98d5ff43d977b9ab790600090a4505050505050505050565b6109b0610bb0565b6001600160a01b038116610a2c5760405162461bcd60e51b815260206004820152602660248201527f4f776e61626c653a206e6577206f776e657220697320746865207a65726f206160448201527f646472657373000000000000000000000000000000000000000000000000000060648201526084016103ad565b610a3581610cd3565b50565b6000610a448251610a73565b82604051602001610a56929190611687565b604051602081830303815290604052805190602001209050919050565b606081600003610ab657505060408051808201909152600181527f3000000000000000000000000000000000000000000000000000000000000000602082015290565b8160005b8115610ae05780610aca816116f8565b9150610ad99050600a83611728565b9150610aba565b60008167ffffffffffffffff811115610afb57610afb6114f6565b6040519080825280601f01601f191660200182016040528015610b25576020820181803683370190505b5090505b8415610ba857610b3a60018361173c565b9150610b47600a86611753565b610b52906030611767565b60f81b818381518110610b6757610b6761177f565b60200101907effffffffffffffffffffffffffffffffffffffffffffffffffffffffffffff1916908160001a905350610ba1600a86611728565b9450610b29565b949350505050565b6000546001600160a01b031633146103be5760405162461bcd60e51b815260206004820181905260248201527f4f776e61626c653a2063616c6c6572206973206e6f7420746865206f776e657260448201526064016103ad565b610c12610c7a565b600080547fffffffffffffffffffffff00ffffffffffffffffffffffffffffffffffffffff1690557f5db9ee0a495bf2e6ff9c91a7834c1ba4fdd244a5e8aa4e537bd38aeae4b073aa335b6040516001600160a01b03909116815260200160405180910390a1565b600054600160a01b900460ff166103be5760405162461bcd60e51b815260206004820152601460248201527f5061757361626c653a206e6f742070617573656400000000000000000000000060448201526064016103ad565b600080546001600160a01b038381167fffffffffffffffffffffffff0000000000000000000000000000000000000000831681178455604051919092169283917f8be0079c531659141344cd1fd0a4f28419497f9722a3daafe3b4186f6b6457e09190a35050565b610d43610d99565b600080547fffffffffffffffffffffff00ffffffffffffffffffffffffffffffffffffffff16600160a01b1790557f62e78cea01bee320cd4e420270b5ea74000d11b0c9f74754ebdbfc544b05a258610c5d3390565b600054600160a01b900460ff16156103be5760405162461bcd60e51b815260206004820152601060248201527f5061757361626c653a207061757365640000000000000000000000000000000060448201526064016103ad565b6000806000610e028585610e2d565b91509150610e0f81610e72565b509392505050565b600082610e24858461105e565b14949350505050565b6000808251604103610e635760208301516040840151606085015160001a610e57878285856110a3565b94509450505050610e6b565b506000905060025b9250929050565b6000816004811115610e8657610e86611795565b03610e8e5750565b6001816004811115610ea257610ea2611795565b03610eef5760405162461bcd60e51b815260206004820152601860248201527f45434453413a20696e76616c6964207369676e6174757265000000000000000060448201526064016103ad565b6002816004811115610f0357610f03611795565b03610f505760405162461bcd60e51b815260206004820152601f60248201527f45434453413a20696e76616c6964207369676e6174757265206c656e6774680060448201526064016103ad565b6003816004811115610f6457610f64611795565b03610fd75760405162461bcd60e51b815260206004820152602260248201527f45434453413a20696e76616c6964207369676e6174757265202773272076616c60448201527f756500000000000000000000000000000000000000000000000000000000000060648201526084016103ad565b6004816004811115610feb57610feb611795565b03610a355760405162461bcd60e51b815260206004820152602260248201527f45434453413a20696e76616c6964207369676e6174757265202776272076616c60448201527f756500000000000000000000000000000000000000000000000000000000000060648201526084016103ad565b600081815b8451811015610e0f5761108f828683815181106110825761108261177f565b6020026020010151611190565b91508061109b816116f8565b915050611063565b6000807f7fffffffffffffffffffffffffffffff5d576e7357a4501ddfe92f46681b20a08311156110da5750600090506003611187565b8460ff16601b141580156110f257508460ff16601c14155b156111035750600090506004611187565b6040805160008082526020820180845289905260ff881692820192909252606081018690526080810185905260019060a0016020604051602081039080840390855afa158015611157573d6000803e3d6000fd5b5050604051601f1901519150506001600160a01b03811661118057600060019250925050611187565b9150600090505b94509492505050565b60008183106111ac5760008281526020849052604090206111bb565b60008381526020839052604090205b9392505050565b60005b838110156111dd5781810151838201526020016111c5565b838111156111ec576000848401525b50505050565b60208152600082518060208401526112118160408501602087016111c2565b601f01601f19169190910160400192915050565b6001600160a01b0381168114610a3557600080fd5b6000806040838503121561124d57600080fd5b823561125881611225565b946020939093013593505050565b60006020828403121561127857600080fd5b81356111bb81611225565b60006020828403121561129557600080fd5b5035919050565b60008083601f8401126112ae57600080fd5b50813567ffffffffffffffff8111156112c657600080fd5b602083019150836020828501011115610e6b57600080fd5b600080602083850312156112f157600080fd5b823567ffffffffffffffff81111561130857600080fd5b6113148582860161129c565b90969095509350505050565b80356bffffffffffffffffffffffff8116811461133c57600080fd5b919050565b60008083601f84011261135357600080fd5b50813567ffffffffffffffff81111561136b57600080fd5b6020830191508360208260051b8501011115610e6b57600080fd5b60008060008060006060868803121561139e57600080fd5b6113a786611320565b9450602086013567ffffffffffffffff808211156113c457600080fd5b6113d089838a01611341565b909650945060408801359150808211156113e957600080fd5b506113f68882890161129c565b969995985093965092949392505050565b6000806000806000806080878903121561142057600080fd5b863561142b81611225565b955061143960208801611320565b9450604087013567ffffffffffffffff8082111561145657600080fd5b6114628a838b01611341565b9096509450606089013591508082111561147b57600080fd5b5061148889828a0161129c565b979a9699509497509295939492505050565b600181811c908216806114ae57607f821691505b6020821081036114ce57634e487b7160e01b600052602260045260246000fd5b50919050565b6000602082840312156114e657600080fd5b815180151581146111bb57600080fd5b634e487b7160e01b600052604160045260246000fd5b601f82111561155657600081815260208120601f850160051c810160208610156115335750805b601f850160051c820191505b818110156115525782815560010161153f565b5050505b505050565b67ffffffffffffffff831115611573576115736114f6565b61158783611581835461149a565b8361150c565b6000601f8411600181146115bb57600085156115a35750838201355b600019600387901b1c1916600186901b1783556105ba565b600083815260209020601f19861690835b828110156115ec57868501358255602094850194600190920191016115cc565b50868210156116095760001960f88860031b161c19848701351681555b505060018560011b0183555050505050565b60208152816020820152818360408301376000818301604090810191909152601f909201601f19160101919050565b805160208083015191908110156114ce5760001960209190910360031b1b16919050565b60006020828403121561168057600080fd5b5051919050565b7f19457468657265756d205369676e6564204d6573736167653a0a0000000000008152600083516116bf81601a8501602088016111c2565b8351908301906116d681601a8401602088016111c2565b01601a01949350505050565b634e487b7160e01b600052601160045260246000fd5b6000600019820361170b5761170b6116e2565b5060010190565b634e487b7160e01b600052601260045260246000fd5b60008261173757611737611712565b500490565b60008282101561174e5761174e6116e2565b500390565b60008261176257611762611712565b500690565b6000821982111561177a5761177a6116e2565b500190565b634e487b7160e01b600052603260045260246000fd5b634e487b7160e01b600052602160045260246000fdfea264697066735822122092d8b213d7ddd88cfcf05182666257cd97d933d42dcc14f887d1075ec5195de164736f6c634300080f00334279207369676e696e672074686973207472616e73616374696f6e2c2049206865726562792061636b6e6f776c656467652074686174204920616d206e6f742061205553207265736964656e74206f7220636974697a656e2e2028436974697a656e73206f72207265736964656e7473206f662074686520556e6974656420537461746573206f6620416d657269636120617265206e6f7420616c6c6f77656420746f207468652050534220746f6b656e2061697264726f702064756520746f206170706c696361626c65206c61772e29",
  "linkReferences": {},
  "deployedLinkReferences": {}
}