{
  "_format": "hh-sol-artifact-1",
  "contractName": "Merkledrop",
  "sourceName": "contracts/arcanum-token/Merkledrop.sol",
  "abi": [
    {
      "inputs": [
        {
          "internalType": "address",
          "name": "airdropToken",
          "type": "address"
        },
        {
          "internalType": "address",
          "name": "initialOwner",
          "type": "address"
        }
      ],
      "stateMutability": "nonpayable",
      "type": "constructor"
    },
    {
      "anonymous": false,
      "inputs": [
        {
          "indexed": false,
          "internalType": "address",
          "name": "account",
          "type": "address"
        },
        {
          "indexed": false,
          "internalType": "uint96",
          "name": "amount",
          "type": "uint96"
        }
      ],
      "name": "Claimed",
      "type": "event"
    },
    {
      "anonymous": false,
      "inputs": [
        {
          "indexed": false,
          "internalType": "bytes32",
          "name": "newMerkleRoot",
          "type": "bytes32"
        }
      ],
      "name": "MerkleRootSet",
      "type": "event"
    },
    {
      "anonymous": false,
      "inputs": [
        {
          "indexed": true,
          "internalType": "address",
          "name": "previousOwner",
          "type": "address"
        },
        {
          "indexed": true,
          "internalType": "address",
          "name": "newOwner",
          "type": "address"
        }
      ],
      "name": "OwnershipTransferred",
      "type": "event"
    },
    {
      "anonymous": false,
      "inputs": [
        {
          "indexed": false,
          "internalType": "address",
          "name": "account",
          "type": "address"
        }
      ],
      "name": "Paused",
      "type": "event"
    },
    {
      "anonymous": false,
      "inputs": [
        {
          "indexed": false,
          "internalType": "address",
          "name": "account",
          "type": "address"
        }
      ],
      "name": "Unpaused",
      "type": "event"
    },
    {
      "inputs": [],
      "name": "ARC",
      "outputs": [
        {
          "internalType": "contract IERC20",
          "name": "",
          "type": "address"
        }
      ],
      "stateMutability": "view",
      "type": "function"
    },
    {
      "inputs": [
        {
          "internalType": "uint96",
          "name": "amount",
          "type": "uint96"
        },
        {
          "internalType": "bytes32[]",
          "name": "merkleProof",
          "type": "bytes32[]"
        }
      ],
      "name": "claim",
      "outputs": [],
      "stateMutability": "nonpayable",
      "type": "function"
    },
    {
      "inputs": [
        {
          "internalType": "address",
          "name": "",
          "type": "address"
        }
      ],
      "name": "claimedAmounts",
      "outputs": [
        {
          "internalType": "uint96",
          "name": "",
          "type": "uint96"
        }
      ],
      "stateMutability": "view",
      "type": "function"
    },
    {
      "inputs": [],
      "name": "merkleRoot",
      "outputs": [
        {
          "internalType": "bytes32",
          "name": "",
          "type": "bytes32"
        }
      ],
      "stateMutability": "view",
      "type": "function"
    },
    {
      "inputs": [],
      "name": "owner",
      "outputs": [
        {
          "internalType": "address",
          "name": "",
          "type": "address"
        }
      ],
      "stateMutability": "view",
      "type": "function"
    },
    {
      "inputs": [],
      "name": "pause",
      "outputs": [],
      "stateMutability": "nonpayable",
      "type": "function"
    },
    {
      "inputs": [],
      "name": "paused",
      "outputs": [
        {
          "internalType": "bool",
          "name": "",
          "type": "bool"
        }
      ],
      "stateMutability": "view",
      "type": "function"
    },
    {
      "inputs": [
        {
          "internalType": "contract IERC20",
          "name": "token",
          "type": "address"
        },
        {
          "internalType": "uint256",
          "name": "amount",
          "type": "uint256"
        }
      ],
      "name": "recover",
      "outputs": [],
      "stateMutability": "nonpayable",
      "type": "function"
    },
    {
      "inputs": [],
      "name": "renounceOwnership",
      "outputs": [],
      "stateMutability": "nonpayable",
      "type": "function"
    },
    {
      "inputs": [
        {
          "internalType": "bytes32",
          "name": "newMerkleRoot",
          "type": "bytes32"
        }
      ],
      "name": "setMerkleRoot",
      "outputs": [],
      "stateMutability": "nonpayable",
      "type": "function"
    },
    {
      "inputs": [
        {
          "internalType": "address",
          "name": "newOwner",
          "type": "address"
        }
      ],
      "name": "transferOwnership",
      "outputs": [],
      "stateMutability": "nonpayable",
      "type": "function"
    },
    {
      "inputs": [],
      "name": "unpause",
      "outputs": [],
      "stateMutability": "nonpayable",
      "type": "function"
    }
  ],
  "bytecode": "0x60a06040523480156200001157600080fd5b5060405162000f4c38038062000f4c833981016040819052620000349162000255565b6200003f336200012d565b6000805460ff60a01b191681556001600160a01b0383163b9003620000ab5760405162461bcd60e51b815260206004820152601560248201527f696e76616c696420746f6b656e2061646472657373000000000000000000000060448201526064015b60405180910390fd5b6001600160a01b038116620001035760405162461bcd60e51b815260206004820152601560248201527f696e76616c696420696e697469616c206f776e657200000000000000000000006044820152606401620000a2565b6200010e816200012d565b6001600160a01b038216608052620001256200017d565b50506200028d565b600080546001600160a01b038381166001600160a01b0319831681178455604051919092169283917f8be0079c531659141344cd1fd0a4f28419497f9722a3daafe3b4186f6b6457e09190a35050565b62000187620001e0565b6000805460ff60a01b1916600160a01b1790557f62e78cea01bee320cd4e420270b5ea74000d11b0c9f74754ebdbfc544b05a258620001c33390565b6040516001600160a01b03909116815260200160405180910390a1565b620001f4600054600160a01b900460ff1690565b15620002365760405162461bcd60e51b815260206004820152601060248201526f14185d5cd8589b194e881c185d5cd95960821b6044820152606401620000a2565b565b80516001600160a01b03811681146200025057600080fd5b919050565b600080604083850312156200026957600080fd5b620002748362000238565b9150620002846020840162000238565b90509250929050565b608051610c9d620002af6000396000818160de01526105ef0152610c9d6000f3fe608060405234801561001057600080fd5b50600436106100d45760003560e01c8063715018a6116100815780638da5cb5b1161005b5780638da5cb5b146101e957806391a862fa14610207578063f2fde38b1461021a57600080fd5b8063715018a6146101c65780637cb64759146101ce5780638456cb59146101e157600080fd5b80635705ae43116100b25780635705ae431461014b5780635c975abb1461015e57806371417b321461017b57600080fd5b806321166476146100d95780632eb4a7ab1461012a5780633f4ba83a14610141575b600080fd5b6101007f000000000000000000000000000000000000000000000000000000000000000081565b60405173ffffffffffffffffffffffffffffffffffffffff90911681526020015b60405180910390f35b61013360025481565b604051908152602001610121565b61014961022d565b005b610149610159366004610ab3565b610296565b600054600160a01b900460ff166040519015158152602001610121565b6101a9610189366004610adf565b6001602052600090815260409020546bffffffffffffffffffffffff1681565b6040516bffffffffffffffffffffffff9091168152602001610121565b61014961038d565b6101496101dc366004610afc565b61039f565b6101496103ea565b60005473ffffffffffffffffffffffffffffffffffffffff16610100565b610149610215366004610b15565b6103fa565b610149610228366004610adf565b6106f5565b610235610792565b60025460000361028c5760405162461bcd60e51b815260206004820152601360248201527f6d65726b6c6520726f6f74206e6f74207365740000000000000000000000000060448201526064015b60405180910390fd5b6102946107f9565b565b61029e610876565b6102a6610792565b6040517fa9059cbb0000000000000000000000000000000000000000000000000000000081523360048201526024810182905273ffffffffffffffffffffffffffffffffffffffff83169063a9059cbb906044016020604051808303816000875af1158015610319573d6000803e3d6000fd5b505050506040513d601f19601f8201168201806040525081019061033d9190610bae565b6103895760405162461bcd60e51b815260206004820152600f60248201527f7472616e73666572206661696c656400000000000000000000000000000000006044820152606401610283565b5050565b610395610792565b61029460006108cf565b6103a7610876565b6103af610792565b60028190556040518181527f42cbc405e4dbf1b691e85b9a34b08ecfcf7a9ad9078bf4d645ccfa1fac11c10b9060200160405180910390a150565b6103f2610792565b610294610944565b6104026109a2565b336000908152600160205260409020546bffffffffffffffffffffffff90811690841681106104735760405162461bcd60e51b815260206004820152601060248201527f6e6f7468696e6720746f20636c61696d000000000000000000000000000000006044820152606401610283565b604080516bffffffffffffffffffffffff193360601b1660208201527fffffffffffffffffffffffff000000000000000000000000000000000000000060a087901b166034820152600091016040516020818303038152906040526104d790610bd0565b905061051a8484808060200260200160405190810160405280939291908181526020018383602002808284376000920191909152505060025491508490506109fc565b6105665760405162461bcd60e51b815260206004820152600d60248201527f696e76616c69642070726f6f66000000000000000000000000000000000000006044820152606401610283565b336000818152600160205260409081902080546bffffffffffffffffffffffff19166bffffffffffffffffffffffff8981169190911790915590517fa9059cbb000000000000000000000000000000000000000000000000000000008152600481019290925295839003958616602482015273ffffffffffffffffffffffffffffffffffffffff7f0000000000000000000000000000000000000000000000000000000000000000169063a9059cbb906044016020604051808303816000875af1158015610638573d6000803e3d6000fd5b505050506040513d601f19601f8201168201806040525081019061065c9190610bae565b6106a85760405162461bcd60e51b815260206004820152600f60248201527f7472616e73666572206661696c656400000000000000000000000000000000006044820152606401610283565b604080513381526bffffffffffffffffffffffff871660208201527f1f1f3fe51e971f9768a1b748e2a520609176b6de88aa4d9c02ace9fb9177189f910160405180910390a15050505050565b6106fd610792565b73ffffffffffffffffffffffffffffffffffffffff81166107865760405162461bcd60e51b815260206004820152602660248201527f4f776e61626c653a206e6577206f776e657220697320746865207a65726f206160448201527f64647265737300000000000000000000000000000000000000000000000000006064820152608401610283565b61078f816108cf565b50565b60005473ffffffffffffffffffffffffffffffffffffffff1633146102945760405162461bcd60e51b815260206004820181905260248201527f4f776e61626c653a2063616c6c6572206973206e6f7420746865206f776e65726044820152606401610283565b610801610876565b600080547fffffffffffffffffffffff00ffffffffffffffffffffffffffffffffffffffff1690557f5db9ee0a495bf2e6ff9c91a7834c1ba4fdd244a5e8aa4e537bd38aeae4b073aa335b60405173ffffffffffffffffffffffffffffffffffffffff909116815260200160405180910390a1565b600054600160a01b900460ff166102945760405162461bcd60e51b815260206004820152601460248201527f5061757361626c653a206e6f74207061757365640000000000000000000000006044820152606401610283565b6000805473ffffffffffffffffffffffffffffffffffffffff8381167fffffffffffffffffffffffff0000000000000000000000000000000000000000831681178455604051919092169283917f8be0079c531659141344cd1fd0a4f28419497f9722a3daafe3b4186f6b6457e09190a35050565b61094c6109a2565b600080547fffffffffffffffffffffff00ffffffffffffffffffffffffffffffffffffffff16600160a01b1790557f62e78cea01bee320cd4e420270b5ea74000d11b0c9f74754ebdbfc544b05a25861084c3390565b600054600160a01b900460ff16156102945760405162461bcd60e51b815260206004820152601060248201527f5061757361626c653a20706175736564000000000000000000000000000000006044820152606401610283565b600082610a098584610a12565b14949350505050565b600081815b8451811015610a5757610a4382868381518110610a3657610a36610bf7565b6020026020010151610a5f565b915080610a4f81610c26565b915050610a17565b509392505050565b6000818310610a7b576000828152602084905260409020610a8a565b60008381526020839052604090205b9392505050565b73ffffffffffffffffffffffffffffffffffffffff8116811461078f57600080fd5b60008060408385031215610ac657600080fd5b8235610ad181610a91565b946020939093013593505050565b600060208284031215610af157600080fd5b8135610a8a81610a91565b600060208284031215610b0e57600080fd5b5035919050565b600080600060408486031215610b2a57600080fd5b83356bffffffffffffffffffffffff81168114610b4657600080fd5b9250602084013567ffffffffffffffff80821115610b6357600080fd5b818601915086601f830112610b7757600080fd5b813581811115610b8657600080fd5b8760208260051b8501011115610b9b57600080fd5b6020830194508093505050509250925092565b600060208284031215610bc057600080fd5b81518015158114610a8a57600080fd5b80516020808301519190811015610bf1576000198160200360031b1b821691505b50919050565b7f4e487b7100000000000000000000000000000000000000000000000000000000600052603260045260246000fd5b60006000198203610c60577f4e487b7100000000000000000000000000000000000000000000000000000000600052601160045260246000fd5b506001019056fea2646970667358221220f02447c59906bb887ae690493df5e8b646967a499386045efdc483ac5723c81d64736f6c634300080f0033",
  "linkReferences": {},
  "deployedLinkReferences": {}
}