{
  "_format": "hh-sol-artifact-1",
  "contractName": "BabylonianEchidnaTest",
  "sourceName": "contracts/arcanum-lib/test/BabylonianEchidnaTest.sol",
  "abi": [
    {
      "inputs": [],
      "name": "echidna_sqrtAlwaysLessThanMaxUint128",
      "outputs": [
        {
          "internalType": "bool",
          "name": "",
          "type": "bool"
        }
      ],
      "stateMutability": "view",
      "type": "function"
    },
    {
      "inputs": [],
      "name": "echidna_sqrtPlusOneSquaredAlwaysGtInput",
      "outputs": [
        {
          "internalType": "bool",
          "name": "",
          "type": "bool"
        }
      ],
      "stateMutability": "view",
      "type": "function"
    },
    {
      "inputs": [],
      "name": "echidna_sqrtSquaredAlwaysLteInput",
      "outputs": [
        {
          "internalType": "bool",
          "name": "",
          "type": "bool"
        }
      ],
      "stateMutability": "view",
      "type": "function"
    },
    {
      "inputs": [
        {
          "internalType": "uint256",
          "name": "input_",
          "type": "uint256"
        }
      ],
      "name": "storeSqrt",
      "outputs": [],
      "stateMutability": "nonpayable",
      "type": "function"
    }
  ],
  "bytecode": "0x608060405234801561001057600080fd5b50610276806100206000396000f3fe608060405234801561001057600080fd5b506004361061004c5760003560e01c80632ffab2721461005157806373b3179e1461007c578063ccedcf5d14610091578063cd3ec77a14610099575b600080fd5b600154700100000000000000000000000000000000115b604051901515815260200160405180910390f35b61008f61008a366004610168565b6100a1565b005b6100686100b5565b6100686100e0565b60008190556100af816100f8565b60015550565b60008060015460016100c791906101b0565b905060006100d582806101c8565b600054109392505050565b600080546001546100f190806101c8565b1115905090565b600060038211156101595750806000610112600283610205565b61011d9060016101b0565b90505b81811015610153579050806002816101388186610205565b61014291906101b0565b61014c9190610205565b9050610120565b50919050565b8115610163575060015b919050565b60006020828403121561017a57600080fd5b5035919050565b7f4e487b7100000000000000000000000000000000000000000000000000000000600052601160045260246000fd5b600082198211156101c3576101c3610181565b500190565b6000817fffffffffffffffffffffffffffffffffffffffffffffffffffffffffffffffff048311821515161561020057610200610181565b500290565b60008261023b577f4e487b7100000000000000000000000000000000000000000000000000000000600052601260045260246000fd5b50049056fea26469706673582212203d364901864e62f4b861344b8ee7c095a11414c43ed38f05ea5cdc294c15587f64736f6c634300080f0033",
  "linkReferences": {},
  "deployedLinkReferences": {}
}