{
  "_format": "hh-sol-artifact-1",
  "contractName": "ArcanumFeeCollector",
  "sourceName": "contracts/fee-collector/FeeCollector.sol",
  "abi": [
    {
      "inputs": [
        {
          "internalType": "address",
          "name": "_stakingRewards",
          "type": "address"
        },
        {
          "internalType": "address",
          "name": "_router",
          "type": "address"
        },
        {
          "internalType": "address",
          "name": "_miniChef",
          "type": "address"
        },
        {
          "internalType": "uint256",
          "name": "_pid",
          "type": "uint256"
        },
        {
          "internalType": "address",
          "name": "_governor",
          "type": "address"
        },
        {
          "internalType": "address",
          "name": "_wrappedToken",
          "type": "address"
        },
        {
          "internalType": "address",
          "name": "_treasury",
          "type": "address"
        }
      ],
      "stateMutability": "nonpayable",
      "type": "constructor"
    },
    {
      "anonymous": false,
      "inputs": [
        {
          "indexed": true,
          "internalType": "address",
          "name": "previousOwner",
          "type": "address"
        },
        {
          "indexed": true,
          "internalType": "address",
          "name": "newOwner",
          "type": "address"
        }
      ],
      "name": "OwnershipTransferred",
      "type": "event"
    },
    {
      "inputs": [],
      "name": "FEE_DENOMINATOR",
      "outputs": [
        {
          "internalType": "uint256",
          "name": "",
          "type": "uint256"
        }
      ],
      "stateMutability": "view",
      "type": "function"
    },
    {
      "inputs": [],
      "name": "MAX_INCENTIVE",
      "outputs": [
        {
          "internalType": "uint256",
          "name": "",
          "type": "uint256"
        }
      ],
      "stateMutability": "view",
      "type": "function"
    },
    {
      "inputs": [],
      "name": "arcanumRouter",
      "outputs": [
        {
          "internalType": "address",
          "name": "",
          "type": "address"
        }
      ],
      "stateMutability": "view",
      "type": "function"
    },
    {
      "inputs": [],
      "name": "governor",
      "outputs": [
        {
          "internalType": "address",
          "name": "",
          "type": "address"
        }
      ],
      "stateMutability": "view",
      "type": "function"
    },
    {
      "inputs": [
        {
          "internalType": "address[]",
          "name": "liquidityPairs",
          "type": "address[]"
        },
        {
          "internalType": "bool",
          "name": "claimMiniChef",
          "type": "bool"
        }
      ],
      "name": "harvest",
      "outputs": [],
      "stateMutability": "nonpayable",
      "type": "function"
    },
    {
      "inputs": [],
      "name": "harvestIncentive",
      "outputs": [
        {
          "internalType": "uint256",
          "name": "",
          "type": "uint256"
        }
      ],
      "stateMutability": "view",
      "type": "function"
    },
    {
      "inputs": [],
      "name": "miniChef",
      "outputs": [
        {
          "internalType": "address",
          "name": "",
          "type": "address"
        }
      ],
      "stateMutability": "view",
      "type": "function"
    },
    {
      "inputs": [],
      "name": "miniChefPoolId",
      "outputs": [
        {
          "internalType": "uint256",
          "name": "",
          "type": "uint256"
        }
      ],
      "stateMutability": "view",
      "type": "function"
    },
    {
      "inputs": [],
      "name": "owner",
      "outputs": [
        {
          "internalType": "address",
          "name": "",
          "type": "address"
        }
      ],
      "stateMutability": "view",
      "type": "function"
    },
    {
      "inputs": [],
      "name": "renounceOwnership",
      "outputs": [],
      "stateMutability": "nonpayable",
      "type": "function"
    },
    {
      "inputs": [
        {
          "internalType": "uint256",
          "name": "_harvestIncentive",
          "type": "uint256"
        }
      ],
      "name": "setHarvestIncentive",
      "outputs": [],
      "stateMutability": "nonpayable",
      "type": "function"
    },
    {
      "inputs": [
        {
          "internalType": "address",
          "name": "_miniChef",
          "type": "address"
        }
      ],
      "name": "setMiniChef",
      "outputs": [],
      "stateMutability": "nonpayable",
      "type": "function"
    },
    {
      "inputs": [
        {
          "internalType": "uint256",
          "name": "_pid",
          "type": "uint256"
        }
      ],
      "name": "setMiniChefPool",
      "outputs": [],
      "stateMutability": "nonpayable",
      "type": "function"
    },
    {
      "inputs": [
        {
          "internalType": "address",
          "name": "_stakingRewards",
          "type": "address"
        }
      ],
      "name": "setRewardsContract",
      "outputs": [],
      "stateMutability": "nonpayable",
      "type": "function"
    },
    {
      "inputs": [
        {
          "internalType": "uint256",
          "name": "_rewardsDuration",
          "type": "uint256"
        }
      ],
      "name": "setRewardsDuration",
      "outputs": [],
      "stateMutability": "nonpayable",
      "type": "function"
    },
    {
      "inputs": [
        {
          "internalType": "address",
          "name": "_treasury",
          "type": "address"
        }
      ],
      "name": "setTreasury",
      "outputs": [],
      "stateMutability": "nonpayable",
      "type": "function"
    },
    {
      "inputs": [
        {
          "internalType": "uint256",
          "name": "_treasuryFee",
          "type": "uint256"
        }
      ],
      "name": "setTreasuryFee",
      "outputs": [],
      "stateMutability": "nonpayable",
      "type": "function"
    },
    {
      "inputs": [],
      "name": "stakingRewards",
      "outputs": [
        {
          "internalType": "address",
          "name": "",
          "type": "address"
        }
      ],
      "stateMutability": "view",
      "type": "function"
    },
    {
      "inputs": [
        {
          "internalType": "address",
          "name": "newOwner",
          "type": "address"
        }
      ],
      "name": "transferOwnership",
      "outputs": [],
      "stateMutability": "nonpayable",
      "type": "function"
    },
    {
      "inputs": [
        {
          "internalType": "address",
          "name": "_newOwner",
          "type": "address"
        }
      ],
      "name": "transferStakingOwnership",
      "outputs": [],
      "stateMutability": "nonpayable",
      "type": "function"
    },
    {
      "inputs": [],
      "name": "treasury",
      "outputs": [
        {
          "internalType": "address",
          "name": "",
          "type": "address"
        }
      ],
      "stateMutability": "view",
      "type": "function"
    },
    {
      "inputs": [],
      "name": "treasuryFee",
      "outputs": [
        {
          "internalType": "uint256",
          "name": "",
          "type": "uint256"
        }
      ],
      "stateMutability": "view",
      "type": "function"
    },
    {
      "inputs": [],
      "name": "wrappedNativeToken",
      "outputs": [
        {
          "internalType": "address",
          "name": "",
          "type": "address"
        }
      ],
      "stateMutability": "view",
      "type": "function"
    }
  ],
  "bytecode": "0x60e0604052600a600355610bb86004553480156200001c57600080fd5b5060405162001fa238038062001fa28339810160408190526200003f916200015d565b6200004a33620000f0565b6001600160a01b038716620000975760405162461bcd60e51b815260206004820152600f60248201526e496e76616c6964206164647265737360881b604482015260640160405180910390fd5b600180546001600160a01b039889166001600160a01b0319918216179091559587166080526005805495881695871695909517909455600692909255841660a052831660c05260028054919093169116179055620001e9565b600080546001600160a01b038381166001600160a01b0319831681178455604051919092169283917f8be0079c531659141344cd1fd0a4f28419497f9722a3daafe3b4186f6b6457e09190a35050565b80516001600160a01b03811681146200015857600080fd5b919050565b600080600080600080600060e0888a0312156200017957600080fd5b620001848862000140565b9650620001946020890162000140565b9550620001a46040890162000140565b945060608801519350620001bb6080890162000140565b9250620001cb60a0890162000140565b9150620001db60c0890162000140565b905092959891949750929550565b60805160a05160c051611d4a62000258600039600081816101db0152818161122f0152818161126a015261138701526000818161019701526103e60152600081816102cc01528181610fbb015281816110490152818161141d0152818161145201526114810152611d4a6000f3fe608060405234801561001057600080fd5b506004361061018d5760003560e01c80638da5cb5b116100e3578063cfabe8ed1161008c578063e2ff7ea211610066578063e2ff7ea214610342578063f0f442601461034a578063f2fde38b1461035d57600080fd5b8063cfabe8ed14610313578063d73792a914610326578063dfa0dfa51461032f57600080fd5b8063cc1a378f116100bd578063cc1a378f146102ee578063cc32d17614610301578063cd6e7def1461030a57600080fd5b80638da5cb5b146102a357806394916bae146102b4578063bde2e638146102c757600080fd5b8063572996c711610145578063715018a61161011f578063715018a61461027557806377e741c71461027d5780637e2be1951461029057600080fd5b8063572996c71461023c57806361d027b31461024f57806364b87a701461026257600080fd5b80633024a307116101765780633024a307146101fd5780633792a7fb146102145780634005760a1461022957600080fd5b80630c340a241461019257806317fcb39b146101d6575b600080fd5b6101b97f000000000000000000000000000000000000000000000000000000000000000081565b6040516001600160a01b0390911681526020015b60405180910390f35b6101b97f000000000000000000000000000000000000000000000000000000000000000081565b61020660065481565b6040519081526020016101cd565b6102276102223660046118ef565b610370565b005b6005546101b9906001600160a01b031681565b61022761024a36600461191d565b61037d565b6002546101b9906001600160a01b031681565b6001546101b9906001600160a01b031681565b6102276103c7565b61022761028b3660046118ef565b6103db565b61022761029e3660046118ef565b6104bc565b6000546001600160a01b03166101b9565b6102276102c23660046119c3565b610579565b6101b97f000000000000000000000000000000000000000000000000000000000000000081565b6102276102fc3660046118ef565b610904565b61020660045481565b61020660035481565b61022761032136600461191d565b610987565b61020661271081565b61022761033d36600461191d565b6109da565b61020660c881565b61022761035836600461191d565b610a67565b61022761036b36600461191d565b610ab1565b610378610b41565b600655565b610385610b41565b6001600160a01b03811661039857600080fd5b6005805473ffffffffffffffffffffffffffffffffffffffff19166001600160a01b0392909216919091179055565b6103cf610b41565b6103d96000610b9b565b565b336001600160a01b037f000000000000000000000000000000000000000000000000000000000000000016146104585760405162461bcd60e51b815260206004820152600d60248201527f476f7665726e6f72206f6e6c790000000000000000000000000000000000000060448201526064015b60405180910390fd5b612710816003546104699190611a8a565b11156104b75760405162461bcd60e51b815260206004820152601660248201527f546f74616c2066656573206d757374203c3d2031303000000000000000000000604482015260640161044f565b600455565b6104c4610b41565b60c88111156105155760405162461bcd60e51b815260206004820152601360248201527f496e63656e7469766520746f6f206c6172676500000000000000000000000000604482015260640161044f565b612710600454826105269190611a8a565b11156105745760405162461bcd60e51b815260206004820152601660248201527f546f74616c2066656573206d757374203c3d2031303000000000000000000000604482015260640161044f565b600355565b333b15801561058757503332145b6105d35760405162461bcd60e51b815260206004820152600c60248201527f4e6f20636f6e7472616374730000000000000000000000000000000000000000604482015260640161044f565b6032825111156106255760405162461bcd60e51b815260206004820152600c60248201527f3530207061697273206d61780000000000000000000000000000000000000000604482015260640161044f565b600154604080517fd1af0c7d00000000000000000000000000000000000000000000000000000000815290516000926001600160a01b03169163d1af0c7d916004808301926020929190829003018186803b15801561068357600080fd5b505afa158015610697573d6000803e3d6000fd5b505050506040513d601f19601f820116820180604052508101906106bb9190611aa2565b90508115610745576005546006546040517f18fccc7600000000000000000000000000000000000000000000000000000000815260048101919091523060248201526001600160a01b03909116906318fccc7690604401600060405180830381600087803b15801561072c57600080fd5b505af1158015610740573d6000803e3d6000fd5b505050505b825115610756576107568382610bf8565b6040516370a0823160e01b81523060048201526000906001600160a01b038316906370a082319060240160206040518083038186803b15801561079857600080fd5b505afa1580156107ac573d6000803e3d6000fd5b505050506040513d601f19601f820116820180604052508101906107d09190611abf565b90506000612710600354836107e59190611ad8565b6107ef9190611af7565b90506000612710600454846108049190611ad8565b61080e9190611af7565b905060008161081d8486611b19565b6108279190611b19565b905080156108c157600154610849906001600160a01b03878116911683610efb565b6001546040517f3c6b16ab000000000000000000000000000000000000000000000000000000008152600481018390526001600160a01b0390911690633c6b16ab90602401600060405180830381600087803b1580156108a857600080fd5b505af11580156108bc573d6000803e3d6000fd5b505050505b81156108e1576002546108e1906001600160a01b03878116911684610efb565b82156108fb576108fb6001600160a01b0386163385610efb565b50505050505050565b61090c610b41565b6001546040517fcc1a378f000000000000000000000000000000000000000000000000000000008152600481018390526001600160a01b039091169063cc1a378f906024015b600060405180830381600087803b15801561096c57600080fd5b505af1158015610980573d6000803e3d6000fd5b5050505050565b61098f610b41565b6001546040517ff2fde38b0000000000000000000000000000000000000000000000000000000081526001600160a01b0383811660048301529091169063f2fde38b90602401610952565b6109e2610b41565b6001600160a01b038116610a385760405162461bcd60e51b815260206004820152600f60248201527f496e76616c696420616464726573730000000000000000000000000000000000604482015260640161044f565b6001805473ffffffffffffffffffffffffffffffffffffffff19166001600160a01b0392909216919091179055565b610a6f610b41565b6001600160a01b038116610a8257600080fd5b6002805473ffffffffffffffffffffffffffffffffffffffff19166001600160a01b0392909216919091179055565b610ab9610b41565b6001600160a01b038116610b355760405162461bcd60e51b815260206004820152602660248201527f4f776e61626c653a206e6577206f776e657220697320746865207a65726f206160448201527f6464726573730000000000000000000000000000000000000000000000000000606482015260840161044f565b610b3e81610b9b565b50565b6000546001600160a01b031633146103d95760405162461bcd60e51b815260206004820181905260248201527f4f776e61626c653a2063616c6c6572206973206e6f7420746865206f776e6572604482015260640161044f565b600080546001600160a01b0383811673ffffffffffffffffffffffffffffffffffffffff19831681178455604051919092169283917f8be0079c531659141344cd1fd0a4f28419497f9722a3daafe3b4186f6b6457e09190a35050565b6001600160a01b038116610c4e5760405162461bcd60e51b815260206004820152601860248201527f4f757470757420746f6b656e20756e7370656369666965640000000000000000604482015260640161044f565b60005b8251811015610ef6576000838281518110610c6e57610c6e611b30565b60209081029190910101516040516370a0823160e01b815230600482015290915081906000906001600160a01b038316906370a082319060240160206040518083038186803b158015610cc057600080fd5b505afa158015610cd4573d6000803e3d6000fd5b505050506040513d601f19601f82011682018060405250810190610cf89190611abf565b90508015610ee257610d0a8282610fa4565b6000826001600160a01b0316630dfe16816040518163ffffffff1660e01b815260040160206040518083038186803b158015610d4557600080fd5b505afa158015610d59573d6000803e3d6000fd5b505050506040513d601f19601f82011682018060405250810190610d7d9190611aa2565b90506000836001600160a01b031663d21220a76040518163ffffffff1660e01b815260040160206040518083038186803b158015610dba57600080fd5b505afa158015610dce573d6000803e3d6000fd5b505050506040513d601f19601f82011682018060405250810190610df29190611aa2565b9050866001600160a01b0316826001600160a01b031614610e92576040516370a0823160e01b8152306004820152610e9290839089906001600160a01b038316906370a08231906024015b60206040518083038186803b158015610e5557600080fd5b505afa158015610e69573d6000803e3d6000fd5b505050506040513d601f19601f82011682018060405250810190610e8d9190611abf565b61122b565b866001600160a01b0316816001600160a01b031614610edf576040516370a0823160e01b8152306004820152610edf90829089906001600160a01b038316906370a0823190602401610e3d565b50505b50505080610eef90611b46565b9050610c51565b505050565b6040516001600160a01b038316602482015260448101829052610ef69084907fa9059cbb00000000000000000000000000000000000000000000000000000000906064015b60408051601f198184030181529190526020810180517bffffffffffffffffffffffffffffffffffffffffffffffffffffffff167fffffffff000000000000000000000000000000000000000000000000000000009093169290921790915261152c565b60405163095ea7b360e01b81526001600160a01b037f0000000000000000000000000000000000000000000000000000000000000000811660048301526024820183905283169063095ea7b390604401602060405180830381600087803b15801561100e57600080fd5b505af1158015611022573d6000803e3d6000fd5b505050506040513d601f19601f820116820180604052508101906110469190611b61565b507f00000000000000000000000000000000000000000000000000000000000000006001600160a01b031663baa2abde836001600160a01b0316630dfe16816040518163ffffffff1660e01b815260040160206040518083038186803b1580156110af57600080fd5b505afa1580156110c3573d6000803e3d6000fd5b505050506040513d601f19601f820116820180604052508101906110e79190611aa2565b846001600160a01b031663d21220a76040518163ffffffff1660e01b815260040160206040518083038186803b15801561112057600080fd5b505afa158015611134573d6000803e3d6000fd5b505050506040513d601f19601f820116820180604052508101906111589190611aa2565b846000803061116842603c611a8a565b60405160e089901b7fffffffff000000000000000000000000000000000000000000000000000000001681526001600160a01b039788166004820152958716602487015260448601949094526064850192909252608484015290921660a482015260c481019190915260e4016040805180830381600087803b1580156111ed57600080fd5b505af1158015611201573d6000803e3d6000fd5b505050506040513d601f19601f820116820180604052508101906112259190611b7e565b50505050565b60607f00000000000000000000000000000000000000000000000000000000000000006001600160a01b0316836001600160a01b0316148061129e57507f00000000000000000000000000000000000000000000000000000000000000006001600160a01b0316846001600160a01b0316145b1561133057604080516002808252606082018352909160208301908036833701905050905083816000815181106112d7576112d7611b30565b60200260200101906001600160a01b031690816001600160a01b031681525050828160018151811061130b5761130b611b30565b60200260200101906001600160a01b031690816001600160a01b03168152505061140e565b604080516003808252608082019092529060208201606080368337019050509050838160008151811061136557611365611b30565b60200260200101906001600160a01b031690816001600160a01b0316815250507f0000000000000000000000000000000000000000000000000000000000000000816001815181106113b9576113b9611b30565b60200260200101906001600160a01b031690816001600160a01b03168152505082816002815181106113ed576113ed611b30565b60200260200101906001600160a01b031690816001600160a01b0316815250505b6114436001600160a01b0385167f00000000000000000000000000000000000000000000000000000000000000006000611611565b6114776001600160a01b0385167f000000000000000000000000000000000000000000000000000000000000000084611611565b6001600160a01b037f0000000000000000000000000000000000000000000000000000000000000000166338ed173983600084306114b642603c611a8a565b6040518663ffffffff1660e01b81526004016114d6959493929190611ba2565b600060405180830381600087803b1580156114f057600080fd5b505af1158015611504573d6000803e3d6000fd5b505050506040513d6000823e601f3d908101601f191682016040526109809190810190611c13565b6000611581826040518060400160405280602081526020017f5361666545524332303a206c6f772d6c6576656c2063616c6c206661696c6564815250856001600160a01b03166117559092919063ffffffff16565b805190915015610ef6578080602001905181019061159f9190611b61565b610ef65760405162461bcd60e51b815260206004820152602a60248201527f5361666545524332303a204552433230206f7065726174696f6e20646964206e60448201527f6f74207375636365656400000000000000000000000000000000000000000000606482015260840161044f565b8015806116b357506040517fdd62ed3e0000000000000000000000000000000000000000000000000000000081523060048201526001600160a01b03838116602483015284169063dd62ed3e9060440160206040518083038186803b15801561167957600080fd5b505afa15801561168d573d6000803e3d6000fd5b505050506040513d601f19601f820116820180604052508101906116b19190611abf565b155b6117255760405162461bcd60e51b815260206004820152603660248201527f5361666545524332303a20617070726f76652066726f6d206e6f6e2d7a65726f60448201527f20746f206e6f6e2d7a65726f20616c6c6f77616e636500000000000000000000606482015260840161044f565b6040516001600160a01b038316602482015260448101829052610ef690849063095ea7b360e01b90606401610f40565b6060611764848460008561176e565b90505b9392505050565b6060824710156117e65760405162461bcd60e51b815260206004820152602660248201527f416464726573733a20696e73756666696369656e742062616c616e636520666f60448201527f722063616c6c0000000000000000000000000000000000000000000000000000606482015260840161044f565b6001600160a01b0385163b61183d5760405162461bcd60e51b815260206004820152601d60248201527f416464726573733a2063616c6c20746f206e6f6e2d636f6e7472616374000000604482015260640161044f565b600080866001600160a01b031685876040516118599190611cc5565b60006040518083038185875af1925050503d8060008114611896576040519150601f19603f3d011682016040523d82523d6000602084013e61189b565b606091505b50915091506118ab8282866118b6565b979650505050505050565b606083156118c5575081611767565b8251156118d55782518084602001fd5b8160405162461bcd60e51b815260040161044f9190611ce1565b60006020828403121561190157600080fd5b5035919050565b6001600160a01b0381168114610b3e57600080fd5b60006020828403121561192f57600080fd5b813561176781611908565b634e487b7160e01b600052604160045260246000fd5b604051601f8201601f1916810167ffffffffffffffff811182821017156119795761197961193a565b604052919050565b600067ffffffffffffffff82111561199b5761199b61193a565b5060051b60200190565b8015158114610b3e57600080fd5b80356119be816119a5565b919050565b600080604083850312156119d657600080fd5b823567ffffffffffffffff8111156119ed57600080fd5b8301601f810185136119fe57600080fd5b80356020611a13611a0e83611981565b611950565b82815260059290921b83018101918181019088841115611a3257600080fd5b938201935b83851015611a59578435611a4a81611908565b82529382019390820190611a37565b9550611a6890508682016119b3565b93505050509250929050565b634e487b7160e01b600052601160045260246000fd5b60008219821115611a9d57611a9d611a74565b500190565b600060208284031215611ab457600080fd5b815161176781611908565b600060208284031215611ad157600080fd5b5051919050565b6000816000190483118215151615611af257611af2611a74565b500290565b600082611b1457634e487b7160e01b600052601260045260246000fd5b500490565b600082821015611b2b57611b2b611a74565b500390565b634e487b7160e01b600052603260045260246000fd5b6000600019821415611b5a57611b5a611a74565b5060010190565b600060208284031215611b7357600080fd5b8151611767816119a5565b60008060408385031215611b9157600080fd5b505080516020909101519092909150565b600060a082018783526020878185015260a0604085015281875180845260c086019150828901935060005b81811015611bf25784516001600160a01b031683529383019391830191600101611bcd565b50506001600160a01b03969096166060850152505050608001529392505050565b60006020808385031215611c2657600080fd5b825167ffffffffffffffff811115611c3d57600080fd5b8301601f81018513611c4e57600080fd5b8051611c5c611a0e82611981565b81815260059190911b82018301908381019087831115611c7b57600080fd5b928401925b828410156118ab57835182529284019290840190611c80565b60005b83811015611cb4578181015183820152602001611c9c565b838111156112255750506000910152565b60008251611cd7818460208701611c99565b9190910192915050565b6020815260008251806020840152611d00816040850160208701611c99565b601f01601f1916919091016040019291505056fea2646970667358221220a43a8f7a362c55ac8dd3a0bf90693088c01b98401afa8ab68f2592a6f270d77764736f6c63430008090033",
  "linkReferences": {},
  "deployedLinkReferences": {}
}