{
  "_format": "hh-sol-artifact-1",
  "contractName": "TransferHelperTestFakeERC20Noncompliant",
  "sourceName": "contracts/arcanum-lib/test/TransferHelperTest.sol",
  "abi": [
    {
      "inputs": [
        {
          "internalType": "address",
          "name": "",
          "type": "address"
        },
        {
          "internalType": "uint256",
          "name": "",
          "type": "uint256"
        }
      ],
      "name": "approve",
      "outputs": [],
      "stateMutability": "view",
      "type": "function"
    },
    {
      "inputs": [
        {
          "internalType": "bool",
          "name": "shouldRevert_",
          "type": "bool"
        }
      ],
      "name": "setup",
      "outputs": [],
      "stateMutability": "nonpayable",
      "type": "function"
    },
    {
      "inputs": [],
      "name": "shouldRevert",
      "outputs": [
        {
          "internalType": "bool",
          "name": "",
          "type": "bool"
        }
      ],
      "stateMutability": "view",
      "type": "function"
    },
    {
      "inputs": [
        {
          "internalType": "address",
          "name": "",
          "type": "address"
        },
        {
          "internalType": "uint256",
          "name": "",
          "type": "uint256"
        }
      ],
      "name": "transfer",
      "outputs": [],
      "stateMutability": "view",
      "type": "function"
    },
    {
      "inputs": [
        {
          "internalType": "address",
          "name": "",
          "type": "address"
        },
        {
          "internalType": "address",
          "name": "",
          "type": "address"
        },
        {
          "internalType": "uint256",
          "name": "",
          "type": "uint256"
        }
      ],
      "name": "transferFrom",
      "outputs": [],
      "stateMutability": "view",
      "type": "function"
    }
  ],
  "bytecode": "0x608060405234801561001057600080fd5b506101a0806100206000396000f3fe608060405234801561001057600080fd5b50600436106100675760003560e01c8063a9059cbb11610050578063a9059cbb1461006c578063d3072d82146100ea578063e2c169ec1461010657610067565b8063095ea7b31461006c57806323b872dd146100a7575b600080fd5b6100a56004803603604081101561008257600080fd5b5073ffffffffffffffffffffffffffffffffffffffff8135169060200135610125565b005b6100a5600480360360608110156100bd57600080fd5b5073ffffffffffffffffffffffffffffffffffffffff813581169160208101359091169060400135610139565b6100f261014e565b604080519115158252519081900360200190f35b6100a56004803603602081101561011c57600080fd5b50351515610157565b60005460ff161561013557600080fd5b5050565b60005460ff161561014957600080fd5b505050565b60005460ff1681565b6000805460ff191691151591909117905556fea2646970667358221220c856b39f09eee56bd356a10c27132432e06fcab1ba942e06a35e4ba4a40cdba664736f6c63430007060033",
  "linkReferences": {},
  "deployedLinkReferences": {}
}