{
  "_format": "hh-sol-artifact-1",
  "contractName": "ArcanumRouter",
  "sourceName": "contracts/arcanum-periphery/ArcanumRouter.sol",
  "abi": [
    {
      "inputs": [
        {
          "internalType": "address",
          "name": "_factory",
          "type": "address"
        },
        {
          "internalType": "address",
          "name": "_WAVAX",
          "type": "address"
        }
      ],
      "stateMutability": "nonpayable",
      "type": "constructor"
    },
    {
      "inputs": [],
      "name": "WAVAX",
      "outputs": [
        {
          "internalType": "address",
          "name": "",
          "type": "address"
        }
      ],
      "stateMutability": "view",
      "type": "function"
    },
    {
      "inputs": [
        {
          "internalType": "address",
          "name": "tokenA",
          "type": "address"
        },
        {
          "internalType": "address",
          "name": "tokenB",
          "type": "address"
        },
        {
          "internalType": "uint256",
          "name": "amountADesired",
          "type": "uint256"
        },
        {
          "internalType": "uint256",
          "name": "amountBDesired",
          "type": "uint256"
        },
        {
          "internalType": "uint256",
          "name": "amountAMin",
          "type": "uint256"
        },
        {
          "internalType": "uint256",
          "name": "amountBMin",
          "type": "uint256"
        },
        {
          "internalType": "address",
          "name": "to",
          "type": "address"
        },
        {
          "internalType": "uint256",
          "name": "deadline",
          "type": "uint256"
        }
      ],
      "name": "addLiquidity",
      "outputs": [
        {
          "internalType": "uint256",
          "name": "amountA",
          "type": "uint256"
        },
        {
          "internalType": "uint256",
          "name": "amountB",
          "type": "uint256"
        },
        {
          "internalType": "uint256",
          "name": "liquidity",
          "type": "uint256"
        }
      ],
      "stateMutability": "nonpayable",
      "type": "function"
    },
    {
      "inputs": [
        {
          "internalType": "address",
          "name": "token",
          "type": "address"
        },
        {
          "internalType": "uint256",
          "name": "amountTokenDesired",
          "type": "uint256"
        },
        {
          "internalType": "uint256",
          "name": "amountTokenMin",
          "type": "uint256"
        },
        {
          "internalType": "uint256",
          "name": "amountAVAXMin",
          "type": "uint256"
        },
        {
          "internalType": "address",
          "name": "to",
          "type": "address"
        },
        {
          "internalType": "uint256",
          "name": "deadline",
          "type": "uint256"
        }
      ],
      "name": "addLiquidityAVAX",
      "outputs": [
        {
          "internalType": "uint256",
          "name": "amountToken",
          "type": "uint256"
        },
        {
          "internalType": "uint256",
          "name": "amountAVAX",
          "type": "uint256"
        },
        {
          "internalType": "uint256",
          "name": "liquidity",
          "type": "uint256"
        }
      ],
      "stateMutability": "payable",
      "type": "function"
    },
    {
      "inputs": [],
      "name": "factory",
      "outputs": [
        {
          "internalType": "address",
          "name": "",
          "type": "address"
        }
      ],
      "stateMutability": "view",
      "type": "function"
    },
    {
      "inputs": [
        {
          "internalType": "uint256",
          "name": "amountOut",
          "type": "uint256"
        },
        {
          "internalType": "uint256",
          "name": "reserveIn",
          "type": "uint256"
        },
        {
          "internalType": "uint256",
          "name": "reserveOut",
          "type": "uint256"
        }
      ],
      "name": "getAmountIn",
      "outputs": [
        {
          "internalType": "uint256",
          "name": "amountIn",
          "type": "uint256"
        }
      ],
      "stateMutability": "pure",
      "type": "function"
    },
    {
      "inputs": [
        {
          "internalType": "uint256",
          "name": "amountIn",
          "type": "uint256"
        },
        {
          "internalType": "uint256",
          "name": "reserveIn",
          "type": "uint256"
        },
        {
          "internalType": "uint256",
          "name": "reserveOut",
          "type": "uint256"
        }
      ],
      "name": "getAmountOut",
      "outputs": [
        {
          "internalType": "uint256",
          "name": "amountOut",
          "type": "uint256"
        }
      ],
      "stateMutability": "pure",
      "type": "function"
    },
    {
      "inputs": [
        {
          "internalType": "uint256",
          "name": "amountOut",
          "type": "uint256"
        },
        {
          "internalType": "address[]",
          "name": "path",
          "type": "address[]"
        }
      ],
      "name": "getAmountsIn",
      "outputs": [
        {
          "internalType": "uint256[]",
          "name": "amounts",
          "type": "uint256[]"
        }
      ],
      "stateMutability": "view",
      "type": "function"
    },
    {
      "inputs": [
        {
          "internalType": "uint256",
          "name": "amountIn",
          "type": "uint256"
        },
        {
          "internalType": "address[]",
          "name": "path",
          "type": "address[]"
        }
      ],
      "name": "getAmountsOut",
      "outputs": [
        {
          "internalType": "uint256[]",
          "name": "amounts",
          "type": "uint256[]"
        }
      ],
      "stateMutability": "view",
      "type": "function"
    },
    {
      "inputs": [
        {
          "internalType": "uint256",
          "name": "amountA",
          "type": "uint256"
        },
        {
          "internalType": "uint256",
          "name": "reserveA",
          "type": "uint256"
        },
        {
          "internalType": "uint256",
          "name": "reserveB",
          "type": "uint256"
        }
      ],
      "name": "quote",
      "outputs": [
        {
          "internalType": "uint256",
          "name": "amountB",
          "type": "uint256"
        }
      ],
      "stateMutability": "pure",
      "type": "function"
    },
    {
      "inputs": [
        {
          "internalType": "address",
          "name": "tokenA",
          "type": "address"
        },
        {
          "internalType": "address",
          "name": "tokenB",
          "type": "address"
        },
        {
          "internalType": "uint256",
          "name": "liquidity",
          "type": "uint256"
        },
        {
          "internalType": "uint256",
          "name": "amountAMin",
          "type": "uint256"
        },
        {
          "internalType": "uint256",
          "name": "amountBMin",
          "type": "uint256"
        },
        {
          "internalType": "address",
          "name": "to",
          "type": "address"
        },
        {
          "internalType": "uint256",
          "name": "deadline",
          "type": "uint256"
        }
      ],
      "name": "removeLiquidity",
      "outputs": [
        {
          "internalType": "uint256",
          "name": "amountA",
          "type": "uint256"
        },
        {
          "internalType": "uint256",
          "name": "amountB",
          "type": "uint256"
        }
      ],
      "stateMutability": "nonpayable",
      "type": "function"
    },
    {
      "inputs": [
        {
          "internalType": "address",
          "name": "token",
          "type": "address"
        },
        {
          "internalType": "uint256",
          "name": "liquidity",
          "type": "uint256"
        },
        {
          "internalType": "uint256",
          "name": "amountTokenMin",
          "type": "uint256"
        },
        {
          "internalType": "uint256",
          "name": "amountAVAXMin",
          "type": "uint256"
        },
        {
          "internalType": "address",
          "name": "to",
          "type": "address"
        },
        {
          "internalType": "uint256",
          "name": "deadline",
          "type": "uint256"
        }
      ],
      "name": "removeLiquidityAVAX",
      "outputs": [
        {
          "internalType": "uint256",
          "name": "amountToken",
          "type": "uint256"
        },
        {
          "internalType": "uint256",
          "name": "amountAVAX",
          "type": "uint256"
        }
      ],
      "stateMutability": "nonpayable",
      "type": "function"
    },
    {
      "inputs": [
        {
          "internalType": "address",
          "name": "token",
          "type": "address"
        },
        {
          "internalType": "uint256",
          "name": "liquidity",
          "type": "uint256"
        },
        {
          "internalType": "uint256",
          "name": "amountTokenMin",
          "type": "uint256"
        },
        {
          "internalType": "uint256",
          "name": "amountAVAXMin",
          "type": "uint256"
        },
        {
          "internalType": "address",
          "name": "to",
          "type": "address"
        },
        {
          "internalType": "uint256",
          "name": "deadline",
          "type": "uint256"
        }
      ],
      "name": "removeLiquidityAVAXSupportingFeeOnTransferTokens",
      "outputs": [
        {
          "internalType": "uint256",
          "name": "amountAVAX",
          "type": "uint256"
        }
      ],
      "stateMutability": "nonpayable",
      "type": "function"
    },
    {
      "inputs": [
        {
          "internalType": "address",
          "name": "token",
          "type": "address"
        },
        {
          "internalType": "uint256",
          "name": "liquidity",
          "type": "uint256"
        },
        {
          "internalType": "uint256",
          "name": "amountTokenMin",
          "type": "uint256"
        },
        {
          "internalType": "uint256",
          "name": "amountAVAXMin",
          "type": "uint256"
        },
        {
          "internalType": "address",
          "name": "to",
          "type": "address"
        },
        {
          "internalType": "uint256",
          "name": "deadline",
          "type": "uint256"
        },
        {
          "internalType": "bool",
          "name": "approveMax",
          "type": "bool"
        },
        {
          "internalType": "uint8",
          "name": "v",
          "type": "uint8"
        },
        {
          "internalType": "bytes32",
          "name": "r",
          "type": "bytes32"
        },
        {
          "internalType": "bytes32",
          "name": "s",
          "type": "bytes32"
        }
      ],
      "name": "removeLiquidityAVAXWithPermit",
      "outputs": [
        {
          "internalType": "uint256",
          "name": "amountToken",
          "type": "uint256"
        },
        {
          "internalType": "uint256",
          "name": "amountAVAX",
          "type": "uint256"
        }
      ],
      "stateMutability": "nonpayable",
      "type": "function"
    },
    {
      "inputs": [
        {
          "internalType": "address",
          "name": "token",
          "type": "address"
        },
        {
          "internalType": "uint256",
          "name": "liquidity",
          "type": "uint256"
        },
        {
          "internalType": "uint256",
          "name": "amountTokenMin",
          "type": "uint256"
        },
        {
          "internalType": "uint256",
          "name": "amountAVAXMin",
          "type": "uint256"
        },
        {
          "internalType": "address",
          "name": "to",
          "type": "address"
        },
        {
          "internalType": "uint256",
          "name": "deadline",
          "type": "uint256"
        },
        {
          "internalType": "bool",
          "name": "approveMax",
          "type": "bool"
        },
        {
          "internalType": "uint8",
          "name": "v",
          "type": "uint8"
        },
        {
          "internalType": "bytes32",
          "name": "r",
          "type": "bytes32"
        },
        {
          "internalType": "bytes32",
          "name": "s",
          "type": "bytes32"
        }
      ],
      "name": "removeLiquidityAVAXWithPermitSupportingFeeOnTransferTokens",
      "outputs": [
        {
          "internalType": "uint256",
          "name": "amountAVAX",
          "type": "uint256"
        }
      ],
      "stateMutability": "nonpayable",
      "type": "function"
    },
    {
      "inputs": [
        {
          "internalType": "address",
          "name": "tokenA",
          "type": "address"
        },
        {
          "internalType": "address",
          "name": "tokenB",
          "type": "address"
        },
        {
          "internalType": "uint256",
          "name": "liquidity",
          "type": "uint256"
        },
        {
          "internalType": "uint256",
          "name": "amountAMin",
          "type": "uint256"
        },
        {
          "internalType": "uint256",
          "name": "amountBMin",
          "type": "uint256"
        },
        {
          "internalType": "address",
          "name": "to",
          "type": "address"
        },
        {
          "internalType": "uint256",
          "name": "deadline",
          "type": "uint256"
        },
        {
          "internalType": "bool",
          "name": "approveMax",
          "type": "bool"
        },
        {
          "internalType": "uint8",
          "name": "v",
          "type": "uint8"
        },
        {
          "internalType": "bytes32",
          "name": "r",
          "type": "bytes32"
        },
        {
          "internalType": "bytes32",
          "name": "s",
          "type": "bytes32"
        }
      ],
      "name": "removeLiquidityWithPermit",
      "outputs": [
        {
          "internalType": "uint256",
          "name": "amountA",
          "type": "uint256"
        },
        {
          "internalType": "uint256",
          "name": "amountB",
          "type": "uint256"
        }
      ],
      "stateMutability": "nonpayable",
      "type": "function"
    },
    {
      "inputs": [
        {
          "internalType": "uint256",
          "name": "amountOut",
          "type": "uint256"
        },
        {
          "internalType": "address[]",
          "name": "path",
          "type": "address[]"
        },
        {
          "internalType": "address",
          "name": "to",
          "type": "address"
        },
        {
          "internalType": "uint256",
          "name": "deadline",
          "type": "uint256"
        }
      ],
      "name": "swapAVAXForExactTokens",
      "outputs": [
        {
          "internalType": "uint256[]",
          "name": "amounts",
          "type": "uint256[]"
        }
      ],
      "stateMutability": "payable",
      "type": "function"
    },
    {
      "inputs": [
        {
          "internalType": "uint256",
          "name": "amountOutMin",
          "type": "uint256"
        },
        {
          "internalType": "address[]",
          "name": "path",
          "type": "address[]"
        },
        {
          "internalType": "address",
          "name": "to",
          "type": "address"
        },
        {
          "internalType": "uint256",
          "name": "deadline",
          "type": "uint256"
        }
      ],
      "name": "swapExactAVAXForTokens",
      "outputs": [
        {
          "internalType": "uint256[]",
          "name": "amounts",
          "type": "uint256[]"
        }
      ],
      "stateMutability": "payable",
      "type": "function"
    },
    {
      "inputs": [
        {
          "internalType": "uint256",
          "name": "amountOutMin",
          "type": "uint256"
        },
        {
          "internalType": "address[]",
          "name": "path",
          "type": "address[]"
        },
        {
          "internalType": "address",
          "name": "to",
          "type": "address"
        },
        {
          "internalType": "uint256",
          "name": "deadline",
          "type": "uint256"
        }
      ],
      "name": "swapExactAVAXForTokensSupportingFeeOnTransferTokens",
      "outputs": [],
      "stateMutability": "payable",
      "type": "function"
    },
    {
      "inputs": [
        {
          "internalType": "uint256",
          "name": "amountIn",
          "type": "uint256"
        },
        {
          "internalType": "uint256",
          "name": "amountOutMin",
          "type": "uint256"
        },
        {
          "internalType": "address[]",
          "name": "path",
          "type": "address[]"
        },
        {
          "internalType": "address",
          "name": "to",
          "type": "address"
        },
        {
          "internalType": "uint256",
          "name": "deadline",
          "type": "uint256"
        }
      ],
      "name": "swapExactTokensForAVAX",
      "outputs": [
        {
          "internalType": "uint256[]",
          "name": "amounts",
          "type": "uint256[]"
        }
      ],
      "stateMutability": "nonpayable",
      "type": "function"
    },
    {
      "inputs": [
        {
          "internalType": "uint256",
          "name": "amountIn",
          "type": "uint256"
        },
        {
          "internalType": "uint256",
          "name": "amountOutMin",
          "type": "uint256"
        },
        {
          "internalType": "address[]",
          "name": "path",
          "type": "address[]"
        },
        {
          "internalType": "address",
          "name": "to",
          "type": "address"
        },
        {
          "internalType": "uint256",
          "name": "deadline",
          "type": "uint256"
        }
      ],
      "name": "swapExactTokensForAVAXSupportingFeeOnTransferTokens",
      "outputs": [],
      "stateMutability": "nonpayable",
      "type": "function"
    },
    {
      "inputs": [
        {
          "internalType": "uint256",
          "name": "amountIn",
          "type": "uint256"
        },
        {
          "internalType": "uint256",
          "name": "amountOutMin",
          "type": "uint256"
        },
        {
          "internalType": "address[]",
          "name": "path",
          "type": "address[]"
        },
        {
          "internalType": "address",
          "name": "to",
          "type": "address"
        },
        {
          "internalType": "uint256",
          "name": "deadline",
          "type": "uint256"
        }
      ],
      "name": "swapExactTokensForTokens",
      "outputs": [
        {
          "internalType": "uint256[]",
          "name": "amounts",
          "type": "uint256[]"
        }
      ],
      "stateMutability": "nonpayable",
      "type": "function"
    },
    {
      "inputs": [
        {
          "internalType": "uint256",
          "name": "amountIn",
          "type": "uint256"
        },
        {
          "internalType": "uint256",
          "name": "amountOutMin",
          "type": "uint256"
        },
        {
          "internalType": "address[]",
          "name": "path",
          "type": "address[]"
        },
        {
          "internalType": "address",
          "name": "to",
          "type": "address"
        },
        {
          "internalType": "uint256",
          "name": "deadline",
          "type": "uint256"
        }
      ],
      "name": "swapExactTokensForTokensSupportingFeeOnTransferTokens",
      "outputs": [],
      "stateMutability": "nonpayable",
      "type": "function"
    },
    {
      "inputs": [
        {
          "internalType": "uint256",
          "name": "amountOut",
          "type": "uint256"
        },
        {
          "internalType": "uint256",
          "name": "amountInMax",
          "type": "uint256"
        },
        {
          "internalType": "address[]",
          "name": "path",
          "type": "address[]"
        },
        {
          "internalType": "address",
          "name": "to",
          "type": "address"
        },
        {
          "internalType": "uint256",
          "name": "deadline",
          "type": "uint256"
        }
      ],
      "name": "swapTokensForExactAVAX",
      "outputs": [
        {
          "internalType": "uint256[]",
          "name": "amounts",
          "type": "uint256[]"
        }
      ],
      "stateMutability": "nonpayable",
      "type": "function"
    },
    {
      "inputs": [
        {
          "internalType": "uint256",
          "name": "amountOut",
          "type": "uint256"
        },
        {
          "internalType": "uint256",
          "name": "amountInMax",
          "type": "uint256"
        },
        {
          "internalType": "address[]",
          "name": "path",
          "type": "address[]"
        },
        {
          "internalType": "address",
          "name": "to",
          "type": "address"
        },
        {
          "internalType": "uint256",
          "name": "deadline",
          "type": "uint256"
        }
      ],
      "name": "swapTokensForExactTokens",
      "outputs": [
        {
          "internalType": "uint256[]",
          "name": "amounts",
          "type": "uint256[]"
        }
      ],
      "stateMutability": "nonpayable",
      "type": "function"
    },
    {
      "stateMutability": "payable",
      "type": "receive"
    }
  ],
  "bytecode": "0x60c060405234801561001057600080fd5b506040516200495a3803806200495a8339818101604052604081101561003557600080fd5b5080516020909101516001600160601b0319606092831b8116608052911b1660a05260805160601c60a05160601c6147d5620001856000398061019f5280610e5e5280610f9e5280610fd9528061155552806116f752806117ad528061182652806118d552806119b45280611ac05280611b765280611c575280611f09528061205e52806120e6528061228952806123c0528061251852806125a052806129bd5280612a645280612ad85280612ee35280612f395280612f6d5280612fe1525080610d095280610d425280610e3c52806110c1528061119852806112cf52806115f55280611cf75280611e085280611fae52806121185280612267528061246552806125d25280612739528061294a5280612b0a5280612d1c5280612db05280612f175280613a365280613a795280613c245280613daa528061421452806142db528061435b52506147d56000f3fe60806040526004361061018f5760003560e01c806385f8c259116100d6578063baa2abde1161007f578063d06ca61f11610059578063d06ca61f14610b70578063e8e3370014610c27578063f91b3f7214610ca7576101c8565b8063baa2abde14610a78578063c45a015514610ad5578063c57559dd14610aea576101c8565b80639fc27226116100b05780639fc2722614610949578063a2a1623d146109bc578063ad615dec14610a42576101c8565b806385f8c259146107f55780638803dbee1461082b5780638a657e67146108c3576101c8565b80635c11d7951161013857806373bc79cf1161011257806373bc79cf14610672578063762b1562146106c55780637a42416a1461075d576101c8565b80635c11d79514610511578063676528d1146105a957806373b295c214610641576101c8565b80632c407024116101695780632c407024146103b357806333c6b7251461042657806338ed173914610479576101c8565b8063054d50d4146101cd5780631f00ca74146102155780632195995c1461031c576101c8565b366101c857336001600160a01b037f000000000000000000000000000000000000000000000000000000000000000016146101c657fe5b005b600080fd5b3480156101d957600080fd5b50610203600480360360608110156101f057600080fd5b5080359060208101359060400135610ced565b60408051918252519081900360200190f35b34801561022157600080fd5b506102cc6004803603604081101561023857600080fd5b8135919081019060408101602082013564010000000081111561025a57600080fd5b82018360208201111561026c57600080fd5b8035906020019184602083028401116401000000008311171561028e57600080fd5b919080806020026020016040519081016040528093929190818152602001838360200280828437600092019190915250929550610d02945050505050565b60408051602080825283518183015283519192839290830191858101910280838360005b838110156103085781810151838201526020016102f0565b505050509050019250505060405180910390f35b34801561032857600080fd5b5061039a600480360361016081101561034057600080fd5b506001600160a01b038135811691602081013582169160408201359160608101359160808201359160a08101359091169060c08101359060e081013515159060ff6101008201351690610120810135906101400135610d38565b6040805192835260208301919091528051918290030190f35b3480156103bf57600080fd5b5061039a60048036036101408110156103d757600080fd5b506001600160a01b0381358116916020810135916040820135916060810135916080820135169060a08101359060c081013515159060ff60e08201351690610100810135906101200135610e32565b34801561043257600080fd5b5061039a600480360360c081101561044957600080fd5b506001600160a01b0381358116916020810135916040820135916060810135916080820135169060a00135610f46565b34801561048557600080fd5b506102cc600480360360a081101561049c57600080fd5b8135916020810135918101906060810160408201356401000000008111156104c357600080fd5b8201836020820111156104d557600080fd5b803590602001918460208302840111640100000000831117156104f757600080fd5b91935091506001600160a01b03813516906020013561106b565b34801561051d57600080fd5b506101c6600480360360a081101561053457600080fd5b81359160208101359181019060608101604082013564010000000081111561055b57600080fd5b82018360208201111561056d57600080fd5b8035906020019184602083028401116401000000008311171561058f57600080fd5b91935091506001600160a01b03813516906020013561125a565b3480156105b557600080fd5b506102cc600480360360a08110156105cc57600080fd5b8135916020810135918101906060810160408201356401000000008111156105f357600080fd5b82018360208201111561060557600080fd5b8035906020019184602083028401116401000000008311171561062757600080fd5b91935091506001600160a01b0381351690602001356114fa565b34801561064d57600080fd5b506106566117ab565b604080516001600160a01b039092168252519081900360200190f35b34801561067e57600080fd5b50610203600480360360c081101561069557600080fd5b506001600160a01b0381358116916020810135916040820135916060810135916080820135169060a001356117cf565b3480156106d157600080fd5b506101c6600480360360a08110156106e857600080fd5b81359160208101359181019060608101604082013564010000000081111561070f57600080fd5b82018360208201111561072157600080fd5b8035906020019184602083028401116401000000008311171561074357600080fd5b91935091506001600160a01b03813516906020013561195b565b34801561076957600080fd5b506102cc600480360360a081101561078057600080fd5b8135916020810135918101906060810160408201356401000000008111156107a757600080fd5b8201836020820111156107b957600080fd5b803590602001918460208302840111640100000000831117156107db57600080fd5b91935091506001600160a01b038135169060200135611bfc565b34801561080157600080fd5b506102036004803603606081101561081857600080fd5b5080359060208101359060400135611da5565b34801561083757600080fd5b506102cc600480360360a081101561084e57600080fd5b81359160208101359181019060608101604082013564010000000081111561087557600080fd5b82018360208201111561088757600080fd5b803590602001918460208302840111640100000000831117156108a957600080fd5b91935091506001600160a01b038135169060200135611db2565b6102cc600480360360808110156108d957600080fd5b813591908101906040810160208201356401000000008111156108fb57600080fd5b82018360208201111561090d57600080fd5b8035906020019184602083028401116401000000008311171561092f57600080fd5b91935091506001600160a01b038135169060200135611eb6565b34801561095557600080fd5b50610203600480360361014081101561096d57600080fd5b506001600160a01b0381358116916020810135916040820135916060810135916080820135169060a08101359060c081013515159060ff60e0820135169061010081013590610120013561225f565b6102cc600480360360808110156109d257600080fd5b813591908101906040810160208201356401000000008111156109f457600080fd5b820183602082011115610a0657600080fd5b80359060200191846020830284011164010000000083111715610a2857600080fd5b91935091506001600160a01b03813516906020013561236d565b348015610a4e57600080fd5b5061020360048036036060811015610a6557600080fd5b50803590602081013590604001356126d3565b348015610a8457600080fd5b5061039a600480360360e0811015610a9b57600080fd5b506001600160a01b038135811691602081013582169160408201359160608101359160808201359160a08101359091169060c001356126e0565b348015610ae157600080fd5b50610656612948565b6101c660048036036080811015610b0057600080fd5b81359190810190604081016020820135640100000000811115610b2257600080fd5b820183602082011115610b3457600080fd5b80359060200191846020830284011164010000000083111715610b5657600080fd5b91935091506001600160a01b03813516906020013561296c565b348015610b7c57600080fd5b506102cc60048036036040811015610b9357600080fd5b81359190810190604081016020820135640100000000811115610bb557600080fd5b820183602082011115610bc757600080fd5b80359060200191846020830284011164010000000083111715610be957600080fd5b919080806020026020016040519081016040528093929190818152602001838360200280828437600092019190915250929550612d15945050505050565b348015610c3357600080fd5b50610c896004803603610100811015610c4b57600080fd5b506001600160a01b038135811691602081013582169160408201359160608101359160808201359160a08101359160c0820135169060e00135612d42565b60408051938452602084019290925282820152519081900360600190f35b610c89600480360360c0811015610cbd57600080fd5b506001600160a01b0381358116916020810135916040820135916060810135916080820135169060a00135612e89565b6000610cfa848484613139565b949350505050565b6060610d2f7f00000000000000000000000000000000000000000000000000000000000000008484613229565b90505b92915050565b6000806000610d687f00000000000000000000000000000000000000000000000000000000000000008f8f613376565b9050600087610d77578c610d7b565b6000195b6040805163d505accf60e01b815233600482015230602482015260448101839052606481018c905260ff8a16608482015260a4810189905260c4810188905290519192506001600160a01b0384169163d505accf9160e48082019260009290919082900301818387803b158015610df157600080fd5b505af1158015610e05573d6000803e3d6000fd5b50505050610e188f8f8f8f8f8f8f6126e0565b809450819550505050509b509b9950505050505050505050565b6000806000610e827f00000000000000000000000000000000000000000000000000000000000000008e7f0000000000000000000000000000000000000000000000000000000000000000613376565b9050600087610e91578c610e95565b6000195b6040805163d505accf60e01b815233600482015230602482015260448101839052606481018c905260ff8a16608482015260a4810189905260c4810188905290519192506001600160a01b0384169163d505accf9160e48082019260009290919082900301818387803b158015610f0b57600080fd5b505af1158015610f1f573d6000803e3d6000fd5b50505050610f318e8e8e8e8e8e610f46565b909f909e509c50505050505050505050505050565b6000808242811015610f98576040805162461bcd60e51b8152602060048201526016602482015275105c98d85b9d5b549bdd5d195c8e881156141254915160521b604482015290519081900360640190fd5b610fc7897f00000000000000000000000000000000000000000000000000000000000000008a8a8a308a6126e0565b9093509150610fd789868561344e565b7f00000000000000000000000000000000000000000000000000000000000000006001600160a01b0316632e1a7d4d836040518263ffffffff1660e01b815260040180828152602001915050600060405180830381600087803b15801561103d57600080fd5b505af1158015611051573d6000803e3d6000fd5b5050505061105f85836135e6565b50965096945050505050565b606081428110156110bc576040805162461bcd60e51b8152602060048201526016602482015275105c98d85b9d5b549bdd5d195c8e881156141254915160521b604482015290519081900360640190fd5b61111a7f0000000000000000000000000000000000000000000000000000000000000000898888808060200260200160405190810160405280939291908181526020018383602002808284376000920191909152506136de92505050565b9150868260018451038151811061112d57fe5b602002602001015110156111725760405162461bcd60e51b81526004018080602001828103825260298152602001806146e56029913960400191505060405180910390fd5b6112108686600081811061118257fe5b905060200201356001600160a01b0316336111f67f00000000000000000000000000000000000000000000000000000000000000008a8a60008181106111c457fe5b905060200201356001600160a01b03168b8b60018181106111e157fe5b905060200201356001600160a01b0316613376565b8560008151811061120357fe5b6020026020010151613815565b61124f82878780806020026020016040519081016040528093929190818152602001838360200280828437600092019190915250899250613987915050565b509695505050505050565b80428110156112a9576040805162461bcd60e51b8152602060048201526016602482015275105c98d85b9d5b549bdd5d195c8e881156141254915160521b604482015290519081900360640190fd5b61131e858560008181106112b957fe5b905060200201356001600160a01b0316336113187f0000000000000000000000000000000000000000000000000000000000000000898960008181106112fb57fe5b905060200201356001600160a01b03168a8a60018181106111e157fe5b8a613815565b60008585600019810181811061133057fe5b905060200201356001600160a01b03166001600160a01b03166370a08231856040518263ffffffff1660e01b815260040180826001600160a01b03166001600160a01b0316815260200191505060206040518083038186803b15801561139557600080fd5b505afa1580156113a9573d6000803e3d6000fd5b505050506040513d60208110156113bf57600080fd5b50516040805160208881028281018201909352888252929350611401929091899189918291850190849080828437600092019190915250889250613bcd915050565b866114b3828888600019810181811061141657fe5b905060200201356001600160a01b03166001600160a01b03166370a08231886040518263ffffffff1660e01b815260040180826001600160a01b03166001600160a01b0316815260200191505060206040518083038186803b15801561147b57600080fd5b505afa15801561148f573d6000803e3d6000fd5b505050506040513d60208110156114a557600080fd5b50519063ffffffff613ef816565b10156114f05760405162461bcd60e51b81526004018080602001828103825260298152602001806146e56029913960400191505060405180910390fd5b5050505050505050565b6060814281101561154b576040805162461bcd60e51b8152602060048201526016602482015275105c98d85b9d5b549bdd5d195c8e881156141254915160521b604482015290519081900360640190fd5b6001600160a01b037f0000000000000000000000000000000000000000000000000000000000000000168686600019810181811061158557fe5b905060200201356001600160a01b03166001600160a01b0316146115f0576040805162461bcd60e51b815260206004820152601b60248201527f417263616e756d526f757465723a20494e56414c49445f504154480000000000604482015290519081900360640190fd5b61164e7f0000000000000000000000000000000000000000000000000000000000000000898888808060200260200160405190810160405280939291908181526020018383602002808284376000920191909152506136de92505050565b9150868260018451038151811061166157fe5b602002602001015110156116a65760405162461bcd60e51b81526004018080602001828103825260298152602001806146e56029913960400191505060405180910390fd5b6116b68686600081811061118257fe5b6116f582878780806020026020016040519081016040528093929190818152602001838360200280828437600092019190915250309250613987915050565b7f00000000000000000000000000000000000000000000000000000000000000006001600160a01b0316632e1a7d4d8360018551038151811061173457fe5b60200260200101516040518263ffffffff1660e01b815260040180828152602001915050600060405180830381600087803b15801561177257600080fd5b505af1158015611786573d6000803e3d6000fd5b5050505061124f848360018551038151811061179e57fe5b60200260200101516135e6565b7f000000000000000000000000000000000000000000000000000000000000000081565b60008142811015611820576040805162461bcd60e51b8152602060048201526016602482015275105c98d85b9d5b549bdd5d195c8e881156141254915160521b604482015290519081900360640190fd5b61184f887f000000000000000000000000000000000000000000000000000000000000000089898930896126e0565b604080516370a0823160e01b815230600482015290519194506118d392508a9187916001600160a01b038416916370a0823191602480820192602092909190829003018186803b1580156118a257600080fd5b505afa1580156118b6573d6000803e3d6000fd5b505050506040513d60208110156118cc57600080fd5b505161344e565b7f00000000000000000000000000000000000000000000000000000000000000006001600160a01b0316632e1a7d4d836040518263ffffffff1660e01b815260040180828152602001915050600060405180830381600087803b15801561193957600080fd5b505af115801561194d573d6000803e3d6000fd5b5050505061124f84836135e6565b80428110156119aa576040805162461bcd60e51b8152602060048201526016602482015275105c98d85b9d5b549bdd5d195c8e881156141254915160521b604482015290519081900360640190fd5b6001600160a01b037f000000000000000000000000000000000000000000000000000000000000000016858560001981018181106119e457fe5b905060200201356001600160a01b03166001600160a01b031614611a4f576040805162461bcd60e51b815260206004820152601b60248201527f417263616e756d526f757465723a20494e56414c49445f504154480000000000604482015290519081900360640190fd5b611a5f858560008181106112b957fe5b611a9d858580806020026020016040519081016040528093929190818152602001838360200280828437600092019190915250309250613bcd915050565b604080516370a0823160e01b815230600482015290516000916001600160a01b037f000000000000000000000000000000000000000000000000000000000000000016916370a0823191602480820192602092909190829003018186803b158015611b0757600080fd5b505afa158015611b1b573d6000803e3d6000fd5b505050506040513d6020811015611b3157600080fd5b5051905086811015611b745760405162461bcd60e51b81526004018080602001828103825260298152602001806146e56029913960400191505060405180910390fd5b7f00000000000000000000000000000000000000000000000000000000000000006001600160a01b0316632e1a7d4d826040518263ffffffff1660e01b815260040180828152602001915050600060405180830381600087803b158015611bda57600080fd5b505af1158015611bee573d6000803e3d6000fd5b505050506114f084826135e6565b60608142811015611c4d576040805162461bcd60e51b8152602060048201526016602482015275105c98d85b9d5b549bdd5d195c8e881156141254915160521b604482015290519081900360640190fd5b6001600160a01b037f00000000000000000000000000000000000000000000000000000000000000001686866000198101818110611c8757fe5b905060200201356001600160a01b03166001600160a01b031614611cf2576040805162461bcd60e51b815260206004820152601b60248201527f417263616e756d526f757465723a20494e56414c49445f504154480000000000604482015290519081900360640190fd5b611d507f00000000000000000000000000000000000000000000000000000000000000008988888080602002602001604051908101604052809392919081815260200183836020028082843760009201919091525061322992505050565b91508682600081518110611d6057fe5b602002602001015111156116a65760405162461bcd60e51b81526004018080602001828103825260258152602001806147576025913960400191505060405180910390fd5b6000610cfa848484613f50565b60608142811015611e03576040805162461bcd60e51b8152602060048201526016602482015275105c98d85b9d5b549bdd5d195c8e881156141254915160521b604482015290519081900360640190fd5b611e617f00000000000000000000000000000000000000000000000000000000000000008988888080602002602001604051908101604052809392919081815260200183836020028082843760009201919091525061322992505050565b91508682600081518110611e7157fe5b602002602001015111156111725760405162461bcd60e51b81526004018080602001828103825260258152602001806147576025913960400191505060405180910390fd5b60608142811015611f07576040805162461bcd60e51b8152602060048201526016602482015275105c98d85b9d5b549bdd5d195c8e881156141254915160521b604482015290519081900360640190fd5b7f00000000000000000000000000000000000000000000000000000000000000006001600160a01b031686866000818110611f3e57fe5b905060200201356001600160a01b03166001600160a01b031614611fa9576040805162461bcd60e51b815260206004820152601b60248201527f417263616e756d526f757465723a20494e56414c49445f504154480000000000604482015290519081900360640190fd5b6120077f00000000000000000000000000000000000000000000000000000000000000008888888080602002602001604051908101604052809392919081815260200183836020028082843760009201919091525061322992505050565b9150348260008151811061201757fe5b6020026020010151111561205c5760405162461bcd60e51b81526004018080602001828103825260258152602001806147576025913960400191505060405180910390fd5b7f00000000000000000000000000000000000000000000000000000000000000006001600160a01b031663d0e30db08360008151811061209857fe5b60200260200101516040518263ffffffff1660e01b81526004016000604051808303818588803b1580156120cb57600080fd5b505af11580156120df573d6000803e3d6000fd5b50505050507f00000000000000000000000000000000000000000000000000000000000000006001600160a01b031663a9059cbb6121447f0000000000000000000000000000000000000000000000000000000000000000898960008181106112fb57fe5b8460008151811061215157fe5b60200260200101516040518363ffffffff1660e01b815260040180836001600160a01b03166001600160a01b0316815260200182815260200192505050602060405180830381600087803b1580156121a857600080fd5b505af11580156121bc573d6000803e3d6000fd5b505050506040513d60208110156121d257600080fd5b50516121da57fe5b61221982878780806020026020016040519081016040528093929190818152602001838360200280828437600092019190915250899250613987915050565b8160008151811061222657fe5b602002602001015134111561225557612255338360008151811061224657fe5b602002602001015134036135e6565b5095945050505050565b6000806122ad7f00000000000000000000000000000000000000000000000000000000000000008d7f0000000000000000000000000000000000000000000000000000000000000000613376565b90506000866122bc578b6122c0565b6000195b6040805163d505accf60e01b815233600482015230602482015260448101839052606481018b905260ff8916608482015260a4810188905260c4810187905290519192506001600160a01b0384169163d505accf9160e48082019260009290919082900301818387803b15801561233657600080fd5b505af115801561234a573d6000803e3d6000fd5b5050505061235c8d8d8d8d8d8d6117cf565b9d9c50505050505050505050505050565b606081428110156123be576040805162461bcd60e51b8152602060048201526016602482015275105c98d85b9d5b549bdd5d195c8e881156141254915160521b604482015290519081900360640190fd5b7f00000000000000000000000000000000000000000000000000000000000000006001600160a01b0316868660008181106123f557fe5b905060200201356001600160a01b03166001600160a01b031614612460576040805162461bcd60e51b815260206004820152601b60248201527f417263616e756d526f757465723a20494e56414c49445f504154480000000000604482015290519081900360640190fd5b6124be7f0000000000000000000000000000000000000000000000000000000000000000348888808060200260200160405190810160405280939291908181526020018383602002808284376000920191909152506136de92505050565b915086826001845103815181106124d157fe5b602002602001015110156125165760405162461bcd60e51b81526004018080602001828103825260298152602001806146e56029913960400191505060405180910390fd5b7f00000000000000000000000000000000000000000000000000000000000000006001600160a01b031663d0e30db08360008151811061255257fe5b60200260200101516040518263ffffffff1660e01b81526004016000604051808303818588803b15801561258557600080fd5b505af1158015612599573d6000803e3d6000fd5b50505050507f00000000000000000000000000000000000000000000000000000000000000006001600160a01b031663a9059cbb6125fe7f0000000000000000000000000000000000000000000000000000000000000000898960008181106112fb57fe5b8460008151811061260b57fe5b60200260200101516040518363ffffffff1660e01b815260040180836001600160a01b03166001600160a01b0316815260200182815260200192505050602060405180830381600087803b15801561266257600080fd5b505af1158015612676573d6000803e3d6000fd5b505050506040513d602081101561268c57600080fd5b505161269457fe5b61225582878780806020026020016040519081016040528093929190818152602001838360200280828437600092019190915250899250613987915050565b6000610cfa848484614040565b6000808242811015612732576040805162461bcd60e51b8152602060048201526016602482015275105c98d85b9d5b549bdd5d195c8e881156141254915160521b604482015290519081900360640190fd5b600061275f7f00000000000000000000000000000000000000000000000000000000000000008c8c613376565b604080516323b872dd60e01b81523360048201526001600160a01b03831660248201819052604482018d9052915192935090916323b872dd916064808201926020929091908290030181600087803b1580156127ba57600080fd5b505af11580156127ce573d6000803e3d6000fd5b505050506040513d60208110156127e457600080fd5b5050604080517f89afcb440000000000000000000000000000000000000000000000000000000081526001600160a01b03888116600483015282516000938493928616926389afcb44926024808301939282900301818787803b15801561284a57600080fd5b505af115801561285e573d6000803e3d6000fd5b505050506040513d604081101561287457600080fd5b5080516020909101519092509050600061288e8e8e6140ec565b509050806001600160a01b03168e6001600160a01b0316146128b15781836128b4565b82825b90975095508a8710156128f85760405162461bcd60e51b81526004018080602001828103825260248152602001806146986024913960400191505060405180910390fd5b898610156129375760405162461bcd60e51b81526004018080602001828103825260248152602001806146036024913960400191505060405180910390fd5b505050505097509795505050505050565b7f000000000000000000000000000000000000000000000000000000000000000081565b80428110156129bb576040805162461bcd60e51b8152602060048201526016602482015275105c98d85b9d5b549bdd5d195c8e881156141254915160521b604482015290519081900360640190fd5b7f00000000000000000000000000000000000000000000000000000000000000006001600160a01b0316858560008181106129f257fe5b905060200201356001600160a01b03166001600160a01b031614612a5d576040805162461bcd60e51b815260206004820152601b60248201527f417263616e756d526f757465723a20494e56414c49445f504154480000000000604482015290519081900360640190fd5b60003490507f00000000000000000000000000000000000000000000000000000000000000006001600160a01b031663d0e30db0826040518263ffffffff1660e01b81526004016000604051808303818588803b158015612abd57600080fd5b505af1158015612ad1573d6000803e3d6000fd5b50505050507f00000000000000000000000000000000000000000000000000000000000000006001600160a01b031663a9059cbb612b367f0000000000000000000000000000000000000000000000000000000000000000898960008181106112fb57fe5b836040518363ffffffff1660e01b815260040180836001600160a01b03166001600160a01b0316815260200182815260200192505050602060405180830381600087803b158015612b8657600080fd5b505af1158015612b9a573d6000803e3d6000fd5b505050506040513d6020811015612bb057600080fd5b5051612bb857fe5b600086866000198101818110612bca57fe5b905060200201356001600160a01b03166001600160a01b03166370a08231866040518263ffffffff1660e01b815260040180826001600160a01b03166001600160a01b0316815260200191505060206040518083038186803b158015612c2f57600080fd5b505afa158015612c43573d6000803e3d6000fd5b505050506040513d6020811015612c5957600080fd5b50516040805160208981028281018201909352898252929350612c9b9290918a918a918291850190849080828437600092019190915250899250613bcd915050565b876114b38289896000198101818110612cb057fe5b905060200201356001600160a01b03166001600160a01b03166370a08231896040518263ffffffff1660e01b815260040180826001600160a01b03166001600160a01b0316815260200191505060206040518083038186803b15801561147b57600080fd5b6060610d2f7f000000000000000000000000000000000000000000000000000000000000000084846136de565b60008060008342811015612d96576040805162461bcd60e51b8152602060048201526016602482015275105c98d85b9d5b549bdd5d195c8e881156141254915160521b604482015290519081900360640190fd5b612da48c8c8c8c8c8c6141ca565b90945092506000612dd67f00000000000000000000000000000000000000000000000000000000000000008e8e613376565b9050612de48d338388613815565b612df08c338387613815565b806001600160a01b0316636a627842886040518263ffffffff1660e01b815260040180826001600160a01b03166001600160a01b03168152602001915050602060405180830381600087803b158015612e4857600080fd5b505af1158015612e5c573d6000803e3d6000fd5b505050506040513d6020811015612e7257600080fd5b5051949d939c50939a509198505050505050505050565b60008060008342811015612edd576040805162461bcd60e51b8152602060048201526016602482015275105c98d85b9d5b549bdd5d195c8e881156141254915160521b604482015290519081900360640190fd5b612f0b8a7f00000000000000000000000000000000000000000000000000000000000000008b348c8c6141ca565b90945092506000612f5d7f00000000000000000000000000000000000000000000000000000000000000008c7f0000000000000000000000000000000000000000000000000000000000000000613376565b9050612f6b8b338388613815565b7f00000000000000000000000000000000000000000000000000000000000000006001600160a01b031663d0e30db0856040518263ffffffff1660e01b81526004016000604051808303818588803b158015612fc657600080fd5b505af1158015612fda573d6000803e3d6000fd5b50505050507f00000000000000000000000000000000000000000000000000000000000000006001600160a01b031663a9059cbb82866040518363ffffffff1660e01b815260040180836001600160a01b03166001600160a01b0316815260200182815260200192505050602060405180830381600087803b15801561305f57600080fd5b505af1158015613073573d6000803e3d6000fd5b505050506040513d602081101561308957600080fd5b505161309157fe5b806001600160a01b0316636a627842886040518263ffffffff1660e01b815260040180826001600160a01b03166001600160a01b03168152602001915050602060405180830381600087803b1580156130e957600080fd5b505af11580156130fd573d6000803e3d6000fd5b505050506040513d602081101561311357600080fd5b505192503484101561312b5761312b338534036135e6565b505096509650969350505050565b60008084116131795760405162461bcd60e51b81526004018080602001828103825260298152602001806146bc6029913960400191505060405180910390fd5b6000831180156131895750600082115b6131c45760405162461bcd60e51b81526004018080602001828103825260268152602001806147316026913960400191505060405180910390fd5b60006131d8856103e563ffffffff61447016565b905060006131ec828563ffffffff61447016565b9050600061321283613206886103e863ffffffff61447016565b9063ffffffff6144dc16565b905080828161321d57fe5b04979650505050505050565b6060600282511015613282576040805162461bcd60e51b815260206004820152601c60248201527f417263616e756d4c6962726172793a20494e56414c49445f5041544800000000604482015290519081900360640190fd5b815167ffffffffffffffff8111801561329a57600080fd5b506040519080825280602002602001820160405280156132c4578160200160208202803683370190505b50905082816001835103815181106132d857fe5b60209081029190910101528151600019015b801561336e576000806133278786600186038151811061330657fe5b602002602001015187868151811061331a57fe5b6020026020010151614534565b9150915061334984848151811061333a57fe5b60200260200101518383613f50565b84600185038151811061335857fe5b60209081029190910101525050600019016132ea565b509392505050565b600080600061338585856140ec565b604080516bffffffffffffffffffffffff19606094851b811660208084019190915293851b81166034830152825160288184030181526048830184528051908501207fff0000000000000000000000000000000000000000000000000000000000000060688401529a90941b9093166069840152607d8301989098527ffe5b89cf5f63248b324307b1d26a24bf080ea3af49f8bccbbf9575072b332009609d808401919091528851808403909101815260bd909201909752805196019590952095945050505050565b604080516001600160a01b038481166024830152604480830185905283518084039091018152606490920183526020820180517bffffffffffffffffffffffffffffffffffffffffffffffffffffffff167fa9059cbb00000000000000000000000000000000000000000000000000000000178152925182516000946060949389169392918291908083835b602083106134f95780518252601f1990920191602091820191016134da565b6001836020036101000a0380198251168184511680821785525050505050509050019150506000604051808303816000865af19150503d806000811461355b576040519150601f19603f3d011682016040523d82523d6000602084013e613560565b606091505b509150915081801561358e57508051158061358e575080806020019051602081101561358b57600080fd5b50515b6135df576040805162461bcd60e51b815260206004820152601f60248201527f5472616e7366657248656c7065723a205452414e534645525f4641494c454400604482015290519081900360640190fd5b5050505050565b604080516000808252602082019092526001600160a01b0384169083906040518082805190602001908083835b602083106136325780518252601f199092019160209182019101613613565b6001836020036101000a03801982511681845116808217855250505050505090500191505060006040518083038185875af1925050503d8060008114613694576040519150601f19603f3d011682016040523d82523d6000602084013e613699565b606091505b50509050806136d95760405162461bcd60e51b81526004018080602001828103825260248152602001806146746024913960400191505060405180910390fd5b505050565b6060600282511015613737576040805162461bcd60e51b815260206004820152601c60248201527f417263616e756d4c6962726172793a20494e56414c49445f5041544800000000604482015290519081900360640190fd5b815167ffffffffffffffff8111801561374f57600080fd5b50604051908082528060200260200182016040528015613779578160200160208202803683370190505b509050828160008151811061378a57fe5b60200260200101818152505060005b600183510381101561336e576000806137cf878685815181106137b857fe5b602002602001015187866001018151811061331a57fe5b915091506137f18484815181106137e257fe5b60200260200101518383613139565b84846001018151811061380057fe5b60209081029190910101525050600101613799565b604080516001600160a01b0385811660248301528481166044830152606480830185905283518084039091018152608490920183526020820180517bffffffffffffffffffffffffffffffffffffffffffffffffffffffff166323b872dd60e01b17815292518251600094606094938a169392918291908083835b602083106138af5780518252601f199092019160209182019101613890565b6001836020036101000a0380198251168184511680821785525050505050509050019150506000604051808303816000865af19150503d8060008114613911576040519150601f19603f3d011682016040523d82523d6000602084013e613916565b606091505b5091509150818015613944575080511580613944575080806020019051602081101561394157600080fd5b50515b61397f5760405162461bcd60e51b815260040180806020018281038252602481526020018061477c6024913960400191505060405180910390fd5b505050505050565b60005b6001835103811015613bc7576000808483815181106139a557fe5b60200260200101518584600101815181106139bc57fe5b60200260200101519150915060006139d483836140ec565b50905060008785600101815181106139e857fe5b60200260200101519050600080836001600160a01b0316866001600160a01b031614613a1657826000613a1a565b6000835b91509150600060028a51038810613a315788613a72565b613a727f0000000000000000000000000000000000000000000000000000000000000000878c8b60020181518110613a6557fe5b6020026020010151613376565b9050613a9f7f00000000000000000000000000000000000000000000000000000000000000008888613376565b6001600160a01b031663022c0d9f84848460006040519080825280601f01601f191660200182016040528015613adc576020820181803683370190505b506040518563ffffffff1660e01b815260040180858152602001848152602001836001600160a01b03166001600160a01b0316815260200180602001828103825283818151815260200191508051906020019080838360005b83811015613b4d578181015183820152602001613b35565b50505050905090810190601f168015613b7a5780820380516001836020036101000a031916815260200191505b5095505050505050600060405180830381600087803b158015613b9c57600080fd5b505af1158015613bb0573d6000803e3d6000fd5b50506001909901985061398a975050505050505050565b50505050565b60005b60018351038110156136d957600080848381518110613beb57fe5b6020026020010151858460010181518110613c0257fe5b6020026020010151915091506000613c1a83836140ec565b5090506000613c4a7f00000000000000000000000000000000000000000000000000000000000000008585613376565b9050600080600080846001600160a01b0316630902f1ac6040518163ffffffff1660e01b815260040160606040518083038186803b158015613c8b57600080fd5b505afa158015613c9f573d6000803e3d6000fd5b505050506040513d6060811015613cb557600080fd5b5080516020909101516dffffffffffffffffffffffffffff91821693501690506000806001600160a01b038a811690891614613cf2578284613cf5565b83835b91509150613d53828b6001600160a01b03166370a082318a6040518263ffffffff1660e01b815260040180826001600160a01b03166001600160a01b0316815260200191505060206040518083038186803b15801561147b57600080fd5b9550613d60868383613139565b945050505050600080856001600160a01b0316886001600160a01b031614613d8a57826000613d8e565b6000835b91509150600060028c51038a10613da5578a613dd9565b613dd97f0000000000000000000000000000000000000000000000000000000000000000898e8d60020181518110613a6557fe5b60408051600080825260208201928390527f022c0d9f00000000000000000000000000000000000000000000000000000000835260248201878152604483018790526001600160a01b038086166064850152608060848501908152845160a48601819052969750908c169563022c0d9f958a958a958a9591949193919260c486019290918190849084905b83811015613e7c578181015183820152602001613e64565b50505050905090810190601f168015613ea95780820380516001836020036101000a031916815260200191505b5095505050505050600060405180830381600087803b158015613ecb57600080fd5b505af1158015613edf573d6000803e3d6000fd5b50506001909b019a50613bd09950505050505050505050565b80820382811115610d32576040805162461bcd60e51b815260206004820152601560248201527f64732d6d6174682d7375622d756e646572666c6f770000000000000000000000604482015290519081900360640190fd5b6000808411613f905760405162461bcd60e51b815260040180806020018281038252602a81526020018061464a602a913960400191505060405180910390fd5b600083118015613fa05750600082115b613fdb5760405162461bcd60e51b81526004018080602001828103825260268152602001806147316026913960400191505060405180910390fd5b6000613fff6103e8613ff3868863ffffffff61447016565b9063ffffffff61447016565b905060006140196103e5613ff3868963ffffffff613ef816565b9050614036600182848161402957fe5b049063ffffffff6144dc16565b9695505050505050565b60008084116140805760405162461bcd60e51b815260040180806020018281038252602381526020018061470e6023913960400191505060405180910390fd5b6000831180156140905750600082115b6140cb5760405162461bcd60e51b81526004018080602001828103825260268152602001806147316026913960400191505060405180910390fd5b826140dc858463ffffffff61447016565b816140e357fe5b04949350505050565b600080826001600160a01b0316846001600160a01b031614156141405760405162461bcd60e51b81526004018080602001828103825260238152602001806146276023913960400191505060405180910390fd5b826001600160a01b0316846001600160a01b031610614160578284614163565b83835b90925090506001600160a01b0382166141c3576040805162461bcd60e51b815260206004820152601c60248201527f417263616e756d4c6962726172793a205a45524f5f4144445245535300000000604482015290519081900360640190fd5b9250929050565b604080517fe6a439050000000000000000000000000000000000000000000000000000000081526001600160a01b03888116600483015287811660248301529151600092839283927f00000000000000000000000000000000000000000000000000000000000000009092169163e6a4390591604480820192602092909190829003018186803b15801561425d57600080fd5b505afa158015614271573d6000803e3d6000fd5b505050506040513d602081101561428757600080fd5b50516001600160a01b0316141561435357604080517fc9c653960000000000000000000000000000000000000000000000000000000081526001600160a01b038a81166004830152898116602483015291517f00000000000000000000000000000000000000000000000000000000000000009092169163c9c65396916044808201926020929091908290030181600087803b15801561432657600080fd5b505af115801561433a573d6000803e3d6000fd5b505050506040513d602081101561435057600080fd5b50505b6000806143817f00000000000000000000000000000000000000000000000000000000000000008b8b614534565b91509150816000148015614393575080155b156143a357879350869250614463565b60006143b0898484614040565b905087811161440357858110156143f85760405162461bcd60e51b81526004018080602001828103825260248152602001806146036024913960400191505060405180910390fd5b889450925082614461565b6000614410898486614040565b90508981111561441c57fe5b8781101561445b5760405162461bcd60e51b81526004018080602001828103825260248152602001806146986024913960400191505060405180910390fd5b94508793505b505b5050965096945050505050565b600081158061448b5750508082028282828161448857fe5b04145b610d32576040805162461bcd60e51b815260206004820152601460248201527f64732d6d6174682d6d756c2d6f766572666c6f77000000000000000000000000604482015290519081900360640190fd5b80820182811015610d32576040805162461bcd60e51b815260206004820152601460248201527f64732d6d6174682d6164642d6f766572666c6f77000000000000000000000000604482015290519081900360640190fd5b600080600061454385856140ec565b509050600080614554888888613376565b6001600160a01b0316630902f1ac6040518163ffffffff1660e01b815260040160606040518083038186803b15801561458c57600080fd5b505afa1580156145a0573d6000803e3d6000fd5b505050506040513d60608110156145b657600080fd5b5080516020909101516dffffffffffffffffffffffffffff91821693501690506001600160a01b03878116908416146145f05780826145f3565b81815b9099909850965050505050505056fe417263616e756d526f757465723a20494e53554646494349454e545f425f414d4f554e54417263616e756d4c6962726172793a204944454e544943414c5f414444524553534553417263616e756d4c6962726172793a20494e53554646494349454e545f4f55545055545f414d4f554e545472616e7366657248656c7065723a20415641585f5452414e534645525f4641494c4544417263616e756d526f757465723a20494e53554646494349454e545f415f414d4f554e54417263616e756d4c6962726172793a20494e53554646494349454e545f494e5055545f414d4f554e54417263616e756d526f757465723a20494e53554646494349454e545f4f55545055545f414d4f554e54417263616e756d4c6962726172793a20494e53554646494349454e545f414d4f554e54417263616e756d4c6962726172793a20494e53554646494349454e545f4c4951554944495459417263616e756d526f757465723a204558434553534956455f494e5055545f414d4f554e545472616e7366657248656c7065723a205452414e534645525f46524f4d5f4641494c4544a26469706673582212201cef87bbb8180b63ff4a93417287950f37afa4816b1d8d2cb7277de50a0a0ed864736f6c63430006060033",
  "linkReferences": {},
  "deployedLinkReferences": {}
}