{
  "_format": "hh-sol-artifact-1",
  "contractName": "TokenMetadata",
  "sourceName": "contracts/staking-positions/TokenMetadata.sol",
  "abi": [
    {
      "inputs": [
        {
          "internalType": "address",
          "name": "newAdmin",
          "type": "address"
        },
        {
          "internalType": "string",
          "name": "newTokenSymbol",
          "type": "string"
        }
      ],
      "stateMutability": "nonpayable",
      "type": "constructor"
    },
    {
      "anonymous": false,
      "inputs": [
        {
          "indexed": true,
          "internalType": "bytes32",
          "name": "role",
          "type": "bytes32"
        },
        {
          "indexed": true,
          "internalType": "bytes32",
          "name": "previousAdminRole",
          "type": "bytes32"
        },
        {
          "indexed": true,
          "internalType": "bytes32",
          "name": "newAdminRole",
          "type": "bytes32"
        }
      ],
      "name": "RoleAdminChanged",
      "type": "event"
    },
    {
      "anonymous": false,
      "inputs": [
        {
          "indexed": true,
          "internalType": "bytes32",
          "name": "role",
          "type": "bytes32"
        },
        {
          "indexed": true,
          "internalType": "address",
          "name": "account",
          "type": "address"
        },
        {
          "indexed": true,
          "internalType": "address",
          "name": "sender",
          "type": "address"
        }
      ],
      "name": "RoleGranted",
      "type": "event"
    },
    {
      "anonymous": false,
      "inputs": [
        {
          "indexed": true,
          "internalType": "bytes32",
          "name": "role",
          "type": "bytes32"
        },
        {
          "indexed": true,
          "internalType": "address",
          "name": "account",
          "type": "address"
        },
        {
          "indexed": true,
          "internalType": "address",
          "name": "sender",
          "type": "address"
        }
      ],
      "name": "RoleRevoked",
      "type": "event"
    },
    {
      "inputs": [],
      "name": "DEFAULT_ADMIN_ROLE",
      "outputs": [
        {
          "internalType": "bytes32",
          "name": "",
          "type": "bytes32"
        }
      ],
      "stateMutability": "view",
      "type": "function"
    },
    {
      "inputs": [],
      "name": "METADATA_ROLE",
      "outputs": [
        {
          "internalType": "bytes32",
          "name": "",
          "type": "bytes32"
        }
      ],
      "stateMutability": "view",
      "type": "function"
    },
    {
      "inputs": [],
      "name": "boldFontUri",
      "outputs": [
        {
          "internalType": "string",
          "name": "",
          "type": "string"
        }
      ],
      "stateMutability": "view",
      "type": "function"
    },
    {
      "inputs": [],
      "name": "description",
      "outputs": [
        {
          "internalType": "string",
          "name": "",
          "type": "string"
        }
      ],
      "stateMutability": "view",
      "type": "function"
    },
    {
      "inputs": [],
      "name": "externalUri",
      "outputs": [
        {
          "internalType": "string",
          "name": "",
          "type": "string"
        }
      ],
      "stateMutability": "view",
      "type": "function"
    },
    {
      "inputs": [
        {
          "internalType": "bytes32",
          "name": "role",
          "type": "bytes32"
        }
      ],
      "name": "getRoleAdmin",
      "outputs": [
        {
          "internalType": "bytes32",
          "name": "",
          "type": "bytes32"
        }
      ],
      "stateMutability": "view",
      "type": "function"
    },
    {
      "inputs": [
        {
          "internalType": "bytes32",
          "name": "role",
          "type": "bytes32"
        },
        {
          "internalType": "uint256",
          "name": "index",
          "type": "uint256"
        }
      ],
      "name": "getRoleMember",
      "outputs": [
        {
          "internalType": "address",
          "name": "",
          "type": "address"
        }
      ],
      "stateMutability": "view",
      "type": "function"
    },
    {
      "inputs": [
        {
          "internalType": "bytes32",
          "name": "role",
          "type": "bytes32"
        }
      ],
      "name": "getRoleMemberCount",
      "outputs": [
        {
          "internalType": "uint256",
          "name": "",
          "type": "uint256"
        }
      ],
      "stateMutability": "view",
      "type": "function"
    },
    {
      "inputs": [
        {
          "internalType": "bytes32",
          "name": "role",
          "type": "bytes32"
        },
        {
          "internalType": "address",
          "name": "account",
          "type": "address"
        }
      ],
      "name": "grantRole",
      "outputs": [],
      "stateMutability": "nonpayable",
      "type": "function"
    },
    {
      "inputs": [
        {
          "internalType": "bytes32",
          "name": "role",
          "type": "bytes32"
        },
        {
          "internalType": "address",
          "name": "account",
          "type": "address"
        }
      ],
      "name": "hasRole",
      "outputs": [
        {
          "internalType": "bool",
          "name": "",
          "type": "bool"
        }
      ],
      "stateMutability": "view",
      "type": "function"
    },
    {
      "inputs": [],
      "name": "imageBaseUri",
      "outputs": [
        {
          "internalType": "string",
          "name": "",
          "type": "string"
        }
      ],
      "stateMutability": "view",
      "type": "function"
    },
    {
      "inputs": [],
      "name": "imageExtension",
      "outputs": [
        {
          "internalType": "string",
          "name": "",
          "type": "string"
        }
      ],
      "stateMutability": "view",
      "type": "function"
    },
    {
      "inputs": [],
      "name": "regularFontUri",
      "outputs": [
        {
          "internalType": "string",
          "name": "",
          "type": "string"
        }
      ],
      "stateMutability": "view",
      "type": "function"
    },
    {
      "inputs": [
        {
          "internalType": "bytes32",
          "name": "role",
          "type": "bytes32"
        },
        {
          "internalType": "address",
          "name": "account",
          "type": "address"
        }
      ],
      "name": "renounceRole",
      "outputs": [],
      "stateMutability": "nonpayable",
      "type": "function"
    },
    {
      "inputs": [
        {
          "internalType": "bytes32",
          "name": "role",
          "type": "bytes32"
        },
        {
          "internalType": "address",
          "name": "account",
          "type": "address"
        }
      ],
      "name": "revokeRole",
      "outputs": [],
      "stateMutability": "nonpayable",
      "type": "function"
    },
    {
      "inputs": [
        {
          "internalType": "string",
          "name": "newDescription",
          "type": "string"
        }
      ],
      "name": "setDescription",
      "outputs": [],
      "stateMutability": "nonpayable",
      "type": "function"
    },
    {
      "inputs": [
        {
          "internalType": "string",
          "name": "newExternalUri",
          "type": "string"
        }
      ],
      "name": "setExternalUri",
      "outputs": [],
      "stateMutability": "nonpayable",
      "type": "function"
    },
    {
      "inputs": [
        {
          "internalType": "string",
          "name": "newRegularFontUri",
          "type": "string"
        },
        {
          "internalType": "string",
          "name": "newBoldFontUri",
          "type": "string"
        }
      ],
      "name": "setFont",
      "outputs": [],
      "stateMutability": "nonpayable",
      "type": "function"
    },
    {
      "inputs": [
        {
          "internalType": "string",
          "name": "newImageBaseUri",
          "type": "string"
        },
        {
          "internalType": "string",
          "name": "newImageExtension",
          "type": "string"
        }
      ],
      "name": "setImage",
      "outputs": [],
      "stateMutability": "nonpayable",
      "type": "function"
    },
    {
      "inputs": [
        {
          "internalType": "bytes1",
          "name": "newThousandSeparator",
          "type": "bytes1"
        }
      ],
      "name": "setThousandSeparator",
      "outputs": [],
      "stateMutability": "nonpayable",
      "type": "function"
    },
    {
      "inputs": [
        {
          "internalType": "bytes4",
          "name": "interfaceId",
          "type": "bytes4"
        }
      ],
      "name": "supportsInterface",
      "outputs": [
        {
          "internalType": "bool",
          "name": "",
          "type": "bool"
        }
      ],
      "stateMutability": "view",
      "type": "function"
    },
    {
      "inputs": [],
      "name": "thousandSeparator",
      "outputs": [
        {
          "internalType": "bytes1",
          "name": "",
          "type": "bytes1"
        }
      ],
      "stateMutability": "view",
      "type": "function"
    },
    {
      "inputs": [],
      "name": "tokenSymbol",
      "outputs": [
        {
          "internalType": "string",
          "name": "",
          "type": "string"
        }
      ],
      "stateMutability": "view",
      "type": "function"
    },
    {
      "inputs": [
        {
          "internalType": "contract IArcanumStakingPositions",
          "name": "arcanumStakingPositions",
          "type": "address"
        },
        {
          "internalType": "uint256",
          "name": "positionId",
          "type": "uint256"
        }
      ],
      "name": "tokenURI",
      "outputs": [
        {
          "internalType": "string",
          "name": "",
          "type": "string"
        }
      ],
      "stateMutability": "view",
      "type": "function"
    }
  ],
  "bytecode": "0x6101c060405260006080908152610a9e60a052611cdd60c052614e7660e05261d54661010052620243bd61012052620627e5610140526210bbb961016052622d7c5e61018052627ba4ac6101a0526200005d90600290600a62000361565b50600c805460ff1916602c1790556040805160e0810190915260a7808252620030606020830139600d9062000093908262000466565b5060405180606001604052806026815260200162002ff260269139600e90620000bd908262000466565b5060405180608001604052806044815260200162002fae60449139600f90620000e7908262000466565b50604051806080016040528060488152602001620030186048913960109062000111908262000466565b506040518060600160405280602d815260200162002f81602d91396011906200013b908262000466565b506040805180820190915260048152632e706e6760e01b602082015260129062000166908262000466565b503480156200017457600080fd5b506040516200310738038062003107833981016040819052620001979162000532565b6001600160a01b038216620001ab57600080fd5b620001b86000836200020b565b620001e47f6bd6b5318a46e5fff572d5e4258a20774aab40cc35ac7680654b9081fcc82f80836200020b565b602081511115620001f457600080fd5b601362000202828262000466565b50505062000632565b6200022282826200024e60201b62000aa91760201c565b60008281526001602090815260409091206200024991839062000b47620002ef821b17901c565b505050565b6000828152602081815260408083206001600160a01b038516845290915290205460ff16620002eb576000828152602081815260408083206001600160a01b03851684529091529020805460ff19166001179055620002aa3390565b6001600160a01b0316816001600160a01b0316837f2f8788117e7eff1d82e926ec794901d17c78024a50270940304540a733656f0d60405160405180910390a45b5050565b600062000306836001600160a01b0384166200030f565b90505b92915050565b6000818152600183016020526040812054620003585750815460018181018455600084815260208082209093018490558454848252828601909352604090209190915562000309565b50600062000309565b82600a810192821562000399579160200282015b8281111562000399578251829062ffffff1690559160200191906001019062000375565b50620003a7929150620003ab565b5090565b5b80821115620003a75760008155600101620003ac565b634e487b7160e01b600052604160045260246000fd5b600181811c90821680620003ed57607f821691505b6020821081036200040e57634e487b7160e01b600052602260045260246000fd5b50919050565b601f8211156200024957600081815260208120601f850160051c810160208610156200043d5750805b601f850160051c820191505b818110156200045e5782815560010162000449565b505050505050565b81516001600160401b03811115620004825762000482620003c2565b6200049a81620004938454620003d8565b8462000414565b602080601f831160018114620004d25760008415620004b95750858301515b600019600386901b1c1916600185901b1785556200045e565b600085815260208120601f198616915b828110156200050357888601518255948401946001909101908401620004e2565b5085821015620005225787850151600019600388901b60f8161c191681555b5050505050600190811b01905550565b600080604083850312156200054657600080fd5b82516001600160a01b03811681146200055e57600080fd5b602084810151919350906001600160401b03808211156200057e57600080fd5b818601915086601f8301126200059357600080fd5b815181811115620005a857620005a8620003c2565b604051601f8201601f19908116603f01168101908382118183101715620005d357620005d3620003c2565b816040528281528986848701011115620005ec57600080fd5b600093505b82841015620006105784840186015181850187015292850192620005f1565b82841115620006225760008684830101525b8096505050505050509250929050565b61293f80620006426000396000f3fe608060405234801561001057600080fd5b50600436106101985760003560e01c80639010d07c116100e3578063a9ef3aeb1161008c578063d547741f11610066578063d547741f1461039c578063e89e6075146103af578063e9dc6375146103b757600080fd5b8063a9ef3aeb1461036e578063c4e1750b14610376578063ca15c8731461038957600080fd5b806396a3be7a116100bd57806396a3be7a14610340578063a217fddf14610353578063a33eb2eb1461035b57600080fd5b80639010d07c146102cb57806390c3f38f146102f657806391d148541461030957600080fd5b8063364a9b5f116101455780634c226e9b1161011f5780634c226e9b146102b35780637284e416146102bb5780637b61c320146102c357600080fd5b8063364a9b5f1461027157806336568abe14610279578063388417821461028c57600080fd5b8063248a9ca311610176578063248a9ca3146102185780632c9ea242146102495780632f2ff15d1461025e57600080fd5b806301ffc9a71461019d5780630dde8d27146101c55780631bf671c214610203575b600080fd5b6101b06101ab3660046116e0565b6103ca565b60405190151581526020015b60405180910390f35b600c546101d29060f81b81565b6040517fff0000000000000000000000000000000000000000000000000000000000000090911681526020016101bc565b610216610211366004611811565b610426565b005b61023b610226366004611846565b60009081526020819052604090206001015490565b6040519081526020016101bc565b610251610461565b6040516101bc919061188b565b61021661026c3660046118d3565b6104ef565b610251610514565b6102166102873660046118d3565b610521565b61023b7f6bd6b5318a46e5fff572d5e4258a20774aab40cc35ac7680654b9081fcc82f8081565b6102516105b2565b6102516105bf565b6102516105cc565b6102de6102d9366004611903565b6105d9565b6040516001600160a01b0390911681526020016101bc565b610216610304366004611811565b6105f8565b6101b06103173660046118d3565b6000918252602082815260408084206001600160a01b0393909316845291905290205460ff1690565b61021661034e366004611925565b61062e565b61023b600081565b610216610369366004611989565b610677565b6102516106b8565b610216610384366004611925565b6106c5565b61023b610397366004611846565b610708565b6102166103aa3660046118d3565b61071f565b610251610744565b6102516103c53660046119cb565b610751565b60007fffffffff0000000000000000000000000000000000000000000000000000000082167f5a05180f000000000000000000000000000000000000000000000000000000001480610420575061042082610b5c565b92915050565b7f6bd6b5318a46e5fff572d5e4258a20774aab40cc35ac7680654b9081fcc82f8061045081610bf3565b600e61045c8382611a7f565b505050565b6011805461046e906119f7565b80601f016020809104026020016040519081016040528092919081815260200182805461049a906119f7565b80156104e75780601f106104bc576101008083540402835291602001916104e7565b820191906000526020600020905b8154815290600101906020018083116104ca57829003601f168201915b505050505081565b60008281526020819052604090206001015461050a81610bf3565b61045c8383610c00565b6010805461046e906119f7565b6001600160a01b03811633146105a45760405162461bcd60e51b815260206004820152602f60248201527f416363657373436f6e74726f6c3a2063616e206f6e6c792072656e6f756e636560448201527f20726f6c657320666f722073656c66000000000000000000000000000000000060648201526084015b60405180910390fd5b6105ae8282610c22565b5050565b600f805461046e906119f7565b600d805461046e906119f7565b6013805461046e906119f7565b60008281526001602052604081206105f19083610c44565b9392505050565b7f6bd6b5318a46e5fff572d5e4258a20774aab40cc35ac7680654b9081fcc82f8061062281610bf3565b600d61045c8382611a7f565b7f6bd6b5318a46e5fff572d5e4258a20774aab40cc35ac7680654b9081fcc82f8061065881610bf3565b600f6106648482611a7f565b5060106106718382611a7f565b50505050565b7f6bd6b5318a46e5fff572d5e4258a20774aab40cc35ac7680654b9081fcc82f806106a181610bf3565b50600c805460ff191660f89290921c919091179055565b6012805461046e906119f7565b7f6bd6b5318a46e5fff572d5e4258a20774aab40cc35ac7680654b9081fcc82f806106ef81610bf3565b60116106fb8482611a7f565b5060126106718382611a7f565b600081815260016020526040812061042090610c50565b60008281526020819052604090206001015461073a81610bf3565b61045c8383610c22565b600e805461046e906119f7565b6040517f99fbab88000000000000000000000000000000000000000000000000000000008152600481018290526060906000906001600160a01b038516906399fbab889060240160e060405180830381865afa1580156107b5573d6000803e3d6000fd5b505050506040513d601f19601f820116820180604052508101906107d99190611b95565b5180519091506bffffffffffffffffffffffff1660008115610813578183602001516001600160a01b031661080e9190611c75565b610815565b425b9050600082156108cb576040517f468cc41e0000000000000000000000000000000000000000000000000000000081526004810187905283906001600160a01b0389169063468cc41e90602401602060405180830381865afa15801561087f573d6000803e3d6000fd5b505050506040513d601f19601f820116820180604052508101906108a39190611c89565b6108b1906301e13380611ca2565b6108bc906064611ca2565b6108c69190611c75565b6108ce565b60005b90506000610949886001600160a01b031663496cea98896040518263ffffffff1660e01b815260040161090391815260200190565b602060405180830381865afa158015610920573d6000803e3d6000fd5b505050506040513d601f19601f820116820180604052508101906109449190611c89565b610c5a565b905061095484610c5a565b9350600061096485610194610cb1565b9050600061097d6109758642611cc1565b612580610cb1565b905060606000600f6010604051602001610998929190611d4b565b604051602081830303815290604052905060006109b58585610e1c565b60136109c08b610e5e565b6109c98a610e5e565b60136109d48b610e5e565b6040516020016109e9969594939291906120a8565b6040516020818303038152906040529050610a248282604051602001610a109291906123ef565b604051602081830303815290604052611009565b925050506060610a76610a368c61115c565b600d600e610a438c61115c565b610a4c8c61115c565b610a558a61115c565b610a5e8a61115c565b89604051602001610a1098979695949392919061241e565b905080604051602001610a899190612733565b604051602081830303815290604052995050505050505050505092915050565b6000828152602081815260408083206001600160a01b038516845290915290205460ff166105ae576000828152602081815260408083206001600160a01b03851684529091529020805460ff19166001179055610b033390565b6001600160a01b0316816001600160a01b0316837f2f8788117e7eff1d82e926ec794901d17c78024a50270940304540a733656f0d60405160405180910390a45050565b60006105f1836001600160a01b038416611281565b60007fffffffff0000000000000000000000000000000000000000000000000000000082167f7965db0b00000000000000000000000000000000000000000000000000000000148061042057507f01ffc9a7000000000000000000000000000000000000000000000000000000007fffffffff00000000000000000000000000000000000000000000000000000000831614610420565b610bfd81336112d0565b50565b610c0a8282610aa9565b600082815260016020526040902061045c9082610b47565b610c2c828261134e565b600082815260016020526040902061045c90826113cd565b60006105f183836113e2565b6000610420825490565b60006706f05b59d3b20000610c77670de0b6b3a764000084612778565b1015610c9457610c8f670de0b6b3a764000083611c75565b610420565b610ca6670de0b6b3a764000083611c75565b61042090600161278c565b600b54600090610cc2908390611ca2565b610cce6103e885611ca2565b10610cdb57506009610420565b600a54610ce9908390611ca2565b610cf56103e885611ca2565b10610d0257506008610420565b600954610d10908390611ca2565b610d1c6103e885611ca2565b10610d2957506007610420565b600854610d37908390611ca2565b610d436103e885611ca2565b10610d5057506006610420565b600754610d5e908390611ca2565b610d6a6103e885611ca2565b10610d7757506005610420565b600654610d85908390611ca2565b610d916103e885611ca2565b10610d9e57506004610420565b600554610dac908390611ca2565b610db86103e885611ca2565b10610dc557506003610420565b600454610dd3908390611ca2565b610ddf6103e885611ca2565b10610dec57506002610420565b600354610dfa908390611ca2565b610e066103e885611ca2565b10610e1357506001610420565b50600092915050565b60606011610e298461115c565b610e328461115c565b6012604051602001610e4794939291906127ba565b604051602081830303815290604052905092915050565b60606000610e6b8361115c565b805190915060006003821115610e97576003610e88600184611cc1565b610e929190611c75565b610e9a565b60005b90506000610ea9600384612778565b9050600080610eb8848661278c565b67ffffffffffffffff811115610ed057610ed0611722565b6040519080825280601f01601f191660200182016040528015610efa576020820181803683370190505b50905060005b85811015610ffd578015801590610f175750838110155b8015610f2c575083610f2a600383612778565b145b15610f8257610f3a83612801565b600c5490935060f81b826001610f50868561278c565b610f5a9190611cc1565b81518110610f6a57610f6a6127a4565b60200101906001600160f81b031916908160001a9053505b868181518110610f9457610f946127a4565b01602001517fff000000000000000000000000000000000000000000000000000000000000001682610fc6858461278c565b81518110610fd657610fd66127a4565b60200101906001600160f81b031916908160001a905350610ff681612801565b9050610f00565b50979650505050505050565b6060815160000361102857505060408051602081019091526000815290565b60006040518060600160405280604081526020016128ca6040913990506000600384516002611057919061278c565b6110619190611c75565b61106c906004611ca2565b67ffffffffffffffff81111561108457611084611722565b6040519080825280601f01601f1916602001820160405280156110ae576020820181803683370190505b509050600182016020820185865187015b8082101561111a576003820191508151603f8160121c168501518453600184019350603f81600c1c168501518453600184019350603f8160061c168501518453600184019350603f81168501518453506001830192506110bf565b5050600386510660018114611136576002811461114957611151565b603d6001830353603d6002830353611151565b603d60018303535b509195945050505050565b60608160000361119f57505060408051808201909152600181527f3000000000000000000000000000000000000000000000000000000000000000602082015290565b8160005b81156111c957806111b381612801565b91506111c29050600a83611c75565b91506111a3565b60008167ffffffffffffffff8111156111e4576111e4611722565b6040519080825280601f01601f19166020018201604052801561120e576020820181803683370190505b5090505b841561127957611223600183611cc1565b9150611230600a86612778565b61123b90603061278c565b60f81b818381518110611250576112506127a4565b60200101906001600160f81b031916908160001a905350611272600a86611c75565b9450611212565b949350505050565b60008181526001830160205260408120546112c857508154600181810184556000848152602080822090930184905584548482528286019093526040902091909155610420565b506000610420565b6000828152602081815260408083206001600160a01b038516845290915290205460ff166105ae5761130c816001600160a01b0316601461140c565b61131783602061140c565b60405160200161132892919061281b565b60408051601f198184030181529082905262461bcd60e51b825261059b9160040161188b565b6000828152602081815260408083206001600160a01b038516845290915290205460ff16156105ae576000828152602081815260408083206001600160a01b0385168085529252808320805460ff1916905551339285917ff6391f5c32d9c69d2a47ea670b442974b53935d1edc7fd64eb21e047a839171b9190a45050565b60006105f1836001600160a01b0384166115ed565b60008260000182815481106113f9576113f96127a4565b9060005260206000200154905092915050565b6060600061141b836002611ca2565b61142690600261278c565b67ffffffffffffffff81111561143e5761143e611722565b6040519080825280601f01601f191660200182016040528015611468576020820181803683370190505b5090507f30000000000000000000000000000000000000000000000000000000000000008160008151811061149f5761149f6127a4565b60200101906001600160f81b031916908160001a9053507f7800000000000000000000000000000000000000000000000000000000000000816001815181106114ea576114ea6127a4565b60200101906001600160f81b031916908160001a905350600061150e846002611ca2565b61151990600161278c565b90505b600181111561159e577f303132333435363738396162636465660000000000000000000000000000000085600f166010811061155a5761155a6127a4565b1a60f81b828281518110611570576115706127a4565b60200101906001600160f81b031916908160001a90535060049490941c936115978161289c565b905061151c565b5083156105f15760405162461bcd60e51b815260206004820181905260248201527f537472696e67733a20686578206c656e67746820696e73756666696369656e74604482015260640161059b565b600081815260018301602052604081205480156116d6576000611611600183611cc1565b855490915060009061162590600190611cc1565b905081811461168a576000866000018281548110611645576116456127a4565b9060005260206000200154905080876000018481548110611668576116686127a4565b6000918252602080832090910192909255918252600188019052604090208390555b855486908061169b5761169b6128b3565b600190038181906000526020600020016000905590558560010160008681526020019081526020016000206000905560019350505050610420565b6000915050610420565b6000602082840312156116f257600080fd5b81357fffffffff00000000000000000000000000000000000000000000000000000000811681146105f157600080fd5b634e487b7160e01b600052604160045260246000fd5b6040805190810167ffffffffffffffff8111828210171561175b5761175b611722565b60405290565b60405160a0810167ffffffffffffffff8111828210171561175b5761175b611722565b600082601f83011261179557600080fd5b813567ffffffffffffffff808211156117b0576117b0611722565b604051601f8301601f19908116603f011681019082821181831017156117d8576117d8611722565b816040528381528660208588010111156117f157600080fd5b836020870160208301376000602085830101528094505050505092915050565b60006020828403121561182357600080fd5b813567ffffffffffffffff81111561183a57600080fd5b61127984828501611784565b60006020828403121561185857600080fd5b5035919050565b60005b8381101561187a578181015183820152602001611862565b838111156106715750506000910152565b60208152600082518060208401526118aa81604085016020870161185f565b601f01601f19169190910160400192915050565b6001600160a01b0381168114610bfd57600080fd5b600080604083850312156118e657600080fd5b8235915060208301356118f8816118be565b809150509250929050565b6000806040838503121561191657600080fd5b50508035926020909101359150565b6000806040838503121561193857600080fd5b823567ffffffffffffffff8082111561195057600080fd5b61195c86838701611784565b9350602085013591508082111561197257600080fd5b5061197f85828601611784565b9150509250929050565b60006020828403121561199b57600080fd5b81357fff00000000000000000000000000000000000000000000000000000000000000811681146105f157600080fd5b600080604083850312156119de57600080fd5b82356119e9816118be565b946020939093013593505050565b600181811c90821680611a0b57607f821691505b602082108103611a2b57634e487b7160e01b600052602260045260246000fd5b50919050565b601f82111561045c57600081815260208120601f850160051c81016020861015611a585750805b601f850160051c820191505b81811015611a7757828155600101611a64565b505050505050565b815167ffffffffffffffff811115611a9957611a99611722565b611aad81611aa784546119f7565b84611a31565b602080601f831160018114611ae25760008415611aca5750858301515b600019600386901b1c1916600185901b178555611a77565b600085815260208120601f198616915b82811015611b1157888601518255948401946001909101908401611af2565b5085821015611b2f5787850151600019600388901b60f8161c191681555b5050505050600190811b01905550565b8051611b4a816118be565b919050565b600060408284031215611b6157600080fd5b611b69611738565b9050815181526020820151602082015292915050565b805165ffffffffffff81168114611b4a57600080fd5b600081830360e0811215611ba857600080fd5b611bb0611761565b6040821215611bbe57600080fd5b611bc6611738565b915083516bffffffffffffffffffffffff81168114611be457600080fd5b82526020840151611bf4816118be565b6020830152818152611c098560408601611b4f565b6020820152611c1a60808501611b3f565b6040820152611c2b60a08501611b7f565b6060820152611c3c60c08501611b7f565b6080820152949350505050565b634e487b7160e01b600052601260045260246000fd5b634e487b7160e01b600052601160045260246000fd5b600082611c8457611c84611c49565b500490565b600060208284031215611c9b57600080fd5b5051919050565b6000816000190483118215151615611cbc57611cbc611c5f565b500290565b600082821015611cd357611cd3611c5f565b500390565b60008154611ce5816119f7565b60018281168015611cfd5760018114611d1257611d41565b60ff1984168752821515830287019450611d41565b8560005260208060002060005b85811015611d385781548a820152908401908201611d1f565b50505082870194505b5050505092915050565b7f3c7376672077696474683d2236363322206865696768743d223130383022207681527f696577626f783d223020302036363320313038302220786d6c6e733d2268747460208201527f703a2f2f7777772e77332e6f72672f323030302f7376672220786d6c6e733a7860408201527f6c696e6b3d22687474703a2f2f7777772e77332e6f72672f313939392f786c6960608201527f6e6b223e203c7374796c6520747970653d22746578742f637373223e2040666f60808201527f6e742d66616365207b20666f6e742d66616d696c793a2022506f7070696e732260a08201527f3b207372633a2075726c2800000000000000000000000000000000000000000060c08201526000611e6160cb830185611cd8565b7f2920666f726d61742822776f66663222293b207d2040666f6e742d666163652081527f7b20666f6e742d66616d696c793a2022506f7070696e73223b20666f6e742d7760208201527f65696768743a20626f6c643b207372633a2075726c28000000000000000000006040820152611edd6056820185611cd8565b7f2920666f726d61742822776f66663222293b207d2074657874207b20636f6c6f81527f723a233161316131613b20666f6e742d66616d696c793a506f7070696e732c2060208201527f73616e732d73657269663b20666f6e742d73697a653a32342e373370783b207d60408201527f202e646174615f7370616e207b20666f6e742d7765696768743a626f6c643b2060608201527f666f6e742d73697a653a33372e30397078207d202e746578745f626f74746f6d60808201527f202e696e666f5f7370616e207b20666f6e742d73697a653a2032382e3831707860a08201527f207d202e746578745f626f74746f6d202e646174615f7370616e207b20666f6e60c08201527f742d73697a653a2034332e32317078207d203c2f7374796c653e203c696d616760e08201527f65207072657365727665417370656374526174696f3d22784d6964594d6964206101008201527f736c696365222077696474683d223130302522206865696768743d22313030256101208201527f2220786c696e6b3a687265663d2200000000000000000000000000000000000061014082015261014e0195945050505050565b6000815161209e81856020860161185f565b9290920192915050565b600087516120ba818460208c0161185f565b7f223e3c2f696d6167653e203c7465787420783d2232372e332220793d2235342e9083019081527f392220746578742d616e63686f723d2273746172742220636c6173733d22746560208201527f78745f746f70223e3c747370616e20636c6173733d22696e666f5f7370616e2260408201527f3e262333363b000000000000000000000000000000000000000000000000000060608201526121606066820189611cd8565b90507f3a203c2f747370616e3e3c747370616e20636c6173733d22646174615f73706181527f6e223e0000000000000000000000000000000000000000000000000000000000602082015286516121be816023840160208b0161185f565b7f3c2f747370616e3e3c2f746578743e203c7465787420783d223633352e372220602392909101918201527f793d2235342e392220746578742d616e63686f723d22656e642220636c61737360438201527f3d22746578745f746f70223e3c747370616e20636c6173733d22696e666f5f7360638201527f70616e223e4150523a203c2f747370616e3e3c747370616e20636c6173733d2260838201527f646174615f7370616e223e00000000000000000000000000000000000000000060a38201526123e26123b96123b361238a61238461229d60ae87018c61208c565b7f253c2f747370616e3e3c2f746578743e203c7465787420783d223333312e352281527f20793d22313030312e39372220746578742d616e63686f723d226d6964646c6560208201527f2220636c6173733d22746578745f626f74746f6d223e3c747370616e20636c6160408201527f73733d22696e666f5f7370616e223e4541524e45443a203c2f747370616e3e3c60608201527f747370616e20636c6173733d22646174615f7370616e2220783d223333312e3560808201527f222064793d2235312e3835223e262333363b000000000000000000000000000060a082015260b20190565b89611cd8565b7f2000000000000000000000000000000000000000000000000000000000000000815260010190565b8661208c565b7f3c2f747370616e3e3c2f746578743e203c2f7376673e00000000000000000000815260160190565b9998505050505050505050565b6000835161240181846020880161185f565b83519083019061241581836020880161185f565b01949350505050565b7f7b226e616d65223a22417263616e756d205374616b696e6720506f736974696f81527f6e2023000000000000000000000000000000000000000000000000000000000060208201526000895161247c816023850160208e0161185f565b7f222c226465736372697074696f6e223a220000000000000000000000000000006023918401918201526124b3603482018b611cd8565b90507f222c2265787465726e616c5f75726c223a22000000000000000000000000000081526124e5601282018a611cd8565b90507f222c2261747472696275746573223a5b7b2274726169745f74797065223a224281527f616c616e6365222c2276616c7565223a0000000000000000000000000000000060208201528751612543816030840160208c0161185f565b7f7d2c7b22646973706c61795f74797065223a2264617465222c2274726169745f603092909101918201527f74797065223a22456e7472792054696d65222c2276616c7565223a000000000060508201526127246126fb6123b36126ac6126a661263161262b6125b6606b89018f61208c565b7f7d2c7b22646973706c61795f74797065223a226e756d626572222c226d61785f81527f76616c7565223a2239222c2274726169745f74797065223a2242616c616e636560208201527f204c6576656c222c2276616c7565223a00000000000000000000000000000000604082015260500190565b8c61208c565b7f7d2c7b22646973706c61795f74797065223a226e756d626572222c226d61785f81527f76616c7565223a2239222c2274726169745f74797065223a224475726174696f60208201527f6e204c6576656c222c2276616c7565223a000000000000000000000000000000604082015260510190565b8961208c565b7f7d5d2c22696d616765223a22646174613a696d6167652f7376672b786d6c3b6281527f61736536342c0000000000000000000000000000000000000000000000000000602082015260260190565b7f227d0a0000000000000000000000000000000000000000000000000000000000815260030190565b9b9a5050505050505050505050565b7f646174613a6170706c69636174696f6e2f6a736f6e3b6261736536342c00000081526000825161276b81601d85016020870161185f565b91909101601d0192915050565b60008261278757612787611c49565b500690565b6000821982111561279f5761279f611c5f565b500190565b634e487b7160e01b600052603260045260246000fd5b60006127c68287611cd8565b85516127d6818360208a0161185f565b85519101906127e981836020890161185f565b6127f581830186611cd8565b98975050505050505050565b6000600019820361281457612814611c5f565b5060010190565b7f416363657373436f6e74726f6c3a206163636f756e742000000000000000000081526000835161285381601785016020880161185f565b7f206973206d697373696e6720726f6c6520000000000000000000000000000000601791840191820152835161289081602884016020880161185f565b01602801949350505050565b6000816128ab576128ab611c5f565b506000190190565b634e487b7160e01b600052603160045260246000fdfe4142434445464748494a4b4c4d4e4f505152535455565758595a6162636465666768696a6b6c6d6e6f707172737475767778797a303132333435363738392b2fa26469706673582212208faf4a38439690afe633994323680950adb74bb28a4c135457d03ae5e91835d564736f6c634300080f003368747470733a2f2f7374617469632e70616e676f6c696e2e65786368616e67652f70616e677561726469616e2f68747470733a2f2f666f6e74732e677374617469632e636f6d2f732f706f7070696e732f7632302f707869457970386b76384a48674656724a4a666563672e776f66663268747470733a2f2f6170702e617263616e756d2e65786368616e67652f232f7374616b65763268747470733a2f2f666f6e74732e677374617469632e636f6d2f732f706f7070696e732f7632302f707869427970386b76384a48674656724c437a375a31786c46512e776f66663254686973204e46542070657270657475616c6c79207265636569766573207368617265206f662074686520726576656e75652067656e65726174656420627920417263616e756d2e20546865207368617265206f662074686520706f736974696f6e20697320706f7369746976656c7920636f7272656c6174656420746f20697473207374616b65642062616c616e636520616e64207374616b696e67206475726174696f6e2e",
  "linkReferences": {},
  "deployedLinkReferences": {}
}