{
  "_format": "hh-sol-artifact-1",
  "contractName": "RewarderViaMultiplierForArcanaChef",
  "sourceName": "contracts/staking-positions/RewarderViaMultiplierForArcanaChef.sol",
  "abi": [
    {
      "inputs": [
        {
          "internalType": "contract IERC20[]",
          "name": "_rewardTokens",
          "type": "address[]"
        },
        {
          "internalType": "uint256[]",
          "name": "_rewardMultipliers",
          "type": "uint256[]"
        },
        {
          "internalType": "uint256",
          "name": "_baseRewardTokenDecimals",
          "type": "uint256"
        },
        {
          "internalType": "address",
          "name": "_chefV2",
          "type": "address"
        }
      ],
      "stateMutability": "nonpayable",
      "type": "constructor"
    },
    {
      "inputs": [],
      "name": "getRewardMultipliers",
      "outputs": [
        {
          "internalType": "uint256[]",
          "name": "",
          "type": "uint256[]"
        }
      ],
      "stateMutability": "view",
      "type": "function"
    },
    {
      "inputs": [],
      "name": "getRewardTokens",
      "outputs": [
        {
          "internalType": "contract IERC20[]",
          "name": "",
          "type": "address[]"
        }
      ],
      "stateMutability": "view",
      "type": "function"
    },
    {
      "inputs": [
        {
          "internalType": "uint256",
          "name": "",
          "type": "uint256"
        },
        {
          "internalType": "address",
          "name": "user",
          "type": "address"
        },
        {
          "internalType": "bool",
          "name": "destructiveAction",
          "type": "bool"
        },
        {
          "internalType": "uint256",
          "name": "rewardAmount",
          "type": "uint256"
        },
        {
          "internalType": "uint256",
          "name": "",
          "type": "uint256"
        }
      ],
      "name": "onReward",
      "outputs": [],
      "stateMutability": "nonpayable",
      "type": "function"
    },
    {
      "inputs": [
        {
          "internalType": "uint256",
          "name": "",
          "type": "uint256"
        },
        {
          "internalType": "address",
          "name": "user",
          "type": "address"
        },
        {
          "internalType": "uint256",
          "name": "rewardAmount",
          "type": "uint256"
        }
      ],
      "name": "pendingTokens",
      "outputs": [
        {
          "internalType": "contract IERC20[]",
          "name": "tokens",
          "type": "address[]"
        },
        {
          "internalType": "uint256[]",
          "name": "amounts",
          "type": "uint256[]"
        }
      ],
      "stateMutability": "view",
      "type": "function"
    },
    {
      "inputs": [
        {
          "internalType": "uint256",
          "name": "",
          "type": "uint256"
        },
        {
          "internalType": "address",
          "name": "user",
          "type": "address"
        },
        {
          "internalType": "uint256",
          "name": "rewardAmount",
          "type": "uint256"
        }
      ],
      "name": "pendingTokensDebt",
      "outputs": [
        {
          "internalType": "contract IERC20[]",
          "name": "tokens",
          "type": "address[]"
        },
        {
          "internalType": "uint256[]",
          "name": "amounts",
          "type": "uint256[]"
        }
      ],
      "stateMutability": "view",
      "type": "function"
    },
    {
      "inputs": [
        {
          "internalType": "uint256",
          "name": "",
          "type": "uint256"
        }
      ],
      "name": "rewardMultipliers",
      "outputs": [
        {
          "internalType": "uint256",
          "name": "",
          "type": "uint256"
        }
      ],
      "stateMutability": "view",
      "type": "function"
    },
    {
      "inputs": [
        {
          "internalType": "uint256",
          "name": "",
          "type": "uint256"
        }
      ],
      "name": "rewardTokens",
      "outputs": [
        {
          "internalType": "contract IERC20",
          "name": "",
          "type": "address"
        }
      ],
      "stateMutability": "view",
      "type": "function"
    }
  ],
  "bytecode": "0x60c06040523480156200001157600080fd5b506040516200189038038062001890833981810160405260808110156200003757600080fd5b81019080805160405193929190846401000000008211156200005857600080fd5b838201915060208201858111156200006f57600080fd5b82518660208202830111640100000000821117156200008d57600080fd5b8083526020830192505050908051906020019060200280838360005b83811015620000c6578082015181840152602081019050620000a9565b5050505090500160405260200180516040519392919084640100000000821115620000f057600080fd5b838201915060208201858111156200010757600080fd5b82518660208202830111640100000000821117156200012557600080fd5b8083526020830192505050908051906020019060200280838360005b838110156200015e57808201518184015260208101905062000141565b505050509050016040526020018051906020019092919080519060200190929190505050600084511180156200019657506064845111155b8015620001a4575082518451145b620001fb576040517f08c379a000000000000000000000000000000000000000000000000000000000815260040180806020018281038252602c81526020018062001810602c913960400191505060405180910390fd5b604d82111562000257576040517f08c379a0000000000000000000000000000000000000000000000000000000008152600401808060200182810382526039815260200180620017a66039913960400191505060405180910390fd5b600073ffffffffffffffffffffffffffffffffffffffff168173ffffffffffffffffffffffffffffffffffffffff161415620002df576040517f08c379a000000000000000000000000000000000000000000000000000000000815260040180806020018281038252602b8152602001806200183c602b913960400191505060405180910390fd5b60005b84518110156200040357600073ffffffffffffffffffffffffffffffffffffffff168582815181106200031157fe5b602002602001015173ffffffffffffffffffffffffffffffffffffffff16141562000388576040517f08c379a0000000000000000000000000000000000000000000000000000000008152600401808060200182810382526031815260200180620017df6031913960400191505060405180910390fd5b60008482815181106200039757fe5b602002602001015111620003f7576040517f08c379a0000000000000000000000000000000000000000000000000000000008152600401808060200182810382526029815260200180620018676029913960400191505060405180910390fd5b806001019050620002e2565b5083600090805190602001906200041c92919062000482565b5082600190805190602001906200043592919062000511565b5081600a0a60a081815250508073ffffffffffffffffffffffffffffffffffffffff1660808173ffffffffffffffffffffffffffffffffffffffff1660601b8152505050505050620005bf565b828054828255906000526020600020908101928215620004fe579160200282015b82811115620004fd5782518260006101000a81548173ffffffffffffffffffffffffffffffffffffffff021916908373ffffffffffffffffffffffffffffffffffffffff16021790555091602001919060010190620004a3565b5b5090506200050d919062000563565b5090565b82805482825590600052602060002090810192821562000550579160200282015b828111156200054f57825182559160200191906001019062000532565b5b5090506200055f9190620005a0565b5090565b5b808211156200059c57600081816101000a81549073ffffffffffffffffffffffffffffffffffffffff02191690555060010162000564565b5090565b5b80821115620005bb576000816000905550600101620005a1565b5090565b60805160601c60a0516111b6620005f0600039806105a25280610a1a5280610cf55250806104e952506111b66000f3fe608060405234801561001057600080fd5b506004361061007d5760003560e01c8063ba782bee1161005b578063ba782bee1461017b578063c4f59f9b146101e9578063d63b3c4914610248578063f2f3e82d1461033d5761007d565b806337e211ba146100825780637bb7bed1146100e1578063981962a714610139575b600080fd5b61008a610432565b6040518080602001828103825283818151815260200191508051906020019060200280838360005b838110156100cd5780820151818401526020810190506100b2565b505050509050019250505060405180910390f35b61010d600480360360208110156100f757600080fd5b810190808035906020019092919050505061048a565b604051808273ffffffffffffffffffffffffffffffffffffffff16815260200191505060405180910390f35b6101656004803603602081101561014f57600080fd5b81019080803590602001909291905050506104c6565b6040518082815260200191505060405180910390f35b6101e7600480360360a081101561019157600080fd5b8101908080359060200190929190803573ffffffffffffffffffffffffffffffffffffffff16906020019092919080351515906020019092919080359060200190929190803590602001909291905050506104e7565b005b6101f1610924565b6040518080602001828103825283818151815260200191508051906020019060200280838360005b83811015610234578082015181840152602081019050610219565b505050509050019250505060405180910390f35b61029e6004803603606081101561025e57600080fd5b8101908080359060200190929190803573ffffffffffffffffffffffffffffffffffffffff169060200190929190803590602001909291905050506109b2565b604051808060200180602001838103835285818151815260200191508051906020019060200280838360005b838110156102e55780820151818401526020810190506102ca565b50505050905001838103825284818151815260200191508051906020019060200280838360005b8381101561032757808201518184015260208101905061030c565b5050505090500194505050505060405180910390f35b6103936004803603606081101561035357600080fd5b8101908080359060200190929190803573ffffffffffffffffffffffffffffffffffffffff16906020019092919080359060200190929190505050610c8d565b604051808060200180602001838103835285818151815260200191508051906020019060200280838360005b838110156103da5780820151818401526020810190506103bf565b50505050905001838103825284818151815260200191508051906020019060200280838360005b8381101561041c578082015181840152602081019050610401565b5050505090500194505050505060405180910390f35b6060600180548060200260200160405190810160405280929190818152602001828054801561048057602002820191906000526020600020905b81548152602001906001019080831161046c575b5050505050905090565b6000818154811061049757fe5b906000526020600020016000915054906101000a900473ffffffffffffffffffffffffffffffffffffffff1681565b600181815481106104d357fe5b906000526020600020016000915090505481565b7f000000000000000000000000000000000000000000000000000000000000000073ffffffffffffffffffffffffffffffffffffffff163373ffffffffffffffffffffffffffffffffffffffff161461058b576040517f08c379a00000000000000000000000000000000000000000000000000000000081526004018080602001828103825260218152602001806111606021913960400191505060405180910390fd5b60005b60008054905081101561091c5760006106527f00000000000000000000000000000000000000000000000000000000000000006105eb600185815481106105d157fe5b906000526020600020015487610e6490919063ffffffff16565b816105f257fe5b04600260008973ffffffffffffffffffffffffffffffffffffffff1673ffffffffffffffffffffffffffffffffffffffff168152602001908152602001600020600085815260200190815260200160002054610ef990919063ffffffff16565b9050600080838154811061066257fe5b9060005260206000200160009054906101000a900473ffffffffffffffffffffffffffffffffffffffff1673ffffffffffffffffffffffffffffffffffffffff166370a08231306040518263ffffffff1660e01b8152600401808273ffffffffffffffffffffffffffffffffffffffff16815260200191505060206040518083038186803b1580156106f357600080fd5b505afa158015610707573d6000803e3d6000fd5b505050506040513d602081101561071d57600080fd5b810190808051906020019092919050505090508561078f5781600260008973ffffffffffffffffffffffffffffffffffffffff1673ffffffffffffffffffffffffffffffffffffffff16815260200190815260200160002060008581526020019081526020016000208190555061090f565b8082111561085557808203600260008973ffffffffffffffffffffffffffffffffffffffff1673ffffffffffffffffffffffffffffffffffffffff16815260200190815260200160002060008581526020019081526020016000208190555061085087826000868154811061080057fe5b9060005260206000200160009054906101000a900473ffffffffffffffffffffffffffffffffffffffff1673ffffffffffffffffffffffffffffffffffffffff16610f7c9092919063ffffffff16565b61090e565b6000600260008973ffffffffffffffffffffffffffffffffffffffff1673ffffffffffffffffffffffffffffffffffffffff16815260200190815260200160002060008581526020019081526020016000208190555061090d8783600086815481106108bd57fe5b9060005260206000200160009054906101000a900473ffffffffffffffffffffffffffffffffffffffff1673ffffffffffffffffffffffffffffffffffffffff16610f7c9092919063ffffffff16565b5b5b505080600101905061058e565b505050505050565b606060008054806020026020016040519081016040528092919081815260200182805480156109a857602002820191906000526020600020905b8160009054906101000a900473ffffffffffffffffffffffffffffffffffffffff1673ffffffffffffffffffffffffffffffffffffffff168152602001906001019080831161095e575b5050505050905090565b60608060008054905067ffffffffffffffff811180156109d157600080fd5b50604051908082528060200260200182016040528015610a005781602001602082028036833780820191505090505b50905060005b600080549050811015610bf5576000610aca7f0000000000000000000000000000000000000000000000000000000000000000610a6360018581548110610a4957fe5b906000526020600020015488610e6490919063ffffffff16565b81610a6a57fe5b04600260008973ffffffffffffffffffffffffffffffffffffffff1673ffffffffffffffffffffffffffffffffffffffff168152602001908152602001600020600085815260200190815260200160002054610ef990919063ffffffff16565b90506000808381548110610ada57fe5b9060005260206000200160009054906101000a900473ffffffffffffffffffffffffffffffffffffffff1673ffffffffffffffffffffffffffffffffffffffff166370a08231306040518263ffffffff1660e01b8152600401808273ffffffffffffffffffffffffffffffffffffffff16815260200191505060206040518083038186803b158015610b6b57600080fd5b505afa158015610b7f573d6000803e3d6000fd5b505050506040513d6020811015610b9557600080fd5b8101908080519060200190929190505050905080821115610bce5780848481518110610bbd57fe5b602002602001018181525050610be8565b81848481518110610bdb57fe5b6020026020010181815250505b5050806001019050610a06565b5060008181805480602002602001604051908101604052809291908181526020018280548015610c7a57602002820191906000526020600020905b8160009054906101000a900473ffffffffffffffffffffffffffffffffffffffff1673ffffffffffffffffffffffffffffffffffffffff1681526020019060010190808311610c30575b5050505050915091509150935093915050565b60608060008054905067ffffffffffffffff81118015610cac57600080fd5b50604051908082528060200260200182016040528015610cdb5781602001602082028036833780820191505090505b50905060005b600080549050811015610dcc576000610da57f0000000000000000000000000000000000000000000000000000000000000000610d3e60018581548110610d2457fe5b906000526020600020015488610e6490919063ffffffff16565b81610d4557fe5b04600260008973ffffffffffffffffffffffffffffffffffffffff1673ffffffffffffffffffffffffffffffffffffffff168152602001908152602001600020600085815260200190815260200160002054610ef990919063ffffffff16565b905080838381518110610db457fe5b60200260200101818152505050806001019050610ce1565b5060008181805480602002602001604051908101604052809291908181526020018280548015610e5157602002820191906000526020600020905b8160009054906101000a900473ffffffffffffffffffffffffffffffffffffffff1673ffffffffffffffffffffffffffffffffffffffff1681526020019060010190808311610e07575b5050505050915091509150935093915050565b600080821480610e815750828283850292508281610e7e57fe5b04145b610ef3576040517f08c379a00000000000000000000000000000000000000000000000000000000081526004018080602001828103825260188152602001807f426f72696e674d6174683a204d756c204f766572666c6f77000000000000000081525060200191505060405180910390fd5b92915050565b6000818284019150811015610f76576040517f08c379a00000000000000000000000000000000000000000000000000000000081526004018080602001828103825260188152602001807f426f72696e674d6174683a20416464204f766572666c6f77000000000000000081525060200191505060405180910390fd5b92915050565b600060608473ffffffffffffffffffffffffffffffffffffffff1663a9059cbb8585604051602401808373ffffffffffffffffffffffffffffffffffffffff168152602001828152602001925050506040516020818303038152906040529060e01b6020820180517bffffffffffffffffffffffffffffffffffffffffffffffffffffffff83818316178352505050506040518082805190602001908083835b6020831061103f578051825260208201915060208101905060208303925061101c565b6001836020036101000a0380198251168184511680821785525050505050509050019150506000604051808303816000865af19150503d80600081146110a1576040519150601f19603f3d011682016040523d82523d6000602084013e6110a6565b606091505b50915091508180156110e657506000815114806110e557508080602001905160208110156110d357600080fd5b81019080805190602001909291905050505b5b611158576040517f08c379a000000000000000000000000000000000000000000000000000000000815260040180806020018281038252601c8152602001807f426f72696e6745524332303a205472616e73666572206661696c65640000000081525060200191505060405180910390fd5b505050505056fe4f6e6c79204d4356322063616e2063616c6c20746869732066756e6374696f6e2ea26469706673582212209d648d2cd121fe05197db4b94e7090d68dfc8347a7c41932a33eb2446bd4766a64736f6c634300060c003352657761726465725669614d756c7469706c6965723a3a496e76616c696420626173652072657761726420746f6b656e20646563696d616c7352657761726465725669614d756c7469706c6965723a3a43616e6e6f7420726577617264207a65726f206164647265737352657761726465725669614d756c7469706c6965723a3a496e76616c696420696e707574206c656e6774687352657761726465725669614d756c7469706c6965723a3a496e76616c69642063686566206164647265737352657761726465725669614d756c7469706c6965723a3a496e76616c6964206d756c7469706c696572",
  "linkReferences": {},
  "deployedLinkReferences": {}
}