{
  "_format": "hh-sol-artifact-1",
  "contractName": "BabylonianTest",
  "sourceName": "contracts/arcanum-lib/test/BabylonianTest.sol",
  "abi": [
    {
      "inputs": [
        {
          "internalType": "uint256",
          "name": "num",
          "type": "uint256"
        }
      ],
      "name": "sqrt",
      "outputs": [
        {
          "internalType": "uint256",
          "name": "",
          "type": "uint256"
        }
      ],
      "stateMutability": "pure",
      "type": "function"
    }
  ],
  "bytecode": "0x608060405234801561001057600080fd5b5061019f806100206000396000f3fe608060405234801561001057600080fd5b506004361061002b5760003560e01c8063677342ce14610030575b600080fd5b61004361003e3660046100d6565b610055565b60405190815260200160405180910390f35b600061006082610066565b92915050565b600060038211156100c757508060006100806002836100ef565b61008b90600161012a565b90505b818110156100c1579050806002816100a681866100ef565b6100b0919061012a565b6100ba91906100ef565b905061008e565b50919050565b81156100d1575060015b919050565b6000602082840312156100e857600080fd5b5035919050565b600082610125577f4e487b7100000000000000000000000000000000000000000000000000000000600052601260045260246000fd5b500490565b60008219821115610164577f4e487b7100000000000000000000000000000000000000000000000000000000600052601160045260246000fd5b50019056fea2646970667358221220a5e71ccbe75436226877e5c3d4075718d1cfe217ff3bb59b753c2ed1b8a2031e64736f6c634300080f0033",
  "linkReferences": {},
  "deployedLinkReferences": {}
}